{
  "contractName": "ClassroomFactory",
  "abi": [
    {
      "inputs": [
        {
          "internalType": "bytes32",
          "name": "name",
          "type": "bytes32"
        },
        {
          "internalType": "uint24",
          "name": "principalCut",
          "type": "uint24"
        },
        {
          "internalType": "uint24",
          "name": "poolCut",
          "type": "uint24"
        },
        {
          "internalType": "int32",
          "name": "minScore",
          "type": "int32"
        },
        {
          "internalType": "uint256",
          "name": "entryPrice",
          "type": "uint256"
        },
        {
          "internalType": "uint256",
          "name": "duration",
          "type": "uint256"
        },
        {
          "internalType": "address payable",
          "name": "universityAddress",
          "type": "address"
        },
        {
          "internalType": "address",
          "name": "challengeAddress",
          "type": "address"
        },
        {
          "internalType": "address",
          "name": "daiAddress",
          "type": "address"
        },
        {
          "internalType": "address",
          "name": "compoundAddress",
          "type": "address"
        },
        {
          "internalType": "address",
          "name": "studentApplicationFactoryAddress",
          "type": "address"
        }
      ],
      "name": "newClassroom",
      "outputs": [
        {
          "internalType": "address",
          "name": "classroomAddress",
          "type": "address"
        }
      ],
      "stateMutability": "nonpayable",
      "type": "function"
    }
  ],
  "bytecode": "0x608060405234801561001057600080fd5b5061473a806100206000396000f3fe608060405234801561001057600080fd5b506004361061002b5760003560e01c8063f9a84f9614610030575b600080fd5b6100ac600480360361016081101561004757600080fd5b5080359062ffffff6020820135811691604081013590911690606081013560030b9060808101359060a0810135906001600160a01b0360c082013581169160e081013582169161010082013581169161012081013582169161014090910135166100c8565b604080516001600160a01b039092168252519081900360200190f35b6000808c8c8c8c8c8c8c8c8c8c8c6040516100e2906101e1565b9a8b5262ffffff998a1660208c0152979098166040808b0191909152600396870b90960b60608a0152608089019490945260a08801929092526001600160a01b0390811660c088015290811660e08701529081166101008601529283166101208501529116610140830152519081900361016001906000f08015801561016c573d6000803e3d6000fd5b506040805163f2fde38b60e01b815233600482015290519192506001600160a01b0383169163f2fde38b9160248082019260009290919082900301818387803b1580156101b857600080fd5b505af11580156101cc573d6000803e3d6000fd5b50929f9e505050505050505050505050505050565b614516806101ef8339019056fe60806040523480156200001157600080fd5b50604051620045163803806200451683398181016040526101608110156200003857600080fd5b508051602082015160408301516060840151608085015160a086015160c087015160e08801516101008901516101208a0151610140909a0151989997989697959694959394929391929091906000620000996001600160e01b03620001e516565b600080546001600160a01b0319166001600160a01b0383169081178255604051929350917f8be0079c531659141344cd1fd0a4f28419497f9722a3daafe3b4186f6b6457e0908290a35060099a909a55600a805462ffffff191662ffffff9a8b161765ffffff0000001916630100000099909a16989098029890981763ffffffff60301b1916660100000000000063ffffffff60039890980b979097169690960295909517909555600b92909255600c556207a120600d5560018054600e80546001600160a01b03199081166001600160a01b03978816179091559081169285169290921762ff00ff60a01b19169055600f805482169284169290921790915560108054821693831693909317909255601280549092169216919091179055604080516000406020808301919091528251808303820181529183019092528051910120600855620001e9565b3390565b61431d80620001f96000396000f3fe608060405234801561001057600080fd5b50600436106103395760003560e01c80638646bcec116101b4578063b0f1eaa2116100fa578063e804f1641161009d578063e804f16414610678578063e9d337b81461069a578063e9ead521146106a2578063eb7ab29d146106aa578063f2fde38b146106b2578063f745adfc146106d8578063faaecf37146106e0578063fe7da9e9146106e857610339565b8063b0f1eaa2146105f0578063b594f0861461060d578063bbe3b9261461062a578063be22f54614610632578063c24a0f8b1461063a578063c799f5e214610642578063ca58298e14610668578063d4213fad1461067057610339565b8063988b643811610162578063988b6438146105925780639e6e0b5f1461059a578063a3f73c2d146105a2578063a46268a8146105c8578063aa055a40146105d0578063aaaed76f146105d8578063adf45ef2146105e0578063ae12894e146105e857610339565b80638646bcec1461054557806387429a9c1461054d578063898855ed146105555780638b45fb67146105725780638cf086ad1461057a5780638da5cb5b14610582578063952f1c141461058a57610339565b80633ca55833116102845780636e8055a7116102275780636e8055a7146104cd5780636f6941b9146104d5578063715018a6146104dd57806376eada91146104e55780637c0260cb1461050b5780637f419df5146105135780638155e9771461051b578063834a320c1461053d57610339565b80633ca5583314610446578063431a16ef1461044e57806345877877146104565780634c5e7893146104755780634ffb660c1461047d5780635aa33a2d1461049d578063604d3943146104a55780636ae88cc2146104c557610339565b80631a38a4fb116102ec5780631a38a4fb146103ea5780631b9dbc601461040e5780632058e90614610416578063277a74b71461041e57806329d1887914610426578063319600271461042e5780633bcd97d4146104365780633c1656051461043e57610339565b80624f84111461033e57806306fdde031461035d5780630b78cb0e146103775780630b97bc86146103935780630fb5a6b41461039b57806313c2bedc146103a357806318b9533b146103c4575b600080fd5b61035b6004803603602081101561035457600080fd5b5035610705565b005b6103656107a4565b60408051918252519081900360200190f35b61037f6107aa565b604080519115158252519081900360200190f35b6103656107ba565b6103656107c0565b6103ab6107c6565b60408051600392830b90920b8252519081900360200190f35b61035b600480360360208110156103da57600080fd5b50356001600160a01b03166107d6565b6103f26107e2565b604080516001600160a01b039092168252519081900360200190f35b61035b6107f1565b610365610b76565b61035b610b7c565b6103f2610c6d565b61035b610c7c565b61037f610df7565b61035b610e17565b6103f2610ec1565b61035b610ed0565b61045e611106565b6040805161ffff9092168252519081900360200190f35b61035b61112e565b61035b6004803603602081101561049357600080fd5b503560030b61126e565b61037f611333565b6104ad611343565b6040805162ffffff9092168252519081900360200190f35b610365611355565b6103f2611459565b6103f2611470565b61035b61147f565b6103f2600480360360208110156104fb57600080fd5b50356001600160a01b0316611521565b61035b6115c3565b61035b6116a7565b61035b6004803603602081101561053157600080fd5b503562ffffff1661174c565b6103656117f6565b6104ad6118f0565b6103f26118fb565b61035b6004803603602081101561056b57600080fd5b503561190a565b6103f261199d565b6103656119a7565b6103f26119ad565b6103656119bc565b61035b611ab8565b610365611b62565b61035b600480360360208110156105b857600080fd5b50356001600160a01b0316611b68565b61037f611c5d565b61035b611c6d565b6103f2611d91565b61037f611da0565b6103f2611da8565b6103656004803603602081101561060657600080fd5b5035611db7565b61035b6004803603602081101561062357600080fd5b5035611dd5565b61035b611e68565b6103f261208c565b61036561209b565b61035b6004803603602081101561065857600080fd5b50356001600160a01b03166120a1565b6103656122b7565b610365612318565b61035b6004803603602081101561068e57600080fd5b503562ffffff1661231e565b6103f26123d6565b6103656123e5565b61035b6123eb565b61035b600480360360208110156106c857600080fd5b50356001600160a01b031661249f565b610365612597565b61035b61259d565b61035b600480360360208110156106fe57600080fd5b5035612647565b61070d6126da565b6000546001600160a01b0390811691161461075d576040805162461bcd60e51b815260206004820181905260248201526000805160206141df833981519152604482015290519081900360640190fd5b620f424081111561079f5760405162461bcd60e51b81526004018080602001828103825260298152602001806140d26029913960400191505060405180910390fd5b600d55565b60095481565b600154600160a01b900460ff1681565b60025481565b600c5481565b600a54600160301b900460030b81565b6107df8161249f565b50565b6011546001600160a01b031681565b6107f96119ad565b6001600160a01b031661080a6126da565b6001600160a01b0316637a6c8b536040518163ffffffff1660e01b815260040160206040518083038186803b15801561084257600080fd5b505afa158015610856573d6000803e3d6000fd5b505050506040513d602081101561086c57600080fd5b50516001600160a01b031614156108b45760405162461bcd60e51b815260040180806020018281038252602d815260200180614147602d913960400191505060405180910390fd5b6001546001600160a01b03166316ded1ce6108cd6126da565b6040518263ffffffff1660e01b815260040180826001600160a01b03166001600160a01b0316815260200191505060206040518083038186803b15801561091357600080fd5b505afa158015610927573d6000803e3d6000fd5b505050506040513d602081101561093d57600080fd5b505161097a5760405162461bcd60e51b81526004018080602001828103825260248152602001806142576024913960400191505060405180910390fd5b60006109846126da565b9050600a60069054906101000a900460030b60030b816001600160a01b031663efedc6696040518163ffffffff1660e01b815260040160206040518083038186803b1580156109d257600080fd5b505afa1580156109e6573d6000803e3d6000fd5b505050506040513d60208110156109fc57600080fd5b505160030b1215610a3e5760405162461bcd60e51b815260040180806020018281038252602c81526020018061400f602c913960400191505060405180910390fd5b600154600160a01b900460ff16610a9c576040805162461bcd60e51b815260206004820152601e60248201527f436c617373726f6f6d3a206170706c69636174696f6e7320636c6f7365640000604482015290519081900360640190fd5b6000610aa7826126de565b6004805460018101825560008281527f8a35acfbc15ff81a39ae7d344fd709f28e8600b4aa8c65c6b64bfe7fe36bd19b90910180546001600160a01b0319166001600160a01b03858116918217909255600f54600b546040805163095ea7b360e01b81529687019390935260248601529051949550169263095ea7b3926044808201936020939283900390910190829087803b158015610b4657600080fd5b505af1158015610b5a573d6000803e3d6000fd5b505050506040513d6020811015610b7057600080fd5b50505050565b60185481565b601b54600461ffff90911611610bc35760405162461bcd60e51b815260040180806020018281038252602a81526020018061411d602a913960400191505060405180910390fd5b601b54600661ffff90911610610c0e576040805162461bcd60e51b815260206004820152601c60248201526000805160206142c8833981519152604482015290519081900360640190fd5b610c16612849565b601b805461ffff1916600617905560055460175460185460408051938452602084019290925282820152517f25bd084be7f52c51c3d64c3b3b3660c8f5cdf41263f738f0e2e379f30fc3d63c9181900360600190a1565b600e546001600160a01b031681565b610c846126da565b6000546001600160a01b03908116911614610cd4576040805162461bcd60e51b815260206004820181905260248201526000805160206141df833981519152604482015290519081900360640190fd5b6015546001600160a01b0316610d31576040805162461bcd60e51b815260206004820152601b60248201527f436c617373726f6f6d3a20736574757020416176652066697273740000000000604482015290519081900360640190fd5b600154600160a01b900460ff1615610d7a5760405162461bcd60e51b815260040180806020018281038252602a81526020018061427b602a913960400191505060405180910390fd5b60045415610db95760405162461bcd60e51b81526004018080602001828103825260228152602001806140fb6022913960400191505060405180910390fd5b6001805460ff60a01b1916600160a01b1790556040517fa5d188159e8a15dc503f9fde55e9da14c8b2ca589603e2567481c0ef90b7972090600090a1565b600554600454600091610e10919063ffffffff612c0d16565b1590505b90565b601b54600161ffff90911611610e5e5760405162461bcd60e51b815260040180806020018281038252602d815260200180614060602d913960400191505060405180910390fd5b601b54600361ffff90911610610ea9576040805162461bcd60e51b815260206004820152601c60248201526000805160206142c8833981519152604482015290519081900360640190fd5b610eb1612c70565b601b805461ffff19166003179055565b6015546001600160a01b031681565b610ed86126da565b6000546001600160a01b03908116911614610f28576040805162461bcd60e51b815260206004820181905260248201526000805160206141df833981519152604482015290519081900360640190fd5b600554610f7c576040805162461bcd60e51b815260206004820152601a60248201527f436c617373726f6f6d3a206e6f206170706c69636174696f6e73000000000000604482015290519081900360640190fd5b600354421015610fbd5760405162461bcd60e51b81526004018080602001828103825260248152602001806141956024913960400191505060405180910390fd5b600f54604080516370a0823160e01b815230600482015290516001600160a01b03909216916370a0823191602480820192602092909190829003018186803b15801561100857600080fd5b505afa15801561101c573d6000803e3d6000fd5b505050506040513d602081101561103257600080fd5b505160075561103f612ff2565b6001805460ff60a81b1916600160a81b179055600754600f54604080516370a0823160e01b815230600482015290517f884cb8440b1a6c479c2a6b45b818145699670aeb418ea54778fec699e2030b6493926001600160a01b0316916370a08231916024808301926020929190829003018186803b1580156110c057600080fd5b505afa1580156110d4573d6000803e3d6000fd5b505050506040513d60208110156110ea57600080fd5b50516040805192835260208301919091528051918290030190a1565b600154600090600160a81b900460ff166111235750600019610e14565b50601b5461ffff1690565b6111366126da565b6000546001600160a01b03908116911614611186576040805162461bcd60e51b815260206004820181905260248201526000805160206141df833981519152604482015290519081900360640190fd5b61118e610df7565b6111d8576040805162461bcd60e51b8152602060048201526016602482015275436c617373726f6f6d206973206e6f7420656d70747960501b604482015290519081900360640190fd5b600f5461126c906001600160a01b03166111f06119ad565b600f54604080516370a0823160e01b815230600482015290516001600160a01b03909216916370a0823191602480820192602092909190829003018186803b15801561123b57600080fd5b505afa15801561124f573d6000803e3d6000fd5b505050506040513d602081101561126557600080fd5b50516131c9565b565b6112766126da565b6000546001600160a01b039081169116146112c6576040805162461bcd60e51b815260206004820181905260248201526000805160206141df833981519152604482015290519081900360640190fd5b600a8054600383810b63ffffffff16600160301b90810269ffffffff0000000000001990931692909217928390556040805192909304810b810b900b815290517f258981eaba02423980e2973ff2ae3bbbba3cc807a5b73faf8f0b068dd7b2af649181900360200190a150565b600154600160a81b900460ff1681565b600a546301000000900462ffffff1681565b600061135f6126da565b6000546001600160a01b039081169116146113af576040805162461bcd60e51b815260206004820181905260248201526000805160206141df833981519152604482015290519081900360640190fd5b60005b60045481101561145557600481815481106113c957fe5b60009182526020918290200154604080516332c3db0f60e11b815290516001600160a01b0390921692636587b61e92600480840193829003018186803b15801561141257600080fd5b505afa158015611426573d6000803e3d6000fd5b505050506040513d602081101561143c57600080fd5b50516001141561144d576001909101905b6001016113b2565b5090565b600061146b6114666126da565b611521565b905090565b6010546001600160a01b031681565b6114876126da565b6000546001600160a01b039081169116146114d7576040805162461bcd60e51b815260206004820181905260248201526000805160206141df833981519152604482015290519081900360640190fd5b600080546040516001600160a01b03909116907f8be0079c531659141344cd1fd0a4f28419497f9722a3daafe3b4186f6b6457e0908390a3600080546001600160a01b0319169055565b600061152b6126da565b6001600160a01b0316826001600160a01b03161480611569575061154d6119ad565b6001600160a01b031661155e6126da565b6001600160a01b0316145b6115a45760405162461bcd60e51b81526004018080602001828103825260218152602001806140b16021913960400191505060405180910390fd5b506001600160a01b039081166000908152600660205260409020541690565b6115cb6126da565b6000546001600160a01b0390811691161461161b576040805162461bcd60e51b815260206004820181905260248201526000805160206141df833981519152604482015290519081900360640190fd5b600154600160a01b900460ff166116635760405162461bcd60e51b815260040180806020018281038252602a8152602001806141ff602a913960400191505060405180910390fd5b6001805460ff60a01b1916905560045460408051918252517f570829bf5af0c68d7f2f57b79598367fcfccd0a2ea8d6b4279b4aee93d6465a49181900360200190a1565b601b5461ffff166116e95760405162461bcd60e51b8152600401808060200182810382526024815260200180613fc56024913960400191505060405180910390fd5b601b54600261ffff90911610611734576040805162461bcd60e51b815260206004820152601c60248201526000805160206142c8833981519152604482015290519081900360640190fd5b61173c613333565b601b805461ffff19166002179055565b6117546126da565b6000546001600160a01b039081169116146117a4576040805162461bcd60e51b815260206004820181905260248201526000805160206141df833981519152604482015290519081900360640190fd5b600a805462ffffff191662ffffff838116919091179182905560408051929091168252517fa24cdd22388a51f932026d20d3229c1d693385bb9ac176742e0e40b4586c2447916020908290030190a150565b60006118006126da565b6000546001600160a01b03908116911614611850576040805162461bcd60e51b815260206004820181905260248201526000805160206141df833981519152604482015290519081900360640190fd5b600154600160a81b900460ff1661186857600061146b565b600754600f54604080516370a0823160e01b8152306004820152905161146b93926001600160a01b0316916370a08231916024808301926020929190829003018186803b1580156118b857600080fd5b505afa1580156118cc573d6000803e3d6000fd5b505050506040513d60208110156118e257600080fd5b50519063ffffffff61347216565b600a5462ffffff1681565b6013546001600160a01b031681565b6119126126da565b6000546001600160a01b03908116911614611962576040805162461bcd60e51b815260206004820181905260248201526000805160206141df833981519152604482015290519081900360640190fd5b60098190556040805182815290517f9f8929be552430dd6434c446d106c34954b2040ca8c4dbf42a39323dd6cda3ca9181900360200190a150565b600061146b6119ad565b60175481565b6000546001600160a01b031690565b60006119c66126da565b6000546001600160a01b03908116911614611a16576040805162461bcd60e51b815260206004820181905260248201526000805160206141df833981519152604482015290519081900360640190fd5b60005b6004548110156114555760048181548110611a3057fe5b60009182526020918290200154604080516332c3db0f60e11b815290516001600160a01b0390921692636587b61e92600480840193829003018186803b158015611a7957600080fd5b505afa158015611a8d573d6000803e3d6000fd5b505050506040513d6020811015611aa357600080fd5b5051611ab0576001909101905b600101611a19565b601b54600361ffff90911611611aff5760405162461bcd60e51b815260040180806020018281038252602e815260200180614229602e913960400191505060405180910390fd5b601b54600561ffff90911610611b4a576040805162461bcd60e51b815260206004820152601c60248201526000805160206142c8833981519152604482015290519081900360640190fd5b611b526134b4565b601b805461ffff19166005179055565b600d5481565b611b706126da565b6000546001600160a01b03908116911614611bc0576040805162461bcd60e51b815260206004820181905260248201526000805160206141df833981519152604482015290519081900360640190fd5b611bc8610df7565b611c035760405162461bcd60e51b815260040180806020018281038252602581526020018061403b6025913960400191505060405180910390fd5b600e80546001600160a01b0319166001600160a01b03838116919091179182905560408051929091168252517fdc58b28697ffd1bd5879b16631587874caec982b482d7ed05df69a5302f6e018916020908290030190a150565b600154600160b01b900460ff1681565b600154600160a81b900460ff16611ccb576040805162461bcd60e51b815260206004820152601e60248201527f436c617373726f6f6d3a20636f75727365206e6f742066696e69736865640000604482015290519081900360640190fd5b611cd36117f6565b601655600554600b54611ceb9163ffffffff61354816565b6016541015611d2b5760405162461bcd60e51b815260040180806020018281038252602481526020018061408d6024913960400191505060405180910390fd5b601b805461ffff1916600117905560055467ffffffffffffffff81118015611d5257600080fd5b50604051908082528060200260200182016040528015611d7c578160200160208202803683370190505b5080516107df91601a91602090910190613eb5565b6012546001600160a01b031681565b600554151590565b6001546001600160a01b031681565b601a8181548110611dc457fe5b600091825260209091200154905081565b611ddd6126da565b6000546001600160a01b03908116911614611e2d576040805162461bcd60e51b815260206004820181905260248201526000805160206141df833981519152604482015290519081900360640190fd5b600c8190556040805182815290517fa67f34afb53d068e81607cde52dc74c58cbf6a05eac699e5543b97d25e3ca5cb9181900360200190a150565b611e706126da565b6000546001600160a01b03908116911614611ec0576040805162461bcd60e51b815260206004820181905260248201526000805160206141df833981519152604482015290519081900360640190fd5b600154600160a01b900460ff1615611f095760405162461bcd60e51b81526004018080602001828103825260268152602001806141b96026913960400191505060405180910390fd5b600154600160b01b900460ff1615611f68576040805162461bcd60e51b815260206004820152601e60248201527f436c617373726f6f6d3a20636f7572736520616c7265616479206f70656e0000604482015290519081900360640190fd5b611f706135a1565b600f54604080516370a0823160e01b815230600482015290517f9b8008eabc54d4263952efeec4dddc8d7e3157864d2abd44dfd785bfdae09541926001600160a01b0316916370a08231916024808301926020929190829003018186803b158015611fda57600080fd5b505afa158015611fee573d6000803e3d6000fd5b505050506040513d602081101561200457600080fd5b505160045460055460408051938452602084019290925282820152519081900360600190a1604080516000815260208101918290525161204691600491613efc565b506005546120535761126c565b61205b613769565b6001805460ff60b01b1916600160b01b179055426002819055600c54612087919063ffffffff612c0d16565b600355565b600f546001600160a01b031681565b60035481565b6120a96126da565b6000546001600160a01b039081169116146120f9576040805162461bcd60e51b815260206004820181905260248201526000805160206141df833981519152604482015290519081900360640190fd5b601380546001600160a01b0319166001600160a01b0383811691909117918290556040805163076b7fbb60e51b81529051929091169163ed6ff76091600480820192602092909190829003018186803b15801561215557600080fd5b505afa158015612169573d6000803e3d6000fd5b505050506040513d602081101561217f57600080fd5b5051601580546001600160a01b0319166001600160a01b0392831617905560135460408051630261bf8b60e01b815290519190921691630261bf8b916004808301926020929190829003018186803b1580156121da57600080fd5b505afa1580156121ee573d6000803e3d6000fd5b505050506040513d602081101561220457600080fd5b5051601480546001600160a01b0319166001600160a01b03928316179055601554600f5460408051631a59df7760e11b815291841660048301525191909216916334b3beee916024808301926020929190829003018186803b15801561226957600080fd5b505afa15801561227d573d6000803e3d6000fd5b505050506040513d602081101561229357600080fd5b5051601180546001600160a01b0319166001600160a01b0390921691909117905550565b60006122c16126da565b6000546001600160a01b03908116911614612311576040805162461bcd60e51b815260206004820181905260248201526000805160206141df833981519152604482015290519081900360640190fd5b5060055490565b60195481565b6123266126da565b6000546001600160a01b03908116911614612376576040805162461bcd60e51b815260206004820181905260248201526000805160206141df833981519152604482015290519081900360640190fd5b600a805462ffffff808416630100000090810265ffffff000000199093169290921792839055604080519290930416815290517f9d9f9ef51b12eb719684b7a2e09fc2f7e916cb0e229aecf5658ce6326dfeb1c59181900360200190a150565b6014546001600160a01b031681565b60165481565b6123f36126da565b6000546001600160a01b03908116911614612443576040805162461bcd60e51b815260206004820181905260248201526000805160206141df833981519152604482015290519081900360640190fd5b601b54600561ffff9091161161248a5760405162461bcd60e51b8152600401808060200182810382526029815260200180613f9c6029913960400191505060405180910390fd5b612492613844565b601b805461ffff19169055565b6124a76126da565b6000546001600160a01b039081169116146124f7576040805162461bcd60e51b815260206004820181905260248201526000805160206141df833981519152604482015290519081900360640190fd5b6001600160a01b03811661253c5760405162461bcd60e51b8152600401808060200182810382526026815260200180613fe96026913960400191505060405180910390fd5b600080546040516001600160a01b03808516939216917f8be0079c531659141344cd1fd0a4f28419497f9722a3daafe3b4186f6b6457e091a3600080546001600160a01b0319166001600160a01b0392909216919091179055565b600b5481565b601b54600261ffff909116116125e45760405162461bcd60e51b81526004018080602001828103825260238152602001806142a56023913960400191505060405180910390fd5b601b54600461ffff9091161061262f576040805162461bcd60e51b815260206004820152601c60248201526000805160206142c8833981519152604482015290519081900360640190fd5b6126376138be565b601b805461ffff19166004179055565b61264f6126da565b6000546001600160a01b0390811691161461269f576040805162461bcd60e51b815260206004820181905260248201526000805160206141df833981519152604482015290519081900360640190fd5b600b8190556040805182815290517f84e881bf3fcef92f709a2a62150da178a998fbff128c017f3e846787a2f7f5f59181900360200190a150565b3390565b601254600f54600e5460015460009384936001600160a01b039182169363cd720b23938893309381169281169116612714613959565b604080516001600160e01b031960e08a901b1681526001600160a01b039788166004820152958716602487015293861660448601529185166064850152909316608483015260a4820192909252905160c48083019260209291908290030181600087803b15801561278457600080fd5b505af1158015612798573d6000803e3d6000fd5b505050506040513d60208110156127ae57600080fd5b50516001600160a01b0384811660008181526006602052604080822080546001600160a01b0319168587169081179091556001548251620c1d9360e91b81526004810195909552602485019190915290519495509092169263183b26009260448084019391929182900301818387803b15801561282a57600080fd5b505af115801561283e573d6000803e3d6000fd5b509295945050505050565b601b5461ffff1660051461285957fe5b60005b6005548110156107df5760006005828154811061287557fe5b60009182526020918290200154604080516332c3db0f60e11b815290516001600160a01b0390921692636587b61e92600480840193829003018186803b1580156128be57600080fd5b505afa1580156128d2573d6000803e3d6000fd5b505050506040513d60208110156128e857600080fd5b5051905060038114156129f457600154600580546001600160a01b03909216916387bfe18891908590811061291957fe5b600091825260209182902001546040805163b8f31a8160e01b815290516001600160a01b039092169263b8f31a8192600480840193829003018186803b15801561296257600080fd5b505afa158015612976573d6000803e3d6000fd5b505050506040513d602081101561298c57600080fd5b5051604080516001600160e01b031960e085901b1681526001600160a01b0390921660048301526001602483015251604480830192600092919082900301818387803b1580156129db57600080fd5b505af11580156129ef573d6000803e3d6000fd5b505050505b8060041415612afc57600154600580546001600160a01b039092169163ff5d8f63919085908110612a2157fe5b600091825260209182902001546040805163b8f31a8160e01b815290516001600160a01b039092169263b8f31a8192600480840193829003018186803b158015612a6a57600080fd5b505afa158015612a7e573d6000803e3d6000fd5b505050506040513d6020811015612a9457600080fd5b5051604080516001600160e01b031960e085901b1681526001600160a01b0390921660048301526001602483015251604480830192600092919082900301818387803b158015612ae357600080fd5b505af1158015612af7573d6000803e3d6000fd5b505050505b8060051415612c0457600154600580546001600160a01b039092169163ff5d8f63919085908110612b2957fe5b600091825260209182902001546040805163b8f31a8160e01b815290516001600160a01b039092169263b8f31a8192600480840193829003018186803b158015612b7257600080fd5b505afa158015612b86573d6000803e3d6000fd5b505050506040513d6020811015612b9c57600080fd5b5051604080516001600160e01b031960e085901b1681526001600160a01b0390921660048301526002602483015251604480830192600092919082900301818387803b158015612beb57600080fd5b505af1158015612bff573d6000803e3d6000fd5b505050505b5060010161285c565b600082820183811015612c67576040805162461bcd60e51b815260206004820152601b60248201527f536166654d6174683a206164646974696f6e206f766572666c6f770000000000604482015290519081900360640190fd5b90505b92915050565b601b5461ffff16600214612c8057fe5b600554600b54600090612cac90612c9d908463ffffffff61354816565b6016549063ffffffff61347216565b600a54600b54919250600091612ce191620f424091612cd59162ffffff1663ffffffff61354816565b9063ffffffff61399516565b90506000612cfa82600b5461347290919063ffffffff16565b90506000612d1785612cd56017548761354890919063ffffffff16565b600a54909150600090612d4090620f424090612cd59085906301000000900462ffffff16613548565b905060008060175411612d54576000612d6b565b601754612d6b90612cd5888563ffffffff61347216565b905060005b87811015612fdc57600060058281548110612d8757fe5b60009182526020918290200154604080516332c3db0f60e11b815290516001600160a01b0390921692636587b61e92600480840193829003018186803b158015612dd057600080fd5b505afa158015612de4573d6000803e3d6000fd5b505050506040513d6020811015612dfa57600080fd5b505190506003811415612eaf5760058281548110612e1457fe5b600091825260208220015460408051637db9abaf60e01b8152600481018a90526024810187905290516001600160a01b0390921692637db9abaf9260448084019382900301818387803b158015612e6a57600080fd5b505af1158015612e7e573d6000803e3d6000fd5b50505050612e958387612c0d90919063ffffffff16565b601a8381548110612ea257fe5b6000918252602090912001555b8060041415612f4e5760058281548110612ec557fe5b600091825260208220015460408051637db9abaf60e01b8152600481018a90526024810184905290516001600160a01b0390921692637db9abaf9260448084019382900301818387803b158015612f1b57600080fd5b505af1158015612f2f573d6000803e3d6000fd5b5050505085601a8381548110612f4157fe5b6000918252602090912001555b8060051415612fd35760058281548110612f6457fe5b600091825260208220015460408051637db9abaf60e01b8152600481018490526024810184905290516001600160a01b0390921692637db9abaf9260448084019382900301818387803b158015612fba57600080fd5b505af1158015612fce573d6000803e3d6000fd5b505050505b50600101612d70565b50612fe88288876139d7565b5050505050505050565b601054604080516370a0823160e01b815230600482015290516000926001600160a01b0316916370a08231916024808301926020929190829003018186803b15801561303d57600080fd5b505afa158015613051573d6000803e3d6000fd5b505050506040513d602081101561306757600080fd5b50516010546040805163db006a7560e01b81526004810184905290519293506001600160a01b039091169163db006a75916024808201926020929091908290030181600087803b1580156130ba57600080fd5b505af11580156130ce573d6000803e3d6000fd5b505050506040513d60208110156130e457600080fd5b5050601154604080516370a0823160e01b815230600482015290516000926001600160a01b0316916370a08231916024808301926020929190829003018186803b15801561313157600080fd5b505afa158015613145573d6000803e3d6000fd5b505050506040513d602081101561315b57600080fd5b50516011546040805163db006a7560e01b81526004810184905290519293506001600160a01b039091169163db006a759160248082019260009290919082900301818387803b1580156131ad57600080fd5b505af11580156131c1573d6000803e3d6000fd5b505050505050565b604080516001600160a01b038481166024830152604480830185905283518084039091018152606490920183526020820180516001600160e01b031663a9059cbb60e01b178152925182516000946060949389169392918291908083835b602083106132465780518252601f199092019160209182019101613227565b6001836020036101000a0380198251168184511680821785525050505050509050019150506000604051808303816000865af19150503d80600081146132a8576040519150601f19603f3d011682016040523d82523d6000602084013e6132ad565b606091505b50915091508180156132db5750805115806132db57508080602001905160208110156132d857600080fd5b50515b61332c576040805162461bcd60e51b815260206004820152601f60248201527f5472616e7366657248656c7065723a205452414e534645525f4641494c454400604482015290519081900360640190fd5b5050505050565b601b5461ffff1660011461334357fe5b60005b6005548110156107df576005818154811061335d57fe5b60009182526020822001546040805163144e786960e11b815290516001600160a01b039092169263289cf0d29260048084019382900301818387803b1580156133a557600080fd5b505af11580156133b9573d6000803e3d6000fd5b505050506000600582815481106133cc57fe5b60009182526020918290200154604080516332c3db0f60e11b815290516001600160a01b0390921692636587b61e92600480840193829003018186803b15801561341557600080fd5b505afa158015613429573d6000803e3d6000fd5b505050506040513d602081101561343f57600080fd5b505190506003811415613456576017805460010190555b8060051415613469576018805460010190555b50600101613346565b6000612c6783836040518060400160405280601e81526020017f536166654d6174683a207375627472616374696f6e206f766572666c6f770000815250613b0a565b601b5461ffff166004146134c457fe5b600f546001546019546134e4926001600160a01b039081169216906131c9565b600154601954604080516307d4728360e51b81526004810192909252516001600160a01b039092169163fa8e50609160248082019260009290919082900301818387803b15801561353457600080fd5b505af1158015610b70573d6000803e3d6000fd5b60008261355757506000612c6a565b8282028284828161356457fe5b0414612c675760405162461bcd60e51b81526004018080602001828103825260218152602001806141746021913960400191505060405180910390fd5b60005b6004548110156107df57600481815481106135bb57fe5b60009182526020918290200154604080516332c3db0f60e11b815290516001600160a01b0390921692636587b61e92600480840193829003018186803b15801561360457600080fd5b505afa158015613618573d6000803e3d6000fd5b505050506040513d602081101561362e57600080fd5b5051600114156136f3576004818154811061364557fe5b600091825260208220015460408051623c57d360e61b815290516001600160a01b0390921692630f15f4c09260048084019382900301818387803b15801561368c57600080fd5b505af11580156136a0573d6000803e3d6000fd5b505050506005600482815481106136b357fe5b60009182526020808320909101548354600181018555938352912090910180546001600160a01b0319166001600160a01b03909216919091179055613761565b6004818154811061370057fe5b600091825260208220015460408051633caccfcb60e11b815290516001600160a01b03909216926379599f969260048084019382900301818387803b15801561374857600080fd5b505af115801561375c573d6000803e3d6000fd5b505050505b6001016135a4565b600f54604080516370a0823160e01b815230600482015290516000926001600160a01b0316916370a08231916024808301926020929190829003018186803b1580156137b457600080fd5b505afa1580156137c8573d6000803e3d6000fd5b505050506040513d60208110156137de57600080fd5b50519050806137ed575061126c565b600061380b620f4240612cd584600d5461354890919063ffffffff16565b9050600061381f838363ffffffff61347216565b905081156138305761383082613ba1565b801561383f5761383f81613c36565b505050565b601b5461ffff1660061461385457fe5b604080516000815260208101918290525161387191600591613efc565b5061387a61112e565b6000600781905560178190556018819055601981905560408051918252602082019081905290516138ad91601a91613eb5565b506001805461ffff60a81b19169055565b601b5461ffff166003146138ce57fe5b60005b6005548110156107df576000601a82815481106138ea57fe5b9060005260206000200154111561395157600f5460058054613951926001600160a01b031691908490811061391b57fe5b600091825260209091200154601a80546001600160a01b03909216918590811061394157fe5b90600052602060002001546131c9565b6001016138d1565b6000613963613cc4565b600854600040186040516020018082815260200191505060405160208183030381529060405280519060200120905090565b6000612c6783836040518060400160405280601a81526020017f536166654d6174683a206469766973696f6e206279207a65726f000000000000815250613ced565b600080600160009054906101000a90046001600160a01b03166001600160a01b031663e6fd604c6040518163ffffffff1660e01b815260040160206040518083038186803b158015613a2857600080fd5b505afa158015613a3c573d6000803e3d6000fd5b505050506040513d6020811015613a5257600080fd5b5051600b54601854919250600091613a6f9163ffffffff61354816565b90506000613a8f620f4240612cd58962ffffff871663ffffffff61354816565b90506000613aa86018548861347290919063ffffffff16565b90506000613ad8620f4240612cd562ffffff8816613acc8b8763ffffffff61354816565b9063ffffffff61354816565b9050613afa81613aee868663ffffffff612c0d16565b9063ffffffff612c0d16565b6019555093979650505050505050565b60008184841115613b995760405162461bcd60e51b81526004018080602001828103825283818151815260200191508051906020019080838360005b83811015613b5e578181015183820152602001613b46565b50505050905090810190601f168015613b8b5780820380516001836020036101000a031916815260200191505b509250505060405180910390fd5b505050900390565b600f54601054613bbe916001600160a01b03908116911683613d52565b6010546040805163140e25ad60e31b81526004810184905290516001600160a01b039092169163a0712d68916024808201926020929091908290030181600087803b158015613c0c57600080fd5b505af1158015613c20573d6000803e3d6000fd5b505050506040513d602081101561383f57600080fd5b600f54601554613c53916001600160a01b03908116911683613d52565b601454600f5460408051636968703360e11b81526001600160a01b039283166004820152602481018590526000604482018190529151929093169263d2d0e066926064808301939282900301818387803b158015613cb057600080fd5b505af115801561332c573d6000803e3d6000fd5b600880546040805160208082019390935281518082038401815290820190915280519101209055565b60008183613d3c5760405162461bcd60e51b8152602060048201818152835160248401528351909283926044909101919085019080838360008315613b5e578181015183820152602001613b46565b506000838581613d4857fe5b0495945050505050565b604080516001600160a01b038481166024830152604480830185905283518084039091018152606490920183526020820180516001600160e01b031663095ea7b360e01b178152925182516000946060949389169392918291908083835b60208310613dcf5780518252601f199092019160209182019101613db0565b6001836020036101000a0380198251168184511680821785525050505050509050019150506000604051808303816000865af19150503d8060008114613e31576040519150601f19603f3d011682016040523d82523d6000602084013e613e36565b606091505b5091509150818015613e64575080511580613e645750808060200190516020811015613e6157600080fd5b50515b61332c576040805162461bcd60e51b815260206004820152601e60248201527f5472616e7366657248656c7065723a20415050524f56455f4641494c45440000604482015290519081900360640190fd5b828054828255906000526020600020908101928215613ef0579160200282015b82811115613ef0578251825591602001919060010190613ed5565b50611455929150613f5d565b828054828255906000526020600020908101928215613f51579160200282015b82811115613f5157825182546001600160a01b0319166001600160a01b03909116178255602090920191600190910190613f1c565b50611455929150613f77565b610e1491905b808211156114555760008155600101613f63565b610e1491905b808211156114555780546001600160a01b0319168155600101613f7d56fe436c617373726f6f6d3a2063616c6c2075706461746553747564656e7453636f726573206669727374436c617373726f6f6d3a2063616c6c2070726f63657373526573756c74732066697273744f776e61626c653a206e6577206f776e657220697320746865207a65726f2061646472657373436c617373726f6f6d3a2073747564656e7420646f65736e2774206861766520656e6f7567682073636f7265436c617373726f6f6d3a2063616e2774206368616e6765206368616c6c656e6765206e6f77436c617373726f6f6d3a2063616c6c207374617274416e73776572566572696669636174696f6e206669727374436c617373726f6f6d3a206e6f7420656e6f7567682044414920746f2070726f63656564436c617373726f6f6d3a2072656164207065726d697373696f6e2064656e696564436c617373726f6f6d3a2063616e2774206265206d6f72652074686174203130302520696e2070706d436c617373726f6f6d3a2073747564656e7473206c697374206e6f7420656d707479436c617373726f6f6d3a2063616c6c207265736f6c7665556e6976657273697479437574206669727374436c617373726f6f6d3a2070726f666573736f722063616e277420626520697473206f776e2073747564656e74536166654d6174683a206d756c7469706c69636174696f6e206f766572666c6f77436c617373726f6f6d3a20746f6f20736f6f6e20746f2066696e69736820636f75727365436c617373726f6f6d3a206170706c69636174696f6e7320617265207374696c6c206f70656e4f776e61626c653a2063616c6c6572206973206e6f7420746865206f776e6572436c617373726f6f6d3a206170706c69636174696f6e732061726520616c726561647920636c6f736564436c617373726f6f6d3a2063616c6c207265736f6c766553747564656e74416c6c6f77616e636573206669727374436c617373726f6f6d3a2073747564656e74206973206e6f742072656769737465726564436c617373726f6f6d3a206170706c69636174696f6e732061726520616c7265616479206f70656e6564436c617373726f6f6d3a2063616c6c206163636f756e7456616c756573206669727374436c617373726f6f6d3a207374657020616c726561647920646f6e6500000000a264697066735822122070d022e53803e9fc05213651847b28c73e381649fbbefaf17615957a7fe9e9e064736f6c634300060b0033a264697066735822122072af5739eec5428fa9cfaba1efee4a21a3eed45300f636556d082b5f0a05646764736f6c634300060b0033",
  "immutableReferences": {},
  "source": "// SPDX-License-Identifier: GPL-3.0-or-later\r\n\r\npragma solidity ^0.6.11;\r\n\r\nimport \"./interface/IClassroomFactory.sol\";\r\nimport \"./Classroom.sol\";\r\n\r\n\r\ncontract ClassroomFactory is IClassroomFactory {\r\n    function newClassroom(\r\n        bytes32 name,\r\n        uint24 principalCut,\r\n        uint24 poolCut,\r\n        int32 minScore,\r\n        uint256 entryPrice,\r\n        uint256 duration,\r\n        address payable universityAddress,\r\n        address challengeAddress,\r\n        address daiAddress,\r\n        address compoundAddress,\r\n        address studentApplicationFactoryAddress\r\n    ) public override returns (address classroomAddress) {\r\n        Classroom classroom = new Classroom(\r\n            name,\r\n            principalCut,\r\n            poolCut,\r\n            minScore,\r\n            entryPrice,\r\n            duration,\r\n            universityAddress,\r\n            challengeAddress,\r\n            daiAddress,\r\n            compoundAddress,\r\n            studentApplicationFactoryAddress\r\n        );\r\n        classroom.transferOwnership(msg.sender);\r\n        classroomAddress = address(classroom);\r\n    }\r\n}\r\n",
  "sourcePath": "/mnt/e/Repositories/uproot-trustless-contracts/contracts/ClassroomFactory.sol",
  "compiler": {
    "name": "solc",
    "version": "0.6.11+commit.5ef660b1.Emscripten.clang"
  },
  "schemaVersion": "3.1.0",
  "updatedAt": "2020-07-18T18:16:50.640Z",
  "networkType": "ethereum",
  "devdoc": {
    "kind": "dev",
    "methods": {},
    "version": 1
  },
  "userdoc": {
    "kind": "user",
    "methods": {},
    "version": 1
  }
}