{
  "contractName": "ClassroomFactory",
  "abi": [
    {
      "inputs": [
        {
          "internalType": "bytes32",
          "name": "name",
          "type": "bytes32"
        },
        {
          "internalType": "uint24",
          "name": "principalCut",
          "type": "uint24"
        },
        {
          "internalType": "uint24",
          "name": "poolCut",
          "type": "uint24"
        },
        {
          "internalType": "int32",
          "name": "minScore",
          "type": "int32"
        },
        {
          "internalType": "uint256",
          "name": "entryPrice",
          "type": "uint256"
        },
        {
          "internalType": "uint256",
          "name": "duration",
          "type": "uint256"
        },
        {
          "internalType": "address payable",
          "name": "universityAddress",
          "type": "address"
        },
        {
          "internalType": "address",
          "name": "challengeAddress",
          "type": "address"
        },
        {
          "internalType": "address",
          "name": "daiAddress",
          "type": "address"
        },
        {
          "internalType": "address",
          "name": "compoundAddress",
          "type": "address"
        },
        {
          "internalType": "address",
          "name": "studentApplicationFactoryAddress",
          "type": "address"
        }
      ],
      "name": "newClassroom",
      "outputs": [
        {
          "internalType": "address",
          "name": "classroomAddress",
          "type": "address"
        }
      ],
      "stateMutability": "nonpayable",
      "type": "function"
    }
  ],
  "bytecode": "0x608060405234801561001057600080fd5b50614756806100206000396000f3fe608060405234801561001057600080fd5b506004361061002b5760003560e01c8063f9a84f9614610030575b600080fd5b6100ac600480360361016081101561004757600080fd5b5080359062ffffff6020820135811691604081013590911690606081013560030b9060808101359060a0810135906001600160a01b0360c082013581169160e081013582169161010082013581169161012081013582169161014090910135166100c8565b604080516001600160a01b039092168252519081900360200190f35b6000808c8c8c8c8c8c8c8c8c8c8c6040516100e2906101e1565b9a8b5262ffffff998a1660208c0152979098166040808b0191909152600396870b90960b60608a0152608089019490945260a08801929092526001600160a01b0390811660c088015290811660e08701529081166101008601529283166101208501529116610140830152519081900361016001906000f08015801561016c573d6000803e3d6000fd5b506040805163f2fde38b60e01b815233600482015290519192506001600160a01b0383169163f2fde38b9160248082019260009290919082900301818387803b1580156101b857600080fd5b505af11580156101cc573d6000803e3d6000fd5b50929f9e505050505050505050505050505050565b614532806101ef8339019056fe60806040523480156200001157600080fd5b50604051620045323803806200453283398181016040526101608110156200003857600080fd5b508051602082015160408301516060840151608085015160a086015160c087015160e08801516101008901516101208a0151610140909a0151989997989697959694959394929391929091906000620000996001600160e01b03620001be16565b600080546001600160a01b0319166001600160a01b0383169081178255604051929350917f8be0079c531659141344cd1fd0a4f28419497f9722a3daafe3b4186f6b6457e0908290a35060099a909a55600a805462ffffff191662ffffff9a8b161765ffffff0000001916630100000099909a16989098029890981763ffffffff60301b1916660100000000000063ffffffff60039890980b979097169690960295909517909555600b92909255600c556207a120600d5560018054600e80546001600160a01b03199081166001600160a01b03978816179091559081169285169290921762ff00ff60a01b19169055600f805482169284169290921790915560108054821693831693909317909255601280549092169216919091179055620001c2565b3390565b61436080620001d26000396000f3fe608060405234801561001057600080fd5b506004361061035a5760003560e01c80638646bcec116101ca578063ae12894e11610105578063d4213fad116100a8578063d4213fad146106d3578063e804f164146106db578063e9d337b8146106fd578063e9ead52114610705578063eb7ab29d1461070d578063f2fde38b14610715578063f745adfc1461073b578063faaecf3714610743578063fe7da9e91461074b5761035a565b8063ae12894e1461064b578063b0f1eaa214610653578063b594f08614610670578063bbe3b9261461068d578063be22f54614610695578063c24a0f8b1461069d578063c799f5e2146106a5578063ca58298e146106cb5761035a565b80639b5dbe781161016d5780639b5dbe78146105d85780639e6e0b5f146105f5578063a3f73c2d146105fd578063a46268a814610623578063aa055a401461062b578063aaaed76f14610633578063ada02e191461063b578063adf45ef2146106435761035a565b80638646bcec1461058357806387429a9c1461058b578063898855ed146105935780638b45fb67146105b05780638cf086ad146105b85780638da5cb5b146105c0578063952f1c14146105c8578063988b6438146105d05761035a565b8063431a16ef1161029a5780636f6941b91161023d5780636f6941b9146104f6578063715018a6146104fe57806376eada91146105065780637c0260cb1461052c5780637f419df514610534578063803809061461053c5780638155e97714610559578063834a320c1461057b5761035a565b8063431a16ef1461046f57806345877877146104775780634c5e7893146104965780634ffb660c1461049e5780635aa33a2d146104be578063604d3943146104c65780636ae88cc2146104e65780636e8055a7146104ee5761035a565b80631b9dbc60116103025780631b9dbc601461042f5780632058e90614610437578063277a74b71461043f57806329d1887914610447578063319600271461044f5780633bcd97d4146104575780633c1656051461045f5780633ca55833146104675761035a565b80624f84111461035f57806306fdde031461037e5780630b78cb0e146103985780630b97bc86146103b45780630fb5a6b4146103bc57806313c2bedc146103c457806318b9533b146103e55780631a38a4fb1461040b575b600080fd5b61037c6004803603602081101561037557600080fd5b5035610768565b005b610386610807565b60408051918252519081900360200190f35b6103a061080d565b604080519115158252519081900360200190f35b61038661081d565b610386610823565b6103cc610829565b60408051600392830b90920b8252519081900360200190f35b61037c600480360360208110156103fb57600080fd5b50356001600160a01b0316610839565b610413610845565b604080516001600160a01b039092168252519081900360200190f35b61037c610854565b610386610b5e565b61037c610b64565b610413610c0e565b61037c610c1d565b6103a0610d98565b61037c610db8565b610413610e62565b61037c610e71565b61047f61101e565b6040805161ffff9092168252519081900360200190f35b61037c611046565b61037c600480360360208110156104b457600080fd5b503560030b611177565b6103a061123c565b6104ce61124c565b6040805162ffffff9092168252519081900360200190f35b61038661125e565b610413611362565b610413611379565b61037c611388565b6104136004803603602081101561051c57600080fd5b50356001600160a01b031661142a565b61037c6114cc565b61037c6115a4565b61037c6004803603602081101561055257600080fd5b5035611649565b61037c6004803603602081101561056f57600080fd5b503562ffffff16611745565b6103866117ef565b6104ce6118e9565b6104136118f4565b61037c600480360360208110156105a957600080fd5b5035611903565b610413611996565b6103866119a0565b6104136119a6565b6103866119b5565b61037c611ab1565b61037c600480360360208110156105ee57600080fd5b5035611b5b565b610386611c52565b61037c6004803603602081101561061357600080fd5b50356001600160a01b0316611c58565b6103a0611d4d565b61037c611d5d565b610413611e81565b61037c611e90565b6103a0611fbe565b610413611fc6565b6103866004803603602081101561066957600080fd5b5035611fd5565b61037c6004803603602081101561068657600080fd5b5035611ff3565b61037c612086565b61041361229c565b6103866122ab565b61037c600480360360208110156106bb57600080fd5b50356001600160a01b03166122b1565b6103866124c7565b610386612528565b61037c600480360360208110156106f157600080fd5b503562ffffff1661252e565b6104136125e6565b6103866125f5565b61037c6125fb565b61037c6004803603602081101561072b57600080fd5b50356001600160a01b03166126af565b6103866127a7565b61037c6127ad565b61037c6004803603602081101561076157600080fd5b5035612857565b6107706128ea565b6000546001600160a01b039081169116146107c0576040805162461bcd60e51b815260206004820181905260248201526000805160206141d6833981519152604482015290519081900360640190fd5b620f42408111156108025760405162461bcd60e51b81526004018080602001828103825260298152602001806140c96029913960400191505060405180910390fd5b600d55565b60095481565b600154600160a01b900460ff1681565b60025481565b600c5481565b600a54600160301b900460030b81565b610842816126af565b50565b6011546001600160a01b031681565b61085c6119a6565b6001600160a01b031661086d6128ea565b6001600160a01b0316637a6c8b536040518163ffffffff1660e01b815260040160206040518083038186803b1580156108a557600080fd5b505afa1580156108b9573d6000803e3d6000fd5b505050506040513d60208110156108cf57600080fd5b50516001600160a01b031614156109175760405162461bcd60e51b815260040180806020018281038252602d81526020018061413e602d913960400191505060405180910390fd5b6001546001600160a01b03166316ded1ce6109306128ea565b6040518263ffffffff1660e01b815260040180826001600160a01b03166001600160a01b0316815260200191505060206040518083038186803b15801561097657600080fd5b505afa15801561098a573d6000803e3d6000fd5b505050506040513d60208110156109a057600080fd5b50516109dd5760405162461bcd60e51b81526004018080602001828103825260248152602001806142786024913960400191505060405180910390fd5b60006109e76128ea565b9050600a60069054906101000a900460030b60030b816001600160a01b031663efedc6696040518163ffffffff1660e01b815260040160206040518083038186803b158015610a3557600080fd5b505afa158015610a49573d6000803e3d6000fd5b505050506040513d6020811015610a5f57600080fd5b505160030b1215610aa15760405162461bcd60e51b815260040180806020018281038252602c815260200180614006602c913960400191505060405180910390fd5b600154600160a01b900460ff16610aff576040805162461bcd60e51b815260206004820152601e60248201527f436c617373726f6f6d3a206170706c69636174696f6e7320636c6f7365640000604482015290519081900360640190fd5b6000610b0a826128ee565b600480546001810182556000919091527f8a35acfbc15ff81a39ae7d344fd709f28e8600b4aa8c65c6b64bfe7fe36bd19b0180546001600160a01b0319166001600160a01b03929092169190911790555050565b60185481565b601b54600461ffff90911611610bab5760405162461bcd60e51b815260040180806020018281038252602a815260200180614114602a913960400191505060405180910390fd5b601b54600661ffff90911610610bf6576040805162461bcd60e51b815260206004820152601c60248201526000805160206142e9833981519152604482015290519081900360640190fd5b610bfe612a4b565b601b805461ffff19166006179055565b600e546001600160a01b031681565b610c256128ea565b6000546001600160a01b03908116911614610c75576040805162461bcd60e51b815260206004820181905260248201526000805160206141d6833981519152604482015290519081900360640190fd5b6015546001600160a01b0316610cd2576040805162461bcd60e51b815260206004820152601b60248201527f436c617373726f6f6d3a20736574757020416176652066697273740000000000604482015290519081900360640190fd5b600154600160a01b900460ff1615610d1b5760405162461bcd60e51b815260040180806020018281038252602a81526020018061429c602a913960400191505060405180910390fd5b60045415610d5a5760405162461bcd60e51b81526004018080602001828103825260228152602001806140f26022913960400191505060405180910390fd5b6001805460ff60a01b1916600160a01b1790556040517fa5d188159e8a15dc503f9fde55e9da14c8b2ca589603e2567481c0ef90b7972090600090a1565b600554600454600091610db1919063ffffffff612e0f16565b1590505b90565b601b54600161ffff90911611610dff5760405162461bcd60e51b815260040180806020018281038252602d815260200180614057602d913960400191505060405180910390fd5b601b54600361ffff90911610610e4a576040805162461bcd60e51b815260206004820152601c60248201526000805160206142e9833981519152604482015290519081900360640190fd5b610e52612e72565b601b805461ffff19166003179055565b6015546001600160a01b031681565b610e796128ea565b6000546001600160a01b03908116911614610ec9576040805162461bcd60e51b815260206004820181905260248201526000805160206141d6833981519152604482015290519081900360640190fd5b600554610f1d576040805162461bcd60e51b815260206004820152601a60248201527f436c617373726f6f6d3a206e6f206170706c69636174696f6e73000000000000604482015290519081900360640190fd5b600354421015610f5e5760405162461bcd60e51b815260040180806020018281038252602481526020018061418c6024913960400191505060405180910390fd5b600f54604080516370a0823160e01b815230600482015290516001600160a01b03909216916370a0823191602480820192602092909190829003018186803b158015610fa957600080fd5b505afa158015610fbd573d6000803e3d6000fd5b505050506040513d6020811015610fd357600080fd5b5051600755610fe06131e8565b6001805460ff60a81b1916600160a81b1790556040517fadfcc9bbc47b33710f82544eeff8bd0f98c6f78f190e915bd81f4a9dacfdc77790600090a1565b600154600090600160a81b900460ff1661103b5750600019610db5565b50601b5461ffff1690565b61104e6128ea565b6000546001600160a01b0390811691161461109e576040805162461bcd60e51b815260206004820181905260248201526000805160206141d6833981519152604482015290519081900360640190fd5b6110a6610d98565b6110e15760405162461bcd60e51b81526004018080602001828103825260228152602001806143096022913960400191505060405180910390fd5b600f54611175906001600160a01b03166110f96119a6565b600f54604080516370a0823160e01b815230600482015290516001600160a01b03909216916370a0823191602480820192602092909190829003018186803b15801561114457600080fd5b505afa158015611158573d6000803e3d6000fd5b505050506040513d602081101561116e57600080fd5b50516133bf565b565b61117f6128ea565b6000546001600160a01b039081169116146111cf576040805162461bcd60e51b815260206004820181905260248201526000805160206141d6833981519152604482015290519081900360640190fd5b600a8054600383810b63ffffffff16600160301b90810269ffffffff0000000000001990931692909217928390556040805192909304810b810b900b815290517f258981eaba02423980e2973ff2ae3bbbba3cc807a5b73faf8f0b068dd7b2af649181900360200190a150565b600154600160a81b900460ff1681565b600a546301000000900462ffffff1681565b60006112686128ea565b6000546001600160a01b039081169116146112b8576040805162461bcd60e51b815260206004820181905260248201526000805160206141d6833981519152604482015290519081900360640190fd5b60005b60045481101561135e57600481815481106112d257fe5b60009182526020918290200154604080516332c3db0f60e11b815290516001600160a01b0390921692636587b61e92600480840193829003018186803b15801561131b57600080fd5b505afa15801561132f573d6000803e3d6000fd5b505050506040513d602081101561134557600080fd5b505160011415611356576001909101905b6001016112bb565b5090565b600061137461136f6128ea565b61142a565b905090565b6010546001600160a01b031681565b6113906128ea565b6000546001600160a01b039081169116146113e0576040805162461bcd60e51b815260206004820181905260248201526000805160206141d6833981519152604482015290519081900360640190fd5b600080546040516001600160a01b03909116907f8be0079c531659141344cd1fd0a4f28419497f9722a3daafe3b4186f6b6457e0908390a3600080546001600160a01b0319169055565b60006114346128ea565b6001600160a01b0316826001600160a01b0316148061147257506114566119a6565b6001600160a01b03166114676128ea565b6001600160a01b0316145b6114ad5760405162461bcd60e51b81526004018080602001828103825260218152602001806140a86021913960400191505060405180910390fd5b506001600160a01b039081166000908152600660205260409020541690565b6114d46128ea565b6000546001600160a01b03908116911614611524576040805162461bcd60e51b815260206004820181905260248201526000805160206141d6833981519152604482015290519081900360640190fd5b600154600160a01b900460ff1661156c5760405162461bcd60e51b815260040180806020018281038252602a815260200180614220602a913960400191505060405180910390fd5b6001805460ff60a01b191690556040517f747a4734f50e3ae237b3afeeac30a2d2c7cb965cc122fb9680050fd533b7c0f590600090a1565b601b5461ffff166115e65760405162461bcd60e51b8152600401808060200182810382526024815260200180613fbc6024913960400191505060405180910390fd5b601b54600261ffff90911610611631576040805162461bcd60e51b815260206004820152601c60248201526000805160206142e9833981519152604482015290519081900360640190fd5b611639613522565b601b805461ffff19166002179055565b6116516128ea565b6000546001600160a01b039081169116146116a1576040805162461bcd60e51b815260206004820181905260248201526000805160206141d6833981519152604482015290519081900360640190fd5b806116ab57610842565b600f546010546116c8916001600160a01b03908116911683613661565b6010546040805163140e25ad60e31b81526004810184905290516001600160a01b039092169163a0712d68916024808201926020929091908290030181600087803b15801561171657600080fd5b505af115801561172a573d6000803e3d6000fd5b505050506040513d602081101561174057600080fd5b505050565b61174d6128ea565b6000546001600160a01b0390811691161461179d576040805162461bcd60e51b815260206004820181905260248201526000805160206141d6833981519152604482015290519081900360640190fd5b600a805462ffffff191662ffffff838116919091179182905560408051929091168252517fa24cdd22388a51f932026d20d3229c1d693385bb9ac176742e0e40b4586c2447916020908290030190a150565b60006117f96128ea565b6000546001600160a01b03908116911614611849576040805162461bcd60e51b815260206004820181905260248201526000805160206141d6833981519152604482015290519081900360640190fd5b600154600160a81b900460ff16611861576000611374565b600754600f54604080516370a0823160e01b8152306004820152905161137493926001600160a01b0316916370a08231916024808301926020929190829003018186803b1580156118b157600080fd5b505afa1580156118c5573d6000803e3d6000fd5b505050506040513d60208110156118db57600080fd5b50519063ffffffff6137c416565b600a5462ffffff1681565b6013546001600160a01b031681565b61190b6128ea565b6000546001600160a01b0390811691161461195b576040805162461bcd60e51b815260206004820181905260248201526000805160206141d6833981519152604482015290519081900360640190fd5b60098190556040805182815290517f9f8929be552430dd6434c446d106c34954b2040ca8c4dbf42a39323dd6cda3ca9181900360200190a150565b60006113746119a6565b60175481565b6000546001600160a01b031690565b60006119bf6128ea565b6000546001600160a01b03908116911614611a0f576040805162461bcd60e51b815260206004820181905260248201526000805160206141d6833981519152604482015290519081900360640190fd5b60005b60045481101561135e5760048181548110611a2957fe5b60009182526020918290200154604080516332c3db0f60e11b815290516001600160a01b0390921692636587b61e92600480840193829003018186803b158015611a7257600080fd5b505afa158015611a86573d6000803e3d6000fd5b505050506040513d6020811015611a9c57600080fd5b5051611aa9576001909101905b600101611a12565b601b54600361ffff90911611611af85760405162461bcd60e51b815260040180806020018281038252602e81526020018061424a602e913960400191505060405180910390fd5b601b54600561ffff90911610611b43576040805162461bcd60e51b815260206004820152601c60248201526000805160206142e9833981519152604482015290519081900360640190fd5b611b4b613806565b601b805461ffff19166005179055565b611b636128ea565b6000546001600160a01b03908116911614611bb3576040805162461bcd60e51b815260206004820181905260248201526000805160206141d6833981519152604482015290519081900360640190fd5b80611bbd57610842565b600f54601554611bda916001600160a01b03908116911683613661565b601454600f5460408051636968703360e11b81526001600160a01b039283166004820152602481018590526000604482018190529151929093169263d2d0e066926064808301939282900301818387803b158015611c3757600080fd5b505af1158015611c4b573d6000803e3d6000fd5b5050505050565b600d5481565b611c606128ea565b6000546001600160a01b03908116911614611cb0576040805162461bcd60e51b815260206004820181905260248201526000805160206141d6833981519152604482015290519081900360640190fd5b611cb8610d98565b611cf35760405162461bcd60e51b81526004018080602001828103825260258152602001806140326025913960400191505060405180910390fd5b600e80546001600160a01b0319166001600160a01b03838116919091179182905560408051929091168252517fdc58b28697ffd1bd5879b16631587874caec982b482d7ed05df69a5302f6e018916020908290030190a150565b600154600160b01b900460ff1681565b600154600160a81b900460ff16611dbb576040805162461bcd60e51b815260206004820152601e60248201527f436c617373726f6f6d3a20636f75727365206e6f742066696e69736865640000604482015290519081900360640190fd5b611dc36117ef565b601655600554600b54611ddb9163ffffffff6138a016565b6016541015611e1b5760405162461bcd60e51b81526004018080602001828103825260248152602001806140846024913960400191505060405180910390fd5b601b805461ffff1916600117905560055467ffffffffffffffff81118015611e4257600080fd5b50604051908082528060200260200182016040528015611e6c578160200160208202803683370190505b50805161084291601a91602090910190613eac565b6012546001600160a01b031681565b611e986128ea565b6000546001600160a01b03908116911614611ee8576040805162461bcd60e51b815260206004820181905260248201526000805160206141d6833981519152604482015290519081900360640190fd5b600f54604080516370a0823160e01b815230600482015290516000926001600160a01b0316916370a08231916024808301926020929190829003018186803b158015611f3357600080fd5b505afa158015611f47573d6000803e3d6000fd5b505050506040513d6020811015611f5d57600080fd5b5051905080611f6c5750611175565b6000611f96620f4240611f8a84600d546138a090919063ffffffff16565b9063ffffffff6138f916565b90506000611faa838363ffffffff6137c416565b9050611fb582611649565b61174081611b5b565b600554151590565b6001546001600160a01b031681565b601a8181548110611fe257fe5b600091825260209091200154905081565b611ffb6128ea565b6000546001600160a01b0390811691161461204b576040805162461bcd60e51b815260206004820181905260248201526000805160206141d6833981519152604482015290519081900360640190fd5b600c8190556040805182815290517fa67f34afb53d068e81607cde52dc74c58cbf6a05eac699e5543b97d25e3ca5cb9181900360200190a150565b61208e6128ea565b6000546001600160a01b039081169116146120de576040805162461bcd60e51b815260206004820181905260248201526000805160206141d6833981519152604482015290519081900360640190fd5b600154600160a01b900460ff16156121275760405162461bcd60e51b81526004018080602001828103825260268152602001806141b06026913960400191505060405180910390fd5b600154600160b01b900460ff1615612186576040805162461bcd60e51b815260206004820152601e60248201527f436c617373726f6f6d3a20636f7572736520616c7265616479206f70656e0000604482015290519081900360640190fd5b600f54604080516370a0823160e01b815230600482015290516001600160a01b03909216916370a0823191602480820192602092909190829003018186803b1580156121d157600080fd5b505afa1580156121e5573d6000803e3d6000fd5b505050506040513d60208110156121fb57600080fd5b5051156122395760405162461bcd60e51b815260040180806020018281038252602a8152602001806141f6602a913960400191505060405180910390fd5b61224161393b565b604080516000815260208101918290525161225e91600491613ef3565b5060055461226b57611175565b6001805460ff60b01b1916600160b01b179055426002819055600c54612297919063ffffffff612e0f16565b600355565b600f546001600160a01b031681565b60035481565b6122b96128ea565b6000546001600160a01b03908116911614612309576040805162461bcd60e51b815260206004820181905260248201526000805160206141d6833981519152604482015290519081900360640190fd5b601380546001600160a01b0319166001600160a01b0383811691909117918290556040805163076b7fbb60e51b81529051929091169163ed6ff76091600480820192602092909190829003018186803b15801561236557600080fd5b505afa158015612379573d6000803e3d6000fd5b505050506040513d602081101561238f57600080fd5b5051601580546001600160a01b0319166001600160a01b0392831617905560135460408051630261bf8b60e01b815290519190921691630261bf8b916004808301926020929190829003018186803b1580156123ea57600080fd5b505afa1580156123fe573d6000803e3d6000fd5b505050506040513d602081101561241457600080fd5b5051601480546001600160a01b0319166001600160a01b03928316179055601554600f5460408051631a59df7760e11b815291841660048301525191909216916334b3beee916024808301926020929190829003018186803b15801561247957600080fd5b505afa15801561248d573d6000803e3d6000fd5b505050506040513d60208110156124a357600080fd5b5051601180546001600160a01b0319166001600160a01b0390921691909117905550565b60006124d16128ea565b6000546001600160a01b03908116911614612521576040805162461bcd60e51b815260206004820181905260248201526000805160206141d6833981519152604482015290519081900360640190fd5b5060055490565b60195481565b6125366128ea565b6000546001600160a01b03908116911614612586576040805162461bcd60e51b815260206004820181905260248201526000805160206141d6833981519152604482015290519081900360640190fd5b600a805462ffffff808416630100000090810265ffffff000000199093169290921792839055604080519290930416815290517f9d9f9ef51b12eb719684b7a2e09fc2f7e916cb0e229aecf5658ce6326dfeb1c59181900360200190a150565b6014546001600160a01b031681565b60165481565b6126036128ea565b6000546001600160a01b03908116911614612653576040805162461bcd60e51b815260206004820181905260248201526000805160206141d6833981519152604482015290519081900360640190fd5b601b54600561ffff9091161161269a5760405162461bcd60e51b8152600401808060200182810382526029815260200180613f936029913960400191505060405180910390fd5b6126a2613b03565b601b805461ffff19169055565b6126b76128ea565b6000546001600160a01b03908116911614612707576040805162461bcd60e51b815260206004820181905260248201526000805160206141d6833981519152604482015290519081900360640190fd5b6001600160a01b03811661274c5760405162461bcd60e51b8152600401808060200182810382526026815260200180613fe06026913960400191505060405180910390fd5b600080546040516001600160a01b03808516939216917f8be0079c531659141344cd1fd0a4f28419497f9722a3daafe3b4186f6b6457e091a3600080546001600160a01b0319166001600160a01b0392909216919091179055565b600b5481565b601b54600261ffff909116116127f45760405162461bcd60e51b81526004018080602001828103825260238152602001806142c66023913960400191505060405180910390fd5b601b54600461ffff9091161061283f576040805162461bcd60e51b815260206004820152601c60248201526000805160206142e9833981519152604482015290519081900360640190fd5b612847613b7d565b601b805461ffff19166004179055565b61285f6128ea565b6000546001600160a01b039081169116146128af576040805162461bcd60e51b815260206004820181905260248201526000805160206141d6833981519152604482015290519081900360640190fd5b600b8190556040805182815290517f84e881bf3fcef92f709a2a62150da178a998fbff128c017f3e846787a2f7f5f59181900360200190a150565b3390565b601254600f54600e5460009283926001600160a01b039182169263268e5d1d9287923092908216911661291f613c18565b604080516001600160e01b031960e089901b1681526001600160a01b03968716600482015294861660248601529285166044850152931660648301526084820192909252905160a48083019260209291908290030181600087803b15801561298657600080fd5b505af115801561299a573d6000803e3d6000fd5b505050506040513d60208110156129b057600080fd5b50516001600160a01b0384811660008181526006602052604080822080546001600160a01b0319168587169081179091556001548251620c1d9360e91b81526004810195909552602485019190915290519495509092169263183b26009260448084019391929182900301818387803b158015612a2c57600080fd5b505af1158015612a40573d6000803e3d6000fd5b509295945050505050565b601b5461ffff16600514612a5b57fe5b60005b60055481101561084257600060058281548110612a7757fe5b60009182526020918290200154604080516332c3db0f60e11b815290516001600160a01b0390921692636587b61e92600480840193829003018186803b158015612ac057600080fd5b505afa158015612ad4573d6000803e3d6000fd5b505050506040513d6020811015612aea57600080fd5b505190506003811415612bf657600154600580546001600160a01b03909216916387bfe188919085908110612b1b57fe5b600091825260209182902001546040805163b8f31a8160e01b815290516001600160a01b039092169263b8f31a8192600480840193829003018186803b158015612b6457600080fd5b505afa158015612b78573d6000803e3d6000fd5b505050506040513d6020811015612b8e57600080fd5b5051604080516001600160e01b031960e085901b1681526001600160a01b0390921660048301526001602483015251604480830192600092919082900301818387803b158015612bdd57600080fd5b505af1158015612bf1573d6000803e3d6000fd5b505050505b8060041415612cfe57600154600580546001600160a01b039092169163ff5d8f63919085908110612c2357fe5b600091825260209182902001546040805163b8f31a8160e01b815290516001600160a01b039092169263b8f31a8192600480840193829003018186803b158015612c6c57600080fd5b505afa158015612c80573d6000803e3d6000fd5b505050506040513d6020811015612c9657600080fd5b5051604080516001600160e01b031960e085901b1681526001600160a01b0390921660048301526001602483015251604480830192600092919082900301818387803b158015612ce557600080fd5b505af1158015612cf9573d6000803e3d6000fd5b505050505b8060051415612e0657600154600580546001600160a01b039092169163ff5d8f63919085908110612d2b57fe5b600091825260209182902001546040805163b8f31a8160e01b815290516001600160a01b039092169263b8f31a8192600480840193829003018186803b158015612d7457600080fd5b505afa158015612d88573d6000803e3d6000fd5b505050506040513d6020811015612d9e57600080fd5b5051604080516001600160e01b031960e085901b1681526001600160a01b0390921660048301526002602483015251604480830192600092919082900301818387803b158015612ded57600080fd5b505af1158015612e01573d6000803e3d6000fd5b505050505b50600101612a5e565b600082820183811015612e69576040805162461bcd60e51b815260206004820152601b60248201527f536166654d6174683a206164646974696f6e206f766572666c6f770000000000604482015290519081900360640190fd5b90505b92915050565b601b5461ffff16600214612e8257fe5b600554600b54600090612eae90612e9f908463ffffffff6138a016565b6016549063ffffffff6137c416565b600a54600b54919250600091612ed791620f424091611f8a9162ffffff1663ffffffff6138a016565b90506000612ef082600b546137c490919063ffffffff16565b90506000612f0d85611f8a601754876138a090919063ffffffff16565b600a54909150600090612f3690620f424090611f8a9085906301000000900462ffffff166138a0565b905060008060175411612f4a576000612f61565b601754612f6190611f8a888563ffffffff6137c416565b905060005b878110156131d257600060058281548110612f7d57fe5b60009182526020918290200154604080516332c3db0f60e11b815290516001600160a01b0390921692636587b61e92600480840193829003018186803b158015612fc657600080fd5b505afa158015612fda573d6000803e3d6000fd5b505050506040513d6020811015612ff057600080fd5b5051905060038114156130a5576005828154811061300a57fe5b600091825260208220015460408051637db9abaf60e01b8152600481018a90526024810187905290516001600160a01b0390921692637db9abaf9260448084019382900301818387803b15801561306057600080fd5b505af1158015613074573d6000803e3d6000fd5b5050505061308b8387612e0f90919063ffffffff16565b601a838154811061309857fe5b6000918252602090912001555b806004141561314457600582815481106130bb57fe5b600091825260208220015460408051637db9abaf60e01b8152600481018a90526024810184905290516001600160a01b0390921692637db9abaf9260448084019382900301818387803b15801561311157600080fd5b505af1158015613125573d6000803e3d6000fd5b5050505085601a838154811061313757fe5b6000918252602090912001555b80600514156131c9576005828154811061315a57fe5b600091825260208220015460408051637db9abaf60e01b8152600481018490526024810184905290516001600160a01b0390921692637db9abaf9260448084019382900301818387803b1580156131b057600080fd5b505af11580156131c4573d6000803e3d6000fd5b505050505b50600101612f66565b506131de828887613c54565b5050505050505050565b601054604080516370a0823160e01b815230600482015290516000926001600160a01b0316916370a08231916024808301926020929190829003018186803b15801561323357600080fd5b505afa158015613247573d6000803e3d6000fd5b505050506040513d602081101561325d57600080fd5b50516010546040805163db006a7560e01b81526004810184905290519293506001600160a01b039091169163db006a75916024808201926020929091908290030181600087803b1580156132b057600080fd5b505af11580156132c4573d6000803e3d6000fd5b505050506040513d60208110156132da57600080fd5b5050601154604080516370a0823160e01b815230600482015290516000926001600160a01b0316916370a08231916024808301926020929190829003018186803b15801561332757600080fd5b505afa15801561333b573d6000803e3d6000fd5b505050506040513d602081101561335157600080fd5b50516011546040805163db006a7560e01b81526004810184905290519293506001600160a01b039091169163db006a759160248082019260009290919082900301818387803b1580156133a357600080fd5b505af11580156133b7573d6000803e3d6000fd5b505050505050565b604080516001600160a01b038481166024830152604480830185905283518084039091018152606490920183526020820180516001600160e01b031663a9059cbb60e01b178152925182516000946060949389169392918291908083835b6020831061343c5780518252601f19909201916020918201910161341d565b6001836020036101000a0380198251168184511680821785525050505050509050019150506000604051808303816000865af19150503d806000811461349e576040519150601f19603f3d011682016040523d82523d6000602084013e6134a3565b606091505b50915091508180156134d15750805115806134d157508080602001905160208110156134ce57600080fd5b50515b611c4b576040805162461bcd60e51b815260206004820152601f60248201527f5472616e7366657248656c7065723a205452414e534645525f4641494c454400604482015290519081900360640190fd5b601b5461ffff1660011461353257fe5b60005b600554811015610842576005818154811061354c57fe5b60009182526020822001546040805163144e786960e11b815290516001600160a01b039092169263289cf0d29260048084019382900301818387803b15801561359457600080fd5b505af11580156135a8573d6000803e3d6000fd5b505050506000600582815481106135bb57fe5b60009182526020918290200154604080516332c3db0f60e11b815290516001600160a01b0390921692636587b61e92600480840193829003018186803b15801561360457600080fd5b505afa158015613618573d6000803e3d6000fd5b505050506040513d602081101561362e57600080fd5b505190506003811415613645576017805460010190555b8060051415613658576018805460010190555b50600101613535565b604080516001600160a01b038481166024830152604480830185905283518084039091018152606490920183526020820180516001600160e01b031663095ea7b360e01b178152925182516000946060949389169392918291908083835b602083106136de5780518252601f1990920191602091820191016136bf565b6001836020036101000a0380198251168184511680821785525050505050509050019150506000604051808303816000865af19150503d8060008114613740576040519150601f19603f3d011682016040523d82523d6000602084013e613745565b606091505b5091509150818015613773575080511580613773575080806020019051602081101561377057600080fd5b50515b611c4b576040805162461bcd60e51b815260206004820152601e60248201527f5472616e7366657248656c7065723a20415050524f56455f4641494c45440000604482015290519081900360640190fd5b6000612e6983836040518060400160405280601e81526020017f536166654d6174683a207375627472616374696f6e206f766572666c6f770000815250613d87565b601b5461ffff1660041461381657fe5b600f54600154601954613836926001600160a01b039081169216906133bf565b600154601954604080516307d4728360e51b81526004810192909252516001600160a01b039092169163fa8e50609160248082019260009290919082900301818387803b15801561388657600080fd5b505af115801561389a573d6000803e3d6000fd5b50505050565b6000826138af57506000612e6c565b828202828482816138bc57fe5b0414612e695760405162461bcd60e51b815260040180806020018281038252602181526020018061416b6021913960400191505060405180910390fd5b6000612e6983836040518060400160405280601a81526020017f536166654d6174683a206469766973696f6e206279207a65726f000000000000815250613e1e565b60005b600454811015610842576004818154811061395557fe5b60009182526020918290200154604080516332c3db0f60e11b815290516001600160a01b0390921692636587b61e92600480840193829003018186803b15801561399e57600080fd5b505afa1580156139b2573d6000803e3d6000fd5b505050506040513d60208110156139c857600080fd5b505160011415613a8d57600481815481106139df57fe5b600091825260208220015460408051623c57d360e61b815290516001600160a01b0390921692630f15f4c09260048084019382900301818387803b158015613a2657600080fd5b505af1158015613a3a573d6000803e3d6000fd5b50505050600560048281548110613a4d57fe5b60009182526020808320909101548354600181018555938352912090910180546001600160a01b0319166001600160a01b03909216919091179055613afb565b60048181548110613a9a57fe5b600091825260208220015460408051633caccfcb60e11b815290516001600160a01b03909216926379599f969260048084019382900301818387803b158015613ae257600080fd5b505af1158015613af6573d6000803e3d6000fd5b505050505b60010161393e565b601b5461ffff16600614613b1357fe5b6040805160008152602081019182905251613b3091600591613ef3565b50613b39611046565b600060078190556017819055601881905560198190556040805191825260208201908190529051613b6c91601a91613eac565b506001805461ffff60a81b19169055565b601b5461ffff16600314613b8d57fe5b60005b600554811015610842576000601a8281548110613ba957fe5b90600052602060002001541115613c1057600f5460058054613c10926001600160a01b0316919084908110613bda57fe5b600091825260209091200154601a80546001600160a01b039092169185908110613c0057fe5b90600052602060002001546133bf565b600101613b90565b6000613c22613e83565b600854600040186040516020018082815260200191505060405160208183030381529060405280519060200120905090565b600080600160009054906101000a90046001600160a01b03166001600160a01b031663e6fd604c6040518163ffffffff1660e01b815260040160206040518083038186803b158015613ca557600080fd5b505afa158015613cb9573d6000803e3d6000fd5b505050506040513d6020811015613ccf57600080fd5b5051600b54601854919250600091613cec9163ffffffff6138a016565b90506000613d0c620f4240611f8a8962ffffff871663ffffffff6138a016565b90506000613d25601854886137c490919063ffffffff16565b90506000613d55620f4240611f8a62ffffff8816613d498b8763ffffffff6138a016565b9063ffffffff6138a016565b9050613d7781613d6b868663ffffffff612e0f16565b9063ffffffff612e0f16565b6019555093979650505050505050565b60008184841115613e165760405162461bcd60e51b81526004018080602001828103825283818151815260200191508051906020019080838360005b83811015613ddb578181015183820152602001613dc3565b50505050905090810190601f168015613e085780820380516001836020036101000a031916815260200191505b509250505060405180910390fd5b505050900390565b60008183613e6d5760405162461bcd60e51b8152602060048201818152835160248401528351909283926044909101919085019080838360008315613ddb578181015183820152602001613dc3565b506000838581613e7957fe5b0495945050505050565b600880546040805160208082019390935281518082038401815290820190915280519101209055565b828054828255906000526020600020908101928215613ee7579160200282015b82811115613ee7578251825591602001919060010190613ecc565b5061135e929150613f54565b828054828255906000526020600020908101928215613f48579160200282015b82811115613f4857825182546001600160a01b0319166001600160a01b03909116178255602090920191600190910190613f13565b5061135e929150613f6e565b610db591905b8082111561135e5760008155600101613f5a565b610db591905b8082111561135e5780546001600160a01b0319168155600101613f7456fe436c617373726f6f6d3a2063616c6c2075706461746553747564656e7453636f726573206669727374436c617373726f6f6d3a2063616c6c2070726f63657373526573756c74732066697273744f776e61626c653a206e6577206f776e657220697320746865207a65726f2061646472657373436c617373726f6f6d3a2073747564656e7420646f65736e2774206861766520656e6f7567682073636f7265436c617373726f6f6d3a2063616e2774206368616e6765206368616c6c656e6765206e6f77436c617373726f6f6d3a2063616c6c207374617274416e73776572566572696669636174696f6e206669727374436c617373726f6f6d3a206e6f7420656e6f7567682044414920746f2070726f63656564436c617373726f6f6d3a2072656164207065726d697373696f6e2064656e696564436c617373726f6f6d3a2063616e2774206265206d6f72652074686174203130302520696e2070706d436c617373726f6f6d3a2073747564656e7473206c697374206e6f7420656d707479436c617373726f6f6d3a2063616c6c207265736f6c7665556e6976657273697479437574206669727374436c617373726f6f6d3a2070726f666573736f722063616e277420626520697473206f776e2073747564656e74536166654d6174683a206d756c7469706c69636174696f6e206f766572666c6f77436c617373726f6f6d3a20746f6f20736f6f6e20746f2066696e69736820636f75727365436c617373726f6f6d3a206170706c69636174696f6e7320617265207374696c6c206f70656e4f776e61626c653a2063616c6c6572206973206e6f7420746865206f776e6572436c617373726f6f6d3a20696e7665737420616c6c2062616c616e6365206265666f726520626567696e436c617373726f6f6d3a206170706c69636174696f6e732061726520616c726561647920636c6f736564436c617373726f6f6d3a2063616c6c207265736f6c766553747564656e74416c6c6f77616e636573206669727374436c617373726f6f6d3a2073747564656e74206973206e6f742072656769737465726564436c617373726f6f6d3a206170706c69636174696f6e732061726520616c7265616479206f70656e6564436c617373726f6f6d3a2063616c6c206163636f756e7456616c756573206669727374436c617373726f6f6d3a207374657020616c726561647920646f6e650000000043616e2774207769746864726177207769746820636c617373726f6f6d2066756c6ca2646970667358221220db40a135f837a8f79a5761b4acb9f66d09d30da325178f68a2c1c960702e9d3264736f6c634300060b0033a2646970667358221220175dc3dbacd721f923103582e7e20fc948ec660942df7e9512bc24203759f25664736f6c634300060b0033",
  "immutableReferences": {},
  "source": "// SPDX-License-Identifier: GPL-3.0-or-later\r\n\r\npragma solidity ^0.6.11;\r\n\r\nimport \"./interface/IClassroomFactory.sol\";\r\nimport \"./Classroom.sol\";\r\n\r\n\r\ncontract ClassroomFactory is IClassroomFactory {\r\n    function newClassroom(\r\n        bytes32 name,\r\n        uint24 principalCut,\r\n        uint24 poolCut,\r\n        int32 minScore,\r\n        uint256 entryPrice,\r\n        uint256 duration,\r\n        address payable universityAddress,\r\n        address challengeAddress,\r\n        address daiAddress,\r\n        address compoundAddress,\r\n        address studentApplicationFactoryAddress\r\n    ) public override returns (address classroomAddress) {\r\n        Classroom classroom = new Classroom(\r\n            name,\r\n            principalCut,\r\n            poolCut,\r\n            minScore,\r\n            entryPrice,\r\n            duration,\r\n            universityAddress,\r\n            challengeAddress,\r\n            daiAddress,\r\n            compoundAddress,\r\n            studentApplicationFactoryAddress\r\n        );\r\n        classroom.transferOwnership(msg.sender);\r\n        classroomAddress = address(classroom);\r\n    }\r\n}\r\n",
  "sourcePath": "/mnt/e/Repositories/uproot-trustless-contracts/contracts/ClassroomFactory.sol",
  "compiler": {
    "name": "solc",
    "version": "0.6.11+commit.5ef660b1.Emscripten.clang"
  },
  "schemaVersion": "3.1.0",
  "updatedAt": "2020-07-09T20:27:12.265Z",
  "devdoc": {
    "kind": "dev",
    "methods": {},
    "version": 1
  },
  "userdoc": {
    "kind": "user",
    "methods": {},
    "version": 1
  }
}