{
  "contractName": "EIP712Sig",
  "abi": [
    {
      "inputs": [
        {
          "internalType": "address",
          "name": "verifier",
          "type": "address"
        }
      ],
      "stateMutability": "nonpayable",
      "type": "constructor"
    },
    {
      "inputs": [],
      "name": "CALLDATA_TYPEHASH",
      "outputs": [
        {
          "internalType": "bytes32",
          "name": "",
          "type": "bytes32"
        }
      ],
      "stateMutability": "view",
      "type": "function"
    },
    {
      "inputs": [],
      "name": "DOMAIN_SEPARATOR",
      "outputs": [
        {
          "internalType": "bytes32",
          "name": "",
          "type": "bytes32"
        }
      ],
      "stateMutability": "view",
      "type": "function"
    },
    {
      "inputs": [],
      "name": "EIP712DOMAIN_TYPEHASH",
      "outputs": [
        {
          "internalType": "bytes32",
          "name": "",
          "type": "bytes32"
        }
      ],
      "stateMutability": "view",
      "type": "function"
    },
    {
      "inputs": [],
      "name": "RELAYDATA_TYPEHASH",
      "outputs": [
        {
          "internalType": "bytes32",
          "name": "",
          "type": "bytes32"
        }
      ],
      "stateMutability": "view",
      "type": "function"
    },
    {
      "inputs": [],
      "name": "RELAY_REQUEST_TYPEHASH",
      "outputs": [
        {
          "internalType": "bytes32",
          "name": "",
          "type": "bytes32"
        }
      ],
      "stateMutability": "view",
      "type": "function"
    },
    {
      "inputs": [
        {
          "components": [
            {
              "internalType": "address",
              "name": "target",
              "type": "address"
            },
            {
              "internalType": "bytes",
              "name": "encodedFunction",
              "type": "bytes"
            },
            {
              "components": [
                {
                  "internalType": "uint256",
                  "name": "gasLimit",
                  "type": "uint256"
                },
                {
                  "internalType": "uint256",
                  "name": "gasPrice",
                  "type": "uint256"
                },
                {
                  "internalType": "uint256",
                  "name": "pctRelayFee",
                  "type": "uint256"
                },
                {
                  "internalType": "uint256",
                  "name": "baseRelayFee",
                  "type": "uint256"
                }
              ],
              "internalType": "struct GSNTypes.GasData",
              "name": "gasData",
              "type": "tuple"
            },
            {
              "components": [
                {
                  "internalType": "address",
                  "name": "senderAddress",
                  "type": "address"
                },
                {
                  "internalType": "uint256",
                  "name": "senderNonce",
                  "type": "uint256"
                },
                {
                  "internalType": "address",
                  "name": "relayWorker",
                  "type": "address"
                },
                {
                  "internalType": "address",
                  "name": "paymaster",
                  "type": "address"
                }
              ],
              "internalType": "struct GSNTypes.RelayData",
              "name": "relayData",
              "type": "tuple"
            }
          ],
          "internalType": "struct GSNTypes.RelayRequest",
          "name": "req",
          "type": "tuple"
        },
        {
          "internalType": "bytes",
          "name": "signature",
          "type": "bytes"
        }
      ],
      "name": "verify",
      "outputs": [
        {
          "internalType": "bool",
          "name": "",
          "type": "bool"
        }
      ],
      "stateMutability": "view",
      "type": "function"
    }
  ],
  "bytecode": "0x608060405234801561001057600080fd5b50604051610bc7380380610bc783398101604081905261002f91610115565b6040805160a0810182526017606082019081527f47534e2052656c61796564205472616e73616374696f6e000000000000000000608083015281528151808301835260018152603160f81b6020828101919091528201526001600160a01b038316918101919091526100a9906001600160e01b036100b216565b600055506101c1565b60006040516100c090610143565b604051809103902082600001518051906020012083602001518051906020012084604001516040516020016100f8949392919061019d565b604051602081830303815290604052805190602001209050919050565b600060208284031215610126578081fd5b81516001600160a01b038116811461013c578182fd5b9392505050565b7f454950373132446f6d61696e28737472696e67206e616d652c737472696e672081527f76657273696f6e2c6164647265737320766572696679696e67436f6e74726163602082015261742960f01b604082015260420190565b938452602084019290925260408301526001600160a01b0316606082015260800190565b6109f7806101d06000396000f3fe608060405234801561001057600080fd5b50600436106100625760003560e01c80633644e515146100675780633fb37abf146100855780638e1653c91461008d578063abf0d3f4146100ad578063c49f91d3146100b5578063cc0c62b2146100bd575b600080fd5b61006f6100c5565b60405161007c91906107f2565b60405180910390f35b61006f6100cb565b6100a061009b366004610455565b6100e2565b60405161007c91906107e7565b61006f61014e565b61006f61015a565b61006f610166565b60005481565b6040516100d79061077c565b604051809103902081565b6000806000546100f185610172565b604051602001610102929190610695565b60408051601f1981840301815291905280516020909101206060850151519091506001600160a01b031661013c828563ffffffff6101e416565b6001600160a01b031614949350505050565b6040516100d790610554565b6040516100d7906106b0565b6040516100d79061070a565b600060405161018090610554565b604051809103902082600001518360200151805190602001206101a68560400151610311565b6101b3866060015161034f565b6040516020016101c79594939291906107fb565b604051602081830303815290604052805190602001209050919050565b600081516041146102105760405162461bcd60e51b8152600401610207906108c8565b60405180910390fd5b60208201516040830151606084015160001a6fa2a8918ca85bafe22016d0b997e4df60600160ff1b038211156102585760405162461bcd60e51b8152600401610207906108ff565b8060ff16601b1415801561027057508060ff16601c14155b1561028d5760405162461bcd60e51b815260040161020790610941565b6000600187838686604051600081526020016040526040516102b29493929190610878565b6020604051602081039080840390855afa1580156102d4573d6000803e3d6000fd5b5050604051601f1901519150506001600160a01b0381166103075760405162461bcd60e51b815260040161020790610896565b9695505050505050565b600060405161031f9061077c565b604051809103902082600001518360200151846040015185606001516040516020016101c7959493929190610855565b600060405161035d9061070a565b604051809103902082600001518360200151846040015185606001516040516020016101c7959493929190610827565b600082601f83011261039d578081fd5b81356001600160401b038111156103b2578182fd5b6103c5601f8201601f1916602001610983565b91508082528360208285010111156103dc57600080fd5b8060208401602084013760009082016020015292915050565b600060808284031215610406578081fd5b6104106080610983565b9050813561041d816109a9565b8152602082810135908201526040820135610437816109a9565b6040820152606082013561044a816109a9565b606082015292915050565b60008060408385031215610467578182fd5b82356001600160401b038082111561047d578384fd5b8185018087039250610140831215610493578485fd5b61049d6080610983565b81356104a8816109a9565b81526020820135838111156104bb578687fd5b6104c78982850161038d565b6020830152506080603f19850112156104de578586fd5b6104e86080610983565b935060408201358452606082013560208501526080820135604085015260a082013560608501528360408201526105228860c084016103f5565b6060820152945050602085013591508082111561053d578283fd5b5061054a8582860161038d565b9150509250929050565b7f52656c6179526571756573742861646472657373207461726765742c6279746581527f7320656e636f64656446756e6374696f6e2c476173446174612067617344617460208201527f612c52656c6179446174612072656c617944617461294761734461746128756960408201527f6e74323536206761734c696d69742c75696e743235362067617350726963652c60608201527f75696e743235362070637452656c61794665652c75696e74323536206261736560808201527f52656c61794665652952656c61794461746128616464726573732073656e646560a08201527f72416464726573732c75696e743235362073656e6465724e6f6e63652c61646460c08201527f726573732072656c6179576f726b65722c61646472657373207061796d61737460e08201526265722960e81b6101008201526101030190565b61190160f01b81526002810192909252602282015260420190565b7f454950373132446f6d61696e28737472696e67206e616d652c737472696e672081527f76657273696f6e2c6164647265737320766572696679696e67436f6e74726163602082015261742960f01b604082015260420190565b7f52656c61794461746128616464726573732073656e646572416464726573732c81527f75696e743235362073656e6465724e6f6e63652c616464726573732072656c6160208201527979576f726b65722c61646472657373207061796d61737465722960301b6040820152605a0190565b7f476173446174612875696e74323536206761734c696d69742c75696e7432353681527f2067617350726963652c75696e743235362070637452656c61794665652c75696020820152726e74323536206261736552656c61794665652960681b604082015260530190565b901515815260200190565b90815260200190565b9485526001600160a01b0393909316602085015260408401919091526060830152608082015260a00190565b9485526001600160a01b03938416602086015260408501929092528216606084015216608082015260a00190565b948552602085019390935260408401919091526060830152608082015260a00190565b93845260ff9290921660208401526040830152606082015260800190565b60208082526018908201527745434453413a20696e76616c6964207369676e617475726560401b604082015260600190565b6020808252601f908201527f45434453413a20696e76616c6964207369676e6174757265206c656e67746800604082015260600190565b60208082526022908201527f45434453413a20696e76616c6964207369676e6174757265202773272076616c604082015261756560f01b606082015260800190565b60208082526022908201527f45434453413a20696e76616c6964207369676e6174757265202776272076616c604082015261756560f01b606082015260800190565b6040518181016001600160401b03811182821017156109a157600080fd5b604052919050565b6001600160a01b03811681146109be57600080fd5b5056fea26469706673582212203f7d2fcd8d333016af8a9d1f54956276f84c964516d1c63ed0a050d28a1714bd64736f6c63430006060033",
  "immutableReferences": {},
  "source": "pragma solidity ^0.6.2;\npragma experimental ABIEncoderV2;\n\nimport \"openzeppelin-solidity/contracts/cryptography/ECDSA.sol\";\nimport \"./GSNTypes.sol\";\n\n// https://github.com/ethereum/EIPs/blob/master/assets/eip-712/Example.sol\ncontract EIP712Sig {\n\n    using ECDSA for bytes32;\n\n    struct EIP712Domain {\n        string name;\n        string version;\n//        uint256 chainId;\n        address verifyingContract;\n    }\n\n    bytes32 public constant EIP712DOMAIN_TYPEHASH = keccak256(\n        \"EIP712Domain(string name,string version,address verifyingContract)\"\n    );\n\n    // solhint-disable-next-line max-line-length\n    bytes32 public constant RELAY_REQUEST_TYPEHASH = keccak256(\"RelayRequest(address target,bytes encodedFunction,GasData gasData,RelayData relayData)GasData(uint256 gasLimit,uint256 gasPrice,uint256 pctRelayFee,uint256 baseRelayFee)RelayData(address senderAddress,uint256 senderNonce,address relayWorker,address paymaster)\");\n\n    // solhint-disable-next-line max-line-length\n    bytes32 public constant CALLDATA_TYPEHASH = keccak256(\"GasData(uint256 gasLimit,uint256 gasPrice,uint256 pctRelayFee,uint256 baseRelayFee)\");\n\n    // solhint-disable-next-line max-line-length\n    bytes32 public constant RELAYDATA_TYPEHASH = keccak256(\"RelayData(address senderAddress,uint256 senderNonce,address relayWorker,address paymaster)\");\n\n    // solhint-disable-next-line var-name-mixedcase\n    bytes32 public DOMAIN_SEPARATOR; //not constant - based on chainId\n\n    constructor (address verifier) public {\n        DOMAIN_SEPARATOR = hash(EIP712Domain({\n            name : \"GSN Relayed Transaction\",\n            version : \"1\",\n//            chainId : getChainID(),\n            verifyingContract : verifier\n        }));\n    }\n\n    function hash(EIP712Domain memory eip712Domain) internal pure returns (bytes32) {\n        return keccak256(abi.encode(\n                EIP712DOMAIN_TYPEHASH,\n                keccak256(bytes(eip712Domain.name)),\n                keccak256(bytes(eip712Domain.version)),\n//                eip712Domain.chainId,\n                eip712Domain.verifyingContract\n            ));\n    }\n\n    function hash(GSNTypes.RelayRequest memory req) internal pure returns (bytes32) {\n        return keccak256(abi.encode(\n                RELAY_REQUEST_TYPEHASH,\n                    req.target,\n                    keccak256(req.encodedFunction),\n                    hash(req.gasData),\n                    hash(req.relayData)\n            ));\n    }\n\n    function hash(GSNTypes.GasData memory req) internal pure returns (bytes32) {\n        return keccak256(abi.encode(\n                CALLDATA_TYPEHASH,\n                req.gasLimit,\n                req.gasPrice,\n                req.pctRelayFee,\n                req.baseRelayFee\n            ));\n    }\n\n    function hash(GSNTypes.RelayData memory req) internal pure returns (bytes32) {\n        return keccak256(abi.encode(\n                RELAYDATA_TYPEHASH,\n                req.senderAddress,\n                req.senderNonce,\n                req.relayWorker,\n                req.paymaster\n            ));\n    }\n\n    function verify(GSNTypes.RelayRequest memory req, bytes memory signature) public view returns (bool) {\n        bytes32 digest = keccak256(abi.encodePacked(\n                \"\\x19\\x01\", DOMAIN_SEPARATOR,\n                hash(req)\n            ));\n        return digest.recover(signature) == req.relayData.senderAddress;\n    }\n\n    function getChainID() internal pure returns (uint256) {\n//        uint256 id;\n//        assembly {\n//            id := chainid()\n//        }\n        return 7;\n    }\n}\n",
  "sourcePath": "@opengsn/gsn/contracts/utils/EIP712Sig.sol",
  "compiler": {
    "name": "solc",
    "version": "0.6.6+commit.6c089d02.Emscripten.clang"
  },
  "schemaVersion": "3.1.0",
  "updatedAt": "2020-05-15T22:18:26.057Z",
  "devdoc": {
    "methods": {}
  },
  "userdoc": {
    "methods": {}
  }
}