{
  "contractName": "ExampleGrantsManager",
  "abi": [
    {
      "inputs": [
        {
          "internalType": "address",
          "name": "universityAddress",
          "type": "address"
        }
      ],
      "stateMutability": "nonpayable",
      "type": "constructor"
    },
    {
      "anonymous": false,
      "inputs": [
        {
          "indexed": true,
          "internalType": "address",
          "name": "previousOwner",
          "type": "address"
        },
        {
          "indexed": true,
          "internalType": "address",
          "name": "newOwner",
          "type": "address"
        }
      ],
      "name": "OwnershipTransferred",
      "type": "event"
    },
    {
      "inputs": [],
      "name": "owner",
      "outputs": [
        {
          "internalType": "address",
          "name": "",
          "type": "address"
        }
      ],
      "stateMutability": "view",
      "type": "function"
    },
    {
      "inputs": [],
      "name": "renounceOwnership",
      "outputs": [],
      "stateMutability": "nonpayable",
      "type": "function"
    },
    {
      "inputs": [
        {
          "internalType": "address",
          "name": "newOwner",
          "type": "address"
        }
      ],
      "name": "transferOwnership",
      "outputs": [],
      "stateMutability": "nonpayable",
      "type": "function"
    },
    {
      "inputs": [
        {
          "internalType": "uint32",
          "name": "val",
          "type": "uint32"
        }
      ],
      "name": "changeRequiredAvg",
      "outputs": [],
      "stateMutability": "nonpayable",
      "type": "function"
    },
    {
      "inputs": [
        {
          "internalType": "uint32",
          "name": "val",
          "type": "uint32"
        }
      ],
      "name": "changeRequiredCount",
      "outputs": [],
      "stateMutability": "nonpayable",
      "type": "function"
    },
    {
      "inputs": [
        {
          "internalType": "uint256",
          "name": "val",
          "type": "uint256"
        }
      ],
      "name": "changeMaximumPrice",
      "outputs": [],
      "stateMutability": "nonpayable",
      "type": "function"
    },
    {
      "inputs": [
        {
          "internalType": "address",
          "name": "student",
          "type": "address"
        },
        {
          "internalType": "bool",
          "name": "val",
          "type": "bool"
        }
      ],
      "name": "markStudent",
      "outputs": [],
      "stateMutability": "nonpayable",
      "type": "function"
    },
    {
      "inputs": [],
      "name": "viewAllStudents",
      "outputs": [
        {
          "internalType": "address[]",
          "name": "",
          "type": "address[]"
        }
      ],
      "stateMutability": "nonpayable",
      "type": "function"
    },
    {
      "inputs": [
        {
          "internalType": "address",
          "name": "student",
          "type": "address"
        }
      ],
      "name": "viewAllGrantsForStudent",
      "outputs": [
        {
          "internalType": "uint256[]",
          "name": "",
          "type": "uint256[]"
        }
      ],
      "stateMutability": "nonpayable",
      "type": "function"
    },
    {
      "inputs": [
        {
          "internalType": "uint256",
          "name": "price",
          "type": "uint256"
        },
        {
          "internalType": "address",
          "name": "studentApplication",
          "type": "address"
        }
      ],
      "name": "studentRequestGrant",
      "outputs": [
        {
          "internalType": "bool",
          "name": "",
          "type": "bool"
        }
      ],
      "stateMutability": "nonpayable",
      "type": "function"
    }
  ],
  "bytecode": "0x608060405234801561001057600080fd5b50604051610e94380380610e948339818101604052602081101561003357600080fd5b505160006100486001600160e01b036100b716565b600080546001600160a01b0319166001600160a01b0383169081178255604051929350917f8be0079c531659141344cd1fd0a4f28419497f9722a3daafe3b4186f6b6457e0908290a350600180546001600160a01b0319166001600160a01b03929092169190911790556100bb565b3390565b610dca806100ca6000396000f3fe608060405234801561001057600080fd5b506004361061009e5760003560e01c806392cdf65f1161006657806392cdf65f14610174578063e60d0f4a14610197578063e6cff597146101bd578063efe633a0146101e0578063f2fde38b146102205761009e565b806326cfff0d146100a35780633541ae4b146100d357806369e7af43146100f0578063715018a6146101485780638da5cb5b14610150575b600080fd5b6100d1600480360360408110156100b957600080fd5b506001600160a01b0381351690602001351515610246565b005b6100d1600480360360208110156100e957600080fd5b50356102c9565b6100f8610326565b60408051602080825283518183015283519192839290830191858101910280838360005b8381101561013457818101518382015260200161011c565b505050509050019250505060405180910390f35b6100d161040c565b6101586104ae565b604080516001600160a01b039092168252519081900360200190f35b6100d16004803603602081101561018a57600080fd5b503563ffffffff166104bd565b6100f8600480360360208110156101ad57600080fd5b50356001600160a01b031661053d565b6100d1600480360360208110156101d357600080fd5b503563ffffffff166105d9565b61020c600480360360408110156101f657600080fd5b50803590602001356001600160a01b031661064d565b604080519115158252519081900360200190f35b6100d16004803603602081101561023657600080fd5b50356001600160a01b031661085a565b61024e610952565b6000546001600160a01b0390811691161461029e576040805162461bcd60e51b81526020600482018190526024820152600080516020610cf7833981519152604482015290519081900360640190fd5b6001600160a01b03919091166000908152600460205260409020805460ff1916911515919091179055565b6102d1610952565b6000546001600160a01b03908116911614610321576040805162461bcd60e51b81526020600482018190526024820152600080516020610cf7833981519152604482015290519081900360640190fd5b600655565b6001546060906001600160a01b031661033d610952565b6001600160a01b0316148061037157506103556104ae565b6001600160a01b0316610366610952565b6001600160a01b0316145b6103ac5760405162461bcd60e51b8152600401808060200182810382526025815260200180610d706025913960400191505060405180910390fd5b600380548060200260200160405190810160405280929190818152602001828054801561040257602002820191906000526020600020905b81546001600160a01b031681526001909101906020018083116103e4575b5050505050905090565b610414610952565b6000546001600160a01b03908116911614610464576040805162461bcd60e51b81526020600482018190526024820152600080516020610cf7833981519152604482015290519081900360640190fd5b600080546040516001600160a01b03909116907f8be0079c531659141344cd1fd0a4f28419497f9722a3daafe3b4186f6b6457e0908390a3600080546001600160a01b0319169055565b6000546001600160a01b031690565b6104c5610952565b6000546001600160a01b03908116911614610515576040805162461bcd60e51b81526020600482018190526024820152600080516020610cf7833981519152604482015290519081900360640190fd5b6005805463ffffffff9092166401000000000267ffffffff0000000019909216919091179055565b6001546060906001600160a01b0316610554610952565b6001600160a01b03161480610588575061056c6104ae565b6001600160a01b031661057d610952565b6001600160a01b0316145b6105c35760405162461bcd60e51b8152600401808060200182810382526025815260200180610d706025913960400191505060405180910390fd5b6001600160a01b03909116600052600260205290565b6105e1610952565b6000546001600160a01b03908116911614610631576040805162461bcd60e51b81526020600482018190526024820152600080516020610cf7833981519152604482015290519081900360640190fd5b6005805463ffffffff191663ffffffff92909216919091179055565b6001546000906001600160a01b03166316ded1ce610669610952565b6040518263ffffffff1660e01b815260040180826001600160a01b03166001600160a01b0316815260200191505060206040518083038186803b1580156106af57600080fd5b505afa1580156106c3573d6000803e3d6000fd5b505050506040513d60208110156106d957600080fd5b50516107165760405162461bcd60e51b8152600401808060200182810382526028815260200180610d176028913960400191505060405180910390fd5b6006548311156107575760405162461bcd60e51b815260040180806020018281038252602a815260200180610ca7602a913960400191505060405180910390fd5b60046000610763610952565b6001600160a01b0316815260208101919091526040016000205460ff16806107965750610796610791610952565b610956565b6107d15760405162461bcd60e51b8152600401808060200182810382526031815260200180610d3f6031913960400191505060405180910390fd5b6107db8284610b4a565b60036107e5610952565b81546001810183556000928352602083200180546001600160a01b0319166001600160a01b0392909216919091179055600290610820610952565b6001600160a01b03168152602080820192909252604001600090812080546001818101835591835292909120909101849055905092915050565b610862610952565b6000546001600160a01b039081169116146108b2576040805162461bcd60e51b81526020600482018190526024820152600080516020610cf7833981519152604482015290519081900360640190fd5b6001600160a01b0381166108f75760405162461bcd60e51b8152600401808060200182810382526026815260200180610cd16026913960400191505060405180910390fd5b600080546040516001600160a01b03808516939216917f8be0079c531659141344cd1fd0a4f28419497f9722a3daafe3b4186f6b6457e091a3600080546001600160a01b0319166001600160a01b0392909216919091179055565b3390565b600080826001600160a01b031663efedc6696040518163ffffffff1660e01b815260040160206040518083038186803b15801561099257600080fd5b505afa1580156109a6573d6000803e3d6000fd5b505050506040513d60208110156109bc57600080fd5b505190506000600382900b12156109d7576000915050610b45565b600154604080516369e2b82760e11b81526001600160a01b0386811660048301529151600093929092169163d3c5704e916024808201928692909190829003018186803b158015610a2757600080fd5b505afa158015610a3b573d6000803e3d6000fd5b505050506040513d6000823e601f3d908101601f191682016040526020811015610a6457600080fd5b8101908080516040519392919084640100000000821115610a8457600080fd5b908301906020820185811115610a9957600080fd5b8251866020820283011164010000000082111715610ab657600080fd5b82525081516020918201928201910280838360005b83811015610ae3578181015183820152602001610acb565b50505050905001604052505050519050600560049054906101000a900463ffffffff1663ffffffff16811015610b1e57600092505050610b45565b6000610b34600384900b8363ffffffff610bbb16565b60055463ffffffff16111593505050505b919050565b60015460408051631857299b60e31b81526001600160a01b038581166004830152602482018590529151919092169163c2b94cd891604480830192600092919082900301818387803b158015610b9f57600080fd5b505af1158015610bb3573d6000803e3d6000fd5b505050505050565b6000610bfd83836040518060400160405280601a81526020017f536166654d6174683a206469766973696f6e206279207a65726f000000000000815250610c04565b9392505050565b60008183610c905760405162461bcd60e51b81526004018080602001828103825283818151815260200191508051906020019080838360005b83811015610c55578181015183820152602001610c3d565b50505050905090810190601f168015610c825780820380516001836020036101000a031916815260200191505b509250505060405180910390fd5b506000838581610c9c57fe5b049594505050505056fe4772616e74734d616e616765723a20436c617373726f6f6d20707269636520697320746f6f20686967684f776e61626c653a206e6577206f776e657220697320746865207a65726f20616464726573734f776e61626c653a2063616c6c6572206973206e6f7420746865206f776e65724772616e74734d616e616765723a2053747564656e74206973206e6f7420726567697374657265644772616e74734d616e616765723a2053747564656e7420646f65736e2774206d65657420746865206372697465726961734772616e74734d616e616765723a2052656164207065726d697373696f6e2064656e696564a264697066735822122010448f8d5281829789acf088dcc84d68a2d139b4b58ac51d493560e15588e05164736f6c634300060b0033",
  "immutableReferences": {},
  "source": "// SPDX-License-Identifier: GPL-3.0-or-later\r\n\r\npragma solidity ^0.6.11;\r\n\r\nimport \"@openzeppelin/contracts/access/Ownable.sol\";\r\nimport \"@openzeppelin/contracts/math/SafeMath.sol\";\r\nimport \"@nomiclabs/buidler/console.sol\";\r\nimport \"./interface/IUniversity.sol\";\r\nimport \"./interface/IGrantsManager.sol\";\r\nimport \"./interface/IStudent.sol\";\r\nimport \"./interface/IStudentApplication.sol\";\r\n\r\n\r\ncontract ExampleGrantsManager is Ownable, IGrantsManager {\r\n    using SafeMath for uint256;\r\n\r\n    address _universityAddress;\r\n\r\n    mapping(address => uint256[]) _grantsLookup;\r\n    address[] _studentsLookup;\r\n    mapping(address => bool) _preApprovedStudents;\r\n    uint32 _requiredAvg;\r\n    uint32 _requiredCount;\r\n    uint256 _maximumPrice;\r\n\r\n    constructor(address universityAddress) public {\r\n        _universityAddress = universityAddress;\r\n    }\r\n\r\n    function changeRequiredAvg(uint32 val) public onlyOwner {\r\n        _requiredAvg = val;\r\n    }\r\n\r\n    function changeRequiredCount(uint32 val) public onlyOwner {\r\n        _requiredCount = val;\r\n    }\r\n\r\n    function changeMaximumPrice(uint256 val) public onlyOwner {\r\n        _maximumPrice = val;\r\n    }\r\n\r\n    function markStudent(address student, bool val) public onlyOwner {\r\n        _preApprovedStudents[student] = val;\r\n    }\r\n\r\n    function viewAllStudents() public override returns (address[] memory) {\r\n        require(\r\n            _msgSender() == _universityAddress || _msgSender() == owner(),\r\n            \"GrantsManager: Read permission denied\"\r\n        );\r\n        return _studentsLookup;\r\n    }\r\n\r\n    function viewAllGrantsForStudent(address student) public override returns (uint256[] memory){\r\n        require(\r\n            _msgSender() == _universityAddress || _msgSender() == owner(),\r\n            \"GrantsManager: Read permission denied\"\r\n        );\r\n        _grantsLookup[student];\r\n    }\r\n\r\n    function giveGrant(address studentApplication, uint price) internal {\r\n        IUniversity(_universityAddress).giveGrant(studentApplication, price);\r\n    }\r\n\r\n    function studentRequestGrant(uint256 price, address studentApplication)\r\n        public\r\n        override\r\n        returns (bool)\r\n    {\r\n        require(\r\n            IUniversity(_universityAddress).studentIsRegistered(_msgSender()),\r\n            \"GrantsManager: Student is not registered\"\r\n        );\r\n        require(\r\n            price <= _maximumPrice,\r\n            \"GrantsManager: Classroom price is too high\"\r\n        );\r\n        require(\r\n            _preApprovedStudents[_msgSender()] || _approvalCriteria(_msgSender()),\r\n            \"GrantsManager: Student doesn't meet the criterias\"\r\n        );\r\n        giveGrant(studentApplication, price);\r\n        _studentsLookup.push(_msgSender());\r\n        _grantsLookup[_msgSender()].push(price);\r\n        return true;\r\n    }\r\n\r\n    function _approvalCriteria(address student) internal view returns (bool) {\r\n        int32 score = IStudent(student).score();\r\n        if (score < 0) return false;\r\n        uint256 count = IUniversity(_universityAddress)\r\n            .viewStudentApplications(student)\r\n            .length;\r\n        if (count < _requiredCount) return false;\r\n        uint256 avgScore = uint256(score).div(count);\r\n        return avgScore >= _requiredAvg;\r\n    }\r\n}\r\n",
  "sourcePath": "/mnt/e/Repositories/uproot-trustless-contracts/contracts/ExampleGrantsManager.sol",
  "compiler": {
    "name": "solc",
    "version": "0.6.11+commit.5ef660b1.Emscripten.clang"
  },
  "schemaVersion": "3.1.0",
  "updatedAt": "2020-07-13T12:36:30.001Z",
  "devdoc": {
    "kind": "dev",
    "methods": {
      "owner()": {
        "details": "Returns the address of the current owner."
      },
      "renounceOwnership()": {
        "details": "Leaves the contract without owner. It will not be possible to call `onlyOwner` functions anymore. Can only be called by the current owner. NOTE: Renouncing ownership will leave the contract without an owner, thereby removing any functionality that is only available to the owner."
      },
      "transferOwnership(address)": {
        "details": "Transfers ownership of the contract to a new account (`newOwner`). Can only be called by the current owner."
      }
    },
    "version": 1
  },
  "userdoc": {
    "kind": "user",
    "methods": {},
    "version": 1
  }
}