{
  "contractName": "ExampleChallenge",
  "abi": [
    {
      "inputs": [],
      "name": "hintsCount",
      "outputs": [
        {
          "internalType": "uint256",
          "name": "",
          "type": "uint256"
        }
      ],
      "stateMutability": "pure",
      "type": "function",
      "constant": true
    },
    {
      "inputs": [
        {
          "internalType": "uint256",
          "name": "index",
          "type": "uint256"
        },
        {
          "internalType": "bytes32",
          "name": "seed",
          "type": "bytes32"
        }
      ],
      "name": "getHint",
      "outputs": [
        {
          "internalType": "bytes32",
          "name": "",
          "type": "bytes32"
        }
      ],
      "stateMutability": "view",
      "type": "function",
      "constant": true
    },
    {
      "inputs": [],
      "name": "viewMaterial",
      "outputs": [
        {
          "internalType": "string",
          "name": "",
          "type": "string"
        }
      ],
      "stateMutability": "pure",
      "type": "function",
      "constant": true
    }
  ],
  "bytecode": "0x608060405234801561001057600080fd5b506101e4806100206000396000f3fe608060405234801561001057600080fd5b50600436106100415760003560e01c80630b435c54146100465780637244654314610060578063cee0510f146100dd575b600080fd5b61004e610100565b60408051918252519081900360200190f35b610068610105565b6040805160208082528351818301528351919283929083019185019080838360005b838110156100a257818101518382015260200161008a565b50505050905090810190601f1680156100cf5780820380516001836020036101000a031916815260200191505b509250505060405180910390f35b61004e600480360360408110156100f357600080fd5b5080359060200135610125565b600290565b606060405180608001604052806050815260200161015f60509139905090565b60008261013e57506542415441544160d01b8117610158565b82600114156101585750600165bdbeabbeabbf60d01b0381175b9291505056fe68747470733a2f2f646f63732e676f6f676c652e636f6d2f646f63756d656e742f642f316d6c305037342d32306b4c737a2d4c66365942344674652d47736d4a334b714c495a625438586a6d76774d2fa264697066735822122037f55cddaf2420099e3285fc60c51efbe857448f17f133622ef985b4bc8b55de64736f6c634300060c0033",
  "immutableReferences": {},
  "source": "// SPDX-License-Identifier: GPL-3.0-or-later\r\n\r\npragma solidity ^0.6.11;\r\n\r\nimport \"./interface/IClassroomChallenge.sol\";\r\n\r\ncontract ExampleChallenge is IClassroomChallenge {\r\n    function hintsCount() external override pure returns (uint256) {\r\n        return 2;\r\n    }\r\n\r\n    function getHint(uint256 index, bytes32 seed)\r\n        public\r\n        override\r\n        view\r\n        returns (bytes32)\r\n    {\r\n        if (index == 0) return bytes32(\"BATATA\") | seed;\r\n        if (index == 1) return ~bytes32(\"BATATA\") | seed;\r\n    }\r\n\r\n    function viewMaterial() external override pure returns (string memory) {\r\n        return\r\n            \"https://docs.google.com/document/d/1ml0P74-20kLsz-Lf6YB4Fte-GsmJ3KqLIZbT8XjmvwM/\";\r\n    }\r\n}\r\n",
  "sourcePath": "/mnt/e/Repositories/uproot-trustless-contracts/contracts/ExampleChallenge.sol",
  "compiler": {
    "name": "solc",
    "version": "0.6.12+commit.27d51765.Emscripten.clang"
  },
  "schemaVersion": "3.1.0",
  "updatedAt": "2020-07-30T17:08:20.213Z",
  "networkType": "ethereum",
  "devdoc": {
    "kind": "dev",
    "methods": {},
    "version": 1
  },
  "userdoc": {
    "kind": "user",
    "methods": {},
    "version": 1
  }
}