{
  "contractName": "ExampleChallenge",
  "abi": [
    {
      "inputs": [],
      "name": "hintsCount",
      "outputs": [
        {
          "internalType": "uint256",
          "name": "",
          "type": "uint256"
        }
      ],
      "stateMutability": "pure",
      "type": "function"
    },
    {
      "inputs": [
        {
          "internalType": "uint256",
          "name": "index",
          "type": "uint256"
        },
        {
          "internalType": "bytes32",
          "name": "seed",
          "type": "bytes32"
        }
      ],
      "name": "getHint",
      "outputs": [
        {
          "internalType": "bytes32",
          "name": "",
          "type": "bytes32"
        }
      ],
      "stateMutability": "view",
      "type": "function"
    },
    {
      "inputs": [],
      "name": "viewMaterial",
      "outputs": [
        {
          "internalType": "string",
          "name": "",
          "type": "string"
        }
      ],
      "stateMutability": "pure",
      "type": "function"
    }
  ],
  "bytecode": "0x608060405234801561001057600080fd5b5061019c806100206000396000f3fe608060405234801561001057600080fd5b50600436106100415760003560e01c80630b435c54146100465780637244654314610060578063cee0510f146100dd575b600080fd5b61004e610100565b60408051918252519081900360200190f35b610068610105565b6040805160208082528351818301528351919283929083019185019080838360005b838110156100a257818101518382015260200161008a565b50505050905090810190601f1680156100cf5780820380516001836020036101000a031916815260200191505b509250505060405180910390f35b61004e600480360360408110156100f357600080fd5b5080359060200135610127565b600290565b60408051808201909152600881526713585d195c9a585b60c21b602082015290565b6000826101435750684841434b4d4f4e455960b81b8117610160565b82600114156101605750600168b7bebcb4b2b0b1baa760b81b0381175b9291505056fea264697066735822122098c5f7c99469c71f6c4cd3f11bc341b840279e5bf72b98ec5c2d1b3e6c08ed4b64736f6c634300060b0033",
  "immutableReferences": {},
  "source": "// SPDX-License-Identifier: GPL-3.0-or-later\r\n\r\npragma solidity ^0.6.11;\r\n\r\nimport \"./interface/IClassroomChallenge.sol\";\r\n\r\n\r\ncontract ExampleChallenge is IClassroomChallenge {\r\n    function hintsCount() \r\n        external\r\n        pure\r\n        override\r\n        returns (uint256) \r\n    {\r\n        return 2;\r\n    }\r\n\r\n    function getHint(uint256 index, bytes32 seed)\r\n        public\r\n        view\r\n        override\r\n        returns (bytes32)\r\n    {\r\n        if (index == 0) return bytes32(\"HACKMONEY\") | seed;\r\n        if (index == 1) return ~bytes32(\"HACKMONEY\") | seed;\r\n    }\r\n\r\n    function viewMaterial()\r\n        external\r\n        pure\r\n        override\r\n        returns (string memory) \r\n    {\r\n        return \"Material\";\r\n        //TODO: point a link to material hosted at IPFS/SIA using ENS\r\n    }\r\n}\r\n",
  "sourcePath": "/mnt/e/Repositories/uproot-trustless-contracts/contracts/ExampleChallenge.sol",
  "compiler": {
    "name": "solc",
    "version": "0.6.11+commit.5ef660b1.Emscripten.clang"
  },
  "schemaVersion": "3.1.0",
  "updatedAt": "2020-07-09T20:27:12.267Z",
  "devdoc": {
    "kind": "dev",
    "methods": {},
    "version": 1
  },
  "userdoc": {
    "kind": "user",
    "methods": {},
    "version": 1
  }
}