{
  "contractName": "Student",
  "abi": [
    {
      "inputs": [
        {
          "internalType": "bytes32",
          "name": "_name",
          "type": "bytes32"
        },
        {
          "internalType": "address payable",
          "name": "universityAddress",
          "type": "address"
        }
      ],
      "stateMutability": "nonpayable",
      "type": "constructor"
    },
    {
      "anonymous": false,
      "inputs": [
        {
          "indexed": false,
          "internalType": "bytes32",
          "name": "",
          "type": "bytes32"
        }
      ],
      "name": "LogChangeName",
      "type": "event"
    },
    {
      "anonymous": false,
      "inputs": [
        {
          "indexed": true,
          "internalType": "address",
          "name": "previousOwner",
          "type": "address"
        },
        {
          "indexed": true,
          "internalType": "address",
          "name": "newOwner",
          "type": "address"
        }
      ],
      "name": "OwnershipTransferred",
      "type": "event"
    },
    {
      "anonymous": false,
      "inputs": [
        {
          "indexed": true,
          "internalType": "bytes32",
          "name": "role",
          "type": "bytes32"
        },
        {
          "indexed": true,
          "internalType": "bytes32",
          "name": "previousAdminRole",
          "type": "bytes32"
        },
        {
          "indexed": true,
          "internalType": "bytes32",
          "name": "newAdminRole",
          "type": "bytes32"
        }
      ],
      "name": "RoleAdminChanged",
      "type": "event"
    },
    {
      "anonymous": false,
      "inputs": [
        {
          "indexed": true,
          "internalType": "bytes32",
          "name": "role",
          "type": "bytes32"
        },
        {
          "indexed": true,
          "internalType": "address",
          "name": "account",
          "type": "address"
        },
        {
          "indexed": true,
          "internalType": "address",
          "name": "sender",
          "type": "address"
        }
      ],
      "name": "RoleGranted",
      "type": "event"
    },
    {
      "anonymous": false,
      "inputs": [
        {
          "indexed": true,
          "internalType": "bytes32",
          "name": "role",
          "type": "bytes32"
        },
        {
          "indexed": true,
          "internalType": "address",
          "name": "account",
          "type": "address"
        },
        {
          "indexed": true,
          "internalType": "address",
          "name": "sender",
          "type": "address"
        }
      ],
      "name": "RoleRevoked",
      "type": "event"
    },
    {
      "inputs": [],
      "name": "DEFAULT_ADMIN_ROLE",
      "outputs": [
        {
          "internalType": "bytes32",
          "name": "",
          "type": "bytes32"
        }
      ],
      "stateMutability": "view",
      "type": "function"
    },
    {
      "inputs": [],
      "name": "MODIFY_SCORE_ROLE",
      "outputs": [
        {
          "internalType": "bytes32",
          "name": "",
          "type": "bytes32"
        }
      ],
      "stateMutability": "view",
      "type": "function"
    },
    {
      "inputs": [],
      "name": "READ_SCORE_ROLE",
      "outputs": [
        {
          "internalType": "bytes32",
          "name": "",
          "type": "bytes32"
        }
      ],
      "stateMutability": "view",
      "type": "function"
    },
    {
      "inputs": [
        {
          "internalType": "uint256",
          "name": "",
          "type": "uint256"
        }
      ],
      "name": "classroomAddresses",
      "outputs": [
        {
          "internalType": "address",
          "name": "",
          "type": "address"
        }
      ],
      "stateMutability": "view",
      "type": "function"
    },
    {
      "inputs": [
        {
          "internalType": "bytes32",
          "name": "role",
          "type": "bytes32"
        }
      ],
      "name": "getRoleAdmin",
      "outputs": [
        {
          "internalType": "bytes32",
          "name": "",
          "type": "bytes32"
        }
      ],
      "stateMutability": "view",
      "type": "function"
    },
    {
      "inputs": [
        {
          "internalType": "bytes32",
          "name": "role",
          "type": "bytes32"
        },
        {
          "internalType": "uint256",
          "name": "index",
          "type": "uint256"
        }
      ],
      "name": "getRoleMember",
      "outputs": [
        {
          "internalType": "address",
          "name": "",
          "type": "address"
        }
      ],
      "stateMutability": "view",
      "type": "function"
    },
    {
      "inputs": [
        {
          "internalType": "bytes32",
          "name": "role",
          "type": "bytes32"
        }
      ],
      "name": "getRoleMemberCount",
      "outputs": [
        {
          "internalType": "uint256",
          "name": "",
          "type": "uint256"
        }
      ],
      "stateMutability": "view",
      "type": "function"
    },
    {
      "inputs": [
        {
          "internalType": "bytes32",
          "name": "role",
          "type": "bytes32"
        },
        {
          "internalType": "address",
          "name": "account",
          "type": "address"
        }
      ],
      "name": "grantRole",
      "outputs": [],
      "stateMutability": "nonpayable",
      "type": "function"
    },
    {
      "inputs": [
        {
          "internalType": "bytes32",
          "name": "role",
          "type": "bytes32"
        },
        {
          "internalType": "address",
          "name": "account",
          "type": "address"
        }
      ],
      "name": "hasRole",
      "outputs": [
        {
          "internalType": "bool",
          "name": "",
          "type": "bool"
        }
      ],
      "stateMutability": "view",
      "type": "function"
    },
    {
      "inputs": [],
      "name": "name",
      "outputs": [
        {
          "internalType": "bytes32",
          "name": "",
          "type": "bytes32"
        }
      ],
      "stateMutability": "view",
      "type": "function"
    },
    {
      "inputs": [],
      "name": "owner",
      "outputs": [
        {
          "internalType": "address",
          "name": "",
          "type": "address"
        }
      ],
      "stateMutability": "view",
      "type": "function"
    },
    {
      "inputs": [],
      "name": "renounceOwnership",
      "outputs": [],
      "stateMutability": "nonpayable",
      "type": "function"
    },
    {
      "inputs": [
        {
          "internalType": "bytes32",
          "name": "role",
          "type": "bytes32"
        },
        {
          "internalType": "address",
          "name": "account",
          "type": "address"
        }
      ],
      "name": "renounceRole",
      "outputs": [],
      "stateMutability": "nonpayable",
      "type": "function"
    },
    {
      "inputs": [
        {
          "internalType": "bytes32",
          "name": "role",
          "type": "bytes32"
        },
        {
          "internalType": "address",
          "name": "account",
          "type": "address"
        }
      ],
      "name": "revokeRole",
      "outputs": [],
      "stateMutability": "nonpayable",
      "type": "function"
    },
    {
      "inputs": [
        {
          "internalType": "address",
          "name": "newOwner",
          "type": "address"
        }
      ],
      "name": "transferOwnership",
      "outputs": [],
      "stateMutability": "nonpayable",
      "type": "function"
    },
    {
      "inputs": [],
      "name": "university",
      "outputs": [
        {
          "internalType": "contract IUniversity",
          "name": "",
          "type": "address"
        }
      ],
      "stateMutability": "view",
      "type": "function"
    },
    {
      "inputs": [],
      "name": "ownerStudent",
      "outputs": [
        {
          "internalType": "address",
          "name": "",
          "type": "address"
        }
      ],
      "stateMutability": "view",
      "type": "function"
    },
    {
      "inputs": [
        {
          "internalType": "address",
          "name": "newOwner",
          "type": "address"
        }
      ],
      "name": "transferOwnershipStudent",
      "outputs": [],
      "stateMutability": "nonpayable",
      "type": "function"
    },
    {
      "inputs": [
        {
          "internalType": "bytes32",
          "name": "val",
          "type": "bytes32"
        }
      ],
      "name": "changeName",
      "outputs": [],
      "stateMutability": "nonpayable",
      "type": "function"
    },
    {
      "inputs": [],
      "name": "score",
      "outputs": [
        {
          "internalType": "int32",
          "name": "",
          "type": "int32"
        }
      ],
      "stateMutability": "view",
      "type": "function"
    },
    {
      "inputs": [
        {
          "internalType": "int32",
          "name": "val",
          "type": "int32"
        }
      ],
      "name": "addScore",
      "outputs": [],
      "stateMutability": "nonpayable",
      "type": "function"
    },
    {
      "inputs": [
        {
          "internalType": "int32",
          "name": "val",
          "type": "int32"
        }
      ],
      "name": "subScore",
      "outputs": [],
      "stateMutability": "nonpayable",
      "type": "function"
    },
    {
      "inputs": [
        {
          "internalType": "address",
          "name": "classroomAddress",
          "type": "address"
        }
      ],
      "name": "applyToClassroom",
      "outputs": [],
      "stateMutability": "nonpayable",
      "type": "function"
    },
    {
      "inputs": [
        {
          "internalType": "address",
          "name": "classroomAddress",
          "type": "address"
        },
        {
          "internalType": "bytes32",
          "name": "secret",
          "type": "bytes32"
        }
      ],
      "name": "setAnswerSecret",
      "outputs": [],
      "stateMutability": "nonpayable",
      "type": "function"
    },
    {
      "inputs": [
        {
          "internalType": "address",
          "name": "classroomAddress",
          "type": "address"
        }
      ],
      "name": "viewChallengeMaterial",
      "outputs": [
        {
          "internalType": "string",
          "name": "",
          "type": "string"
        }
      ],
      "stateMutability": "view",
      "type": "function"
    },
    {
      "inputs": [
        {
          "internalType": "address",
          "name": "classroomAddress",
          "type": "address"
        }
      ],
      "name": "viewMyApplication",
      "outputs": [
        {
          "internalType": "address",
          "name": "",
          "type": "address"
        }
      ],
      "stateMutability": "view",
      "type": "function"
    },
    {
      "inputs": [
        {
          "internalType": "address",
          "name": "classroomAddress",
          "type": "address"
        }
      ],
      "name": "viewMyApplicationState",
      "outputs": [
        {
          "internalType": "uint256",
          "name": "",
          "type": "uint256"
        }
      ],
      "stateMutability": "view",
      "type": "function"
    },
    {
      "inputs": [
        {
          "internalType": "address",
          "name": "classroom",
          "type": "address"
        },
        {
          "internalType": "address",
          "name": "to",
          "type": "address"
        }
      ],
      "name": "refundApplicationFromClassroom",
      "outputs": [],
      "stateMutability": "nonpayable",
      "type": "function"
    },
    {
      "inputs": [
        {
          "internalType": "address",
          "name": "classroom",
          "type": "address"
        },
        {
          "internalType": "address",
          "name": "to",
          "type": "address"
        }
      ],
      "name": "withdrawAllResultsFromClassroom",
      "outputs": [],
      "stateMutability": "nonpayable",
      "type": "function"
    },
    {
      "inputs": [
        {
          "internalType": "address",
          "name": "classroom",
          "type": "address"
        },
        {
          "internalType": "address",
          "name": "to",
          "type": "address"
        },
        {
          "internalType": "uint256",
          "name": "val",
          "type": "uint256"
        }
      ],
      "name": "withdrawResultsFromClassroom",
      "outputs": [],
      "stateMutability": "nonpayable",
      "type": "function"
    },
    {
      "inputs": [
        {
          "internalType": "address",
          "name": "application",
          "type": "address"
        },
        {
          "internalType": "address",
          "name": "to",
          "type": "address"
        }
      ],
      "name": "refundApplication",
      "outputs": [],
      "stateMutability": "nonpayable",
      "type": "function"
    },
    {
      "inputs": [
        {
          "internalType": "address",
          "name": "application",
          "type": "address"
        },
        {
          "internalType": "address",
          "name": "to",
          "type": "address"
        }
      ],
      "name": "withdrawAllResultsFromApplication",
      "outputs": [],
      "stateMutability": "nonpayable",
      "type": "function"
    },
    {
      "inputs": [
        {
          "internalType": "address",
          "name": "application",
          "type": "address"
        },
        {
          "internalType": "address",
          "name": "to",
          "type": "address"
        },
        {
          "internalType": "uint256",
          "name": "val",
          "type": "uint256"
        }
      ],
      "name": "withdrawResultsFromApplication",
      "outputs": [],
      "stateMutability": "nonpayable",
      "type": "function"
    },
    {
      "inputs": [
        {
          "internalType": "address",
          "name": "grantsManager",
          "type": "address"
        },
        {
          "internalType": "address",
          "name": "studentApplication",
          "type": "address"
        }
      ],
      "name": "requestGrant",
      "outputs": [],
      "stateMutability": "nonpayable",
      "type": "function"
    }
  ],
  "bytecode": "0x60806040523480156200001157600080fd5b506040516200272f3803806200272f833981810160405260408110156200003757600080fd5b5080516020909101516000620000556001600160e01b03620001d116565b600080546001600160a01b0319166001600160a01b0383169081178255604051929350917f8be0079c531659141344cd1fd0a4f28419497f9722a3daafe3b4186f6b6457e0908290a35060028290556005805463ffffffff19169055600380546001600160a01b0319166001600160a01b038316179055620000eb6000620000dc620001d1565b6001600160e01b03620001d516565b60408051704d4f444946595f53434f52455f524f4c4560781b815290519081900360110190206200012690826001600160e01b03620001ee16565b6001600160a01b038116620001436001600160e01b03620001d116565b6001600160a01b031614620001c957604080516e524541445f53434f52455f524f4c4560881b8152905190819003600f0190206200018b90826001600160e01b03620001ee16565b620001a16000826001600160e01b03620001ee16565b620001c96000620001ba6001600160e01b03620001d116565b6001600160e01b036200026416565b5050620005b0565b3390565b620001ea82826001600160e01b03620002dd16565b5050565b6000828152600160205260409020600201546200022790620002186001600160e01b03620001d116565b6001600160e01b036200036116565b620001d55760405162461bcd60e51b815260040180806020018281038252602f815260200180620026d1602f913960400191505060405180910390fd5b620002776001600160e01b03620001d116565b6001600160a01b0316816001600160a01b031614620002c85760405162461bcd60e51b815260040180806020018281038252602f81526020018062002700602f913960400191505060405180910390fd5b620001ea82826001600160e01b036200039016565b60008281526001602090815260409091206200030491839062001c7862000414821b17901c565b15620001ea576200031d6001600160e01b03620001d116565b6001600160a01b0316816001600160a01b0316837f2f8788117e7eff1d82e926ec794901d17c78024a50270940304540a733656f0d60405160405180910390a45050565b600082815260016020908152604082206200038791849062001c8d62000434821b17901c565b90505b92915050565b6000828152600160209081526040909120620003b791839062001ca262000454821b17901c565b15620001ea57620003d06001600160e01b03620001d116565b6001600160a01b0316816001600160a01b0316837ff6391f5c32d9c69d2a47ea670b442974b53935d1edc7fd64eb21e047a839171b60405160405180910390a45050565b600062000387836001600160a01b0384166001600160e01b036200047416565b600062000387836001600160a01b0384166001600160e01b03620004cc16565b600062000387836001600160a01b0384166001600160e01b03620004e416565b60006200048b83836001600160e01b03620004cc16565b620004c3575081546001818101845560008481526020808220909301849055845484825282860190935260409020919091556200038a565b5060006200038a565b60009081526001919091016020526040902054151590565b60008181526001830160205260408120548015620005a557835460001980830191908101906000908790839081106200051957fe5b90600052602060002001549050808760000184815481106200053757fe5b6000918252602080832090910192909255828152600189810190925260409020908401905586548790806200056857fe5b600190038181906000526020600020016000905590558660010160008781526020019081526020016000206000905560019450505050506200038a565b60009150506200038a565b61211180620005c06000396000f3fe608060405234801561001057600080fd5b50600436106101c65760003560e01c80638257770b116100fa578063ae12894e1161009d578063ae12894e1461057e578063ba6019d314610586578063ca15c873146105bc578063d547741f146105d9578063db4d5e8714610605578063dc0985dd14610633578063efedc66914610661578063f2fde38b14610682578063fd5bf30a146106a8576101c6565b80638257770b1461047b578063898855ed146104985780638da5cb5b146104b55780639010d07c146104bd57806391d14854146104e05780639fcb17de14610520578063a217fddf14610556578063aa4f38c71461055e576101c6565b806336568abe1161016d57806336568abe146102e05780635227c6701461030c5780635bfd3b7d14610332578063610613331461035e5780636542c1591461038c5780636865135014610427578063715018a6146104475780637206f3d61461044f5780637a6c8b5314610457576101c6565b806306fdde03146101cb5780630e01e8b6146101e557806318a9e948146102155780631b99219f1461023b578063248a9ca314610243578063295869be146102605780632f2ff15d1461028e57806331fb5fde146102ba575b600080fd5b6101d36106ce565b60408051918252519081900360200190f35b610213600480360360408110156101fb57600080fd5b506001600160a01b03813581169160200135166106d4565b005b6102136004803603602081101561022b57600080fd5b50356001600160a01b03166107a0565b6101d36107da565b6101d36004803603602081101561025957600080fd5b5035610801565b6102136004803603604081101561027657600080fd5b506001600160a01b0381358116916020013516610816565b610213600480360360408110156102a457600080fd5b50803590602001356001600160a01b03166108e0565b610213600480360360208110156102d057600080fd5b50356001600160a01b0316610948565b610213600480360360408110156102f657600080fd5b50803590602001356001600160a01b0316610b28565b6101d36004803603602081101561032257600080fd5b50356001600160a01b0316610b89565b6102136004803603604081101561034857600080fd5b506001600160a01b038135169060200135610d75565b6102136004803603604081101561037457600080fd5b506001600160a01b0381358116916020013516610e1b565b6103b2600480360360208110156103a257600080fd5b50356001600160a01b0316610ee1565b6040805160208082528351818301528351919283929083019185019080838360005b838110156103ec5781810151838201526020016103d4565b50505050905090810190601f1680156104195780820380516001836020036101000a031916815260200191505b509250505060405180910390f35b6102136004803603602081101561043d57600080fd5b503560030b611070565b610213611165565b6101d3611207565b61045f611230565b604080516001600160a01b039092168252519081900360200190f35b61045f6004803603602081101561049157600080fd5b503561123f565b610213600480360360208110156104ae57600080fd5b5035611266565b61045f6112f9565b61045f600480360360408110156104d357600080fd5b5080359060200135611308565b61050c600480360360408110156104f657600080fd5b50803590602001356001600160a01b031661132f565b604080519115158252519081900360200190f35b6102136004803603606081101561053657600080fd5b506001600160a01b0381358116916020810135909116906040013561134d565b6101d3611422565b6102136004803603602081101561057457600080fd5b503560030b611427565b61045f61151b565b6102136004803603606081101561059c57600080fd5b506001600160a01b0381358116916020810135909116906040013561152a565b6101d3600480360360208110156105d257600080fd5b50356115f6565b610213600480360360408110156105ef57600080fd5b50803590602001356001600160a01b031661160d565b6102136004803603604081101561061b57600080fd5b506001600160a01b0381358116916020013516611666565b6102136004803603604081101561064957600080fd5b506001600160a01b0381358116916020013516611716565b61066961198f565b60408051600392830b90920b8252519081900360200190f35b6102136004803603602081101561069857600080fd5b50356001600160a01b0316611a07565b61045f600480360360208110156106be57600080fd5b50356001600160a01b0316611aff565b60025481565b6106dc611cb7565b6000546001600160a01b0390811691161461072c576040805162461bcd60e51b81526020600482018190526024820152600080516020612064833981519152604482015290519081900360640190fd5b816001600160a01b0316636d49817b826040518263ffffffff1660e01b815260040180826001600160a01b03166001600160a01b03168152602001915050600060405180830381600087803b15801561078457600080fd5b505af1158015610798573d6000803e3d6000fd5b505050505050565b604080516e524541445f53434f52455f524f4c4560881b8152905190819003600f0190206107ce90826108e0565b6107d781611a07565b50565b604080516e524541445f53434f52455f524f4c4560881b8152905190819003600f01902081565b60009081526001602052604090206002015490565b61081e611cb7565b6000546001600160a01b0390811691161461086e576040805162461bcd60e51b81526020600482018190526024820152600080516020612064833981519152604482015290519081900360640190fd5b6108dc826001600160a01b0316636e8055a76040518163ffffffff1660e01b815260040160206040518083038186803b1580156108aa57600080fd5b505afa1580156108be573d6000803e3d6000fd5b505050506040513d60208110156108d457600080fd5b505182611666565b5050565b600082815260016020526040902060020154610903906108fe611cb7565b61132f565b61093e5760405162461bcd60e51b815260040180806020018281038252602f815260200180611f63602f913960400191505060405180910390fd5b6108dc8282611cbb565b610950611cb7565b6000546001600160a01b039081169116146109a0576040805162461bcd60e51b81526020600482018190526024820152600080516020612064833981519152604482015290519081900360640190fd5b600354604080516385dade6160e01b81526001600160a01b038481166004830152915191909216916385dade61916024808301926020929190829003018186803b1580156109ed57600080fd5b505afa158015610a01573d6000803e3d6000fd5b505050506040513d6020811015610a1757600080fd5b5051610a545760405162461bcd60e51b81526004018080602001828103825260298152602001806120b36029913960400191505060405180910390fd5b604080516e524541445f53434f52455f524f4c4560881b8152905190819003600f019020610a82908261093e565b806001600160a01b0316631b9dbc606040518163ffffffff1660e01b8152600401600060405180830381600087803b158015610abd57600080fd5b505af1158015610ad1573d6000803e3d6000fd5b5050600480546001810182556000919091527f8a35acfbc15ff81a39ae7d344fd709f28e8600b4aa8c65c6b64bfe7fe36bd19b0180546001600160a01b0319166001600160a01b0394909416939093179092555050565b610b30611cb7565b6001600160a01b0316816001600160a01b031614610b7f5760405162461bcd60e51b815260040180806020018281038252602f815260200180612084602f913960400191505060405180910390fd5b6108dc8282611d2a565b6000610b93611cb7565b6000546001600160a01b03908116911614610be3576040805162461bcd60e51b81526020600482018190526024820152600080516020612064833981519152604482015290519081900360640190fd5b600354604080516385dade6160e01b81526001600160a01b038581166004830152915191909216916385dade61916024808301926020929190829003018186803b158015610c3057600080fd5b505afa158015610c44573d6000803e3d6000fd5b505050506040513d6020811015610c5a57600080fd5b5051610c975760405162461bcd60e51b81526004018080602001828103825260298152602001806120b36029913960400191505060405180910390fd5b6000826001600160a01b0316636e8055a76040518163ffffffff1660e01b815260040160206040518083038186803b158015610cd257600080fd5b505afa158015610ce6573d6000803e3d6000fd5b505050506040513d6020811015610cfc57600080fd5b5051604080516332c3db0f60e11b815290519192506001600160a01b03831691636587b61e91600480820192602092909190829003018186803b158015610d4257600080fd5b505afa158015610d56573d6000803e3d6000fd5b505050506040513d6020811015610d6c57600080fd5b50519392505050565b610d7d611cb7565b6000546001600160a01b03908116911614610dcd576040805162461bcd60e51b81526020600482018190526024820152600080516020612064833981519152604482015290519081900360640190fd5b610dd682611aff565b6001600160a01b0316631a16e41f826040518263ffffffff1660e01b815260040180828152602001915050600060405180830381600087803b15801561078457600080fd5b610e23611cb7565b6000546001600160a01b03908116911614610e73576040805162461bcd60e51b81526020600482018190526024820152600080516020612064833981519152604482015290519081900360640190fd5b6108dc826001600160a01b0316636e8055a76040518163ffffffff1660e01b815260040160206040518083038186803b158015610eaf57600080fd5b505afa158015610ec3573d6000803e3d6000fd5b505050506040513d6020811015610ed957600080fd5b5051826106d4565b6060610eeb611cb7565b6000546001600160a01b03908116911614610f3b576040805162461bcd60e51b81526020600482018190526024820152600080516020612064833981519152604482015290519081900360640190fd5b610f4482611aff565b6001600160a01b03166337edd7e76040518163ffffffff1660e01b815260040160006040518083038186803b158015610f7c57600080fd5b505afa158015610f90573d6000803e3d6000fd5b505050506040513d6000823e601f3d908101601f191682016040526020811015610fb957600080fd5b8101908080516040519392919084640100000000821115610fd957600080fd5b908301906020820185811115610fee57600080fd5b825164010000000081118282018810171561100857600080fd5b82525081516020918201929091019080838360005b8381101561103557818101518382015260200161101d565b50505050905090810190601f1680156110625780820380516001836020036101000a031916815260200191505b506040525050509050919050565b60408051704d4f444946595f53434f52455f524f4c4560781b815290519081900360110190206110a2906108fe611cb7565b6110dd5760405162461bcd60e51b815260040180806020018281038252602e815260200180611f92602e913960400191505060405180910390fd5b600554600390810b828103820b910b1361113e576040805162461bcd60e51b815260206004820152601c60248201527f53747564656e743a2062616420677261646573206f766572666c6f7700000000604482015290519081900360640190fd5b60058054600381810b9390930390920b63ffffffff1663ffffffff19909216919091179055565b61116d611cb7565b6000546001600160a01b039081169116146111bd576040805162461bcd60e51b81526020600482018190526024820152600080516020612064833981519152604482015290519081900360640190fd5b600080546040516001600160a01b03909116907f8be0079c531659141344cd1fd0a4f28419497f9722a3daafe3b4186f6b6457e0908390a3600080546001600160a01b0319169055565b60408051704d4f444946595f53434f52455f524f4c4560781b8152905190819003601101902081565b600061123a6112f9565b905090565b6004818154811061124c57fe5b6000918252602090912001546001600160a01b0316905081565b61126e611cb7565b6000546001600160a01b039081169116146112be576040805162461bcd60e51b81526020600482018190526024820152600080516020612064833981519152604482015290519081900360640190fd5b60028190556040805182815290517f9f8929be552430dd6434c446d106c34954b2040ca8c4dbf42a39323dd6cda3ca9181900360200190a150565b6000546001600160a01b031690565b6000828152600160205260408120611326908363ffffffff611d9916565b90505b92915050565b6000828152600160205260408120611326908363ffffffff611c8d16565b611355611cb7565b6000546001600160a01b039081169116146113a5576040805162461bcd60e51b81526020600482018190526024820152600080516020612064833981519152604482015290519081900360640190fd5b826001600160a01b031663f3fef3a383836040518363ffffffff1660e01b815260040180836001600160a01b03166001600160a01b0316815260200182815260200192505050600060405180830381600087803b15801561140557600080fd5b505af1158015611419573d6000803e3d6000fd5b50505050505050565b600081565b60408051704d4f444946595f53434f52455f524f4c4560781b81529051908190036011019020611459906108fe611cb7565b6114945760405162461bcd60e51b815260040180806020018281038252602e815260200180611f92602e913960400191505060405180910390fd5b600554600390810b808301820b910b126114f5576040805162461bcd60e51b815260206004820152601d60248201527f53747564656e743a20676f6f6420677261646573206f766572666c6f77000000604482015290519081900360640190fd5b60058054600381810b90930190920b63ffffffff1663ffffffff19909216919091179055565b6003546001600160a01b031681565b611532611cb7565b6000546001600160a01b03908116911614611582576040805162461bcd60e51b81526020600482018190526024820152600080516020612064833981519152604482015290519081900360640190fd5b6115f1836001600160a01b0316636e8055a76040518163ffffffff1660e01b815260040160206040518083038186803b1580156115be57600080fd5b505afa1580156115d2573d6000803e3d6000fd5b505050506040513d60208110156115e857600080fd5b5051838361134d565b505050565b600081815260016020526040812061132990611da5565b60008281526001602052604090206002015461162b906108fe611cb7565b610b7f5760405162461bcd60e51b81526004018080602001828103825260308152602001806120346030913960400191505060405180910390fd5b61166e611cb7565b6000546001600160a01b039081169116146116be576040805162461bcd60e51b81526020600482018190526024820152600080516020612064833981519152604482015290519081900360640190fd5b816001600160a01b03166366995a46826040518263ffffffff1660e01b815260040180826001600160a01b03166001600160a01b03168152602001915050600060405180830381600087803b15801561078457600080fd5b61171e611cb7565b6000546001600160a01b0390811691161461176e576040805162461bcd60e51b81526020600482018190526024820152600080516020612064833981519152604482015290519081900360640190fd5b306001600160a01b0316816001600160a01b031663b8f31a816040518163ffffffff1660e01b815260040160206040518083038186803b1580156117b157600080fd5b505afa1580156117c5573d6000803e3d6000fd5b505050506040513d60208110156117db57600080fd5b50516001600160a01b0316146118225760405162461bcd60e51b8152600401808060200182810382526022815260200180611fe66022913960400191505060405180910390fd5b6000816001600160a01b031663f745adfc6040518163ffffffff1660e01b815260040160206040518083038186803b15801561185d57600080fd5b505afa158015611871573d6000803e3d6000fd5b505050506040513d602081101561188757600080fd5b5051604080516e524541445f53434f52455f524f4c4560881b8152905190819003600f0190209091506118ba908461093e565b826001600160a01b031663efe633a082846040518363ffffffff1660e01b815260040180838152602001826001600160a01b03166001600160a01b0316815260200192505050602060405180830381600087803b15801561191a57600080fd5b505af115801561192e573d6000803e3d6000fd5b505050506040513d602081101561194457600080fd5b50516115f1576040805162461bcd60e51b815260206004820152601560248201527414dd1d59195b9d0e8819dc985b9d0819195b9a5959605a1b604482015290519081900360640190fd5b604080516e524541445f53434f52455f524f4c4560881b8152905190819003600f0190206000906119c2906108fe611cb7565b6119fd5760405162461bcd60e51b815260040180806020018281038252602c815260200180612008602c913960400191505060405180910390fd5b5060055460030b90565b611a0f611cb7565b6000546001600160a01b03908116911614611a5f576040805162461bcd60e51b81526020600482018190526024820152600080516020612064833981519152604482015290519081900360640190fd5b6001600160a01b038116611aa45760405162461bcd60e51b8152600401808060200182810382526026815260200180611fc06026913960400191505060405180910390fd5b600080546040516001600160a01b03808516939216917f8be0079c531659141344cd1fd0a4f28419497f9722a3daafe3b4186f6b6457e091a3600080546001600160a01b0319166001600160a01b0392909216919091179055565b6000611b09611cb7565b6000546001600160a01b03908116911614611b59576040805162461bcd60e51b81526020600482018190526024820152600080516020612064833981519152604482015290519081900360640190fd5b600354604080516385dade6160e01b81526001600160a01b038581166004830152915191909216916385dade61916024808301926020929190829003018186803b158015611ba657600080fd5b505afa158015611bba573d6000803e3d6000fd5b505050506040513d6020811015611bd057600080fd5b5051611c0d5760405162461bcd60e51b81526004018080602001828103825260298152602001806120b36029913960400191505060405180910390fd5b816001600160a01b0316636e8055a76040518163ffffffff1660e01b815260040160206040518083038186803b158015611c4657600080fd5b505afa158015611c5a573d6000803e3d6000fd5b505050506040513d6020811015611c7057600080fd5b505192915050565b6000611326836001600160a01b038416611db0565b6000611326836001600160a01b038416611dfa565b6000611326836001600160a01b038416611e12565b3390565b6000828152600160205260409020611cd9908263ffffffff611c7816565b156108dc57611ce6611cb7565b6001600160a01b0316816001600160a01b0316837f2f8788117e7eff1d82e926ec794901d17c78024a50270940304540a733656f0d60405160405180910390a45050565b6000828152600160205260409020611d48908263ffffffff611ca216565b156108dc57611d55611cb7565b6001600160a01b0316816001600160a01b0316837ff6391f5c32d9c69d2a47ea670b442974b53935d1edc7fd64eb21e047a839171b60405160405180910390a45050565b60006113268383611ed8565b600061132982611f3c565b6000611dbc8383611dfa565b611df257508154600181810184556000848152602080822090930184905584548482528286019093526040902091909155611329565b506000611329565b60009081526001919091016020526040902054151590565b60008181526001830160205260408120548015611ece5783546000198083019190810190600090879083908110611e4557fe5b9060005260206000200154905080876000018481548110611e6257fe5b600091825260208083209091019290925582815260018981019092526040902090840190558654879080611e9257fe5b60019003818190600052602060002001600090559055866001016000878152602001908152602001600020600090556001945050505050611329565b6000915050611329565b81546000908210611f1a5760405162461bcd60e51b8152600401808060200182810382526022815260200180611f416022913960400191505060405180910390fd5b826000018281548110611f2957fe5b9060005260206000200154905092915050565b549056fe456e756d657261626c655365743a20696e646578206f7574206f6620626f756e6473416363657373436f6e74726f6c3a2073656e646572206d75737420626520616e2061646d696e20746f206772616e7453747564656e743a2063616c6c657220646f65736e27742068617665204d4f444946595f53434f52455f524f4c454f776e61626c653a206e6577206f776e657220697320746865207a65726f206164647265737353747564656e743a2077726f6e67206170706c69636174696f6e206164647265737353747564656e743a2063616c6c657220646f65736e2774206861766520524541445f53434f52455f524f4c45416363657373436f6e74726f6c3a2073656e646572206d75737420626520616e2061646d696e20746f207265766f6b654f776e61626c653a2063616c6c6572206973206e6f7420746865206f776e6572416363657373436f6e74726f6c3a2063616e206f6e6c792072656e6f756e636520726f6c657320666f722073656c6653747564656e743a2061646472657373206973206e6f7420612076616c696420636c617373726f6f6da26469706673582212204e06ff5ceda83bb918f4b1e2b6f29cae34e60f7460b107181af991e0f49e7b6564736f6c634300060b0033416363657373436f6e74726f6c3a2073656e646572206d75737420626520616e2061646d696e20746f206772616e74416363657373436f6e74726f6c3a2063616e206f6e6c792072656e6f756e636520726f6c657320666f722073656c66",
  "immutableReferences": {},
  "source": "// SPDX-License-Identifier: GPL-3.0-or-later\r\n\r\npragma solidity ^0.6.11;\r\nimport \"@openzeppelin/contracts/math/SafeMath.sol\";\r\nimport \"@openzeppelin/contracts/access/AccessControl.sol\";\r\nimport \"@openzeppelin/contracts/access/Ownable.sol\";\r\nimport \"@nomiclabs/buidler/console.sol\";\r\n//import \"@nomiclabs/buidler/console.sol\";\r\nimport \"./interface/IStudent.sol\";\r\nimport \"./interface/IClassroom.sol\";\r\nimport \"./interface/IUniversity.sol\";\r\nimport \"./interface/IStudentApplication.sol\";\r\nimport \"./interface/IGrantsManager.sol\";\r\n\r\ncontract Student is Ownable, AccessControl, IStudent {\r\n    using SafeMath for uint256;\r\n\r\n    //READ_SCORE_ROLE can read student Score\r\n    bytes32 public constant READ_SCORE_ROLE = keccak256(\"READ_SCORE_ROLE\");\r\n    //MODIFY_SCORE_ROLE can read student Score\r\n    bytes32 public constant MODIFY_SCORE_ROLE = keccak256(\"MODIFY_SCORE_ROLE\");\r\n\r\n    bytes32 public name;\r\n    IUniversity public university;\r\n    address[] public classroomAddresses;\r\n    int32 _score;\r\n\r\n    constructor(bytes32 _name, address payable universityAddress) public {\r\n        name = _name;\r\n        _score = 0;\r\n        university = IUniversity(universityAddress);\r\n        _setupRole(DEFAULT_ADMIN_ROLE, _msgSender());\r\n        grantRole(MODIFY_SCORE_ROLE, universityAddress);\r\n        if (_msgSender() != universityAddress) {\r\n            grantRole(READ_SCORE_ROLE, universityAddress);\r\n            grantRole(DEFAULT_ADMIN_ROLE, universityAddress);\r\n            renounceRole(DEFAULT_ADMIN_ROLE, _msgSender());\r\n        }\r\n    }\r\n\r\n    event LogChangeName(bytes32);\r\n\r\n    function ownerStudent() public override view returns (address) {\r\n        return owner();\r\n    }\r\n\r\n    function transferOwnershipStudent(address newOwner) public override {\r\n        grantRole(READ_SCORE_ROLE, newOwner);\r\n        transferOwnership(newOwner);\r\n    }\r\n\r\n    function changeName(bytes32 val) public onlyOwner {\r\n        name = val;\r\n        emit LogChangeName(name);\r\n    }\r\n\r\n    function score() public override view returns (int32) {\r\n        require(\r\n            hasRole(READ_SCORE_ROLE, _msgSender()),\r\n            \"Student: caller doesn't have READ_SCORE_ROLE\"\r\n        );\r\n        return _score;\r\n    }\r\n\r\n    function addScore(int32 val) public override {\r\n        require(\r\n            hasRole(MODIFY_SCORE_ROLE, _msgSender()),\r\n            \"Student: caller doesn't have MODIFY_SCORE_ROLE\"\r\n        );\r\n        require(_score < _score + val, \"Student: good grades overflow\");\r\n        _score += val;\r\n    }\r\n\r\n    function subScore(int32 val) public override {\r\n        require(\r\n            hasRole(MODIFY_SCORE_ROLE, _msgSender()),\r\n            \"Student: caller doesn't have MODIFY_SCORE_ROLE\"\r\n        );\r\n        require(_score > _score - val, \"Student: bad grades overflow\");\r\n        _score -= val;\r\n    }\r\n\r\n    function applyToClassroom(address classroomAddress) public onlyOwner {\r\n        require(\r\n            university.isValidClassroom(classroomAddress),\r\n            \"Student: address is not a valid classroom\"\r\n        );\r\n        _setupRole(READ_SCORE_ROLE, classroomAddress);\r\n        IClassroom(classroomAddress).studentApply();\r\n        classroomAddresses.push(classroomAddress);\r\n    }\r\n\r\n    function setAnswerSecret(address classroomAddress, bytes32 secret)\r\n        public\r\n        onlyOwner\r\n    {\r\n        IStudentApplication(viewMyApplication(classroomAddress))\r\n            .setAnswerSecret(secret);\r\n    }\r\n\r\n    function viewChallengeMaterial(address classroomAddress)\r\n        public\r\n        view\r\n        onlyOwner\r\n        returns (string memory)\r\n    {\r\n        return\r\n            IStudentApplication(viewMyApplication(classroomAddress))\r\n                .viewChallengeMaterial();\r\n    }\r\n\r\n    function viewMyApplication(address classroomAddress)\r\n        public\r\n        view\r\n        onlyOwner\r\n        returns (address)\r\n    {\r\n        require(\r\n            university.isValidClassroom(classroomAddress),\r\n            \"Student: address is not a valid classroom\"\r\n        );\r\n        return IClassroom(classroomAddress).viewMyApplication();\r\n    }\r\n\r\n    function viewMyApplicationState(address classroomAddress)\r\n        public\r\n        view\r\n        onlyOwner\r\n        returns (uint256)\r\n    {\r\n        require(\r\n            university.isValidClassroom(classroomAddress),\r\n            \"Student: address is not a valid classroom\"\r\n        );\r\n        address app = IClassroom(classroomAddress).viewMyApplication();\r\n        return IStudentApplication(app).applicationState();\r\n    }\r\n\r\n    function refundApplicationFromClassroom(address classroom, address to)\r\n        public\r\n        onlyOwner\r\n    {\r\n        refundApplication(IClassroom(classroom).viewMyApplication(), to);\r\n    }\r\n\r\n    function withdrawAllResultsFromClassroom(address classroom, address to)\r\n        public\r\n        onlyOwner\r\n    {\r\n        withdrawAllResultsFromApplication(\r\n            IClassroom(classroom).viewMyApplication(),\r\n            to\r\n        );\r\n    }\r\n\r\n    function withdrawResultsFromClassroom(\r\n        address classroom,\r\n        address to,\r\n        uint256 val\r\n    ) public onlyOwner {\r\n        withdrawResultsFromApplication(\r\n            IClassroom(classroom).viewMyApplication(),\r\n            to,\r\n            val\r\n        );\r\n    }\r\n\r\n    function refundApplication(address application, address to)\r\n        public\r\n        onlyOwner\r\n    {\r\n        IStudentApplication(application).refundPayment(to);\r\n    }\r\n\r\n    function withdrawAllResultsFromApplication(address application, address to)\r\n        public\r\n        onlyOwner\r\n    {\r\n        IStudentApplication(application).withdrawAllResults(to);\r\n    }\r\n\r\n    function withdrawResultsFromApplication(\r\n        address application,\r\n        address to,\r\n        uint256 val\r\n    ) public onlyOwner {\r\n        IStudentApplication(application).withdraw(to, val);\r\n    }\r\n\r\n    function requestGrant(address grantsManager, address studentApplication)\r\n        public\r\n        onlyOwner\r\n    {\r\n        require(\r\n            IStudentApplication(studentApplication).studentAddress() ==\r\n                address(this),\r\n            \"Student: wrong application address\"\r\n        );\r\n        uint256 price = IStudentApplication(studentApplication).entryPrice();\r\n        _setupRole(READ_SCORE_ROLE, grantsManager);\r\n        require(\r\n            IGrantsManager(grantsManager).studentRequestGrant(\r\n                price,\r\n                studentApplication\r\n            ),\r\n            \"Student: grant denied\"\r\n        );\r\n    }\r\n}\r\n",
  "sourcePath": "/mnt/e/Repositories/uproot-trustless-contracts/contracts/Student.sol",
  "compiler": {
    "name": "solc",
    "version": "0.6.11+commit.5ef660b1.Emscripten.clang"
  },
  "schemaVersion": "3.1.0",
  "updatedAt": "2020-07-13T12:36:30.009Z",
  "devdoc": {
    "kind": "dev",
    "methods": {
      "getRoleAdmin(bytes32)": {
        "details": "Returns the admin role that controls `role`. See {grantRole} and {revokeRole}. To change a role's admin, use {_setRoleAdmin}."
      },
      "getRoleMember(bytes32,uint256)": {
        "details": "Returns one of the accounts that have `role`. `index` must be a value between 0 and {getRoleMemberCount}, non-inclusive. Role bearers are not sorted in any particular way, and their ordering may change at any point. WARNING: When using {getRoleMember} and {getRoleMemberCount}, make sure you perform all queries on the same block. See the following https://forum.openzeppelin.com/t/iterating-over-elements-on-enumerableset-in-openzeppelin-contracts/2296[forum post] for more information."
      },
      "getRoleMemberCount(bytes32)": {
        "details": "Returns the number of accounts that have `role`. Can be used together with {getRoleMember} to enumerate all bearers of a role."
      },
      "grantRole(bytes32,address)": {
        "details": "Grants `role` to `account`. If `account` had not been already granted `role`, emits a {RoleGranted} event. Requirements: - the caller must have ``role``'s admin role."
      },
      "hasRole(bytes32,address)": {
        "details": "Returns `true` if `account` has been granted `role`."
      },
      "owner()": {
        "details": "Returns the address of the current owner."
      },
      "renounceOwnership()": {
        "details": "Leaves the contract without owner. It will not be possible to call `onlyOwner` functions anymore. Can only be called by the current owner. NOTE: Renouncing ownership will leave the contract without an owner, thereby removing any functionality that is only available to the owner."
      },
      "renounceRole(bytes32,address)": {
        "details": "Revokes `role` from the calling account. Roles are often managed via {grantRole} and {revokeRole}: this function's purpose is to provide a mechanism for accounts to lose their privileges if they are compromised (such as when a trusted device is misplaced). If the calling account had been granted `role`, emits a {RoleRevoked} event. Requirements: - the caller must be `account`."
      },
      "revokeRole(bytes32,address)": {
        "details": "Revokes `role` from `account`. If `account` had been granted `role`, emits a {RoleRevoked} event. Requirements: - the caller must have ``role``'s admin role."
      },
      "transferOwnership(address)": {
        "details": "Transfers ownership of the contract to a new account (`newOwner`). Can only be called by the current owner."
      }
    },
    "version": 1
  },
  "userdoc": {
    "kind": "user",
    "methods": {},
    "version": 1
  }
}