{
  "contractName": "StudentApplicationFactory",
  "abi": [
    {
      "inputs": [
        {
          "internalType": "address",
          "name": "studentAddress",
          "type": "address"
        },
        {
          "internalType": "address",
          "name": "classroomAddress",
          "type": "address"
        },
        {
          "internalType": "address",
          "name": "daiAddress",
          "type": "address"
        },
        {
          "internalType": "address",
          "name": "challengeAddress",
          "type": "address"
        },
        {
          "internalType": "address",
          "name": "universityAddress",
          "type": "address"
        },
        {
          "internalType": "bytes32",
          "name": "seed",
          "type": "bytes32"
        }
      ],
      "name": "newStudentApplication",
      "outputs": [
        {
          "internalType": "address",
          "name": "studentApplicationAddress",
          "type": "address"
        }
      ],
      "stateMutability": "nonpayable",
      "type": "function"
    }
  ],
  "bytecode": "0x608060405234801561001057600080fd5b50612119806100206000396000f3fe608060405234801561001057600080fd5b506004361061002b5760003560e01c8063cd720b2314610030575b600080fd5b61007c600480360360c081101561004657600080fd5b506001600160a01b0381358116916020810135821691604082013581169160608101358216916080820135169060a00135610098565b604080516001600160a01b039092168252519081900360200190f35b6000808787878787876040516100ad90610172565b6001600160a01b03968716815294861660208601529285166040808601919091529185166060850152909316608083015260a082015290519081900360c001906000f080158015610102573d6000803e3d6000fd5b506040805163f2fde38b60e01b815233600482015290519192506001600160a01b0383169163f2fde38b9160248082019260009290919082900301818387803b15801561014e57600080fd5b505af1158015610162573d6000803e3d6000fd5b50929a9950505050505050505050565b611f64806101808339019056fe608060405234801561001057600080fd5b5060405162001f6438038062001f64833981810160405260c081101561003557600080fd5b508051602082015160408301516060840151608085015160a0909501519394929391929091600061006d6001600160e01b0361019c16565b600080546001600160a01b0319166001600160a01b0383169081178255604051929350917f8be0079c531659141344cd1fd0a4f28419497f9722a3daafe3b4186f6b6457e0908290a3506004805460ff60a01b19168155600580546001600160a01b03199081166001600160a01b038a81169190911790925560068054821689841617908190556001805483168785161790556008805460ff191690556002805483168985161790556007859055600380549092168784161790915560408051633dd16b7f60e21b81529051919092169263f745adfc92808201926020929091829003018186803b15801561016157600080fd5b505afa158015610175573d6000803e3d6000fd5b505050506040513d602081101561018b57600080fd5b5051600b55506101a0945050505050565b3390565b611db480620001b06000396000f3fe608060405234801561001057600080fd5b506004361061016e5760003560e01c8063715018a6116100ce578063b462f7cd11610087578063b462f7cd1461035c578063b8f31a8114610379578063be22f54614610381578063f2fde38b14610389578063f3fef3a3146103af578063f745adfc146103db578063fdd7e0b9146103e35761016e565b8063715018a61461031157806379599f96146103195780637c42236e146103215780637db9abaf146103295780638da5cb5b1461034c5780638f395371146103545761016e565b806329d188791161012b57806329d18879146101f55780632d24947b1461021957806331cdcc4f1461022157806337edd7e7146102405780636587b61e146102bd57806366995a46146102c55780636d49817b146102eb5761016e565b80630bb8ebf6146101735780630f15f4c01461018f57806310dfb08e146101995780631a16e41f146101b35780632344e4ec146101d0578063289cf0d2146101ed575b600080fd5b61017b6103eb565b604080519115158252519081900360200190f35b610197610476565b005b6101a1610541565b60408051918252519081900360200190f35b610197600480360360208110156101c957600080fd5b5035610640565b6101a1600480360360208110156101e657600080fd5b50356106da565b6101976108b6565b6101fd610979565b604080516001600160a01b039092168252519081900360200190f35b610197610a0f565b6101976004803603602081101561023757600080fd5b50351515610a15565b610248610b96565b6040805160208082528351818301528351919283929083019185019080838360005b8381101561028257818101518382015260200161026a565b50505050905090810190601f1680156102af5780820380516001836020036101000a031916815260200191505b509250505060405180910390f35b6101a1610d5c565b610197600480360360208110156102db57600080fd5b50356001600160a01b0316610dff565b6101976004803603602081101561030157600080fd5b50356001600160a01b0316610e12565b610197610f1b565b610197610fbd565b6101a1611085565b6101976004803603604081101561033f57600080fd5b5080359060200135611184565b6101fd61122d565b6101fd61123c565b6101976004803603602081101561037257600080fd5b503561124b565b6101fd6114a0565b6101fd611536565b6101976004803603602081101561039f57600080fd5b50356001600160a01b0316611545565b610197600480360360408110156103c557600080fd5b506001600160a01b03813516906020013561163d565b6101a16116f7565b6101fd611784565b6000600460009054906101000a90046001600160a01b03166001600160a01b03166339e7357c6040518163ffffffff1660e01b815260040160206040518083038186803b15801561043b57600080fd5b505afa92505050801561046057506040513d602081101561045b57600080fd5b505160015b61046c57506000610473565b6007541490505b90565b61047e611793565b6000546001600160a01b039081169116146104ce576040805162461bcd60e51b81526020600482018190526024820152600080516020611bdc833981519152604482015290519081900360640190fd5b6001600454600160a01b900460ff1660068111156104e857fe5b146105245760405162461bcd60e51b815260040180806020018281038252602c815260200180611b58602c913960400191505060405180910390fd5b600480546002919060ff60a01b1916600160a01b835b0217905550565b6005546000906001600160a01b0316610558611793565b6001600160a01b031614806105fe5750600560009054906101000a90046001600160a01b03166001600160a01b0316637a6c8b536040518163ffffffff1660e01b815260040160206040518083038186803b1580156105b657600080fd5b505afa1580156105ca573d6000803e3d6000fd5b505050506040513d60208110156105e057600080fd5b50516001600160a01b03166105f3611793565b6001600160a01b0316145b6106395760405162461bcd60e51b815260040180806020018281038252602a815260200180611cd7602a913960400191505060405180910390fd5b5060095490565b6005546001600160a01b0316610654611793565b6001600160a01b0316146106995760405162461bcd60e51b815260040180806020018281038252602b815260200180611c80602b913960400191505060405180910390fd5b806106d55760405162461bcd60e51b815260040180806020018281038252602b815260200180611b84602b913960400191505060405180910390fd5b600c55565b60085460009060ff1661071e5760405162461bcd60e51b8152600401808060200182810382526029815260200180611b026029913960400191505060405180910390fd5b6004546001600160a01b0316610732611793565b6001600160a01b0316146107775760405162461bcd60e51b8152600401808060200182810382526025815260200180611add6025913960400191505060405180910390fd5b600360009054906101000a90046001600160a01b03166001600160a01b0316630b435c546040518163ffffffff1660e01b815260040160206040518083038186803b1580156107c557600080fd5b505afa1580156107d9573d6000803e3d6000fd5b505050506040513d60208110156107ef57600080fd5b5051821061082e5760405162461bcd60e51b8152600401808060200182810382526026815260200180611d356026913960400191505060405180910390fd5b6003546007546040805163cee0510f60e01b8152600481018690526024810192909252516001600160a01b039092169163cee0510f91604480820192602092909190829003018186803b15801561088457600080fd5b505afa158015610898573d6000803e3d6000fd5b505050506040513d60208110156108ae57600080fd5b505192915050565b6108be611793565b6000546001600160a01b0390811691161461090e576040805162461bcd60e51b81526020600482018190526024820152600080516020611bdc833981519152604482015290519081900360640190fd5b60085460ff1661093857600480546005919060ff60a01b1916600160a01b835b0217905550610977565b6109406103eb565b1561095f57600480546003919060ff60a01b1916600160a01b8361092e565b60048054819060ff60a01b1916600160a01b8261053a565b565b6005546000906001600160a01b0316610990611793565b6001600160a01b031614806109c457506109a861122d565b6001600160a01b03166109b9611793565b6001600160a01b0316145b6109ff5760405162461bcd60e51b815260040180806020018281038252602a815260200180611cd7602a913960400191505060405180910390fd5b506003546001600160a01b031690565b61097760005b6000600454600160a01b900460ff166006811115610a2f57fe5b14610a6b5760405162461bcd60e51b815260040180806020018281038252602a815260200180611c56602a913960400191505060405180910390fd5b600b546002546001600160a01b03166370a08231610a87611793565b6040518263ffffffff1660e01b815260040180826001600160a01b03166001600160a01b0316815260200191505060206040518083038186803b158015610acd57600080fd5b505afa158015610ae1573d6000803e3d6000fd5b505050506040513d6020811015610af757600080fd5b50511015610b365760405162461bcd60e51b8152600401808060200182810382526034815260200180611d016034913960400191505060405180910390fd5b600254610b65906001600160a01b0316610b4e611793565b600654600b546001600160a01b0390911690611797565b6008805461ff00191661010083151502179055600480546001919060ff60a01b1916600160a01b835b021790555050565b6005546060906001600160a01b0316610bad611793565b6001600160a01b03161480610be15750610bc561122d565b6001600160a01b0316610bd6611793565b6001600160a01b0316145b610c1c5760405162461bcd60e51b815260040180806020018281038252602a815260200180611cd7602a913960400191505060405180910390fd5b600360009054906101000a90046001600160a01b03166001600160a01b031663724465436040518163ffffffff1660e01b815260040160006040518083038186803b158015610c6a57600080fd5b505afa158015610c7e573d6000803e3d6000fd5b505050506040513d6000823e601f3d908101601f191682016040526020811015610ca757600080fd5b8101908080516040519392919084640100000000821115610cc757600080fd5b908301906020820185811115610cdc57600080fd5b8251640100000000811182820188101715610cf657600080fd5b82525081516020918201929091019080838360005b83811015610d23578181015183820152602001610d0b565b50505050905090810190601f168015610d505780820380516001836020036101000a031916815260200191505b50604052505050905090565b6005546000906001600160a01b0316610d73611793565b6001600160a01b03161480610da75750610d8b61122d565b6001600160a01b0316610d9c611793565b6001600160a01b0316145b610de25760405162461bcd60e51b815260040180806020018281038252602a815260200180611cd7602a913960400191505060405180910390fd5b600454600160a01b900460ff166006811115610dfa57fe5b905090565b610e0f81600a546009540161163d565b50565b6001600454600160a01b900460ff166006811115610e2c57fe5b14610e685760405162461bcd60e51b8152600401808060200182810382526028815260200180611a8f6028913960400191505060405180910390fd5b6005546001600160a01b0316610e7c611793565b6001600160a01b031614610ec15760405162461bcd60e51b815260040180806020018281038252602d815260200180611b2b602d913960400191505060405180910390fd5b600854610100900460ff1615610edf57506001546001600160a01b03165b600254600654600b54610f01926001600160a01b039081169216908490611797565b600480546000919060ff60a01b1916600160a01b83610b8e565b610f23611793565b6000546001600160a01b03908116911614610f73576040805162461bcd60e51b81526020600482018190526024820152600080516020611bdc833981519152604482015290519081900360640190fd5b600080546040516001600160a01b03909116907f8be0079c531659141344cd1fd0a4f28419497f9722a3daafe3b4186f6b6457e0908390a3600080546001600160a01b0319169055565b610fc5611793565b6000546001600160a01b03908116911614611015576040805162461bcd60e51b81526020600482018190526024820152600080516020611bdc833981519152604482015290519081900360640190fd5b6000600454600160a01b900460ff16600681111561102f57fe5b1461106b5760405162461bcd60e51b815260040180806020018281038252602a815260200180611c56602a913960400191505060405180910390fd5b600480546006919060ff60a01b1916600160a01b8361053a565b6005546000906001600160a01b031661109c611793565b6001600160a01b031614806111425750600560009054906101000a90046001600160a01b03166001600160a01b0316637a6c8b536040518163ffffffff1660e01b815260040160206040518083038186803b1580156110fa57600080fd5b505afa15801561110e573d6000803e3d6000fd5b505050506040513d602081101561112457600080fd5b50516001600160a01b0316611137611793565b6001600160a01b0316145b61117d5760405162461bcd60e51b815260040180806020018281038252602a815260200180611cd7602a913960400191505060405180910390fd5b50600a5490565b61118c611793565b6000546001600160a01b039081169116146111dc576040805162461bcd60e51b81526020600482018190526024820152600080516020611bdc833981519152604482015290519081900360640190fd5b60026111e6610d5c565b116112225760405162461bcd60e51b8152600401808060200182810382526030815260200180611a5f6030913960400191505060405180910390fd5b600991909155600a55565b6000546001600160a01b031690565b6006546001600160a01b031681565b600c546112895760405162461bcd60e51b815260040180806020018281038252602e815260200180611bfc602e913960400191505060405180910390fd5b600c5481146112df576040805162461bcd60e51b815260206004820181905260248201527f53747564656e744170706c69636174696f6e3a2077726f6e6720736563726574604482015290519081900360640190fd5b6002600454600160a01b900460ff1660068111156112f957fe5b146113355760405162461bcd60e51b815260040180806020018281038252602d815260200180611baf602d913960400191505060405180910390fd5b600061133f611793565b9050600560009054906101000a90046001600160a01b03166001600160a01b0316637a6c8b536040518163ffffffff1660e01b815260040160206040518083038186803b15801561138f57600080fd5b505afa1580156113a3573d6000803e3d6000fd5b505050506040513d60208110156113b957600080fd5b505160408051631127a41d60e31b815290516001600160a01b039283169284169163893d20e8916004808301926020929190829003018186803b1580156113ff57600080fd5b505afa158015611413573d6000803e3d6000fd5b505050506040513d602081101561142957600080fd5b50516001600160a01b0316146114705760405162461bcd60e51b815260040180806020018281038252602c815260200180611c2a602c913960400191505060405180910390fd5b600480546001600160a01b0319166001600160a01b0392909216919091179055506008805460ff19166001179055565b6005546000906001600160a01b03166114b7611793565b6001600160a01b031614806114eb57506114cf61122d565b6001600160a01b03166114e0611793565b6001600160a01b0316145b6115265760405162461bcd60e51b815260040180806020018281038252602a815260200180611cd7602a913960400191505060405180910390fd5b506005546001600160a01b031690565b6002546001600160a01b031681565b61154d611793565b6000546001600160a01b0390811691161461159d576040805162461bcd60e51b81526020600482018190526024820152600080516020611bdc833981519152604482015290519081900360640190fd5b6001600160a01b0381166115e25760405162461bcd60e51b8152600401808060200182810382526026815260200180611ab76026913960400191505060405180910390fd5b600080546040516001600160a01b03808516939216917f8be0079c531659141344cd1fd0a4f28419497f9722a3daafe3b4186f6b6457e091a3600080546001600160a01b0319166001600160a01b0392909216919091179055565b6005546001600160a01b0316611651611793565b6001600160a01b0316146116965760405162461bcd60e51b815260040180806020018281038252602d815260200180611b2b602d913960400191505060405180910390fd5b60026116a0610d5c565b116116dc5760405162461bcd60e51b815260040180806020018281038252602c815260200180611cab602c913960400191505060405180910390fd5b6002546116f3906001600160a01b031683836118f4565b5050565b6005546000906001600160a01b031661170e611793565b6001600160a01b03161480611742575061172661122d565b6001600160a01b0316611737611793565b6001600160a01b0316145b61177d5760405162461bcd60e51b815260040180806020018281038252602a815260200180611cd7602a913960400191505060405180910390fd5b50600b5490565b6001546001600160a01b031681565b3390565b604080516001600160a01b0385811660248301528481166044830152606480830185905283518084039091018152608490920183526020820180516001600160e01b03166323b872dd60e01b17815292518251600094606094938a169392918291908083835b6020831061181c5780518252601f1990920191602091820191016117fd565b6001836020036101000a0380198251168184511680821785525050505050509050019150506000604051808303816000865af19150503d806000811461187e576040519150601f19603f3d011682016040523d82523d6000602084013e611883565b606091505b50915091508180156118b15750805115806118b157508080602001905160208110156118ae57600080fd5b50515b6118ec5760405162461bcd60e51b8152600401808060200182810382526024815260200180611d5b6024913960400191505060405180910390fd5b505050505050565b604080516001600160a01b038481166024830152604480830185905283518084039091018152606490920183526020820180516001600160e01b031663a9059cbb60e01b178152925182516000946060949389169392918291908083835b602083106119715780518252601f199092019160209182019101611952565b6001836020036101000a0380198251168184511680821785525050505050509050019150506000604051808303816000865af19150503d80600081146119d3576040519150601f19603f3d011682016040523d82523d6000602084013e6119d8565b606091505b5091509150818015611a06575080511580611a065750808060200190516020811015611a0357600080fd5b50515b611a57576040805162461bcd60e51b815260206004820152601f60248201527f5472616e7366657248656c7065723a205452414e534645525f4641494c454400604482015290519081900360640190fd5b505050505056fe53747564656e744170706c69636174696f6e3a206170706c69636174696f6e206e6f742066696e69736865642079657453747564656e744170706c69636174696f6e3a20726566756e64206e6f7420617661696c61626c654f776e61626c653a206e6577206f776e657220697320746865207a65726f206164647265737353747564656e744170706c69636174696f6e3a2061726520796f75206368656174696e673f53747564656e744170706c69636174696f6e3a20616e73776572206e6f74207265676973746572656453747564656e744170706c69636174696f6e3a206f6e6c792073747564656e742063616e20776974686472617753747564656e744170706c69636174696f6e3a206170706c69636174696f6e206973206e6f7420526561647953747564656e744170706c69636174696f6e3a206d7573742073657420612076616c69642073656372657453747564656e744170706c69636174696f6e3a206170706c69636174696f6e206973206e6f74206163746976654f776e61626c653a2063616c6c6572206973206e6f7420746865206f776e657253747564656e744170706c69636174696f6e3a206170706c69636174696f6e20736563726574206e6f742073657453747564656e744170706c69636174696f6e3a206765744f776e657220726573756c742069732077726f6e6753747564656e744170706c69636174696f6e3a206170706c69636174696f6e206973206e6f74204e657753747564656e744170706c69636174696f6e3a207772697465207065726d697373696f6e2064656e69656453747564656e744170706c69636174696f6e3a206170706c69636174696f6e206e6f742066696e697368656453747564656e744170706c69636174696f6e3a2072656164207065726d697373696f6e2064656e69656453747564656e744170706c69636174696f6e3a2073656e6465722063616e2774207061792074686520656e74727920707269636553747564656e744170706c69636174696f6e3a2068696e74206e6f7420617661696c61626c655472616e7366657248656c7065723a205452414e534645525f46524f4d5f4641494c4544a264697066735822122061e03f37578c558f26b3e47d6e4eef512713143723eacba21a6e709446fde8a764736f6c634300060b0033a2646970667358221220e7bfd78cc921ddc5e544559f24f2f40057b10d9a2709bf504c9f7f615693767564736f6c634300060b0033",
  "immutableReferences": {},
  "source": "// SPDX-License-Identifier: GPL-3.0-or-later\r\n\r\npragma solidity ^0.6.11;\r\n\r\nimport \"./interface/IStudentApplicationFactory.sol\";\r\nimport \"./StudentApplication.sol\";\r\n\r\n\r\ncontract StudentApplicationFactory is IStudentApplicationFactory {\r\n    function newStudentApplication(\r\n        address studentAddress,\r\n        address classroomAddress,\r\n        address daiAddress,\r\n        address challengeAddress,\r\n        address universityAddress,\r\n        bytes32 seed\r\n    ) public override returns (address studentApplicationAddress) {\r\n        StudentApplication studentApplication = new StudentApplication(\r\n            studentAddress,\r\n            classroomAddress,\r\n            daiAddress,\r\n            challengeAddress,\r\n            universityAddress,\r\n            seed\r\n        );\r\n        studentApplication.transferOwnership(msg.sender);\r\n        studentApplicationAddress = address(studentApplication);\r\n    }\r\n}\r\n",
  "sourcePath": "/mnt/e/Repositories/uproot-trustless-contracts/contracts/StudentApplicationFactory.sol",
  "compiler": {
    "name": "solc",
    "version": "0.6.11+commit.5ef660b1.Emscripten.clang"
  },
  "schemaVersion": "3.1.0",
  "updatedAt": "2020-07-18T18:16:50.643Z",
  "networkType": "ethereum",
  "devdoc": {
    "kind": "dev",
    "methods": {},
    "version": 1
  },
  "userdoc": {
    "kind": "user",
    "methods": {},
    "version": 1
  }
}