{
  "contractName": "StudentFactory",
  "abi": [
    {
      "inputs": [
        {
          "internalType": "bytes32",
          "name": "name",
          "type": "bytes32"
        },
        {
          "internalType": "address payable",
          "name": "university",
          "type": "address"
        }
      ],
      "name": "newStudent",
      "outputs": [
        {
          "internalType": "address",
          "name": "studentAddress",
          "type": "address"
        }
      ],
      "stateMutability": "nonpayable",
      "type": "function"
    }
  ],
  "bytecode": "0x608060405234801561001057600080fd5b506128fd806100206000396000f3fe608060405234801561001057600080fd5b506004361061002b5760003560e01c80638ebf1d2714610030575b600080fd5b61005c6004803603604081101561004657600080fd5b50803590602001356001600160a01b0316610078565b604080516001600160a01b039092168252519081900360200190f35b600080838360405161008990610125565b9182526001600160a01b03166020820152604080519182900301906000f0801580156100b9573d6000803e3d6000fd5b506040805163f2fde38b60e01b815233600482015290519192506001600160a01b0383169163f2fde38b9160248082019260009290919082900301818387803b15801561010557600080fd5b505af1158015610119573d6000803e3d6000fd5b50929695505050505050565b612795806101338339019056fe60806040523480156200001157600080fd5b506040516200279538038062002795833981810160405260408110156200003757600080fd5b5080516020909101516000620000556001600160e01b03620001d116565b600080546001600160a01b0319166001600160a01b0383169081178255604051929350917f8be0079c531659141344cd1fd0a4f28419497f9722a3daafe3b4186f6b6457e0908290a35060028290556005805463ffffffff19169055600380546001600160a01b0319166001600160a01b038316179055620000eb6000620000dc620001d1565b6001600160e01b03620001d516565b60408051704d4f444946595f53434f52455f524f4c4560781b815290519081900360110190206200012690826001600160e01b03620001ee16565b6001600160a01b038116620001436001600160e01b03620001d116565b6001600160a01b031614620001c957604080516e524541445f53434f52455f524f4c4560881b8152905190819003600f0190206200018b90826001600160e01b03620001ee16565b620001a16000826001600160e01b03620001ee16565b620001c96000620001ba6001600160e01b03620001d116565b6001600160e01b036200026416565b5050620005b0565b3390565b620001ea82826001600160e01b03620002dd16565b5050565b6000828152600160205260409020600201546200022790620002186001600160e01b03620001d116565b6001600160e01b036200036116565b620001d55760405162461bcd60e51b815260040180806020018281038252602f81526020018062002737602f913960400191505060405180910390fd5b620002776001600160e01b03620001d116565b6001600160a01b0316816001600160a01b031614620002c85760405162461bcd60e51b815260040180806020018281038252602f81526020018062002766602f913960400191505060405180910390fd5b620001ea82826001600160e01b036200039016565b60008281526001602090815260409091206200030491839062001cde62000414821b17901c565b15620001ea576200031d6001600160e01b03620001d116565b6001600160a01b0316816001600160a01b0316837f2f8788117e7eff1d82e926ec794901d17c78024a50270940304540a733656f0d60405160405180910390a45050565b600082815260016020908152604082206200038791849062001cf362000434821b17901c565b90505b92915050565b6000828152600160209081526040909120620003b791839062001d0862000454821b17901c565b15620001ea57620003d06001600160e01b03620001d116565b6001600160a01b0316816001600160a01b0316837ff6391f5c32d9c69d2a47ea670b442974b53935d1edc7fd64eb21e047a839171b60405160405180910390a45050565b600062000387836001600160a01b0384166001600160e01b036200047416565b600062000387836001600160a01b0384166001600160e01b03620004cc16565b600062000387836001600160a01b0384166001600160e01b03620004e416565b60006200048b83836001600160e01b03620004cc16565b620004c3575081546001818101845560008481526020808220909301849055845484825282860190935260409020919091556200038a565b5060006200038a565b60009081526001919091016020526040902054151590565b60008181526001830160205260408120548015620005a557835460001980830191908101906000908790839081106200051957fe5b90600052602060002001549050808760000184815481106200053757fe5b6000918252602080832090910192909255828152600189810190925260409020908401905586548790806200056857fe5b600190038181906000526020600020016000905590558660010160008781526020019081526020016000206000905560019450505050506200038a565b60009150506200038a565b61217780620005c06000396000f3fe608060405234801561001057600080fd5b50600436106101d15760003560e01c8063898855ed11610105578063ba6019d31161009d578063ba6019d31461059c578063be22f546146105d2578063ca15c873146105da578063d547741f146105f7578063db4d5e8714610623578063dc0985dd14610651578063efedc6691461067f578063f2fde38b146106a0578063fd5bf30a146106c6576101d1565b8063898855ed1461044f5780638da5cb5b1461046c5780639010d07c1461047457806391d14854146104975780639fcb17de146104d7578063a217fddf1461050d578063a880941014610515578063aa4f38c714610574578063ae12894e14610594576101d1565b806336568abe1161017857806336568abe146102c55780635227c670146102f15780635bfd3b7d146103175780636542c1591461034357806368651350146103de578063715018a6146103fe5780637206f3d6146104065780637a6c8b531461040e5780638257770b14610432576101d1565b806306fdde03146101d657806318a9e948146101f05780631b99219f14610218578063222baa3a14610220578063248a9ca314610228578063295869be146102455780632f2ff15d1461027357806331fb5fde1461029f575b600080fd5b6101de6106ec565b60408051918252519081900360200190f35b6102166004803603602081101561020657600080fd5b50356001600160a01b03166106f2565b005b6101de61072c565b610216610753565b6101de6004803603602081101561023e57600080fd5b50356107df565b6102166004803603604081101561025b57600080fd5b506001600160a01b03813581169160200135166107f4565b6102166004803603604081101561028957600080fd5b50803590602001356001600160a01b03166108be565b610216600480360360208110156102b557600080fd5b50356001600160a01b0316610926565b610216600480360360408110156102db57600080fd5b50803590602001356001600160a01b0316610b06565b6101de6004803603602081101561030757600080fd5b50356001600160a01b0316610b67565b6102166004803603604081101561032d57600080fd5b506001600160a01b038135169060200135610d53565b6103696004803603602081101561035957600080fd5b50356001600160a01b0316610e15565b6040805160208082528351818301528351919283929083019185019080838360005b838110156103a357818101518382015260200161038b565b50505050905090810190601f1680156103d05780820380516001836020036101000a031916815260200191505b509250505060405180910390f35b610216600480360360208110156103f457600080fd5b503560030b610fa4565b610216611099565b6101de61113b565b610416611164565b604080516001600160a01b039092168252519081900360200190f35b6104166004803603602081101561044857600080fd5b5035611173565b6102166004803603602081101561046557600080fd5b503561119a565b61041661122d565b6104166004803603604081101561048a57600080fd5b508035906020013561123c565b6104c3600480360360408110156104ad57600080fd5b50803590602001356001600160a01b0316611263565b604080519115158252519081900360200190f35b610216600480360360608110156104ed57600080fd5b506001600160a01b03813581169160208101359091169060400135611281565b6101de611356565b610216600480360361010081101561052c57600080fd5b506001600160a01b03813581169160208101359162ffffff6040830135811692606081013590911691608082013560030b9160a08101359160c08201359160e001351661135b565b6102166004803603602081101561058a57600080fd5b503560030b611476565b61041661156a565b610216600480360360608110156105b257600080fd5b506001600160a01b03813581169160208101359091169060400135611579565b610416611645565b6101de600480360360208110156105f057600080fd5b503561165c565b6102166004803603604081101561060d57600080fd5b50803590602001356001600160a01b0316611673565b6102166004803603604081101561063957600080fd5b506001600160a01b03813581169160200135166116cc565b6102166004803603604081101561066757600080fd5b506001600160a01b038135811691602001351661177c565b6106876119f5565b60408051600392830b90920b8252519081900360200190f35b610216600480360360208110156106b657600080fd5b50356001600160a01b0316611a6d565b610416600480360360208110156106dc57600080fd5b50356001600160a01b0316611b65565b60025481565b604080516e524541445f53434f52455f524f4c4560881b8152905190819003600f01902061072090826108be565b61072981611a6d565b50565b604080516e524541445f53434f52455f524f4c4560881b8152905190819003600f01902081565b60005b60045481101561072957610768611d1d565b6001600160a01b03166004828154811061077e57fe5b6000918252602090912001546001600160a01b031614156107d7576000600482815481106107a857fe5b9060005260206000200160006101000a8154816001600160a01b0302191690836001600160a01b031602179055505b600101610756565b60009081526001602052604090206002015490565b6107fc611d1d565b6000546001600160a01b0390811691161461084c576040805162461bcd60e51b815260206004820181905260248201526000805160206120ca833981519152604482015290519081900360640190fd5b6108ba826001600160a01b0316636e8055a76040518163ffffffff1660e01b815260040160206040518083038186803b15801561088857600080fd5b505afa15801561089c573d6000803e3d6000fd5b505050506040513d60208110156108b257600080fd5b5051826116cc565b5050565b6000828152600160205260409020600201546108e1906108dc611d1d565b611263565b61091c5760405162461bcd60e51b815260040180806020018281038252602f815260200180611fc9602f913960400191505060405180910390fd5b6108ba8282611d21565b61092e611d1d565b6000546001600160a01b0390811691161461097e576040805162461bcd60e51b815260206004820181905260248201526000805160206120ca833981519152604482015290519081900360640190fd5b600354604080516385dade6160e01b81526001600160a01b038481166004830152915191909216916385dade61916024808301926020929190829003018186803b1580156109cb57600080fd5b505afa1580156109df573d6000803e3d6000fd5b505050506040513d60208110156109f557600080fd5b5051610a325760405162461bcd60e51b81526004018080602001828103825260298152602001806121196029913960400191505060405180910390fd5b604080516e524541445f53434f52455f524f4c4560881b8152905190819003600f019020610a60908261091c565b806001600160a01b0316631b9dbc606040518163ffffffff1660e01b8152600401600060405180830381600087803b158015610a9b57600080fd5b505af1158015610aaf573d6000803e3d6000fd5b5050600480546001810182556000919091527f8a35acfbc15ff81a39ae7d344fd709f28e8600b4aa8c65c6b64bfe7fe36bd19b0180546001600160a01b0319166001600160a01b0394909416939093179092555050565b610b0e611d1d565b6001600160a01b0316816001600160a01b031614610b5d5760405162461bcd60e51b815260040180806020018281038252602f8152602001806120ea602f913960400191505060405180910390fd5b6108ba8282611d90565b6000610b71611d1d565b6000546001600160a01b03908116911614610bc1576040805162461bcd60e51b815260206004820181905260248201526000805160206120ca833981519152604482015290519081900360640190fd5b600354604080516385dade6160e01b81526001600160a01b038581166004830152915191909216916385dade61916024808301926020929190829003018186803b158015610c0e57600080fd5b505afa158015610c22573d6000803e3d6000fd5b505050506040513d6020811015610c3857600080fd5b5051610c755760405162461bcd60e51b81526004018080602001828103825260298152602001806121196029913960400191505060405180910390fd5b6000826001600160a01b0316636e8055a76040518163ffffffff1660e01b815260040160206040518083038186803b158015610cb057600080fd5b505afa158015610cc4573d6000803e3d6000fd5b505050506040513d6020811015610cda57600080fd5b5051604080516332c3db0f60e11b815290519192506001600160a01b03831691636587b61e91600480820192602092909190829003018186803b158015610d2057600080fd5b505afa158015610d34573d6000803e3d6000fd5b505050506040513d6020811015610d4a57600080fd5b50519392505050565b610d5b611d1d565b6000546001600160a01b03908116911614610dab576040805162461bcd60e51b815260206004820181905260248201526000805160206120ca833981519152604482015290519081900360640190fd5b610db482611b65565b6001600160a01b0316631a16e41f826040518263ffffffff1660e01b815260040180828152602001915050600060405180830381600087803b158015610df957600080fd5b505af1158015610e0d573d6000803e3d6000fd5b505050505050565b6060610e1f611d1d565b6000546001600160a01b03908116911614610e6f576040805162461bcd60e51b815260206004820181905260248201526000805160206120ca833981519152604482015290519081900360640190fd5b610e7882611b65565b6001600160a01b03166337edd7e76040518163ffffffff1660e01b815260040160006040518083038186803b158015610eb057600080fd5b505afa158015610ec4573d6000803e3d6000fd5b505050506040513d6000823e601f3d908101601f191682016040526020811015610eed57600080fd5b8101908080516040519392919084640100000000821115610f0d57600080fd5b908301906020820185811115610f2257600080fd5b8251640100000000811182820188101715610f3c57600080fd5b82525081516020918201929091019080838360005b83811015610f69578181015183820152602001610f51565b50505050905090810190601f168015610f965780820380516001836020036101000a031916815260200191505b506040525050509050919050565b60408051704d4f444946595f53434f52455f524f4c4560781b81529051908190036011019020610fd6906108dc611d1d565b6110115760405162461bcd60e51b815260040180806020018281038252602e815260200180611ff8602e913960400191505060405180910390fd5b600554600390810b828103820b910b13611072576040805162461bcd60e51b815260206004820152601c60248201527f53747564656e743a2062616420677261646573206f766572666c6f7700000000604482015290519081900360640190fd5b60058054600381810b9390930390920b63ffffffff1663ffffffff19909216919091179055565b6110a1611d1d565b6000546001600160a01b039081169116146110f1576040805162461bcd60e51b815260206004820181905260248201526000805160206120ca833981519152604482015290519081900360640190fd5b600080546040516001600160a01b03909116907f8be0079c531659141344cd1fd0a4f28419497f9722a3daafe3b4186f6b6457e0908390a3600080546001600160a01b0319169055565b60408051704d4f444946595f53434f52455f524f4c4560781b8152905190819003601101902081565b600061116e61122d565b905090565b6004818154811061118057fe5b6000918252602090912001546001600160a01b0316905081565b6111a2611d1d565b6000546001600160a01b039081169116146111f2576040805162461bcd60e51b815260206004820181905260248201526000805160206120ca833981519152604482015290519081900360640190fd5b60028190556040805182815290517f9f8929be552430dd6434c446d106c34954b2040ca8c4dbf42a39323dd6cda3ca9181900360200190a150565b6000546001600160a01b031690565b600082815260016020526040812061125a908363ffffffff611dff16565b90505b92915050565b600082815260016020526040812061125a908363ffffffff611cf316565b611289611d1d565b6000546001600160a01b039081169116146112d9576040805162461bcd60e51b815260206004820181905260248201526000805160206120ca833981519152604482015290519081900360640190fd5b826001600160a01b0316633db0bfd283836040518363ffffffff1660e01b815260040180836001600160a01b03166001600160a01b0316815260200182815260200192505050600060405180830381600087803b15801561133957600080fd5b505af115801561134d573d6000803e3d6000fd5b50505050505050565b600081565b611363611d1d565b6000546001600160a01b039081169116146113b3576040805162461bcd60e51b815260206004820181905260248201526000805160206120ca833981519152604482015290519081900360640190fd5b6003805460408051630ffab82160e31b81526001600160a01b038c81166004830152602482018c905262ffffff808c1660448401528a16606483015288850b90940b608482015260a4810187905260c4810186905284841660e482015290519290911691637fd5c10891610104808201926020929091908290030181600087803b15801561144057600080fd5b505af1158015611454573d6000803e3d6000fd5b505050506040513d602081101561146a57600080fd5b50505050505050505050565b60408051704d4f444946595f53434f52455f524f4c4560781b815290519081900360110190206114a8906108dc611d1d565b6114e35760405162461bcd60e51b815260040180806020018281038252602e815260200180611ff8602e913960400191505060405180910390fd5b600554600390810b808301820b910b12611544576040805162461bcd60e51b815260206004820152601d60248201527f53747564656e743a20676f6f6420677261646573206f766572666c6f77000000604482015290519081900360640190fd5b60058054600381810b90930190920b63ffffffff1663ffffffff19909216919091179055565b6003546001600160a01b031681565b611581611d1d565b6000546001600160a01b039081169116146115d1576040805162461bcd60e51b815260206004820181905260248201526000805160206120ca833981519152604482015290519081900360640190fd5b611640836001600160a01b0316636e8055a76040518163ffffffff1660e01b815260040160206040518083038186803b15801561160d57600080fd5b505afa158015611621573d6000803e3d6000fd5b505050506040513d602081101561163757600080fd5b50518383611281565b505050565b60055464010000000090046001600160a01b031681565b600081815260016020526040812061125d90611e0b565b600082815260016020526040902060020154611691906108dc611d1d565b610b5d5760405162461bcd60e51b815260040180806020018281038252603081526020018061209a6030913960400191505060405180910390fd5b6116d4611d1d565b6000546001600160a01b03908116911614611724576040805162461bcd60e51b815260206004820181905260248201526000805160206120ca833981519152604482015290519081900360640190fd5b816001600160a01b03166366995a46826040518263ffffffff1660e01b815260040180826001600160a01b03166001600160a01b03168152602001915050600060405180830381600087803b158015610df957600080fd5b611784611d1d565b6000546001600160a01b039081169116146117d4576040805162461bcd60e51b815260206004820181905260248201526000805160206120ca833981519152604482015290519081900360640190fd5b306001600160a01b0316816001600160a01b031663b8f31a816040518163ffffffff1660e01b815260040160206040518083038186803b15801561181757600080fd5b505afa15801561182b573d6000803e3d6000fd5b505050506040513d602081101561184157600080fd5b50516001600160a01b0316146118885760405162461bcd60e51b815260040180806020018281038252602281526020018061204c6022913960400191505060405180910390fd5b6000816001600160a01b031663f745adfc6040518163ffffffff1660e01b815260040160206040518083038186803b1580156118c357600080fd5b505afa1580156118d7573d6000803e3d6000fd5b505050506040513d60208110156118ed57600080fd5b5051604080516e524541445f53434f52455f524f4c4560881b8152905190819003600f019020909150611920908461091c565b826001600160a01b031663efe633a082846040518363ffffffff1660e01b815260040180838152602001826001600160a01b03166001600160a01b0316815260200192505050602060405180830381600087803b15801561198057600080fd5b505af1158015611994573d6000803e3d6000fd5b505050506040513d60208110156119aa57600080fd5b5051611640576040805162461bcd60e51b815260206004820152601560248201527414dd1d59195b9d0e8819dc985b9d0819195b9a5959605a1b604482015290519081900360640190fd5b604080516e524541445f53434f52455f524f4c4560881b8152905190819003600f019020600090611a28906108dc611d1d565b611a635760405162461bcd60e51b815260040180806020018281038252602c81526020018061206e602c913960400191505060405180910390fd5b5060055460030b90565b611a75611d1d565b6000546001600160a01b03908116911614611ac5576040805162461bcd60e51b815260206004820181905260248201526000805160206120ca833981519152604482015290519081900360640190fd5b6001600160a01b038116611b0a5760405162461bcd60e51b81526004018080602001828103825260268152602001806120266026913960400191505060405180910390fd5b600080546040516001600160a01b03808516939216917f8be0079c531659141344cd1fd0a4f28419497f9722a3daafe3b4186f6b6457e091a3600080546001600160a01b0319166001600160a01b0392909216919091179055565b6000611b6f611d1d565b6000546001600160a01b03908116911614611bbf576040805162461bcd60e51b815260206004820181905260248201526000805160206120ca833981519152604482015290519081900360640190fd5b600354604080516385dade6160e01b81526001600160a01b038581166004830152915191909216916385dade61916024808301926020929190829003018186803b158015611c0c57600080fd5b505afa158015611c20573d6000803e3d6000fd5b505050506040513d6020811015611c3657600080fd5b5051611c735760405162461bcd60e51b81526004018080602001828103825260298152602001806121196029913960400191505060405180910390fd5b816001600160a01b0316636e8055a76040518163ffffffff1660e01b815260040160206040518083038186803b158015611cac57600080fd5b505afa158015611cc0573d6000803e3d6000fd5b505050506040513d6020811015611cd657600080fd5b505192915050565b600061125a836001600160a01b038416611e16565b600061125a836001600160a01b038416611e60565b600061125a836001600160a01b038416611e78565b3390565b6000828152600160205260409020611d3f908263ffffffff611cde16565b156108ba57611d4c611d1d565b6001600160a01b0316816001600160a01b0316837f2f8788117e7eff1d82e926ec794901d17c78024a50270940304540a733656f0d60405160405180910390a45050565b6000828152600160205260409020611dae908263ffffffff611d0816565b156108ba57611dbb611d1d565b6001600160a01b0316816001600160a01b0316837ff6391f5c32d9c69d2a47ea670b442974b53935d1edc7fd64eb21e047a839171b60405160405180910390a45050565b600061125a8383611f3e565b600061125d82611fa2565b6000611e228383611e60565b611e585750815460018181018455600084815260208082209093018490558454848252828601909352604090209190915561125d565b50600061125d565b60009081526001919091016020526040902054151590565b60008181526001830160205260408120548015611f345783546000198083019190810190600090879083908110611eab57fe5b9060005260206000200154905080876000018481548110611ec857fe5b600091825260208083209091019290925582815260018981019092526040902090840190558654879080611ef857fe5b6001900381819060005260206000200160009055905586600101600087815260200190815260200160002060009055600194505050505061125d565b600091505061125d565b81546000908210611f805760405162461bcd60e51b8152600401808060200182810382526022815260200180611fa76022913960400191505060405180910390fd5b826000018281548110611f8f57fe5b9060005260206000200154905092915050565b549056fe456e756d657261626c655365743a20696e646578206f7574206f6620626f756e6473416363657373436f6e74726f6c3a2073656e646572206d75737420626520616e2061646d696e20746f206772616e7453747564656e743a2063616c6c657220646f65736e27742068617665204d4f444946595f53434f52455f524f4c454f776e61626c653a206e6577206f776e657220697320746865207a65726f206164647265737353747564656e743a2077726f6e67206170706c69636174696f6e206164647265737353747564656e743a2063616c6c657220646f65736e2774206861766520524541445f53434f52455f524f4c45416363657373436f6e74726f6c3a2073656e646572206d75737420626520616e2061646d696e20746f207265766f6b654f776e61626c653a2063616c6c6572206973206e6f7420746865206f776e6572416363657373436f6e74726f6c3a2063616e206f6e6c792072656e6f756e636520726f6c657320666f722073656c6653747564656e743a2061646472657373206973206e6f7420612076616c696420636c617373726f6f6da264697066735822122048ce70726bd5a37f138f9d19b9ca42a9aba29fb077c5721f5c76a80008ef553464736f6c634300060b0033416363657373436f6e74726f6c3a2073656e646572206d75737420626520616e2061646d696e20746f206772616e74416363657373436f6e74726f6c3a2063616e206f6e6c792072656e6f756e636520726f6c657320666f722073656c66a2646970667358221220055e0fc00b9892046064791a936a7d4bc6ccf91c58cfd427aa584fa009e42b3c64736f6c634300060b0033",
  "immutableReferences": {},
  "source": "// SPDX-License-Identifier: GPL-3.0-or-later\r\n\r\npragma solidity ^0.6.11;\r\n\r\nimport \"./interface/IStudentFactory.sol\";\r\nimport \"./Student.sol\";\r\n\r\ncontract StudentFactory is IStudentFactory {\r\n\r\n    function newStudent(bytes32 name, address payable university) public override returns (address studentAddress) {\r\n        Student student = new Student(name, university);\r\n        student.transferOwnership(msg.sender);\r\n        studentAddress = address(student);\r\n    }\r\n    \r\n}",
  "sourcePath": "/mnt/e/Repositories/uproot-trustless-contracts/contracts/StudentFactory.sol",
  "compiler": {
    "name": "solc",
    "version": "0.6.11+commit.5ef660b1.Emscripten.clang"
  },
  "schemaVersion": "3.1.0",
  "updatedAt": "2020-07-09T20:27:12.315Z",
  "devdoc": {
    "kind": "dev",
    "methods": {},
    "version": 1
  },
  "userdoc": {
    "kind": "user",
    "methods": {},
    "version": 1
  }
}