{
  "contractName": "StudentApplication",
  "abi": [
    {
      "inputs": [
        {
          "internalType": "address",
          "name": "studentAddress",
          "type": "address"
        },
        {
          "internalType": "address",
          "name": "classroomAddress_",
          "type": "address"
        },
        {
          "internalType": "address",
          "name": "daiAddress",
          "type": "address"
        },
        {
          "internalType": "address",
          "name": "challengeAddress",
          "type": "address"
        },
        {
          "internalType": "bytes32",
          "name": "seed",
          "type": "bytes32"
        }
      ],
      "stateMutability": "nonpayable",
      "type": "constructor"
    },
    {
      "anonymous": false,
      "inputs": [
        {
          "indexed": true,
          "internalType": "address",
          "name": "previousOwner",
          "type": "address"
        },
        {
          "indexed": true,
          "internalType": "address",
          "name": "newOwner",
          "type": "address"
        }
      ],
      "name": "OwnershipTransferred",
      "type": "event"
    },
    {
      "inputs": [],
      "name": "classroomAddress",
      "outputs": [
        {
          "internalType": "address",
          "name": "",
          "type": "address"
        }
      ],
      "stateMutability": "view",
      "type": "function"
    },
    {
      "inputs": [],
      "name": "daiToken",
      "outputs": [
        {
          "internalType": "contract IERC20",
          "name": "",
          "type": "address"
        }
      ],
      "stateMutability": "view",
      "type": "function"
    },
    {
      "inputs": [],
      "name": "owner",
      "outputs": [
        {
          "internalType": "address",
          "name": "",
          "type": "address"
        }
      ],
      "stateMutability": "view",
      "type": "function"
    },
    {
      "inputs": [],
      "name": "renounceOwnership",
      "outputs": [],
      "stateMutability": "nonpayable",
      "type": "function"
    },
    {
      "inputs": [
        {
          "internalType": "address",
          "name": "newOwner",
          "type": "address"
        }
      ],
      "name": "transferOwnership",
      "outputs": [],
      "stateMutability": "nonpayable",
      "type": "function"
    },
    {
      "inputs": [],
      "name": "studentAddress",
      "outputs": [
        {
          "internalType": "address",
          "name": "",
          "type": "address"
        }
      ],
      "stateMutability": "view",
      "type": "function"
    },
    {
      "inputs": [],
      "name": "applicationState",
      "outputs": [
        {
          "internalType": "uint256",
          "name": "",
          "type": "uint256"
        }
      ],
      "stateMutability": "view",
      "type": "function"
    },
    {
      "inputs": [],
      "name": "entryPrice",
      "outputs": [
        {
          "internalType": "uint256",
          "name": "",
          "type": "uint256"
        }
      ],
      "stateMutability": "view",
      "type": "function"
    },
    {
      "inputs": [],
      "name": "challengeAddress",
      "outputs": [
        {
          "internalType": "address",
          "name": "",
          "type": "address"
        }
      ],
      "stateMutability": "view",
      "type": "function"
    },
    {
      "inputs": [],
      "name": "payEntryPrice",
      "outputs": [],
      "stateMutability": "nonpayable",
      "type": "function"
    },
    {
      "inputs": [],
      "name": "activate",
      "outputs": [],
      "stateMutability": "nonpayable",
      "type": "function"
    },
    {
      "inputs": [],
      "name": "expire",
      "outputs": [],
      "stateMutability": "nonpayable",
      "type": "function"
    },
    {
      "inputs": [
        {
          "internalType": "bytes32",
          "name": "secret",
          "type": "bytes32"
        }
      ],
      "name": "setAnswerSecret",
      "outputs": [],
      "stateMutability": "nonpayable",
      "type": "function"
    },
    {
      "inputs": [
        {
          "internalType": "bytes32",
          "name": "secret",
          "type": "bytes32"
        }
      ],
      "name": "registerAnswer",
      "outputs": [],
      "stateMutability": "nonpayable",
      "type": "function"
    },
    {
      "inputs": [],
      "name": "viewChallengeMaterial",
      "outputs": [
        {
          "internalType": "string",
          "name": "",
          "type": "string"
        }
      ],
      "stateMutability": "view",
      "type": "function"
    },
    {
      "inputs": [
        {
          "internalType": "uint256",
          "name": "index",
          "type": "uint256"
        }
      ],
      "name": "getHint",
      "outputs": [
        {
          "internalType": "bytes32",
          "name": "",
          "type": "bytes32"
        }
      ],
      "stateMutability": "view",
      "type": "function"
    },
    {
      "inputs": [],
      "name": "verifyAnswer",
      "outputs": [
        {
          "internalType": "bool",
          "name": "",
          "type": "bool"
        }
      ],
      "stateMutability": "view",
      "type": "function"
    },
    {
      "inputs": [],
      "name": "registerFinalAnswer",
      "outputs": [],
      "stateMutability": "nonpayable",
      "type": "function"
    },
    {
      "inputs": [
        {
          "internalType": "uint256",
          "name": "principal",
          "type": "uint256"
        },
        {
          "internalType": "uint256",
          "name": "prize",
          "type": "uint256"
        }
      ],
      "name": "accountAllowance",
      "outputs": [],
      "stateMutability": "nonpayable",
      "type": "function"
    },
    {
      "inputs": [],
      "name": "viewPrincipalReturned",
      "outputs": [
        {
          "internalType": "uint256",
          "name": "",
          "type": "uint256"
        }
      ],
      "stateMutability": "view",
      "type": "function"
    },
    {
      "inputs": [],
      "name": "viewPrizeReturned",
      "outputs": [
        {
          "internalType": "uint256",
          "name": "",
          "type": "uint256"
        }
      ],
      "stateMutability": "view",
      "type": "function"
    },
    {
      "inputs": [
        {
          "internalType": "address",
          "name": "to",
          "type": "address"
        }
      ],
      "name": "withdrawAllResults",
      "outputs": [],
      "stateMutability": "nonpayable",
      "type": "function"
    },
    {
      "inputs": [
        {
          "internalType": "address",
          "name": "to",
          "type": "address"
        },
        {
          "internalType": "uint256",
          "name": "val",
          "type": "uint256"
        }
      ],
      "name": "withdrawResults",
      "outputs": [],
      "stateMutability": "nonpayable",
      "type": "function"
    }
  ],
  "bytecode": "0x608060405234801561001057600080fd5b50604051611d5e380380611d5e833981810160405260a081101561003357600080fd5b5080516020820151604083015160608401516080909401519293919290919060006100656001600160e01b0361018516565b600080546001600160a01b0319166001600160a01b0383169081178255604051929350917f8be0079c531659141344cd1fd0a4f28419497f9722a3daafe3b4186f6b6457e0908290a3506003805460ff60a01b19169055600480546001600160a01b03199081166001600160a01b0388811691909117835560058054831688831617908190556007805460ff191690556001805484168884161790556006859055600280549093168683161790925560408051633dd16b7f60e21b81529051929091169263f745adfc928282019260209290829003018186803b15801561014b57600080fd5b505afa15801561015f573d6000803e3d6000fd5b505050506040513d602081101561017557600080fd5b5051600a55506101899350505050565b3390565b611bc6806101986000396000f3fe608060405234801561001057600080fd5b506004361061014d5760003560e01c806366995a46116100c35780638f3953711161007c5780638f3953711461031a578063b462f7cd14610322578063b8f31a811461033f578063be22f54614610347578063f2fde38b1461034f578063f745adfc146103755761014d565b806366995a46146102b1578063715018a6146102d757806379599f96146102df5780637c42236e146102e75780637db9abaf146102ef5780638da5cb5b146103125761014d565b8063289cf0d211610115578063289cf0d2146101cc57806329d18879146101d45780632d24947b146101f857806337edd7e7146102005780633db0bfd21461027d5780636587b61e146102a95761014d565b80630bb8ebf6146101525780630f15f4c01461016e57806310dfb08e146101785780631a16e41f146101925780632344e4ec146101af575b600080fd5b61015a61037d565b604080519115158252519081900360200190f35b6101766103fd565b005b6101806104c8565b60408051918252519081900360200190f35b610176600480360360208110156101a857600080fd5b50356105bb565b610180600480360360208110156101c557600080fd5b5035610655565b610176610831565b6101dc6108f4565b604080516001600160a01b039092168252519081900360200190f35b61017661098a565b610208610af4565b6040805160208082528351818301528351919283929083019185019080838360005b8381101561024257818101518382015260200161022a565b50505050905090810190601f16801561026f5780820380516001836020036101000a031916815260200191505b509250505060405180910390f35b6101766004803603604081101561029357600080fd5b506001600160a01b038135169060200135610cba565b610180610d74565b610176600480360360208110156102c757600080fd5b50356001600160a01b0316610e17565b610176610e2a565b610176610ecc565b610180610f94565b6101766004803603604081101561030557600080fd5b5080359060200135611087565b6101dc611130565b6101dc61113f565b6101766004803603602081101561033857600080fd5b503561114e565b6101dc6113a3565b6101dc611439565b6101766004803603602081101561036557600080fd5b50356001600160a01b0316611448565b610180611540565b60035460408051630e79cd5f60e21b815290516000926001600160a01b0316916339e7357c916004808301926020929190829003018186803b1580156103c257600080fd5b505afa9250505080156103e757506040513d60208110156103e257600080fd5b505160015b6103f3575060006103fa565b6006541490505b90565b6104056115cd565b6000546001600160a01b03908116911614610455576040805162461bcd60e51b815260206004820181905260248201526000805160206119ee833981519152604482015290519081900360640190fd5b6001600354600160a01b900460ff16600681111561046f57fe5b146104ab5760405162461bcd60e51b815260040180806020018281038252602c81526020018061196a602c913960400191505060405180910390fd5b600380546002919060ff60a01b1916600160a01b835b0217905550565b6004546000906001600160a01b03166104df6115cd565b6001600160a01b0316148061057957506004805460408051637a6c8b5360e01b815290516001600160a01b0390921692637a6c8b53928282019260209290829003018186803b15801561053157600080fd5b505afa158015610545573d6000803e3d6000fd5b505050506040513d602081101561055b57600080fd5b50516001600160a01b031661056e6115cd565b6001600160a01b0316145b6105b45760405162461bcd60e51b815260040180806020018281038252602a815260200180611ae9602a913960400191505060405180910390fd5b5060085490565b6004546001600160a01b03166105cf6115cd565b6001600160a01b0316146106145760405162461bcd60e51b815260040180806020018281038252602b815260200180611a92602b913960400191505060405180910390fd5b806106505760405162461bcd60e51b815260040180806020018281038252602b815260200180611996602b913960400191505060405180910390fd5b600b55565b60075460009060ff166106995760405162461bcd60e51b81526004018080602001828103825260298152602001806119146029913960400191505060405180910390fd5b6003546001600160a01b03166106ad6115cd565b6001600160a01b0316146106f25760405162461bcd60e51b81526004018080602001828103825260258152602001806118ef6025913960400191505060405180910390fd5b600260009054906101000a90046001600160a01b03166001600160a01b0316630b435c546040518163ffffffff1660e01b815260040160206040518083038186803b15801561074057600080fd5b505afa158015610754573d6000803e3d6000fd5b505050506040513d602081101561076a57600080fd5b505182106107a95760405162461bcd60e51b8152600401808060200182810382526026815260200180611b476026913960400191505060405180910390fd5b6002546006546040805163cee0510f60e01b8152600481018690526024810192909252516001600160a01b039092169163cee0510f91604480820192602092909190829003018186803b1580156107ff57600080fd5b505afa158015610813573d6000803e3d6000fd5b505050506040513d602081101561082957600080fd5b505192915050565b6108396115cd565b6000546001600160a01b03908116911614610889576040805162461bcd60e51b815260206004820181905260248201526000805160206119ee833981519152604482015290519081900360640190fd5b60075460ff166108b357600380546005919060ff60a01b1916600160a01b835b02179055506108f2565b6108bb61037d565b156108d85760038054819060ff60a01b1916600160a01b826108a9565b600380546004919060ff60a01b1916600160a01b836104c1565b565b6004546000906001600160a01b031661090b6115cd565b6001600160a01b0316148061093f5750610923611130565b6001600160a01b03166109346115cd565b6001600160a01b0316145b61097a5760405162461bcd60e51b815260040180806020018281038252602a815260200180611ae9602a913960400191505060405180910390fd5b506002546001600160a01b031690565b6000600354600160a01b900460ff1660068111156109a457fe5b146109e05760405162461bcd60e51b815260040180806020018281038252602a815260200180611a68602a913960400191505060405180910390fd5b600a546001546001600160a01b03166370a082316109fc6115cd565b6040518263ffffffff1660e01b815260040180826001600160a01b03166001600160a01b0316815260200191505060206040518083038186803b158015610a4257600080fd5b505afa158015610a56573d6000803e3d6000fd5b505050506040513d6020811015610a6c57600080fd5b50511015610aab5760405162461bcd60e51b8152600401808060200182810382526034815260200180611b136034913960400191505060405180910390fd5b600154610ada906001600160a01b0316610ac36115cd565b600554600a546001600160a01b03909116906115d1565b600380546001919060ff60a01b1916600160a01b836104c1565b6004546060906001600160a01b0316610b0b6115cd565b6001600160a01b03161480610b3f5750610b23611130565b6001600160a01b0316610b346115cd565b6001600160a01b0316145b610b7a5760405162461bcd60e51b815260040180806020018281038252602a815260200180611ae9602a913960400191505060405180910390fd5b600260009054906101000a90046001600160a01b03166001600160a01b031663724465436040518163ffffffff1660e01b815260040160006040518083038186803b158015610bc857600080fd5b505afa158015610bdc573d6000803e3d6000fd5b505050506040513d6000823e601f3d908101601f191682016040526020811015610c0557600080fd5b8101908080516040519392919084640100000000821115610c2557600080fd5b908301906020820185811115610c3a57600080fd5b8251640100000000811182820188101715610c5457600080fd5b82525081516020918201929091019080838360005b83811015610c81578181015183820152602001610c69565b50505050905090810190601f168015610cae5780820380516001836020036101000a031916815260200191505b50604052505050905090565b6004546001600160a01b0316610cce6115cd565b6001600160a01b031614610d135760405162461bcd60e51b815260040180806020018281038252602d81526020018061193d602d913960400191505060405180910390fd5b6002610d1d610d74565b11610d595760405162461bcd60e51b815260040180806020018281038252602c815260200180611abd602c913960400191505060405180910390fd5b600154610d70906001600160a01b0316838361172e565b5050565b6004546000906001600160a01b0316610d8b6115cd565b6001600160a01b03161480610dbf5750610da3611130565b6001600160a01b0316610db46115cd565b6001600160a01b0316145b610dfa5760405162461bcd60e51b815260040180806020018281038252602a815260200180611ae9602a913960400191505060405180910390fd5b600354600160a01b900460ff166006811115610e1257fe5b905090565b610e278160095460085401610cba565b50565b610e326115cd565b6000546001600160a01b03908116911614610e82576040805162461bcd60e51b815260206004820181905260248201526000805160206119ee833981519152604482015290519081900360640190fd5b600080546040516001600160a01b03909116907f8be0079c531659141344cd1fd0a4f28419497f9722a3daafe3b4186f6b6457e0908390a3600080546001600160a01b0319169055565b610ed46115cd565b6000546001600160a01b03908116911614610f24576040805162461bcd60e51b815260206004820181905260248201526000805160206119ee833981519152604482015290519081900360640190fd5b6000600354600160a01b900460ff166006811115610f3e57fe5b14610f7a5760405162461bcd60e51b815260040180806020018281038252602a815260200180611a68602a913960400191505060405180910390fd5b600380546006919060ff60a01b1916600160a01b836104c1565b6004546000906001600160a01b0316610fab6115cd565b6001600160a01b0316148061104557506004805460408051637a6c8b5360e01b815290516001600160a01b0390921692637a6c8b53928282019260209290829003018186803b158015610ffd57600080fd5b505afa158015611011573d6000803e3d6000fd5b505050506040513d602081101561102757600080fd5b50516001600160a01b031661103a6115cd565b6001600160a01b0316145b6110805760405162461bcd60e51b815260040180806020018281038252602a815260200180611ae9602a913960400191505060405180910390fd5b5060095490565b61108f6115cd565b6000546001600160a01b039081169116146110df576040805162461bcd60e51b815260206004820181905260248201526000805160206119ee833981519152604482015290519081900360640190fd5b60026110e9610d74565b116111255760405162461bcd60e51b81526004018080602001828103825260308152602001806118996030913960400191505060405180910390fd5b600891909155600955565b6000546001600160a01b031690565b6005546001600160a01b031681565b600b5461118c5760405162461bcd60e51b815260040180806020018281038252602e815260200180611a0e602e913960400191505060405180910390fd5b600b5481146111e2576040805162461bcd60e51b815260206004820181905260248201527f53747564656e744170706c69636174696f6e3a2077726f6e6720736563726574604482015290519081900360640190fd5b6002600354600160a01b900460ff1660068111156111fc57fe5b146112385760405162461bcd60e51b815260040180806020018281038252602d8152602001806119c1602d913960400191505060405180910390fd5b60006112426115cd565b9050600460009054906101000a90046001600160a01b03166001600160a01b0316637a6c8b536040518163ffffffff1660e01b815260040160206040518083038186803b15801561129257600080fd5b505afa1580156112a6573d6000803e3d6000fd5b505050506040513d60208110156112bc57600080fd5b505160408051631127a41d60e31b815290516001600160a01b039283169284169163893d20e8916004808301926020929190829003018186803b15801561130257600080fd5b505afa158015611316573d6000803e3d6000fd5b505050506040513d602081101561132c57600080fd5b50516001600160a01b0316146113735760405162461bcd60e51b815260040180806020018281038252602c815260200180611a3c602c913960400191505060405180910390fd5b600380546001600160a01b0319166001600160a01b0392909216919091179055506007805460ff19166001179055565b6004546000906001600160a01b03166113ba6115cd565b6001600160a01b031614806113ee57506113d2611130565b6001600160a01b03166113e36115cd565b6001600160a01b0316145b6114295760405162461bcd60e51b815260040180806020018281038252602a815260200180611ae9602a913960400191505060405180910390fd5b506004546001600160a01b031690565b6001546001600160a01b031681565b6114506115cd565b6000546001600160a01b039081169116146114a0576040805162461bcd60e51b815260206004820181905260248201526000805160206119ee833981519152604482015290519081900360640190fd5b6001600160a01b0381166114e55760405162461bcd60e51b81526004018080602001828103825260268152602001806118c96026913960400191505060405180910390fd5b600080546040516001600160a01b03808516939216917f8be0079c531659141344cd1fd0a4f28419497f9722a3daafe3b4186f6b6457e091a3600080546001600160a01b0319166001600160a01b0392909216919091179055565b6004546000906001600160a01b03166115576115cd565b6001600160a01b0316148061158b575061156f611130565b6001600160a01b03166115806115cd565b6001600160a01b0316145b6115c65760405162461bcd60e51b815260040180806020018281038252602a815260200180611ae9602a913960400191505060405180910390fd5b50600a5490565b3390565b604080516001600160a01b0385811660248301528481166044830152606480830185905283518084039091018152608490920183526020820180516001600160e01b03166323b872dd60e01b17815292518251600094606094938a169392918291908083835b602083106116565780518252601f199092019160209182019101611637565b6001836020036101000a0380198251168184511680821785525050505050509050019150506000604051808303816000865af19150503d80600081146116b8576040519150601f19603f3d011682016040523d82523d6000602084013e6116bd565b606091505b50915091508180156116eb5750805115806116eb57508080602001905160208110156116e857600080fd5b50515b6117265760405162461bcd60e51b8152600401808060200182810382526024815260200180611b6d6024913960400191505060405180910390fd5b505050505050565b604080516001600160a01b038481166024830152604480830185905283518084039091018152606490920183526020820180516001600160e01b031663a9059cbb60e01b178152925182516000946060949389169392918291908083835b602083106117ab5780518252601f19909201916020918201910161178c565b6001836020036101000a0380198251168184511680821785525050505050509050019150506000604051808303816000865af19150503d806000811461180d576040519150601f19603f3d011682016040523d82523d6000602084013e611812565b606091505b5091509150818015611840575080511580611840575080806020019051602081101561183d57600080fd5b50515b611891576040805162461bcd60e51b815260206004820152601f60248201527f5472616e7366657248656c7065723a205452414e534645525f4641494c454400604482015290519081900360640190fd5b505050505056fe53747564656e744170706c69636174696f6e3a206170706c69636174696f6e206e6f742066696e6973686564207965744f776e61626c653a206e6577206f776e657220697320746865207a65726f206164647265737353747564656e744170706c69636174696f6e3a2061726520796f75206368656174696e673f53747564656e744170706c69636174696f6e3a20616e73776572206e6f74207265676973746572656453747564656e744170706c69636174696f6e3a206f6e6c792073747564656e742063616e20776974686472617753747564656e744170706c69636174696f6e3a206170706c69636174696f6e206973206e6f7420526561647953747564656e744170706c69636174696f6e3a206d7573742073657420612076616c69642073656372657453747564656e744170706c69636174696f6e3a206170706c69636174696f6e206973206e6f74206163746976654f776e61626c653a2063616c6c6572206973206e6f7420746865206f776e657253747564656e744170706c69636174696f6e3a206170706c69636174696f6e20736563726574206e6f742073657453747564656e744170706c69636174696f6e3a206765744f776e657220726573756c742069732077726f6e6753747564656e744170706c69636174696f6e3a206170706c69636174696f6e206973206e6f74204e657753747564656e744170706c69636174696f6e3a207772697465207065726d697373696f6e2064656e69656453747564656e744170706c69636174696f6e3a206170706c69636174696f6e206e6f742066696e697368656453747564656e744170706c69636174696f6e3a2072656164207065726d697373696f6e2064656e69656453747564656e744170706c69636174696f6e3a2073656e6465722063616e2774207061792074686520656e74727920707269636553747564656e744170706c69636174696f6e3a2068696e74206e6f7420617661696c61626c655472616e7366657248656c7065723a205452414e534645525f46524f4d5f4641494c4544a264697066735822122083dbe0f68279e2721fe6d88e6c36a4119d95801558b32a173e8de34e1532dc1464736f6c634300060b0033",
  "immutableReferences": {},
  "source": "// SPDX-License-Identifier: GPL-3.0-or-later\r\n\r\npragma solidity ^0.6.11;\r\n\r\nimport \"@openzeppelin/contracts/math/SafeMath.sol\";\r\nimport \"@openzeppelin/contracts/access/AccessControl.sol\";\r\nimport \"@openzeppelin/contracts/access/Ownable.sol\";\r\nimport \"@openzeppelin/contracts/token/ERC20/IERC20.sol\";\r\nimport \"@openzeppelin/contracts/utils/Address.sol\";\r\nimport \"./interface/IUniversity.sol\";\r\nimport \"./interface/IStudent.sol\";\r\nimport \"./interface/IClassroom.sol\";\r\nimport \"./interface/IStudentApplication.sol\";\r\nimport \"./interface/IStudentAnswer.sol\";\r\nimport \"./interface/IClassroomChallenge.sol\";\r\nimport \"./MyUtils.sol\";\r\n\r\n\r\ncontract StudentApplication is Ownable, IStudentApplication {\r\n    using SafeMath for uint256;\r\n\r\n    IERC20 public daiToken;\r\n    IClassroomChallenge _challenge;\r\n\r\n    enum ApplicationState {New, Ready, Active, Success, Failed, Empty, Expired}\r\n\r\n    IStudentAnswer _answer;\r\n    ApplicationState _applicationState;\r\n    address _studentAddress;\r\n    address public classroomAddress;\r\n    bytes32 _seed;\r\n    bool _hasAnswer;\r\n    uint256 _principalReturned;\r\n    uint256 _completionPrize;\r\n    uint256 _entryPrice;\r\n    bytes32 _answerSecret;\r\n\r\n    constructor(\r\n        address studentAddress,\r\n        address classroomAddress_,\r\n        address daiAddress,\r\n        address challengeAddress,\r\n        bytes32 seed\r\n    ) public {\r\n        _applicationState = ApplicationState.New;\r\n        _studentAddress = studentAddress;\r\n        classroomAddress = classroomAddress_;\r\n        _hasAnswer = false;\r\n        daiToken = IERC20(daiAddress);\r\n        _seed = seed;\r\n        _challenge = IClassroomChallenge(challengeAddress);\r\n        _entryPrice = IClassroom(classroomAddress).entryPrice();\r\n    }\r\n\r\n    function studentAddress() public view override returns (address) {\r\n        require(\r\n            _msgSender() == _studentAddress || _msgSender() == owner(),\r\n            \"StudentApplication: read permission denied\"\r\n        );\r\n        return _studentAddress;\r\n    }\r\n\r\n    function applicationState() public view override returns (uint256) {\r\n        require(\r\n            _msgSender() == _studentAddress || _msgSender() == owner(),\r\n            \"StudentApplication: read permission denied\"\r\n        );\r\n        return uint256(_applicationState);\r\n    }\r\n\r\n    function entryPrice() public view override returns (uint256) {\r\n        require(\r\n            _msgSender() == _studentAddress || _msgSender() == owner(),\r\n            \"StudentApplication: read permission denied\"\r\n        );\r\n        return _entryPrice;\r\n    }\r\n\r\n    function challengeAddress() public view returns (address) {\r\n        require(\r\n            _msgSender() == _studentAddress || _msgSender() == owner(),\r\n            \"StudentApplication: read permission denied\"\r\n        );\r\n        return address(_challenge);\r\n    }\r\n\r\n    function payEntryPrice() external override {\r\n        require(\r\n            _applicationState == ApplicationState.New,\r\n            \"StudentApplication: application is not New\"\r\n        );\r\n        require(\r\n            daiToken.balanceOf(_msgSender()) >= _entryPrice,\r\n            \"StudentApplication: sender can't pay the entry price\"\r\n        );\r\n        TransferHelper.safeTransferFrom(\r\n            address(daiToken),\r\n            _msgSender(),\r\n            classroomAddress,\r\n            _entryPrice\r\n        );\r\n        _applicationState = ApplicationState.Ready;\r\n    }\r\n\r\n    function activate() public override onlyOwner {\r\n        require(\r\n            _applicationState == ApplicationState.Ready,\r\n            \"StudentApplication: application is not Ready\"\r\n        );\r\n        _applicationState = ApplicationState.Active;\r\n    }\r\n\r\n    function expire() public override onlyOwner {\r\n        require(\r\n            _applicationState == ApplicationState.New,\r\n            \"StudentApplication: application is not New\"\r\n        );\r\n        _applicationState = ApplicationState.Expired;\r\n    }\r\n\r\n    function setAnswerSecret(bytes32 secret) public override {\r\n        require(\r\n            _msgSender() == _studentAddress,\r\n            \"StudentApplication: write permission denied\"\r\n        );\r\n        require(\r\n            secret != bytes32(0),\r\n            \"StudentApplication: must set a valid secret\"\r\n        );\r\n        _answerSecret = secret;\r\n    }\r\n\r\n    function registerAnswer(bytes32 secret) public override {\r\n        require(\r\n            _answerSecret != bytes32(0),\r\n            \"StudentApplication: application secret not set\"\r\n        );\r\n        require(\r\n            secret == _answerSecret, \r\n            \"StudentApplication: wrong secret\"\r\n        );\r\n        require(\r\n            _applicationState == ApplicationState.Active,\r\n            \"StudentApplication: application is not active\"\r\n        );\r\n        IStudentAnswer answer = IStudentAnswer(_msgSender());\r\n        require(\r\n            answer.getOwner() == IStudent(_studentAddress).ownerStudent(),\r\n            \"StudentApplication: getOwner result is wrong\"\r\n        );\r\n        _answer = answer;\r\n        _hasAnswer = true;\r\n    }\r\n\r\n    function viewChallengeMaterial() public view override returns (string memory) {\r\n        require(\r\n            _msgSender() == _studentAddress || _msgSender() == owner(),\r\n            \"StudentApplication: read permission denied\"\r\n        );\r\n        return _challenge.viewMaterial();\r\n    }\r\n\r\n    function getHint(uint256 index) public view override returns (bytes32) {\r\n        require(_hasAnswer, \"StudentApplication: answer not registered\");\r\n        require(\r\n            _msgSender() == address(_answer),\r\n            \"StudentApplication: are you cheating?\"\r\n        );\r\n        require(\r\n            index < _challenge.hintsCount(),\r\n            \"StudentApplication: hint not available\"\r\n        );\r\n        return _challenge.getHint(index, _seed);\r\n    }\r\n\r\n    function verifyAnswer() public view returns (bool) {\r\n        try _answer.getSeed() returns (bytes32 seed) {\r\n            return seed == _seed;\r\n        } catch {\r\n            return false;\r\n        }\r\n    }\r\n\r\n    function registerFinalAnswer() public override onlyOwner {\r\n        if (!_hasAnswer) {\r\n            _applicationState = ApplicationState.Empty;\r\n        } else {\r\n            if (verifyAnswer()) _applicationState = ApplicationState.Success;\r\n            else _applicationState = ApplicationState.Failed;\r\n        }\r\n    }\r\n\r\n    function accountAllowance(uint256 principal, uint256 prize)\r\n        public\r\n        override\r\n        onlyOwner\r\n    {\r\n        require(\r\n            applicationState() > 2,\r\n            \"StudentApplication: application not finished yet\"\r\n        );\r\n        _principalReturned = principal;\r\n        _completionPrize = prize;\r\n    }\r\n\r\n    function viewPrincipalReturned() public view returns (uint256) {\r\n        require(\r\n            _msgSender() == _studentAddress || _msgSender() == IStudent(_studentAddress).ownerStudent(),\r\n            \"StudentApplication: read permission denied\"\r\n        );\r\n        return _principalReturned;\r\n    }\r\n\r\n    function viewPrizeReturned() public view returns (uint256) {\r\n        require(\r\n            _msgSender() == _studentAddress || _msgSender() == IStudent(_studentAddress).ownerStudent(),\r\n            \"StudentApplication: read permission denied\"\r\n        );\r\n        return _completionPrize;\r\n    }\r\n\r\n    function withdrawAllResults(address to) public override {\r\n        withdrawResults(to, _principalReturned + _completionPrize);\r\n    }\r\n\r\n    function withdrawResults(address to, uint256 val) public override {\r\n        require(\r\n            _msgSender() == _studentAddress,\r\n            \"StudentApplication: only student can withdraw\"\r\n        );\r\n        require(\r\n            applicationState() > 2,\r\n            \"StudentApplication: application not finished\"\r\n        );\r\n        TransferHelper.safeTransfer(address(daiToken), to, val);\r\n    }\r\n}\r\n",
  "sourcePath": "/mnt/e/Repositories/uproot-trustless-contracts/contracts/StudentApplication.sol",
  "compiler": {
    "name": "solc",
    "version": "0.6.11+commit.5ef660b1.Emscripten.clang"
  },
  "schemaVersion": "3.1.0",
  "updatedAt": "2020-07-09T20:27:12.306Z",
  "devdoc": {
    "kind": "dev",
    "methods": {
      "owner()": {
        "details": "Returns the address of the current owner."
      },
      "renounceOwnership()": {
        "details": "Leaves the contract without owner. It will not be possible to call `onlyOwner` functions anymore. Can only be called by the current owner. NOTE: Renouncing ownership will leave the contract without an owner, thereby removing any functionality that is only available to the owner."
      },
      "transferOwnership(address)": {
        "details": "Transfers ownership of the contract to a new account (`newOwner`). Can only be called by the current owner."
      }
    },
    "version": 1
  },
  "userdoc": {
    "kind": "user",
    "methods": {},
    "version": 1
  }
}