{
  "contractName": "StudentApplication",
  "abi": [
    {
      "inputs": [
        {
          "internalType": "address",
          "name": "studentAddress",
          "type": "address"
        },
        {
          "internalType": "address",
          "name": "classroomAddress_",
          "type": "address"
        },
        {
          "internalType": "address",
          "name": "daiAddress",
          "type": "address"
        },
        {
          "internalType": "address",
          "name": "challengeAddress",
          "type": "address"
        },
        {
          "internalType": "address",
          "name": "universityAddress_",
          "type": "address"
        },
        {
          "internalType": "bytes32",
          "name": "seed",
          "type": "bytes32"
        }
      ],
      "stateMutability": "nonpayable",
      "type": "constructor"
    },
    {
      "anonymous": false,
      "inputs": [
        {
          "indexed": true,
          "internalType": "address",
          "name": "previousOwner",
          "type": "address"
        },
        {
          "indexed": true,
          "internalType": "address",
          "name": "newOwner",
          "type": "address"
        }
      ],
      "name": "OwnershipTransferred",
      "type": "event"
    },
    {
      "inputs": [],
      "name": "classroomAddress",
      "outputs": [
        {
          "internalType": "address",
          "name": "",
          "type": "address"
        }
      ],
      "stateMutability": "view",
      "type": "function"
    },
    {
      "inputs": [],
      "name": "daiToken",
      "outputs": [
        {
          "internalType": "address",
          "name": "",
          "type": "address"
        }
      ],
      "stateMutability": "view",
      "type": "function"
    },
    {
      "inputs": [],
      "name": "owner",
      "outputs": [
        {
          "internalType": "address",
          "name": "",
          "type": "address"
        }
      ],
      "stateMutability": "view",
      "type": "function"
    },
    {
      "inputs": [],
      "name": "renounceOwnership",
      "outputs": [],
      "stateMutability": "nonpayable",
      "type": "function"
    },
    {
      "inputs": [
        {
          "internalType": "address",
          "name": "newOwner",
          "type": "address"
        }
      ],
      "name": "transferOwnership",
      "outputs": [],
      "stateMutability": "nonpayable",
      "type": "function"
    },
    {
      "inputs": [],
      "name": "universityAddress",
      "outputs": [
        {
          "internalType": "address",
          "name": "",
          "type": "address"
        }
      ],
      "stateMutability": "view",
      "type": "function"
    },
    {
      "inputs": [],
      "name": "studentAddress",
      "outputs": [
        {
          "internalType": "address",
          "name": "",
          "type": "address"
        }
      ],
      "stateMutability": "view",
      "type": "function"
    },
    {
      "inputs": [],
      "name": "applicationState",
      "outputs": [
        {
          "internalType": "uint256",
          "name": "",
          "type": "uint256"
        }
      ],
      "stateMutability": "view",
      "type": "function"
    },
    {
      "inputs": [],
      "name": "entryPrice",
      "outputs": [
        {
          "internalType": "uint256",
          "name": "",
          "type": "uint256"
        }
      ],
      "stateMutability": "view",
      "type": "function"
    },
    {
      "inputs": [],
      "name": "challengeAddress",
      "outputs": [
        {
          "internalType": "address",
          "name": "",
          "type": "address"
        }
      ],
      "stateMutability": "view",
      "type": "function"
    },
    {
      "inputs": [],
      "name": "payMyEntryPrice",
      "outputs": [],
      "stateMutability": "nonpayable",
      "type": "function"
    },
    {
      "inputs": [
        {
          "internalType": "bool",
          "name": "grant",
          "type": "bool"
        }
      ],
      "name": "payEntryPrice",
      "outputs": [],
      "stateMutability": "nonpayable",
      "type": "function"
    },
    {
      "inputs": [],
      "name": "activate",
      "outputs": [],
      "stateMutability": "nonpayable",
      "type": "function"
    },
    {
      "inputs": [],
      "name": "expire",
      "outputs": [],
      "stateMutability": "nonpayable",
      "type": "function"
    },
    {
      "inputs": [
        {
          "internalType": "bytes32",
          "name": "secret",
          "type": "bytes32"
        }
      ],
      "name": "setAnswerSecret",
      "outputs": [],
      "stateMutability": "nonpayable",
      "type": "function"
    },
    {
      "inputs": [
        {
          "internalType": "bytes32",
          "name": "secret",
          "type": "bytes32"
        }
      ],
      "name": "registerAnswer",
      "outputs": [],
      "stateMutability": "nonpayable",
      "type": "function"
    },
    {
      "inputs": [],
      "name": "viewChallengeMaterial",
      "outputs": [
        {
          "internalType": "string",
          "name": "",
          "type": "string"
        }
      ],
      "stateMutability": "view",
      "type": "function"
    },
    {
      "inputs": [
        {
          "internalType": "uint256",
          "name": "index",
          "type": "uint256"
        }
      ],
      "name": "getHint",
      "outputs": [
        {
          "internalType": "bytes32",
          "name": "",
          "type": "bytes32"
        }
      ],
      "stateMutability": "view",
      "type": "function"
    },
    {
      "inputs": [],
      "name": "verifyAnswer",
      "outputs": [
        {
          "internalType": "bool",
          "name": "",
          "type": "bool"
        }
      ],
      "stateMutability": "view",
      "type": "function"
    },
    {
      "inputs": [],
      "name": "registerFinalAnswer",
      "outputs": [],
      "stateMutability": "nonpayable",
      "type": "function"
    },
    {
      "inputs": [
        {
          "internalType": "uint256",
          "name": "principal",
          "type": "uint256"
        },
        {
          "internalType": "uint256",
          "name": "prize",
          "type": "uint256"
        }
      ],
      "name": "accountAllowance",
      "outputs": [],
      "stateMutability": "nonpayable",
      "type": "function"
    },
    {
      "inputs": [],
      "name": "viewPrincipalReturned",
      "outputs": [
        {
          "internalType": "uint256",
          "name": "",
          "type": "uint256"
        }
      ],
      "stateMutability": "view",
      "type": "function"
    },
    {
      "inputs": [],
      "name": "viewPrizeReturned",
      "outputs": [
        {
          "internalType": "uint256",
          "name": "",
          "type": "uint256"
        }
      ],
      "stateMutability": "view",
      "type": "function"
    },
    {
      "inputs": [
        {
          "internalType": "address",
          "name": "to",
          "type": "address"
        }
      ],
      "name": "withdrawAllResults",
      "outputs": [],
      "stateMutability": "nonpayable",
      "type": "function"
    },
    {
      "inputs": [
        {
          "internalType": "address",
          "name": "to",
          "type": "address"
        }
      ],
      "name": "refundPayment",
      "outputs": [],
      "stateMutability": "nonpayable",
      "type": "function"
    },
    {
      "inputs": [
        {
          "internalType": "address",
          "name": "to",
          "type": "address"
        },
        {
          "internalType": "uint256",
          "name": "val",
          "type": "uint256"
        }
      ],
      "name": "withdraw",
      "outputs": [],
      "stateMutability": "nonpayable",
      "type": "function"
    }
  ],
  "bytecode": "0x608060405234801561001057600080fd5b5060405162001f6838038062001f68833981810160405260c081101561003557600080fd5b508051602082015160408301516060840151608085015160a0909501519394929391929091600061006d6001600160e01b0361019c16565b600080546001600160a01b0319166001600160a01b0383169081178255604051929350917f8be0079c531659141344cd1fd0a4f28419497f9722a3daafe3b4186f6b6457e0908290a3506004805460ff60a01b19168155600580546001600160a01b03199081166001600160a01b038a81169190911790925560068054821689841617908190556001805483168785161790556008805460ff191690556002805483168985161790556007859055600380549092168784161790915560408051633dd16b7f60e21b81529051919092169263f745adfc92808201926020929091829003018186803b15801561016157600080fd5b505afa158015610175573d6000803e3d6000fd5b505050506040513d602081101561018b57600080fd5b5051600b55506101a0945050505050565b3390565b611db880620001b06000396000f3fe608060405234801561001057600080fd5b506004361061016e5760003560e01c8063715018a6116100ce578063b462f7cd11610087578063b462f7cd1461035c578063b8f31a8114610379578063be22f54614610381578063f2fde38b14610389578063f3fef3a3146103af578063f745adfc146103db578063fdd7e0b9146103e35761016e565b8063715018a61461031157806379599f96146103195780637c42236e146103215780637db9abaf146103295780638da5cb5b1461034c5780638f395371146103545761016e565b806329d188791161012b57806329d18879146101f557806331cdcc4f1461021957806337edd7e71461023857806340304ed2146102b55780636587b61e146102bd57806366995a46146102c55780636d49817b146102eb5761016e565b80630bb8ebf6146101735780630f15f4c01461018f57806310dfb08e146101995780631a16e41f146101b35780632344e4ec146101d0578063289cf0d2146101ed575b600080fd5b61017b6103eb565b604080519115158252519081900360200190f35b610197610476565b005b6101a1610541565b60408051918252519081900360200190f35b610197600480360360208110156101c957600080fd5b5035610640565b6101a1600480360360208110156101e657600080fd5b50356106da565b6101976108b6565b6101fd610979565b604080516001600160a01b039092168252519081900360200190f35b6101976004803603602081101561022f57600080fd5b50351515610a0f565b610240610b90565b6040805160208082528351818301528351919283929083019185019080838360005b8381101561027a578181015183820152602001610262565b50505050905090810190601f1680156102a75780820380516001836020036101000a031916815260200191505b509250505060405180910390f35b610197610d56565b6101a1610d60565b610197600480360360208110156102db57600080fd5b50356001600160a01b0316610e03565b6101976004803603602081101561030157600080fd5b50356001600160a01b0316610e16565b610197610f1f565b610197610fc1565b6101a1611089565b6101976004803603604081101561033f57600080fd5b5080359060200135611188565b6101fd611231565b6101fd611240565b6101976004803603602081101561037257600080fd5b503561124f565b6101fd6114a4565b6101fd61153a565b6101976004803603602081101561039f57600080fd5b50356001600160a01b0316611549565b610197600480360360408110156103c557600080fd5b506001600160a01b038135169060200135611641565b6101a16116fb565b6101fd611788565b6000600460009054906101000a90046001600160a01b03166001600160a01b03166339e7357c6040518163ffffffff1660e01b815260040160206040518083038186803b15801561043b57600080fd5b505afa92505050801561046057506040513d602081101561045b57600080fd5b505160015b61046c57506000610473565b6007541490505b90565b61047e611797565b6000546001600160a01b039081169116146104ce576040805162461bcd60e51b81526020600482018190526024820152600080516020611be0833981519152604482015290519081900360640190fd5b6001600454600160a01b900460ff1660068111156104e857fe5b146105245760405162461bcd60e51b815260040180806020018281038252602c815260200180611b5c602c913960400191505060405180910390fd5b600480546002919060ff60a01b1916600160a01b835b0217905550565b6005546000906001600160a01b0316610558611797565b6001600160a01b031614806105fe5750600560009054906101000a90046001600160a01b03166001600160a01b0316637a6c8b536040518163ffffffff1660e01b815260040160206040518083038186803b1580156105b657600080fd5b505afa1580156105ca573d6000803e3d6000fd5b505050506040513d60208110156105e057600080fd5b50516001600160a01b03166105f3611797565b6001600160a01b0316145b6106395760405162461bcd60e51b815260040180806020018281038252602a815260200180611cdb602a913960400191505060405180910390fd5b5060095490565b6005546001600160a01b0316610654611797565b6001600160a01b0316146106995760405162461bcd60e51b815260040180806020018281038252602b815260200180611c84602b913960400191505060405180910390fd5b806106d55760405162461bcd60e51b815260040180806020018281038252602b815260200180611b88602b913960400191505060405180910390fd5b600c55565b60085460009060ff1661071e5760405162461bcd60e51b8152600401808060200182810382526029815260200180611b066029913960400191505060405180910390fd5b6004546001600160a01b0316610732611797565b6001600160a01b0316146107775760405162461bcd60e51b8152600401808060200182810382526025815260200180611ae16025913960400191505060405180910390fd5b600360009054906101000a90046001600160a01b03166001600160a01b0316630b435c546040518163ffffffff1660e01b815260040160206040518083038186803b1580156107c557600080fd5b505afa1580156107d9573d6000803e3d6000fd5b505050506040513d60208110156107ef57600080fd5b5051821061082e5760405162461bcd60e51b8152600401808060200182810382526026815260200180611d396026913960400191505060405180910390fd5b6003546007546040805163cee0510f60e01b8152600481018690526024810192909252516001600160a01b039092169163cee0510f91604480820192602092909190829003018186803b15801561088457600080fd5b505afa158015610898573d6000803e3d6000fd5b505050506040513d60208110156108ae57600080fd5b505192915050565b6108be611797565b6000546001600160a01b0390811691161461090e576040805162461bcd60e51b81526020600482018190526024820152600080516020611be0833981519152604482015290519081900360640190fd5b60085460ff1661093857600480546005919060ff60a01b1916600160a01b835b0217905550610977565b6109406103eb565b1561095f57600480546003919060ff60a01b1916600160a01b8361092e565b60048054819060ff60a01b1916600160a01b8261053a565b565b6005546000906001600160a01b0316610990611797565b6001600160a01b031614806109c457506109a8611231565b6001600160a01b03166109b9611797565b6001600160a01b0316145b6109ff5760405162461bcd60e51b815260040180806020018281038252602a815260200180611cdb602a913960400191505060405180910390fd5b506003546001600160a01b031690565b6000600454600160a01b900460ff166006811115610a2957fe5b14610a655760405162461bcd60e51b815260040180806020018281038252602a815260200180611c5a602a913960400191505060405180910390fd5b600b546002546001600160a01b03166370a08231610a81611797565b6040518263ffffffff1660e01b815260040180826001600160a01b03166001600160a01b0316815260200191505060206040518083038186803b158015610ac757600080fd5b505afa158015610adb573d6000803e3d6000fd5b505050506040513d6020811015610af157600080fd5b50511015610b305760405162461bcd60e51b8152600401808060200182810382526034815260200180611d056034913960400191505060405180910390fd5b600254610b5f906001600160a01b0316610b48611797565b600654600b546001600160a01b039091169061179b565b6008805461ff00191661010083151502179055600480546001919060ff60a01b1916600160a01b835b021790555050565b6005546060906001600160a01b0316610ba7611797565b6001600160a01b03161480610bdb5750610bbf611231565b6001600160a01b0316610bd0611797565b6001600160a01b0316145b610c165760405162461bcd60e51b815260040180806020018281038252602a815260200180611cdb602a913960400191505060405180910390fd5b600360009054906101000a90046001600160a01b03166001600160a01b031663724465436040518163ffffffff1660e01b815260040160006040518083038186803b158015610c6457600080fd5b505afa158015610c78573d6000803e3d6000fd5b505050506040513d6000823e601f3d908101601f191682016040526020811015610ca157600080fd5b8101908080516040519392919084640100000000821115610cc157600080fd5b908301906020820185811115610cd657600080fd5b8251640100000000811182820188101715610cf057600080fd5b82525081516020918201929091019080838360005b83811015610d1d578181015183820152602001610d05565b50505050905090810190601f168015610d4a5780820380516001836020036101000a031916815260200191505b50604052505050905090565b6109776000610a0f565b6005546000906001600160a01b0316610d77611797565b6001600160a01b03161480610dab5750610d8f611231565b6001600160a01b0316610da0611797565b6001600160a01b0316145b610de65760405162461bcd60e51b815260040180806020018281038252602a815260200180611cdb602a913960400191505060405180910390fd5b600454600160a01b900460ff166006811115610dfe57fe5b905090565b610e1381600a5460095401611641565b50565b6001600454600160a01b900460ff166006811115610e3057fe5b14610e6c5760405162461bcd60e51b8152600401808060200182810382526028815260200180611a936028913960400191505060405180910390fd5b6005546001600160a01b0316610e80611797565b6001600160a01b031614610ec55760405162461bcd60e51b815260040180806020018281038252602d815260200180611b2f602d913960400191505060405180910390fd5b600854610100900460ff1615610ee357506001546001600160a01b03165b600254600654600b54610f05926001600160a01b03908116921690849061179b565b600480546000919060ff60a01b1916600160a01b83610b88565b610f27611797565b6000546001600160a01b03908116911614610f77576040805162461bcd60e51b81526020600482018190526024820152600080516020611be0833981519152604482015290519081900360640190fd5b600080546040516001600160a01b03909116907f8be0079c531659141344cd1fd0a4f28419497f9722a3daafe3b4186f6b6457e0908390a3600080546001600160a01b0319169055565b610fc9611797565b6000546001600160a01b03908116911614611019576040805162461bcd60e51b81526020600482018190526024820152600080516020611be0833981519152604482015290519081900360640190fd5b6000600454600160a01b900460ff16600681111561103357fe5b1461106f5760405162461bcd60e51b815260040180806020018281038252602a815260200180611c5a602a913960400191505060405180910390fd5b600480546006919060ff60a01b1916600160a01b8361053a565b6005546000906001600160a01b03166110a0611797565b6001600160a01b031614806111465750600560009054906101000a90046001600160a01b03166001600160a01b0316637a6c8b536040518163ffffffff1660e01b815260040160206040518083038186803b1580156110fe57600080fd5b505afa158015611112573d6000803e3d6000fd5b505050506040513d602081101561112857600080fd5b50516001600160a01b031661113b611797565b6001600160a01b0316145b6111815760405162461bcd60e51b815260040180806020018281038252602a815260200180611cdb602a913960400191505060405180910390fd5b50600a5490565b611190611797565b6000546001600160a01b039081169116146111e0576040805162461bcd60e51b81526020600482018190526024820152600080516020611be0833981519152604482015290519081900360640190fd5b60026111ea610d60565b116112265760405162461bcd60e51b8152600401808060200182810382526030815260200180611a636030913960400191505060405180910390fd5b600991909155600a55565b6000546001600160a01b031690565b6006546001600160a01b031681565b600c5461128d5760405162461bcd60e51b815260040180806020018281038252602e815260200180611c00602e913960400191505060405180910390fd5b600c5481146112e3576040805162461bcd60e51b815260206004820181905260248201527f53747564656e744170706c69636174696f6e3a2077726f6e6720736563726574604482015290519081900360640190fd5b6002600454600160a01b900460ff1660068111156112fd57fe5b146113395760405162461bcd60e51b815260040180806020018281038252602d815260200180611bb3602d913960400191505060405180910390fd5b6000611343611797565b9050600560009054906101000a90046001600160a01b03166001600160a01b0316637a6c8b536040518163ffffffff1660e01b815260040160206040518083038186803b15801561139357600080fd5b505afa1580156113a7573d6000803e3d6000fd5b505050506040513d60208110156113bd57600080fd5b505160408051631127a41d60e31b815290516001600160a01b039283169284169163893d20e8916004808301926020929190829003018186803b15801561140357600080fd5b505afa158015611417573d6000803e3d6000fd5b505050506040513d602081101561142d57600080fd5b50516001600160a01b0316146114745760405162461bcd60e51b815260040180806020018281038252602c815260200180611c2e602c913960400191505060405180910390fd5b600480546001600160a01b0319166001600160a01b0392909216919091179055506008805460ff19166001179055565b6005546000906001600160a01b03166114bb611797565b6001600160a01b031614806114ef57506114d3611231565b6001600160a01b03166114e4611797565b6001600160a01b0316145b61152a5760405162461bcd60e51b815260040180806020018281038252602a815260200180611cdb602a913960400191505060405180910390fd5b506005546001600160a01b031690565b6002546001600160a01b031681565b611551611797565b6000546001600160a01b039081169116146115a1576040805162461bcd60e51b81526020600482018190526024820152600080516020611be0833981519152604482015290519081900360640190fd5b6001600160a01b0381166115e65760405162461bcd60e51b8152600401808060200182810382526026815260200180611abb6026913960400191505060405180910390fd5b600080546040516001600160a01b03808516939216917f8be0079c531659141344cd1fd0a4f28419497f9722a3daafe3b4186f6b6457e091a3600080546001600160a01b0319166001600160a01b0392909216919091179055565b6005546001600160a01b0316611655611797565b6001600160a01b03161461169a5760405162461bcd60e51b815260040180806020018281038252602d815260200180611b2f602d913960400191505060405180910390fd5b60026116a4610d60565b116116e05760405162461bcd60e51b815260040180806020018281038252602c815260200180611caf602c913960400191505060405180910390fd5b6002546116f7906001600160a01b031683836118f8565b5050565b6005546000906001600160a01b0316611712611797565b6001600160a01b03161480611746575061172a611231565b6001600160a01b031661173b611797565b6001600160a01b0316145b6117815760405162461bcd60e51b815260040180806020018281038252602a815260200180611cdb602a913960400191505060405180910390fd5b50600b5490565b6001546001600160a01b031681565b3390565b604080516001600160a01b0385811660248301528481166044830152606480830185905283518084039091018152608490920183526020820180516001600160e01b03166323b872dd60e01b17815292518251600094606094938a169392918291908083835b602083106118205780518252601f199092019160209182019101611801565b6001836020036101000a0380198251168184511680821785525050505050509050019150506000604051808303816000865af19150503d8060008114611882576040519150601f19603f3d011682016040523d82523d6000602084013e611887565b606091505b50915091508180156118b55750805115806118b557508080602001905160208110156118b257600080fd5b50515b6118f05760405162461bcd60e51b8152600401808060200182810382526024815260200180611d5f6024913960400191505060405180910390fd5b505050505050565b604080516001600160a01b038481166024830152604480830185905283518084039091018152606490920183526020820180516001600160e01b031663a9059cbb60e01b178152925182516000946060949389169392918291908083835b602083106119755780518252601f199092019160209182019101611956565b6001836020036101000a0380198251168184511680821785525050505050509050019150506000604051808303816000865af19150503d80600081146119d7576040519150601f19603f3d011682016040523d82523d6000602084013e6119dc565b606091505b5091509150818015611a0a575080511580611a0a5750808060200190516020811015611a0757600080fd5b50515b611a5b576040805162461bcd60e51b815260206004820152601f60248201527f5472616e7366657248656c7065723a205452414e534645525f4641494c454400604482015290519081900360640190fd5b505050505056fe53747564656e744170706c69636174696f6e3a206170706c69636174696f6e206e6f742066696e69736865642079657453747564656e744170706c69636174696f6e3a20726566756e64206e6f7420617661696c61626c654f776e61626c653a206e6577206f776e657220697320746865207a65726f206164647265737353747564656e744170706c69636174696f6e3a2061726520796f75206368656174696e673f53747564656e744170706c69636174696f6e3a20616e73776572206e6f74207265676973746572656453747564656e744170706c69636174696f6e3a206f6e6c792073747564656e742063616e20776974686472617753747564656e744170706c69636174696f6e3a206170706c69636174696f6e206973206e6f7420526561647953747564656e744170706c69636174696f6e3a206d7573742073657420612076616c69642073656372657453747564656e744170706c69636174696f6e3a206170706c69636174696f6e206973206e6f74206163746976654f776e61626c653a2063616c6c6572206973206e6f7420746865206f776e657253747564656e744170706c69636174696f6e3a206170706c69636174696f6e20736563726574206e6f742073657453747564656e744170706c69636174696f6e3a206765744f776e657220726573756c742069732077726f6e6753747564656e744170706c69636174696f6e3a206170706c69636174696f6e206973206e6f74204e657753747564656e744170706c69636174696f6e3a207772697465207065726d697373696f6e2064656e69656453747564656e744170706c69636174696f6e3a206170706c69636174696f6e206e6f742066696e697368656453747564656e744170706c69636174696f6e3a2072656164207065726d697373696f6e2064656e69656453747564656e744170706c69636174696f6e3a2073656e6465722063616e2774207061792074686520656e74727920707269636553747564656e744170706c69636174696f6e3a2068696e74206e6f7420617661696c61626c655472616e7366657248656c7065723a205452414e534645525f46524f4d5f4641494c4544a264697066735822122027b4fed303f050f870f24562c659678296c910e16f2eef1e0ddb0e101575830464736f6c634300060b0033",
  "immutableReferences": {},
  "source": "// SPDX-License-Identifier: GPL-3.0-or-later\r\n\r\npragma solidity ^0.6.11;\r\n\r\nimport \"@openzeppelin/contracts/math/SafeMath.sol\";\r\nimport \"@openzeppelin/contracts/access/Ownable.sol\";\r\nimport \"@openzeppelin/contracts/token/ERC20/IERC20.sol\";\r\nimport \"./interface/IStudent.sol\";\r\nimport \"./interface/IClassroom.sol\";\r\nimport \"./interface/IStudentApplication.sol\";\r\nimport \"./interface/IStudentAnswer.sol\";\r\nimport \"./interface/IClassroomChallenge.sol\";\r\nimport \"./MyUtils.sol\";\r\n\r\ncontract StudentApplication is Ownable, IStudentApplication {\r\n    using SafeMath for uint256;\r\n\r\n    address public universityAddress;\r\n    address public daiToken;\r\n    address _challenge;\r\n\r\n    enum ApplicationState {New, Ready, Active, Success, Failed, Empty, Expired}\r\n\r\n    IStudentAnswer _answer;\r\n    ApplicationState _applicationState;\r\n    address _studentAddress;\r\n    address public classroomAddress;\r\n    bytes32 _seed;\r\n    bool _hasAnswer;\r\n    bool _grant;\r\n    uint256 _principalReturned;\r\n    uint256 _completionPrize;\r\n    uint256 _entryPrice;\r\n    bytes32 _answerSecret;\r\n\r\n    constructor(\r\n        address studentAddress,\r\n        address classroomAddress_,\r\n        address daiAddress,\r\n        address challengeAddress,\r\n        address universityAddress_,\r\n        bytes32 seed\r\n    ) public {\r\n        _applicationState = ApplicationState.New;\r\n        _studentAddress = studentAddress;\r\n        classroomAddress = classroomAddress_;\r\n        universityAddress = universityAddress_;\r\n        _hasAnswer = false;\r\n        daiToken = daiAddress;\r\n        _seed = seed;\r\n        _challenge = challengeAddress;\r\n        _entryPrice = IClassroom(classroomAddress).entryPrice();\r\n    }\r\n\r\n    function studentAddress() public override view returns (address) {\r\n        require(\r\n            _msgSender() == _studentAddress || _msgSender() == owner(),\r\n            \"StudentApplication: read permission denied\"\r\n        );\r\n        return _studentAddress;\r\n    }\r\n\r\n    function applicationState() public override view returns (uint256) {\r\n        require(\r\n            _msgSender() == _studentAddress || _msgSender() == owner(),\r\n            \"StudentApplication: read permission denied\"\r\n        );\r\n        return uint256(_applicationState);\r\n    }\r\n\r\n    function entryPrice() public override view returns (uint256) {\r\n        require(\r\n            _msgSender() == _studentAddress || _msgSender() == owner(),\r\n            \"StudentApplication: read permission denied\"\r\n        );\r\n        return _entryPrice;\r\n    }\r\n\r\n    function challengeAddress() public view returns (address) {\r\n        require(\r\n            _msgSender() == _studentAddress || _msgSender() == owner(),\r\n            \"StudentApplication: read permission denied\"\r\n        );\r\n        return address(_challenge);\r\n    }\r\n\r\n    function payMyEntryPrice() external {\r\n        payEntryPrice(false);\r\n    }\r\n\r\n    function payEntryPrice(bool grant) public override {\r\n        require(\r\n            _applicationState == ApplicationState.New,\r\n            \"StudentApplication: application is not New\"\r\n        );\r\n        require(\r\n            IERC20(daiToken).balanceOf(_msgSender()) >= _entryPrice,\r\n            \"StudentApplication: sender can't pay the entry price\"\r\n        );\r\n        TransferHelper.safeTransferFrom(\r\n            daiToken,\r\n            _msgSender(),\r\n            classroomAddress,\r\n            _entryPrice\r\n        );\r\n        _grant = grant;\r\n        _applicationState = ApplicationState.Ready;\r\n    }\r\n\r\n    function activate() public override onlyOwner {\r\n        require(\r\n            _applicationState == ApplicationState.Ready,\r\n            \"StudentApplication: application is not Ready\"\r\n        );\r\n        _applicationState = ApplicationState.Active;\r\n    }\r\n\r\n    function expire() public override onlyOwner {\r\n        require(\r\n            _applicationState == ApplicationState.New,\r\n            \"StudentApplication: application is not New\"\r\n        );\r\n        _applicationState = ApplicationState.Expired;\r\n    }\r\n\r\n    function setAnswerSecret(bytes32 secret) public override {\r\n        require(\r\n            _msgSender() == _studentAddress,\r\n            \"StudentApplication: write permission denied\"\r\n        );\r\n        require(\r\n            secret != bytes32(0),\r\n            \"StudentApplication: must set a valid secret\"\r\n        );\r\n        _answerSecret = secret;\r\n    }\r\n\r\n    function registerAnswer(bytes32 secret) public override {\r\n        require(\r\n            _answerSecret != bytes32(0),\r\n            \"StudentApplication: application secret not set\"\r\n        );\r\n        require(secret == _answerSecret, \"StudentApplication: wrong secret\");\r\n        require(\r\n            _applicationState == ApplicationState.Active,\r\n            \"StudentApplication: application is not active\"\r\n        );\r\n        IStudentAnswer answer = IStudentAnswer(_msgSender());\r\n        require(\r\n            answer.getOwner() == IStudent(_studentAddress).ownerStudent(),\r\n            \"StudentApplication: getOwner result is wrong\"\r\n        );\r\n        _answer = answer;\r\n        _hasAnswer = true;\r\n    }\r\n\r\n    function viewChallengeMaterial()\r\n        public\r\n        override\r\n        view\r\n        returns (string memory)\r\n    {\r\n        require(\r\n            _msgSender() == _studentAddress || _msgSender() == owner(),\r\n            \"StudentApplication: read permission denied\"\r\n        );\r\n        return IClassroomChallenge(_challenge).viewMaterial();\r\n    }\r\n\r\n    function getHint(uint256 index) public override view returns (bytes32) {\r\n        require(_hasAnswer, \"StudentApplication: answer not registered\");\r\n        require(\r\n            _msgSender() == address(_answer),\r\n            \"StudentApplication: are you cheating?\"\r\n        );\r\n        require(\r\n            index < IClassroomChallenge(_challenge).hintsCount(),\r\n            \"StudentApplication: hint not available\"\r\n        );\r\n        return IClassroomChallenge(_challenge).getHint(index, _seed);\r\n    }\r\n\r\n    function verifyAnswer() public view returns (bool) {\r\n        try _answer.getSeed() returns (bytes32 seed) {\r\n            return seed == _seed;\r\n        } catch {\r\n            return false;\r\n        }\r\n    }\r\n\r\n    function registerFinalAnswer() public override onlyOwner {\r\n        if (!_hasAnswer) {\r\n            _applicationState = ApplicationState.Empty;\r\n        } else {\r\n            if (verifyAnswer()) _applicationState = ApplicationState.Success;\r\n            else _applicationState = ApplicationState.Failed;\r\n        }\r\n    }\r\n\r\n    function accountAllowance(uint256 principal, uint256 prize)\r\n        public\r\n        override\r\n        onlyOwner\r\n    {\r\n        require(\r\n            applicationState() > 2,\r\n            \"StudentApplication: application not finished yet\"\r\n        );\r\n        _principalReturned = principal;\r\n        _completionPrize = prize;\r\n    }\r\n\r\n    function viewPrincipalReturned() public view returns (uint256) {\r\n        require(\r\n            _msgSender() == _studentAddress ||\r\n                _msgSender() == IStudent(_studentAddress).ownerStudent(),\r\n            \"StudentApplication: read permission denied\"\r\n        );\r\n        return _principalReturned;\r\n    }\r\n\r\n    function viewPrizeReturned() public view returns (uint256) {\r\n        require(\r\n            _msgSender() == _studentAddress ||\r\n                _msgSender() == IStudent(_studentAddress).ownerStudent(),\r\n            \"StudentApplication: read permission denied\"\r\n        );\r\n        return _completionPrize;\r\n    }\r\n\r\n    function withdrawAllResults(address to) public override {\r\n        withdraw(to, _principalReturned + _completionPrize);\r\n    }\r\n\r\n    function refundPayment(address to) public override {\r\n        require(\r\n            _applicationState == ApplicationState.Ready,\r\n            \"StudentApplication: refund not available\"\r\n        );\r\n        require(\r\n            _msgSender() == _studentAddress,\r\n            \"StudentApplication: only student can withdraw\"\r\n        );\r\n        if (_grant) to = universityAddress;\r\n        TransferHelper.safeTransferFrom(\r\n            daiToken,\r\n            classroomAddress,\r\n            to,\r\n            _entryPrice\r\n        );\r\n        _applicationState = ApplicationState.New;\r\n    }\r\n\r\n    function withdraw(address to, uint256 val) public override {\r\n        require(\r\n            _msgSender() == _studentAddress,\r\n            \"StudentApplication: only student can withdraw\"\r\n        );\r\n        require(\r\n            applicationState() > 2,\r\n            \"StudentApplication: application not finished\"\r\n        );\r\n        TransferHelper.safeTransfer(daiToken, to, val);\r\n    }\r\n}\r\n",
  "sourcePath": "/mnt/e/Repositories/uproot-trustless-contracts/contracts/StudentApplication.sol",
  "compiler": {
    "name": "solc",
    "version": "0.6.11+commit.5ef660b1.Emscripten.clang"
  },
  "schemaVersion": "3.1.0",
  "updatedAt": "2020-07-20T13:54:53.207Z",
  "devdoc": {
    "kind": "dev",
    "methods": {
      "owner()": {
        "details": "Returns the address of the current owner."
      },
      "renounceOwnership()": {
        "details": "Leaves the contract without owner. It will not be possible to call `onlyOwner` functions anymore. Can only be called by the current owner. NOTE: Renouncing ownership will leave the contract without an owner, thereby removing any functionality that is only available to the owner."
      },
      "transferOwnership(address)": {
        "details": "Transfers ownership of the contract to a new account (`newOwner`). Can only be called by the current owner."
      }
    },
    "version": 1
  },
  "userdoc": {
    "kind": "user",
    "methods": {},
    "version": 1
  }
}