{
  "contractName": "University",
  "abi": [
    {
      "inputs": [
        {
          "internalType": "bytes32",
          "name": "name_",
          "type": "bytes32"
        },
        {
          "internalType": "uint24",
          "name": "cut_",
          "type": "uint24"
        },
        {
          "internalType": "address",
          "name": "daiAddress",
          "type": "address"
        },
        {
          "internalType": "address",
          "name": "compoundDai",
          "type": "address"
        },
        {
          "internalType": "address",
          "name": "classroomFactoryAddress",
          "type": "address"
        },
        {
          "internalType": "address",
          "name": "studentFactoryAddress",
          "type": "address"
        },
        {
          "internalType": "address",
          "name": "studentApplicationFactoryAddress",
          "type": "address"
        },
        {
          "internalType": "address",
          "name": "ensContractAddress",
          "type": "address"
        },
        {
          "internalType": "address",
          "name": "ensTestRegistrarAddress",
          "type": "address"
        },
        {
          "internalType": "address",
          "name": "ensPublicResolverAddress",
          "type": "address"
        },
        {
          "internalType": "address",
          "name": "ensReverseRegistrarAddress",
          "type": "address"
        }
      ],
      "stateMutability": "nonpayable",
      "type": "constructor"
    },
    {
      "anonymous": false,
      "inputs": [
        {
          "indexed": false,
          "internalType": "uint24",
          "name": "",
          "type": "uint24"
        }
      ],
      "name": "LogChangeCut",
      "type": "event"
    },
    {
      "anonymous": false,
      "inputs": [
        {
          "indexed": false,
          "internalType": "bytes32",
          "name": "",
          "type": "bytes32"
        }
      ],
      "name": "LogChangeName",
      "type": "event"
    },
    {
      "anonymous": false,
      "inputs": [
        {
          "indexed": false,
          "internalType": "address",
          "name": "",
          "type": "address"
        },
        {
          "indexed": false,
          "internalType": "uint256",
          "name": "",
          "type": "uint256"
        }
      ],
      "name": "LogDonation",
      "type": "event"
    },
    {
      "anonymous": false,
      "inputs": [
        {
          "indexed": false,
          "internalType": "bytes32",
          "name": "",
          "type": "bytes32"
        },
        {
          "indexed": false,
          "internalType": "address",
          "name": "",
          "type": "address"
        }
      ],
      "name": "LogNewClassroom",
      "type": "event"
    },
    {
      "anonymous": false,
      "inputs": [
        {
          "indexed": false,
          "internalType": "bytes32",
          "name": "",
          "type": "bytes32"
        },
        {
          "indexed": false,
          "internalType": "address",
          "name": "",
          "type": "address"
        }
      ],
      "name": "LogNewStudent",
      "type": "event"
    },
    {
      "anonymous": false,
      "inputs": [
        {
          "indexed": false,
          "internalType": "address",
          "name": "",
          "type": "address"
        },
        {
          "indexed": false,
          "internalType": "uint256",
          "name": "",
          "type": "uint256"
        }
      ],
      "name": "LogReceived",
      "type": "event"
    },
    {
      "anonymous": false,
      "inputs": [
        {
          "indexed": false,
          "internalType": "address",
          "name": "",
          "type": "address"
        },
        {
          "indexed": false,
          "internalType": "uint256",
          "name": "",
          "type": "uint256"
        }
      ],
      "name": "LogReturn",
      "type": "event"
    },
    {
      "anonymous": false,
      "inputs": [
        {
          "indexed": false,
          "internalType": "address",
          "name": "",
          "type": "address"
        },
        {
          "indexed": false,
          "internalType": "uint256",
          "name": "",
          "type": "uint256"
        }
      ],
      "name": "LogRevenue",
      "type": "event"
    },
    {
      "anonymous": false,
      "inputs": [
        {
          "indexed": true,
          "internalType": "address",
          "name": "previousOwner",
          "type": "address"
        },
        {
          "indexed": true,
          "internalType": "address",
          "name": "newOwner",
          "type": "address"
        }
      ],
      "name": "OwnershipTransferred",
      "type": "event"
    },
    {
      "anonymous": false,
      "inputs": [
        {
          "indexed": true,
          "internalType": "bytes32",
          "name": "role",
          "type": "bytes32"
        },
        {
          "indexed": true,
          "internalType": "bytes32",
          "name": "previousAdminRole",
          "type": "bytes32"
        },
        {
          "indexed": true,
          "internalType": "bytes32",
          "name": "newAdminRole",
          "type": "bytes32"
        }
      ],
      "name": "RoleAdminChanged",
      "type": "event"
    },
    {
      "anonymous": false,
      "inputs": [
        {
          "indexed": true,
          "internalType": "bytes32",
          "name": "role",
          "type": "bytes32"
        },
        {
          "indexed": true,
          "internalType": "address",
          "name": "account",
          "type": "address"
        },
        {
          "indexed": true,
          "internalType": "address",
          "name": "sender",
          "type": "address"
        }
      ],
      "name": "RoleGranted",
      "type": "event"
    },
    {
      "anonymous": false,
      "inputs": [
        {
          "indexed": true,
          "internalType": "bytes32",
          "name": "role",
          "type": "bytes32"
        },
        {
          "indexed": true,
          "internalType": "address",
          "name": "account",
          "type": "address"
        },
        {
          "indexed": true,
          "internalType": "address",
          "name": "sender",
          "type": "address"
        }
      ],
      "name": "RoleRevoked",
      "type": "event"
    },
    {
      "inputs": [],
      "name": "CLASSLIST_ADMIN_ROLE",
      "outputs": [
        {
          "internalType": "bytes32",
          "name": "",
          "type": "bytes32"
        }
      ],
      "stateMutability": "view",
      "type": "function"
    },
    {
      "inputs": [],
      "name": "CLASSROOM_PROFESSOR_ROLE",
      "outputs": [
        {
          "internalType": "bytes32",
          "name": "",
          "type": "bytes32"
        }
      ],
      "stateMutability": "view",
      "type": "function"
    },
    {
      "inputs": [],
      "name": "DEFAULT_ADMIN_ROLE",
      "outputs": [
        {
          "internalType": "bytes32",
          "name": "",
          "type": "bytes32"
        }
      ],
      "stateMutability": "view",
      "type": "function"
    },
    {
      "inputs": [],
      "name": "FUNDS_MANAGER_ROLE",
      "outputs": [
        {
          "internalType": "bytes32",
          "name": "",
          "type": "bytes32"
        }
      ],
      "stateMutability": "view",
      "type": "function"
    },
    {
      "inputs": [],
      "name": "GRANTS_MANAGER_ROLE",
      "outputs": [
        {
          "internalType": "bytes32",
          "name": "",
          "type": "bytes32"
        }
      ],
      "stateMutability": "view",
      "type": "function"
    },
    {
      "inputs": [],
      "name": "REGISTERED_SUPPLIER_ROLE",
      "outputs": [
        {
          "internalType": "bytes32",
          "name": "",
          "type": "bytes32"
        }
      ],
      "stateMutability": "view",
      "type": "function"
    },
    {
      "inputs": [],
      "name": "STUDENT_IDENTITY_ROLE",
      "outputs": [
        {
          "internalType": "bytes32",
          "name": "",
          "type": "bytes32"
        }
      ],
      "stateMutability": "view",
      "type": "function"
    },
    {
      "inputs": [],
      "name": "UNIVERSITY_OVERSEER_ROLE",
      "outputs": [
        {
          "internalType": "bytes32",
          "name": "",
          "type": "bytes32"
        }
      ],
      "stateMutability": "view",
      "type": "function"
    },
    {
      "inputs": [],
      "name": "cDAI",
      "outputs": [
        {
          "internalType": "address",
          "name": "",
          "type": "address"
        }
      ],
      "stateMutability": "view",
      "type": "function"
    },
    {
      "inputs": [],
      "name": "classroomFactory",
      "outputs": [
        {
          "internalType": "address",
          "name": "",
          "type": "address"
        }
      ],
      "stateMutability": "view",
      "type": "function"
    },
    {
      "inputs": [],
      "name": "cut",
      "outputs": [
        {
          "internalType": "uint24",
          "name": "",
          "type": "uint24"
        }
      ],
      "stateMutability": "view",
      "type": "function"
    },
    {
      "inputs": [],
      "name": "daiToken",
      "outputs": [
        {
          "internalType": "address",
          "name": "",
          "type": "address"
        }
      ],
      "stateMutability": "view",
      "type": "function"
    },
    {
      "inputs": [],
      "name": "donationsReceived",
      "outputs": [
        {
          "internalType": "uint256",
          "name": "",
          "type": "uint256"
        }
      ],
      "stateMutability": "view",
      "type": "function"
    },
    {
      "inputs": [
        {
          "internalType": "address",
          "name": "",
          "type": "address"
        }
      ],
      "name": "donators",
      "outputs": [
        {
          "internalType": "uint256",
          "name": "",
          "type": "uint256"
        }
      ],
      "stateMutability": "view",
      "type": "function"
    },
    {
      "inputs": [],
      "name": "endowmentLocked",
      "outputs": [
        {
          "internalType": "uint256",
          "name": "",
          "type": "uint256"
        }
      ],
      "stateMutability": "view",
      "type": "function"
    },
    {
      "inputs": [],
      "name": "ensContract",
      "outputs": [
        {
          "internalType": "address",
          "name": "",
          "type": "address"
        }
      ],
      "stateMutability": "view",
      "type": "function"
    },
    {
      "inputs": [],
      "name": "ensPublicResolver",
      "outputs": [
        {
          "internalType": "address",
          "name": "",
          "type": "address"
        }
      ],
      "stateMutability": "view",
      "type": "function"
    },
    {
      "inputs": [],
      "name": "ensReverseRegistrar",
      "outputs": [
        {
          "internalType": "address",
          "name": "",
          "type": "address"
        }
      ],
      "stateMutability": "view",
      "type": "function"
    },
    {
      "inputs": [],
      "name": "ensTestRegistrar",
      "outputs": [
        {
          "internalType": "address",
          "name": "",
          "type": "address"
        }
      ],
      "stateMutability": "view",
      "type": "function"
    },
    {
      "inputs": [
        {
          "internalType": "bytes32",
          "name": "role",
          "type": "bytes32"
        }
      ],
      "name": "getRoleAdmin",
      "outputs": [
        {
          "internalType": "bytes32",
          "name": "",
          "type": "bytes32"
        }
      ],
      "stateMutability": "view",
      "type": "function"
    },
    {
      "inputs": [
        {
          "internalType": "bytes32",
          "name": "role",
          "type": "bytes32"
        },
        {
          "internalType": "uint256",
          "name": "index",
          "type": "uint256"
        }
      ],
      "name": "getRoleMember",
      "outputs": [
        {
          "internalType": "address",
          "name": "",
          "type": "address"
        }
      ],
      "stateMutability": "view",
      "type": "function"
    },
    {
      "inputs": [
        {
          "internalType": "bytes32",
          "name": "role",
          "type": "bytes32"
        }
      ],
      "name": "getRoleMemberCount",
      "outputs": [
        {
          "internalType": "uint256",
          "name": "",
          "type": "uint256"
        }
      ],
      "stateMutability": "view",
      "type": "function"
    },
    {
      "inputs": [
        {
          "internalType": "bytes32",
          "name": "role",
          "type": "bytes32"
        },
        {
          "internalType": "address",
          "name": "account",
          "type": "address"
        }
      ],
      "name": "grantRole",
      "outputs": [],
      "stateMutability": "nonpayable",
      "type": "function"
    },
    {
      "inputs": [
        {
          "internalType": "bytes32",
          "name": "role",
          "type": "bytes32"
        },
        {
          "internalType": "address",
          "name": "account",
          "type": "address"
        }
      ],
      "name": "hasRole",
      "outputs": [
        {
          "internalType": "bool",
          "name": "",
          "type": "bool"
        }
      ],
      "stateMutability": "view",
      "type": "function"
    },
    {
      "inputs": [],
      "name": "name",
      "outputs": [
        {
          "internalType": "bytes32",
          "name": "",
          "type": "bytes32"
        }
      ],
      "stateMutability": "view",
      "type": "function"
    },
    {
      "inputs": [],
      "name": "operationalBudget",
      "outputs": [
        {
          "internalType": "uint256",
          "name": "",
          "type": "uint256"
        }
      ],
      "stateMutability": "view",
      "type": "function"
    },
    {
      "inputs": [],
      "name": "owner",
      "outputs": [
        {
          "internalType": "address",
          "name": "",
          "type": "address"
        }
      ],
      "stateMutability": "view",
      "type": "function"
    },
    {
      "inputs": [],
      "name": "renounceOwnership",
      "outputs": [],
      "stateMutability": "nonpayable",
      "type": "function"
    },
    {
      "inputs": [
        {
          "internalType": "bytes32",
          "name": "role",
          "type": "bytes32"
        },
        {
          "internalType": "address",
          "name": "account",
          "type": "address"
        }
      ],
      "name": "renounceRole",
      "outputs": [],
      "stateMutability": "nonpayable",
      "type": "function"
    },
    {
      "inputs": [],
      "name": "returnsReceived",
      "outputs": [
        {
          "internalType": "uint256",
          "name": "",
          "type": "uint256"
        }
      ],
      "stateMutability": "view",
      "type": "function"
    },
    {
      "inputs": [],
      "name": "revenueReceived",
      "outputs": [
        {
          "internalType": "uint256",
          "name": "",
          "type": "uint256"
        }
      ],
      "stateMutability": "view",
      "type": "function"
    },
    {
      "inputs": [
        {
          "internalType": "bytes32",
          "name": "role",
          "type": "bytes32"
        },
        {
          "internalType": "address",
          "name": "account",
          "type": "address"
        }
      ],
      "name": "revokeRole",
      "outputs": [],
      "stateMutability": "nonpayable",
      "type": "function"
    },
    {
      "inputs": [],
      "name": "studentApplicationFactory",
      "outputs": [
        {
          "internalType": "address",
          "name": "",
          "type": "address"
        }
      ],
      "stateMutability": "view",
      "type": "function"
    },
    {
      "inputs": [],
      "name": "studentFactory",
      "outputs": [
        {
          "internalType": "address",
          "name": "",
          "type": "address"
        }
      ],
      "stateMutability": "view",
      "type": "function"
    },
    {
      "inputs": [
        {
          "internalType": "address",
          "name": "newOwner",
          "type": "address"
        }
      ],
      "name": "transferOwnership",
      "outputs": [],
      "stateMutability": "nonpayable",
      "type": "function"
    },
    {
      "inputs": [],
      "name": "universityFund",
      "outputs": [
        {
          "internalType": "address",
          "name": "",
          "type": "address"
        }
      ],
      "stateMutability": "view",
      "type": "function"
    },
    {
      "stateMutability": "payable",
      "type": "receive"
    },
    {
      "inputs": [
        {
          "internalType": "uint256",
          "name": "val",
          "type": "uint256"
        }
      ],
      "name": "withdraw",
      "outputs": [],
      "stateMutability": "nonpayable",
      "type": "function"
    },
    {
      "inputs": [
        {
          "internalType": "address",
          "name": "daiAddress",
          "type": "address"
        },
        {
          "internalType": "address",
          "name": "compoundDai",
          "type": "address"
        },
        {
          "internalType": "address",
          "name": "classroomFactoryAddress",
          "type": "address"
        },
        {
          "internalType": "address",
          "name": "studentFactoryAddress",
          "type": "address"
        },
        {
          "internalType": "address",
          "name": "studentApplicationFactoryAddress",
          "type": "address"
        },
        {
          "internalType": "address",
          "name": "ensContractAddress",
          "type": "address"
        },
        {
          "internalType": "address",
          "name": "ensTestRegistrarAddress",
          "type": "address"
        },
        {
          "internalType": "address",
          "name": "ensPublicResolverAddress",
          "type": "address"
        },
        {
          "internalType": "address",
          "name": "ensReverseRegistrarAddress",
          "type": "address"
        }
      ],
      "name": "updateAddresses",
      "outputs": [],
      "stateMutability": "nonpayable",
      "type": "function"
    },
    {
      "inputs": [
        {
          "internalType": "address",
          "name": "addr",
          "type": "address"
        }
      ],
      "name": "attachFund",
      "outputs": [],
      "stateMutability": "nonpayable",
      "type": "function"
    },
    {
      "inputs": [
        {
          "internalType": "bytes32",
          "name": "val",
          "type": "bytes32"
        }
      ],
      "name": "changeName",
      "outputs": [],
      "stateMutability": "nonpayable",
      "type": "function"
    },
    {
      "inputs": [
        {
          "internalType": "uint24",
          "name": "val",
          "type": "uint24"
        }
      ],
      "name": "changeCut",
      "outputs": [],
      "stateMutability": "nonpayable",
      "type": "function"
    },
    {
      "inputs": [
        {
          "internalType": "uint256",
          "name": "val",
          "type": "uint256"
        }
      ],
      "name": "changeStudentGSNDeposit",
      "outputs": [],
      "stateMutability": "nonpayable",
      "type": "function"
    },
    {
      "inputs": [
        {
          "internalType": "bytes32",
          "name": "label",
          "type": "bytes32"
        },
        {
          "internalType": "address",
          "name": "_owner",
          "type": "address"
        }
      ],
      "name": "registerInRegistrar",
      "outputs": [],
      "stateMutability": "nonpayable",
      "type": "function"
    },
    {
      "inputs": [
        {
          "internalType": "string",
          "name": "_name",
          "type": "string"
        }
      ],
      "name": "registerInReverseRegistrar",
      "outputs": [],
      "stateMutability": "nonpayable",
      "type": "function"
    },
    {
      "inputs": [
        {
          "internalType": "bytes32",
          "name": "node",
          "type": "bytes32"
        },
        {
          "internalType": "address",
          "name": "resolver",
          "type": "address"
        }
      ],
      "name": "setResolver",
      "outputs": [],
      "stateMutability": "nonpayable",
      "type": "function"
    },
    {
      "inputs": [
        {
          "internalType": "bytes32",
          "name": "node",
          "type": "bytes32"
        },
        {
          "internalType": "address",
          "name": "val",
          "type": "address"
        }
      ],
      "name": "setAddressInResolver",
      "outputs": [],
      "stateMutability": "nonpayable",
      "type": "function"
    },
    {
      "inputs": [
        {
          "internalType": "bytes32",
          "name": "node",
          "type": "bytes32"
        },
        {
          "internalType": "address",
          "name": "val",
          "type": "address"
        },
        {
          "internalType": "address",
          "name": "resolver",
          "type": "address"
        }
      ],
      "name": "setAddressInResolver",
      "outputs": [],
      "stateMutability": "nonpayable",
      "type": "function"
    },
    {
      "inputs": [
        {
          "internalType": "bytes32",
          "name": "node",
          "type": "bytes32"
        },
        {
          "internalType": "string",
          "name": "key",
          "type": "string"
        },
        {
          "internalType": "string",
          "name": "val",
          "type": "string"
        },
        {
          "internalType": "address",
          "name": "resolver",
          "type": "address"
        }
      ],
      "name": "setTextInResolver",
      "outputs": [],
      "stateMutability": "nonpayable",
      "type": "function"
    },
    {
      "inputs": [
        {
          "internalType": "bytes32",
          "name": "node",
          "type": "bytes32"
        },
        {
          "internalType": "string",
          "name": "key",
          "type": "string"
        },
        {
          "internalType": "string",
          "name": "val",
          "type": "string"
        }
      ],
      "name": "setTextInResolver",
      "outputs": [],
      "stateMutability": "nonpayable",
      "type": "function"
    },
    {
      "inputs": [
        {
          "internalType": "bytes32",
          "name": "node",
          "type": "bytes32"
        },
        {
          "internalType": "bytes32",
          "name": "label",
          "type": "bytes32"
        },
        {
          "internalType": "address",
          "name": "owner",
          "type": "address"
        },
        {
          "internalType": "address",
          "name": "resolver",
          "type": "address"
        },
        {
          "internalType": "uint64",
          "name": "ttl",
          "type": "uint64"
        }
      ],
      "name": "setSubnodeRecord",
      "outputs": [],
      "stateMutability": "nonpayable",
      "type": "function"
    },
    {
      "inputs": [
        {
          "internalType": "bytes32",
          "name": "node",
          "type": "bytes32"
        },
        {
          "internalType": "bytes32",
          "name": "label",
          "type": "bytes32"
        },
        {
          "internalType": "address",
          "name": "owner",
          "type": "address"
        },
        {
          "internalType": "address",
          "name": "resolver",
          "type": "address"
        },
        {
          "internalType": "uint64",
          "name": "ttl",
          "type": "uint64"
        },
        {
          "internalType": "address",
          "name": "classroom",
          "type": "address"
        }
      ],
      "name": "claimSubnodeClassroom",
      "outputs": [],
      "stateMutability": "nonpayable",
      "type": "function"
    },
    {
      "inputs": [
        {
          "internalType": "bytes32",
          "name": "node",
          "type": "bytes32"
        },
        {
          "internalType": "bytes32",
          "name": "label",
          "type": "bytes32"
        },
        {
          "internalType": "address",
          "name": "owner",
          "type": "address"
        },
        {
          "internalType": "address",
          "name": "resolver",
          "type": "address"
        },
        {
          "internalType": "uint64",
          "name": "ttl",
          "type": "uint64"
        },
        {
          "internalType": "address",
          "name": "student",
          "type": "address"
        }
      ],
      "name": "claimSubnodeStudent",
      "outputs": [],
      "stateMutability": "nonpayable",
      "type": "function"
    },
    {
      "inputs": [],
      "name": "availableFundsForInvestment",
      "outputs": [
        {
          "internalType": "uint256",
          "name": "",
          "type": "uint256"
        }
      ],
      "stateMutability": "view",
      "type": "function"
    },
    {
      "inputs": [],
      "name": "availableFunds",
      "outputs": [
        {
          "internalType": "uint256",
          "name": "",
          "type": "uint256"
        }
      ],
      "stateMutability": "view",
      "type": "function"
    },
    {
      "inputs": [
        {
          "internalType": "address",
          "name": "classroom",
          "type": "address"
        }
      ],
      "name": "isValidClassroom",
      "outputs": [
        {
          "internalType": "bool",
          "name": "",
          "type": "bool"
        }
      ],
      "stateMutability": "view",
      "type": "function"
    },
    {
      "inputs": [
        {
          "internalType": "address",
          "name": "student",
          "type": "address"
        }
      ],
      "name": "studentIsRegistered",
      "outputs": [
        {
          "internalType": "bool",
          "name": "",
          "type": "bool"
        }
      ],
      "stateMutability": "view",
      "type": "function"
    },
    {
      "inputs": [],
      "name": "myStudentAddress",
      "outputs": [
        {
          "internalType": "address",
          "name": "",
          "type": "address"
        }
      ],
      "stateMutability": "view",
      "type": "function"
    },
    {
      "inputs": [],
      "name": "viewMyApplications",
      "outputs": [
        {
          "internalType": "address[]",
          "name": "",
          "type": "address[]"
        }
      ],
      "stateMutability": "view",
      "type": "function"
    },
    {
      "inputs": [
        {
          "internalType": "address",
          "name": "student",
          "type": "address"
        }
      ],
      "name": "viewMyStudentApplications",
      "outputs": [
        {
          "internalType": "address[]",
          "name": "",
          "type": "address[]"
        }
      ],
      "stateMutability": "view",
      "type": "function"
    },
    {
      "inputs": [
        {
          "internalType": "address",
          "name": "addr",
          "type": "address"
        }
      ],
      "name": "viewStudentApplications",
      "outputs": [
        {
          "internalType": "address[]",
          "name": "",
          "type": "address[]"
        }
      ],
      "stateMutability": "view",
      "type": "function"
    },
    {
      "inputs": [
        {
          "internalType": "bytes32",
          "name": "sName",
          "type": "bytes32"
        }
      ],
      "name": "studentSelfRegister",
      "outputs": [],
      "stateMutability": "nonpayable",
      "type": "function"
    },
    {
      "inputs": [
        {
          "internalType": "address",
          "name": "owner",
          "type": "address"
        },
        {
          "internalType": "bytes32",
          "name": "cName",
          "type": "bytes32"
        },
        {
          "internalType": "uint24",
          "name": "cCut",
          "type": "uint24"
        },
        {
          "internalType": "uint24",
          "name": "cPCut",
          "type": "uint24"
        },
        {
          "internalType": "int32",
          "name": "minScore",
          "type": "int32"
        },
        {
          "internalType": "uint256",
          "name": "entryPrice",
          "type": "uint256"
        },
        {
          "internalType": "uint256",
          "name": "duration",
          "type": "uint256"
        },
        {
          "internalType": "address",
          "name": "challengeAddress",
          "type": "address"
        }
      ],
      "name": "newClassRoom",
      "outputs": [
        {
          "internalType": "address",
          "name": "",
          "type": "address"
        }
      ],
      "stateMutability": "nonpayable",
      "type": "function"
    },
    {
      "inputs": [
        {
          "internalType": "address",
          "name": "applicationAddr",
          "type": "address"
        },
        {
          "internalType": "bytes32",
          "name": "cName",
          "type": "bytes32"
        },
        {
          "internalType": "uint24",
          "name": "cCut",
          "type": "uint24"
        },
        {
          "internalType": "uint24",
          "name": "cPCut",
          "type": "uint24"
        },
        {
          "internalType": "int32",
          "name": "minScore",
          "type": "int32"
        },
        {
          "internalType": "uint256",
          "name": "entryPrice",
          "type": "uint256"
        },
        {
          "internalType": "uint256",
          "name": "duration",
          "type": "uint256"
        },
        {
          "internalType": "address",
          "name": "challenge",
          "type": "address"
        }
      ],
      "name": "studentRequestClassroom",
      "outputs": [
        {
          "internalType": "address",
          "name": "",
          "type": "address"
        }
      ],
      "stateMutability": "nonpayable",
      "type": "function"
    },
    {
      "inputs": [
        {
          "internalType": "address",
          "name": "student",
          "type": "address"
        },
        {
          "internalType": "address",
          "name": "application",
          "type": "address"
        }
      ],
      "name": "registerStudentApplication",
      "outputs": [],
      "stateMutability": "nonpayable",
      "type": "function"
    },
    {
      "inputs": [
        {
          "internalType": "address",
          "name": "student",
          "type": "address"
        },
        {
          "internalType": "int32",
          "name": "val",
          "type": "int32"
        }
      ],
      "name": "addStudentScore",
      "outputs": [],
      "stateMutability": "nonpayable",
      "type": "function"
    },
    {
      "inputs": [
        {
          "internalType": "address",
          "name": "student",
          "type": "address"
        },
        {
          "internalType": "int32",
          "name": "val",
          "type": "int32"
        }
      ],
      "name": "subStudentScore",
      "outputs": [],
      "stateMutability": "nonpayable",
      "type": "function"
    },
    {
      "inputs": [
        {
          "internalType": "uint256",
          "name": "val",
          "type": "uint256"
        }
      ],
      "name": "applyFunds",
      "outputs": [],
      "stateMutability": "nonpayable",
      "type": "function"
    },
    {
      "inputs": [],
      "name": "appliedFunds",
      "outputs": [
        {
          "internalType": "uint256",
          "name": "",
          "type": "uint256"
        }
      ],
      "stateMutability": "view",
      "type": "function"
    },
    {
      "inputs": [
        {
          "internalType": "uint256",
          "name": "val",
          "type": "uint256"
        }
      ],
      "name": "recoverFunds",
      "outputs": [],
      "stateMutability": "nonpayable",
      "type": "function"
    },
    {
      "inputs": [
        {
          "internalType": "uint256",
          "name": "val",
          "type": "uint256"
        }
      ],
      "name": "applyFundsETH",
      "outputs": [],
      "stateMutability": "nonpayable",
      "type": "function"
    },
    {
      "inputs": [],
      "name": "appliedFundsETH",
      "outputs": [
        {
          "internalType": "uint256",
          "name": "",
          "type": "uint256"
        }
      ],
      "stateMutability": "view",
      "type": "function"
    },
    {
      "inputs": [
        {
          "internalType": "uint256",
          "name": "val",
          "type": "uint256"
        }
      ],
      "name": "recoverFundsETH",
      "outputs": [],
      "stateMutability": "nonpayable",
      "type": "function"
    },
    {
      "inputs": [
        {
          "internalType": "bytes32",
          "name": "role",
          "type": "bytes32"
        },
        {
          "internalType": "address",
          "name": "account",
          "type": "address"
        }
      ],
      "name": "grantRoleFund",
      "outputs": [],
      "stateMutability": "nonpayable",
      "type": "function"
    },
    {
      "inputs": [
        {
          "internalType": "bytes32",
          "name": "role",
          "type": "bytes32"
        },
        {
          "internalType": "address",
          "name": "account",
          "type": "address"
        }
      ],
      "name": "revokeRoleFund",
      "outputs": [],
      "stateMutability": "nonpayable",
      "type": "function"
    },
    {
      "inputs": [
        {
          "internalType": "uint256",
          "name": "val",
          "type": "uint256"
        }
      ],
      "name": "increaseOperationalBudget",
      "outputs": [],
      "stateMutability": "nonpayable",
      "type": "function"
    },
    {
      "inputs": [
        {
          "internalType": "uint256",
          "name": "val",
          "type": "uint256"
        }
      ],
      "name": "decreaseOperationalBudget",
      "outputs": [],
      "stateMutability": "nonpayable",
      "type": "function"
    },
    {
      "inputs": [
        {
          "internalType": "address",
          "name": "to",
          "type": "address"
        },
        {
          "internalType": "uint256",
          "name": "val",
          "type": "uint256"
        }
      ],
      "name": "spendBudget",
      "outputs": [],
      "stateMutability": "nonpayable",
      "type": "function"
    },
    {
      "inputs": [
        {
          "internalType": "address",
          "name": "studentApplication",
          "type": "address"
        },
        {
          "internalType": "uint256",
          "name": "price",
          "type": "uint256"
        }
      ],
      "name": "giveGrant",
      "outputs": [],
      "stateMutability": "nonpayable",
      "type": "function"
    },
    {
      "inputs": [
        {
          "internalType": "uint256",
          "name": "val",
          "type": "uint256"
        }
      ],
      "name": "reinvestReturns",
      "outputs": [],
      "stateMutability": "nonpayable",
      "type": "function"
    },
    {
      "inputs": [
        {
          "internalType": "address",
          "name": "grantsManager",
          "type": "address"
        }
      ],
      "name": "viewAllStudentsFromGrantManager",
      "outputs": [
        {
          "internalType": "address[]",
          "name": "",
          "type": "address[]"
        }
      ],
      "stateMutability": "nonpayable",
      "type": "function"
    },
    {
      "inputs": [
        {
          "internalType": "address",
          "name": "student",
          "type": "address"
        },
        {
          "internalType": "address",
          "name": "grantsManager",
          "type": "address"
        }
      ],
      "name": "viewAllStudentGrantsFromGrantManager",
      "outputs": [
        {
          "internalType": "uint256[]",
          "name": "",
          "type": "uint256[]"
        }
      ],
      "stateMutability": "nonpayable",
      "type": "function"
    },
    {
      "inputs": [
        {
          "internalType": "uint256",
          "name": "donation",
          "type": "uint256"
        }
      ],
      "name": "donateDAI",
      "outputs": [],
      "stateMutability": "nonpayable",
      "type": "function"
    },
    {
      "inputs": [
        {
          "internalType": "uint256",
          "name": "revenue",
          "type": "uint256"
        }
      ],
      "name": "accountRevenue",
      "outputs": [],
      "stateMutability": "nonpayable",
      "type": "function"
    }
  ],
  "bytecode": "0x60806040523480156200001157600080fd5b5060405162005037380380620050378339810160408190526200003491620003af565b6000620000496001600160e01b03620001b616565b600080546001600160a01b0319166001600160a01b0383169081178255604051929350917f8be0079c531659141344cd1fd0a4f28419497f9722a3daafe3b4186f6b6457e0908290a35060028b90556003805462ffffff191662ffffff8c1617905566038d7ea4c68000600455620000d56000620000c6620001b6565b6001600160e01b03620001ba16565b62000112604051620000e79062000499565b604051908190039020620001036001600160e01b03620001b616565b6001600160e01b03620001d316565b600f80546001600160a01b03199081166001600160a01b039b8c1617909155601080548216998b1699909917909855601180548916978a1697909717909655601280548816958916959095179094556013805487169388169390931790925560148054861691871691909117905560158054851691861691909117905560168054841691851691909117905560178054909216921691909117905550620005119050565b3390565b620001cf82826001600160e01b036200023416565b5050565b6000828152600160205260409020600201546200020c90620001fd6001600160e01b03620001b616565b6001600160e01b03620002b816565b620001ba5760405162461bcd60e51b81526004016200022b90620004c2565b60405180910390fd5b60008281526001602090815260409091206200025b91839062002c5a620002e7821b17901c565b15620001cf57620002746001600160e01b03620001b616565b6001600160a01b0316816001600160a01b0316837f2f8788117e7eff1d82e926ec794901d17c78024a50270940304540a733656f0d60405160405180910390a45050565b60008281526001602090815260408220620002de91849062002c6f62000307821b17901c565b90505b92915050565b6000620002de836001600160a01b0384166001600160e01b036200032716565b6000620002de836001600160a01b0384166001600160e01b036200037f16565b60006200033e83836001600160e01b036200037f16565b6200037657508154600181810184556000848152602080822090930184905584548482528286019093526040902091909155620002e1565b506000620002e1565b60009081526001919091016020526040902054151590565b80516001600160a01b0381168114620002e157600080fd5b60008060008060008060008060008060006101608c8e031215620003d1578687fd5b8b519a5060208c015162ffffff81168114620003eb578788fd5b9950620003fc8d60408e0162000397565b98506200040d8d60608e0162000397565b97506200041e8d60808e0162000397565b96506200042f8d60a08e0162000397565b9550620004408d60c08e0162000397565b9450620004518d60e08e0162000397565b9350620004638d6101008e0162000397565b9250620004758d6101208e0162000397565b9150620004878d6101408e0162000397565b90509295989b509295989b9093969950565b7f434c4153534c4953545f41444d494e5f524f4c45000000000000000000000000815260140190565b6020808252602f908201527f416363657373436f6e74726f6c3a2073656e646572206d75737420626520616e60408201526e0818591b5a5b881d1bc819dc985b9d608a1b606082015260800190565b614b1680620005216000396000f3fe6080604052600436106104985760003560e01c80638b78c29011610260578063c204a0e011610144578063d4297781116100c1578063ea3c0fc411610085578063ea3c0fc414610d81578063ef5450ba14610d96578063f2fde38b14610db6578063f676f43d14610dd6578063fa8e506014610deb578063ff5d8f6314610e0b576104d8565b8063d429778114610cdf578063d547741f14610cff578063d7f164f714610d1f578063e6fd604c14610d3f578063e770d7d414610d61576104d8565b8063cb4e560111610108578063cb4e560114610c4a578063d19050ee14610c6a578063d24f8cdd14610c7f578063d260306714610c9f578063d3c5704e14610cbf576104d8565b8063c204a0e014610bb5578063c2b94cd814610bd5578063c4707a8314610bf5578063c844dbce14610c0a578063ca15c87314610c2a576104d8565b8063a026dcc2116101dd578063b4f5e6bf116101a1578063b4f5e6bf14610b16578063b7af0d2d14610b36578063baf41f7714610b56578063bcd1192214610b76578063be22f54614610b8b578063be61437914610ba0576104d8565b8063a026dcc214610a97578063a053286b14610aac578063a217fddf14610acc578063a544594e14610ae1578063aaaed76f14610b01576104d8565b80639a057285116102245780639a05728514610a0d5780639a15c01414610a2d5780639b0969ab14610a425780639e93d0e414610a625780639fb5c5ae14610a82576104d8565b80638b78c290146109835780638da5cb5b146109985780639010d07c146109ad5780639065946b146109cd57806391d14854146109ed576104d8565b80634884da051161038757806365a45503116103045780637fd5c108116102c85780637fd5c108146108d9578063820cd75c146108f957806385dade611461090e57806387bfe1881461092e578063898855ed1461094e5780638a9f5b7f1461096e576104d8565b806365a45503146108655780636881e763146108855780636beb0c031461089a5780636f6941b9146108af578063715018a6146108c4576104d8565b80635a7dd1501161034b5780635a7dd150146107e65780635ef2c7f014610806578063629bca67146108265780636408a3861461083b57806364d4773114610850576104d8565b80634884da051461074f5780634ab358c71461077c5780634c6794071461079c5780634ea962c1146107b157806351275dba146107d1576104d8565b8063248a9ca3116104155780633593aad6116103d95780633593aad6146106b857806336568abe146106d85780633f6568f0146106f8578063458955b81461071857806346fcff4c1461073a576104d8565b8063248a9ca31461062e5780632e1a7d4d1461064e5780632f2ff15d1461066e57806332636ac91461068e57806333c7bf1b146106a3576104d8565b8063183b26001161045c578063183b26001461058c5780631896f70a146105ac5780631d5b7bc3146105cc5780631ec1f9f3146105ec578063238aaf2f14610601576104d8565b806306fdde03146104dd5780630d039c031461050857806316ded1ce1461052a57806317b1a4cf1461055757806317ca41f61461056c576104d8565b366104d8577f60e4c1ac84c9e2c4c0aa82b86b3b1ddf0b1b73fbbeb74c8bc8f8f06041ccfdf633346040516104ce929190613f06565b60405180910390a1005b600080fd5b3480156104e957600080fd5b506104f2610e2b565b6040516104ff9190613fd3565b60405180910390f35b34801561051457600080fd5b50610528610523366004613b2f565b610e31565b005b34801561053657600080fd5b5061054a6105453660046137a0565b610e8c565b6040516104ff9190613fc8565b34801561056357600080fd5b506104f2610eb1565b34801561057857600080fd5b50610528610587366004613b53565b610eb7565b34801561059857600080fd5b506105286105a73660046137d8565b610f50565b3480156105b857600080fd5b506105286105c7366004613b2f565b610fc9565b3480156105d857600080fd5b506105286105e7366004613cc6565b611066565b3480156105f857600080fd5b506104f2611103565b34801561060d57600080fd5b5061062161061c3660046137d8565b611109565b6040516104ff9190613f90565b34801561063a57600080fd5b506104f2610649366004613aff565b6111bf565b34801561065a57600080fd5b50610528610669366004613aff565b6111d4565b34801561067a57600080fd5b50610528610689366004613b2f565b61121d565b34801561069a57600080fd5b506104f2611261565b3480156106af57600080fd5b506104f2611278565b3480156106c457600080fd5b506105286106d3366004613aff565b6112b5565b3480156106e457600080fd5b506105286106f3366004613b2f565b61133b565b34801561070457600080fd5b50610528610713366004613bef565b61137d565b34801561072457600080fd5b5061072d61146a565b6040516104ff9190613ef2565b34801561074657600080fd5b506104f2611479565b34801561075b57600080fd5b5061076f61076a3660046137a0565b611555565b6040516104ff9190613f43565b34801561078857600080fd5b50610528610797366004613aff565b6115f9565b3480156107a857600080fd5b506104f261166a565b3480156107bd57600080fd5b5061072d6107cc3660046138cb565b61171e565b3480156107dd57600080fd5b506104f2611768565b3480156107f257600080fd5b50610528610801366004613aff565b61176e565b34801561081257600080fd5b50610528610821366004613b94565b61177f565b34801561083257600080fd5b506104f2611825565b34801561084757600080fd5b5061076f611831565b34801561085c57600080fd5b506104f261183e565b34801561087157600080fd5b50610528610880366004613aff565b61184a565b34801561089157600080fd5b5061072d611902565b3480156108a657600080fd5b506104f2611911565b3480156108bb57600080fd5b5061072d611917565b3480156108d057600080fd5b50610528611926565b3480156108e557600080fd5b5061072d6108f43660046138cb565b6119a5565b34801561090557600080fd5b506104f2611b29565b34801561091a57600080fd5b5061054a6109293660046137a0565b611b35565b34801561093a57600080fd5b5061052861094936600461395b565b611b46565b34801561095a57600080fd5b50610528610969366004613aff565b611b9d565b34801561097a57600080fd5b506104f2611c12565b34801561098f57600080fd5b5061072d611c1e565b3480156109a457600080fd5b5061072d611c95565b3480156109b957600080fd5b5061072d6109c8366004613d42565b611ca4565b3480156109d957600080fd5b506105286109e8366004613c5d565b611cc2565b3480156109f957600080fd5b5061054a610a08366004613b2f565b611d17565b348015610a1957600080fd5b50610528610a28366004613810565b611d35565b348015610a3957600080fd5b5061072d611f67565b348015610a4e57600080fd5b50610528610a5d366004613aff565b611f76565b348015610a6e57600080fd5b50610528610a7d366004613aff565b611ff6565b348015610a8e57600080fd5b5061072d612051565b348015610aa357600080fd5b506104f2612060565b348015610ab857600080fd5b50610528610ac7366004613d63565b61210f565b348015610ad857600080fd5b506104f26121c6565b348015610aed57600080fd5b50610528610afc366004613aff565b6121cb565b348015610b0d57600080fd5b5061072d6121fb565b348015610b2257600080fd5b50610528610b31366004613bef565b61220a565b348015610b4257600080fd5b50610528610b51366004613b2f565b6122ea565b348015610b6257600080fd5b50610528610b71366004613b2f565b612344565b348015610b8257600080fd5b5061072d6123ab565b348015610b9757600080fd5b5061072d6123ba565b348015610bac57600080fd5b506104f26123c9565b348015610bc157600080fd5b50610528610bd0366004613aff565b6123d5565b348015610be157600080fd5b50610528610bf036600461398e565b61246c565b348015610c0157600080fd5b506104f26124f9565b348015610c1657600080fd5b50610528610c25366004613aff565b612505565b348015610c3657600080fd5b506104f2610c45366004613aff565b61256e565b348015610c5657600080fd5b50610528610c6536600461398e565b612585565b348015610c7657600080fd5b5061072d6126cc565b348015610c8b57600080fd5b506104f2610c9a3660046137a0565b6126db565b348015610cab57600080fd5b5061076f610cba3660046137a0565b6126ed565b348015610ccb57600080fd5b5061076f610cda3660046137a0565b61280b565b348015610ceb57600080fd5b50610528610cfa3660046137a0565b61285a565b348015610d0b57600080fd5b50610528610d1a366004613b2f565b612952565b348015610d2b57600080fd5b50610528610d3a366004613b2f565b61298c565b348015610d4b57600080fd5b50610d546129e6565b6040516104ff9190614a26565b348015610d6d57600080fd5b50610528610d7c366004613d9d565b6129f1565b348015610d8d57600080fd5b5061072d612a6f565b348015610da257600080fd5b50610528610db1366004613aff565b612a7e565b348015610dc257600080fd5b50610528610dd13660046137a0565b612ab8565b348015610de257600080fd5b506104f2612b6e565b348015610df757600080fd5b50610528610e06366004613aff565b612b74565b348015610e1757600080fd5b50610528610e2636600461395b565b612c03565b60025481565b610e39612c84565b6000546001600160a01b03908116911614610e6f5760405162461bcd60e51b8152600401610e6690614629565b60405180910390fd5b601654610e8890839083906001600160a01b0316610eb7565b5050565b6000610eab604051610e9d90613e08565b604051809103902083611d17565b92915050565b600d5481565b610ebf612c84565b6000546001600160a01b03908116911614610eec5760405162461bcd60e51b8152600401610e6690614629565b60405162d5fa2b60e81b81526001600160a01b0382169063d5fa2b0090610f199086908690600401613fdc565b600060405180830381600087803b158015610f3357600080fd5b505af1158015610f47573d6000803e3d6000fd5b50505050505050565b610f6f604051610f5f90613e29565b6040518091039020610a08612c84565b610f8b5760405162461bcd60e51b8152600401610e669061450a565b6001600160a01b0391821660009081526006602090815260408220805460018101825590835291200180546001600160a01b03191691909216179055565b610fd1612c84565b6000546001600160a01b03908116911614610ffe5760405162461bcd60e51b8152600401610e6690614629565b601454604051630c4b7b8560e11b81526001600160a01b0390911690631896f70a906110309085908590600401613fdc565b600060405180830381600087803b15801561104a57600080fd5b505af115801561105e573d6000803e3d6000fd5b505050505050565b61106e612c84565b6000546001600160a01b0390811691161461109b5760405162461bcd60e51b8152600401610e6690614629565b60405163043c4ea360e21b81526001600160a01b038216906310f13a8c906110cb90879087908790600401614028565b600060405180830381600087803b1580156110e557600080fd5b505af11580156110f9573d6000803e3d6000fd5b5050505050505050565b600c5481565b606061111a604051610f5f90613ece565b6111365760405162461bcd60e51b8152600401610e6690614766565b60405163730687a560e11b81526001600160a01b0383169063e60d0f4a90611162908690600401613ef2565b600060405180830381600087803b15801561117c57600080fd5b505af1158015611190573d6000803e3d6000fd5b505050506040513d6000823e601f3d908101601f191682016040526111b89190810190613a59565b9392505050565b60009081526001602052604090206002015490565b6111dc612c84565b6000546001600160a01b039081169116146112095760405162461bcd60e51b8152600401610e6690614629565b61121a611214612c84565b82612c88565b50565b60008281526001602052604090206002015461123b90610a08612c84565b6112575760405162461bcd60e51b8152600401610e6690614162565b610e888282612d15565b60405161126d90613e08565b604051809103902081565b600e546000906001600160a01b03166112a35760405162461bcd60e51b8152600401610e66906141fa565b50600e546001600160a01b0316315b90565b6112bd612c84565b6000546001600160a01b039081169116146112ea5760405162461bcd60e51b8152600401610e6690614629565b80600c54101561130c5760405162461bcd60e51b8152600401610e66906142f7565b600d5461131f908263ffffffff612d8416565b600d55600c54611335908263ffffffff612da916565b600c5550565b611343612c84565b6001600160a01b0316816001600160a01b0316146113735760405162461bcd60e51b8152600401610e66906149d7565b610e888282612deb565b611385612c84565b6001600160a01b0316846001600160a01b0316146113b55760405162461bcd60e51b8152600401610e669061471f565b6113bd612c84565b6001600160a01b0316816001600160a01b0316638b45fb676040518163ffffffff1660e01b815260040160206040518083038186803b1580156113ff57600080fd5b505afa158015611413573d6000803e3d6000fd5b505050506040513d601f19601f8201168201806040525081019061143791906137bc565b6001600160a01b03161461145d5760405162461bcd60e51b8152600401610e66906147ac565b61105e868686868661177f565b6016546001600160a01b031681565b600f546040516370a0823160e01b815260009182916001600160a01b03909116906370a08231906114ae903090600401613ef2565b60206040518083038186803b1580156114c657600080fd5b505afa1580156114da573d6000803e3d6000fd5b505050506040513d601f19601f820116820180604052508101906114fe9190613b17565b9050611517600d54600c54612d8490919063ffffffff16565b8110156115285760009150506112b2565b61154f600d54611543600c5484612da990919063ffffffff16565b9063ffffffff612da916565b91505090565b6060611566604051610f5f90613ece565b6115825760405162461bcd60e51b8152600401610e6690614766565b816001600160a01b03166369e7af436040518163ffffffff1660e01b8152600401600060405180830381600087803b1580156115bd57600080fd5b505af11580156115d1573d6000803e3d6000fd5b505050506040513d6000823e601f3d908101601f19168201604052610eab91908101906139b9565b611608604051610f5f90613e6d565b6116245760405162461bcd60e51b8152600401610e6690614277565b600e546001600160a01b031661164c5760405162461bcd60e51b8152600401610e66906141fa565b600f54600e5461121a916001600160a01b0390811691163084612e5a565b600e546000906001600160a01b03166116955760405162461bcd60e51b8152600401610e66906141fa565b600f54600e546040516370a0823160e01b81526001600160a01b03928316926370a08231926116c992911690600401613ef2565b60206040518083038186803b1580156116e157600080fd5b505afa1580156116f5573d6000803e3d6000fd5b505050506040513d601f19601f820116820180604052508101906117199190613b17565b905090565b600061172f604051610f5f90613e4d565b61174b5760405162461bcd60e51b8152600401610e6690614444565b61175b8989898989898989612f43565b9998505050505050505050565b600b5481565b610e888161177a612c84565b61313f565b611787612c84565b6000546001600160a01b039081169116146117b45760405162461bcd60e51b8152600401610e6690614629565b6014546040516305ef2c7f60e41b81526001600160a01b0390911690635ef2c7f0906117ec9088908890889088908890600401613ff3565b600060405180830381600087803b15801561180657600080fd5b505af115801561181a573d6000803e3d6000fd5b505050505050505050565b60405161126d90613e8b565b6060611719610cda612c84565b60405161126d90613eaf565b611859604051610f5f90613e6d565b6118755760405162461bcd60e51b8152600401610e6690614277565b600e546001600160a01b031661189d5760405162461bcd60e51b8152600401610e66906141fa565b600e54604051632e1a7d4d60e01b81526001600160a01b0390911690632e1a7d4d906118cd908490600401613fd3565b600060405180830381600087803b1580156118e757600080fd5b505af11580156118fb573d6000803e3d6000fd5b5050505050565b6014546001600160a01b031681565b600a5481565b6010546001600160a01b031681565b61192e612c84565b6000546001600160a01b0390811691161461195b5760405162461bcd60e51b8152600401610e6690614629565b600080546040516001600160a01b03909116907f8be0079c531659141344cd1fd0a4f28419497f9722a3daafe3b4186f6b6457e0908390a3600080546001600160a01b0319169055565b60006119b6604051610f5f90613e08565b6119d25760405162461bcd60e51b8152600401610e6690614486565b6119e36119dd612c84565b8a6132d3565b6119ff5760405162461bcd60e51b8152600401610e66906143ef565b6000899050806001600160a01b0316636587b61e6040518163ffffffff1660e01b815260040160206040518083038186803b158015611a3d57600080fd5b505afa158015611a51573d6000803e3d6000fd5b505050506040513d601f19601f82011682018060405250810190611a759190613b17565b600314611a945760405162461bcd60e51b8152600401610e6690614840565b611b1b611a9f612c84565b6001600160a01b0316637a6c8b536040518163ffffffff1660e01b815260040160206040518083038186803b158015611ad757600080fd5b505afa158015611aeb573d6000803e3d6000fd5b505050506040513d601f19601f82011682018060405250810190611b0f91906137bc565b8a8a8a8a8a8a8a612f43565b9a9950505050505050505050565b60405161126d90613e4d565b6000610eab604051610e9d90613e29565b611b55604051610f5f90613e29565b611b715760405162461bcd60e51b8152600401610e669061450a565b60405163aa4f38c760e01b81526001600160a01b0383169063aa4f38c7906110309084906004016140c8565b611ba5612c84565b6000546001600160a01b03908116911614611bd25760405162461bcd60e51b8152600401610e6690614629565b60028190556040517f9f8929be552430dd6434c446d106c34954b2040ca8c4dbf42a39323dd6cda3ca90611c07908390613fd3565b60405180910390a150565b60405161126d90613e29565b600080600781611c2c612c84565b6001600160a01b039081168252602082019290925260400160002054161415611c675760405162461bcd60e51b8152600401610e66906142b7565b60076000611c73612c84565b6001600160a01b03908116825260208201929092526040016000205416905090565b6000546001600160a01b031690565b60008281526001602052604081206111b8908363ffffffff61335716565b611cca612c84565b6000546001600160a01b03908116911614611cf75760405162461bcd60e51b8152600401610e6690614629565b601654611d12908490849084906001600160a01b0316611066565b505050565b60008281526001602052604081206111b8908363ffffffff612c6f16565b611d3d612c84565b6000546001600160a01b03908116911614611d6a5760405162461bcd60e51b8152600401610e6690614629565b6001600160a01b03891615611d7f5788611d8c565b600f546001600160a01b03165b600f80546001600160a01b0319166001600160a01b03928316179055881615611db55787611dc2565b6010546001600160a01b03165b601080546001600160a01b0319166001600160a01b03928316179055871615611deb5786611df8565b6011546001600160a01b03165b601180546001600160a01b0319166001600160a01b03928316179055861615611e215785611e2e565b6012546001600160a01b03165b601280546001600160a01b0319166001600160a01b03928316179055851615611e575784611e64565b6013546001600160a01b03165b601380546001600160a01b0319166001600160a01b03928316179055841615611e8d5783611e9a565b6014546001600160a01b03165b601480546001600160a01b0319166001600160a01b03928316179055831615611ec35782611ed0565b6015546001600160a01b03165b601580546001600160a01b0319166001600160a01b03928316179055821615611ef95781611f06565b6016546001600160a01b03165b601680546001600160a01b0319166001600160a01b03928316179055811615611f2f5780611f3c565b6017546001600160a01b03165b601780546001600160a01b0319166001600160a01b0392909216919091179055505050505050505050565b6011546001600160a01b031681565b611f7e612c84565b6000546001600160a01b03908116911614611fab5760405162461bcd60e51b8152600401610e6690614629565b80600d541015611fcd5760405162461bcd60e51b8152600401610e66906141b1565b600d54611fe0908263ffffffff612da916565b600d55600c54611335908263ffffffff612d8416565b612005604051610f5f90613e6d565b6120215760405162461bcd60e51b8152600401610e6690614277565b8061202a611479565b10156120485760405162461bcd60e51b8152600401610e6690614372565b61121a81613363565b6015546001600160a01b031681565b600f546040516370a0823160e01b815260009182916001600160a01b03909116906370a0823190612095903090600401613ef2565b60206040518083038186803b1580156120ad57600080fd5b505afa1580156120c1573d6000803e3d6000fd5b505050506040513d601f19601f820116820180604052508101906120e59190613b17565b9050600d548110156120fb5760009150506112b2565b600d5461154f90829063ffffffff612da916565b612117612c84565b6000546001600160a01b039081169116146121445760405162461bcd60e51b8152600401610e6690614629565b60175460405163c47f002760e01b81526001600160a01b039091169063c47f0027906121749084906004016140d6565b602060405180830381600087803b15801561218e57600080fd5b505af11580156121a2573d6000803e3d6000fd5b505050506040513d601f19601f82011682018060405250810190610e889190613b17565b600081565b600f546121ea906001600160a01b03166121e3612c84565b3084612e5a565b61121a6121f5612c84565b826133b8565b6013546001600160a01b031681565b612212612c84565b6001600160a01b0316846001600160a01b0316146122425760405162461bcd60e51b8152600401610e669061471f565b61224a612c84565b6001600160a01b0316816001600160a01b0316637a6c8b536040518163ffffffff1660e01b815260040160206040518083038186803b15801561228c57600080fd5b505afa1580156122a0573d6000803e3d6000fd5b505050506040513d601f19601f820116820180604052508101906122c491906137bc565b6001600160a01b03161461145d5760405162461bcd60e51b8152600401610e6690614889565b600e546001600160a01b03166123125760405162461bcd60e51b8152600401610e66906141fa565b600e5460405163b7af0d2d60e01b81526001600160a01b039091169063b7af0d2d906110309085908590600401613fdc565b61234c612c84565b6000546001600160a01b039081169116146123795760405162461bcd60e51b8152600401610e6690614629565b60155460405163d22057a960e01b81526001600160a01b039091169063d22057a9906110309085908590600401613fdc565b6012546001600160a01b031681565b600f546001600160a01b031681565b60405161126d90613ece565b6123e4604051610f5f90613e6d565b6124005760405162461bcd60e51b8152600401610e6690614277565b80612409612060565b10156124275760405162461bcd60e51b8152600401610e66906145e3565b600e546001600160a01b031661244f5760405162461bcd60e51b8152600401610e66906141fa565b600f54600e5461121a916001600160a01b0390811691168361346a565b61247b604051610f5f90613eaf565b6124975760405162461bcd60e51b8152600401610e66906146de565b806124a0611479565b10156124be5760405162461bcd60e51b8152600401610e6690614372565b816001600160a01b0316632d24947b6040518163ffffffff1660e01b8152600401600060405180830381600087803b15801561104a57600080fd5b60405161126d90613e6d565b612514604051610f5f90613e6d565b6125305760405162461bcd60e51b8152600401610e6690614277565b600e546001600160a01b03166125585760405162461bcd60e51b8152600401610e66906141fa565b600e5461121a906001600160a01b031682612c88565b6000818152600160205260408120610eab90613551565b612594604051610f5f90613e6d565b6125b05760405162461bcd60e51b8152600401610e6690614277565b6125bf604051610e9d90613e8b565b6125db5760405162461bcd60e51b8152600401610e66906148e1565b80600d5410156125fd5760405162461bcd60e51b8152600401610e6690614695565b600f546040516370a0823160e01b815282916001600160a01b0316906370a082319061262d903090600401613ef2565b60206040518083038186803b15801561264557600080fd5b505afa158015612659573d6000803e3d6000fd5b505050506040513d601f19601f8201168201806040525081019061267d9190613b17565b101561269b5760405162461bcd60e51b8152600401610e669061465e565b600f546126b2906001600160a01b0316838361346a565b600d546126c5908263ffffffff612da916565b600d555050565b6017546001600160a01b031681565b60086020526000908152604090205481565b60606126f7612c84565b6001600160a01b0316826001600160a01b0316637a6c8b536040518163ffffffff1660e01b815260040160206040518083038186803b15801561273957600080fd5b505afa15801561274d573d6000803e3d6000fd5b505050506040513d601f19601f8201168201806040525081019061277191906137bc565b6001600160a01b0316146127975760405162461bcd60e51b8152600401610e6690614550565b6001600160a01b038216600090815260066020908152604091829020805483518184028101840190945280845290918301828280156127ff57602002820191906000526020600020905b81546001600160a01b031681526001909101906020018083116127e1575b50505050509050919050565b6060612815612c84565b6001600160a01b0316826001600160a01b0316148061283e575061283e604051610f5f90613eaf565b6127975760405162461bcd60e51b8152600401610e66906144c9565b612862612c84565b6000546001600160a01b0390811691161461288f5760405162461bcd60e51b8152600401610e6690614629565b306001600160a01b0316816001600160a01b0316633e1e9ce76040518163ffffffff1660e01b815260040160206040518083038186803b1580156128d257600080fd5b505afa1580156128e6573d6000803e3d6000fd5b505050506040513d601f19601f8201168201806040525081019061290a91906137bc565b6001600160a01b0316146129305760405162461bcd60e51b8152600401610e669061493e565b600e80546001600160a01b0319166001600160a01b0392909216919091179055565b60008281526001602052604090206002015461297090610a08612c84565b6113735760405162461bcd60e51b8152600401610e6690614593565b600e546001600160a01b03166129b45760405162461bcd60e51b8152600401610e66906141fa565b600e5460405163d7f164f760e01b81526001600160a01b039091169063d7f164f7906110309085908590600401613fdc565b60035462ffffff1681565b6129f9612c84565b6000546001600160a01b03908116911614612a265760405162461bcd60e51b8152600401610e6690614629565b6003805462ffffff191662ffffff83811691909117918290556040517f1add5f7de244142e10bca375bb84823e3c24ddac2c2ec678f35c007d8f02084d92611c07921690614a26565b600e546001600160a01b031681565b612a86612c84565b6000546001600160a01b03908116911614612ab35760405162461bcd60e51b8152600401610e6690614629565b600455565b612ac0612c84565b6000546001600160a01b03908116911614612aed5760405162461bcd60e51b8152600401610e6690614629565b6001600160a01b038116612b135760405162461bcd60e51b8152600401610e6690614231565b600080546040516001600160a01b03808516939216917f8be0079c531659141344cd1fd0a4f28419497f9722a3daafe3b4186f6b6457e091a3600080546001600160a01b0319166001600160a01b0392909216919091179055565b60095481565b612b83604051610f5f90613e29565b612b9f5760405162461bcd60e51b8152600401610e669061450a565b600a54612bb2908263ffffffff612d8416565b600a55600c54612bc8908263ffffffff612d8416565b600c557f37823eae3803e6c1d99512d7c85c87edf37856ffce3f33a2b623ef3197fe6ffc612bf4612c84565b82604051611c07929190613f06565b612c12604051610f5f90613e29565b612c2e5760405162461bcd60e51b8152600401610e669061450a565b604051630686513560e41b81526001600160a01b038316906368651350906110309084906004016140c8565b60006111b8836001600160a01b03841661355c565b60006111b8836001600160a01b0384166135a6565b3390565b604080516000808252602082019092526001600160a01b038416908390604051612cb29190613dec565b60006040518083038185875af1925050503d8060008114612cef576040519150601f19603f3d011682016040523d82523d6000602084013e612cf4565b606091505b5050905080611d125760405162461bcd60e51b8152600401610e66906147fd565b6000828152600160205260409020612d33908263ffffffff612c5a16565b15610e8857612d40612c84565b6001600160a01b0316816001600160a01b0316837f2f8788117e7eff1d82e926ec794901d17c78024a50270940304540a733656f0d60405160405180910390a45050565b6000828201838110156111b85760405162461bcd60e51b8152600401610e66906143b8565b60006111b883836040518060400160405280601e81526020017f536166654d6174683a207375627472616374696f6e206f766572666c6f7700008152506135be565b6000828152600160205260409020612e09908263ffffffff6135ea16565b15610e8857612e16612c84565b6001600160a01b0316816001600160a01b0316837ff6391f5c32d9c69d2a47ea670b442974b53935d1edc7fd64eb21e047a839171b60405160405180910390a45050565b60006060856001600160a01b03166323b872dd868686604051602401612e8293929190613f1f565b6040516020818303038152906040529060e01b6020820180516001600160e01b038381831617835250505050604051612ebb9190613dec565b6000604051808303816000865af19150503d8060008114612ef8576040519150601f19603f3d011682016040523d82523d6000602084013e612efd565b606091505b5091509150818015612f27575080511580612f27575080806020019051810190612f279190613adf565b61105e5760405162461bcd60e51b8152600401610e6690614993565b600080601160009054906101000a90046001600160a01b03166001600160a01b031663f9a84f968a8a8a8a8a8a308b600f60009054906101000a90046001600160a01b0316601060009054906101000a90046001600160a01b0316601360009054906101000a90046001600160a01b03166040518c63ffffffff1660e01b8152600401612fda9b9a9998979695949392919061405d565b602060405180830381600087803b158015612ff457600080fd5b505af1158015613008573d6000803e3d6000fd5b505050506040513d601f19601f8201168201806040525081019061302c91906137bc565b6040516318b9533b60e01b81529091506001600160a01b038216906318b9533b9061305b908d90600401613ef2565b600060405180830381600087803b15801561307557600080fd5b505af1158015613089573d6000803e3d6000fd5b5050600580546001810182556000919091527f036b6384b5eca791c62761152d0c79bb0604c104a5fb6f4eb0703f3154bb3db00180546001600160a01b0319166001600160a01b038516179055505060405181906130f8906130ea90613e29565b604051809103902082611257565b7f0e2441b756c0237af490768eeb52214bde66464d79756f8ac3c03b10c9528b3c8a82604051613129929190613fdc565b60405180910390a19a9950505050505050505050565b6001600160a01b03818116600090815260076020526040812054909116156131795760405162461bcd60e51b8152600401610e669061432c565b601254604051638ebf1d2760e01b81526000916001600160a01b031690638ebf1d27906131ac9087903090600401613fdc565b602060405180830381600087803b1580156131c657600080fd5b505af11580156131da573d6000803e3d6000fd5b505050506040513d601f19601f820116820180604052508101906131fe91906137bc565b6001600160a01b038481166000908152600760205260409081902080546001600160a01b0319169284169283179055516303153d2960e31b8152919250906318a9e94890613250908690600401613ef2565b600060405180830381600087803b15801561326a57600080fd5b505af115801561327e573d6000803e3d6000fd5b505050506132916040516130ea90613e08565b7ff7525326b19723c396bf0879df18a2606e6a5273cade76ca5da5977655616389600254826040516132c4929190613fdc565b60405180910390a19392505050565b6000805b6001600160a01b03841660009081526006602052604090205481101561334d576001600160a01b0384811660009081526006602052604090208054918516918390811061332057fe5b6000918252602090912001546001600160a01b03161415613345576001915050610eab565b6001016132d7565b5060009392505050565b60006111b883836135ff565b600a54613376908263ffffffff612d8416565b600b55600c5461338c908263ffffffff612d8416565b600c557f13c785d9e4857cfe1f6f81ef8d5119717f6e1b7e2c090e57ab7386cd44f2d79f612bf4612c84565b6009546133cb908263ffffffff612d8416565b600955600c546133e1908263ffffffff612d8416565b600c556001600160a01b03821660009081526008602052604090205461340d908263ffffffff612d8416565b6001600160a01b0383166000908152600860205260409020557f615b82d09530cb171fb9954512b751ee6d5197d08431b056ca6e8c3d8aca681161344f612c84565b8260405161345e929190613f06565b60405180910390a15050565b60006060846001600160a01b031663a9059cbb8585604051602401613490929190613f06565b6040516020818303038152906040529060e01b6020820180516001600160e01b0383818316178352505050506040516134c99190613dec565b6000604051808303816000865af19150503d8060008114613506576040519150601f19603f3d011682016040523d82523d6000602084013e61350b565b606091505b50915091508180156135355750805115806135355750808060200190518101906135359190613adf565b6118fb5760405162461bcd60e51b8152600401610e669061412b565b6000610eab82613644565b600061356883836135a6565b61359e57508154600181810184556000848152602080822090930184905584548482528286019093526040902091909155610eab565b506000610eab565b60009081526001919091016020526040902054151590565b600081848411156135e25760405162461bcd60e51b8152600401610e6691906140d6565b505050900390565b60006111b8836001600160a01b038416613648565b815460009082106136225760405162461bcd60e51b8152600401610e66906140e9565b82600001828154811061363157fe5b9060005260206000200154905092915050565b5490565b60008181526001830160205260408120548015613704578354600019808301919081019060009087908390811061367b57fe5b906000526020600020015490508087600001848154811061369857fe5b6000918252602080832090910192909255828152600189810190925260409020908401905586548790806136c857fe5b60019003818190600052602060002001600090559055866001016000878152602001908152602001600020600090556001945050505050610eab565b6000915050610eab565b600082601f83011261371e578081fd5b81356001600160401b03811115613733578182fd5b613746601f8201601f1916602001614a36565b915080825283602082850101111561375d57600080fd5b8060208401602084013760009082016020015292915050565b803562ffffff81168114610eab57600080fd5b80356001600160401b0381168114610eab57600080fd5b6000602082840312156137b1578081fd5b81356111b881614aab565b6000602082840312156137cd578081fd5b81516111b881614aab565b600080604083850312156137ea578081fd5b82356137f581614aab565b9150602083013561380581614aab565b809150509250929050565b60008060008060008060008060006101208a8c03121561382e578485fd5b893561383981614aab565b985060208a013561384981614aab565b975060408a013561385981614aab565b965060608a013561386981614aab565b955060808a013561387981614aab565b945060a08a013561388981614aab565b935060c08a013561389981614aab565b925060e08a01356138a981614aab565b91506101008a01356138ba81614aab565b809150509295985092959850929598565b600080600080600080600080610100898b0312156138e7578384fd5b88356138f281614aab565b9750602089013596506139088a60408b01613776565b95506139178a60608b01613776565b945060808901358060030b811461392c578485fd5b935060a0890135925060c0890135915060e089013561394a81614aab565b809150509295985092959890939650565b6000806040838503121561396d578182fd5b823561397881614aab565b91506020830135600381900b8114613805578182fd5b600080604083850312156139a0578182fd5b82356139ab81614aab565b946020939093013593505050565b600060208083850312156139cb578182fd5b82516001600160401b038111156139e0578283fd5b80840185601f8201126139f1578384fd5b80519150613a06613a0183614a5c565b614a36565b8281528381019082850185850284018601891015613a22578687fd5b8693505b84841015613a4d578051613a3981614aab565b835260019390930192918501918501613a26565b50979650505050505050565b60006020808385031215613a6b578182fd5b82516001600160401b03811115613a80578283fd5b80840185601f820112613a91578384fd5b80519150613aa1613a0183614a5c565b8281528381019082850185850284018601891015613abd578687fd5b8693505b84841015613a4d578051835260019390930192918501918501613ac1565b600060208284031215613af0578081fd5b815180151581146111b8578182fd5b600060208284031215613b10578081fd5b5035919050565b600060208284031215613b28578081fd5b5051919050565b60008060408385031215613b41578182fd5b82359150602083013561380581614aab565b600080600060608486031215613b67578081fd5b833592506020840135613b7981614aab565b91506040840135613b8981614aab565b809150509250925092565b600080600080600060a08688031215613bab578283fd5b85359450602086013593506040860135613bc481614aab565b92506060860135613bd481614aab565b9150613be38760808801613789565b90509295509295909350565b60008060008060008060c08789031215613c07578384fd5b86359550602087013594506040870135613c2081614aab565b93506060870135613c3081614aab565b9250613c3f8860808901613789565b915060a0870135613c4f81614aab565b809150509295509295509295565b600080600060608486031215613c71578081fd5b8335925060208401356001600160401b0380821115613c8e578283fd5b613c9a8783880161370e565b93506040860135915080821115613caf578283fd5b50613cbc8682870161370e565b9150509250925092565b60008060008060808587031215613cdb578182fd5b8435935060208501356001600160401b0380821115613cf8578384fd5b613d048883890161370e565b94506040870135915080821115613d19578384fd5b50613d268782880161370e565b9250506060850135613d3781614aab565b939692955090935050565b60008060408385031215613d54578182fd5b50508035926020909101359150565b600060208284031215613d74578081fd5b81356001600160401b03811115613d89578182fd5b613d958482850161370e565b949350505050565b600060208284031215613dae578081fd5b813562ffffff811681146111b8578182fd5b60008151808452613dd8816020860160208601614a7b565b601f01601f19169290920160200192915050565b60008251613dfe818460208701614a7b565b9190910192915050565b7453545544454e545f4944454e544954595f524f4c4560581b815260150190565b77434c415353524f4f4d5f50524f464553534f525f524f4c4560401b815260180190565b73434c4153534c4953545f41444d494e5f524f4c4560601b815260140190565b7146554e44535f4d414e414745525f524f4c4560701b815260120190565b77524547495354455245445f535550504c4945525f524f4c4560401b815260180190565b724752414e54535f4d414e414745525f524f4c4560681b815260130190565b77554e49564552534954595f4f564552534545525f524f4c4560401b815260180190565b6001600160a01b0391909116815260200190565b6001600160a01b03929092168252602082015260400190565b6001600160a01b039384168152919092166020820152604081019190915260600190565b6020808252825182820181905260009190848201906040850190845b81811015613f845783516001600160a01b031683529284019291840191600101613f5f565b50909695505050505050565b6020808252825182820181905260009190848201906040850190845b81811015613f8457835183529284019291840191600101613fac565b901515815260200190565b90815260200190565b9182526001600160a01b0316602082015260400190565b94855260208501939093526001600160a01b0391821660408501521660608301526001600160401b0316608082015260a00190565b6000848252606060208301526140416060830185613dc0565b82810360408401526140538185613dc0565b9695505050505050565b9a8b5262ffffff998a1660208c01529790981660408a015260039590950b6060890152608088019390935260a08701919091526001600160a01b0390811660c087015290811660e0860152908116610100850152918216610120840152166101408201526101600190565b60039190910b815260200190565b6000602082526111b86020830184613dc0565b60208082526022908201527f456e756d657261626c655365743a20696e646578206f7574206f6620626f756e604082015261647360f01b606082015260800190565b6020808252601f908201527f5472616e7366657248656c7065723a205452414e534645525f4641494c454400604082015260600190565b6020808252602f908201527f416363657373436f6e74726f6c3a2073656e646572206d75737420626520616e60408201526e0818591b5a5b881d1bc819dc985b9d608a1b606082015260800190565b60208082526029908201527f556e69766572736974793a206e6f7420656e6f7567682062756467657420746f60408201526820646563726561736560b81b606082015260800190565b6020808252601d908201527f556e69766572736974793a206174746163682066756e64206669727374000000604082015260600190565b60208082526026908201527f4f776e61626c653a206e6577206f776e657220697320746865207a65726f206160408201526564647265737360d01b606082015260800190565b6020808252603290820152600080516020614ac183398151915260408201527146554e44535f4d414e414745525f524f4c4560701b606082015260800190565b6020808252603290820152600080516020614ac1833981519152604082015271612073747564656e7420726567697374727960701b606082015260800190565b6020808252818101527f556e69766572736974793a206e6f7420656e6f75676820656e646f776d656e74604082015260600190565b60208082526026908201527f556e69766572736974793a2073747564656e7420616c726561647920726567696040820152651cdd195c995960d21b606082015260800190565b60208082526026908201527f556e69766572736974793a206e6f7420656e6f75676820617661696c61626c656040820152652066756e647360d01b606082015260800190565b6020808252601b908201527f536166654d6174683a206164646974696f6e206f766572666c6f770000000000604082015260600190565b60208082526035908201527f556e69766572736974793a2063616c6c6572206973206e6f742073747564656e6040820152743a1037b3103a3434b99030b8383634b1b0ba34b7b760591b606082015260800190565b6020808252603490820152600080516020614ac1833981519152604082015273434c4153534c4953545f41444d494e5f524f4c4560601b606082015260800190565b6020808252603590820152600080516020614ac183398151915260408201527453545544454e545f4944454e544954595f524f4c4560581b606082015260800190565b60208082526021908201527f436c617373726f6f6d3a2072656164207065726d697373696f6e2064656e69656040820152601960fa1b606082015260800190565b6020808252603890820152600080516020614ac1833981519152604082015277434c415353524f4f4d5f50524f464553534f525f524f4c4560401b606082015260800190565b60208082526023908201527f556e69766572736974793a20696e76616c69642073747564656e74206164647260408201526265737360e81b606082015260800190565b60208082526030908201527f416363657373436f6e74726f6c3a2073656e646572206d75737420626520616e60408201526f2061646d696e20746f207265766f6b6560801b606082015260800190565b60208082526026908201527f556e69766572736974793a206e6f7420656e6f7567682066756e647320746f206040820152651a5b9d995cdd60d21b606082015260800190565b6020808252818101527f4f776e61626c653a2063616c6c6572206973206e6f7420746865206f776e6572604082015260600190565b6020808252601f908201527f556e69766572736974793a207265636f7665722066756e647320666972737400604082015260600190565b60208082526029908201527f556e69766572736974793a206e6f7420656e6f756768206f7065726174696f6e604082015268185b08189d5919d95d60ba1b606082015260800190565b6020808252603390820152600080516020614ac18339815191526040820152724752414e54535f4d414e414745525f524f4c4560681b606082015260800190565b60208082526027908201527f556e69766572736974793a2064656c65676174656420636c61696d206e6f7420604082015266185b1b1bddd95960ca1b606082015260800190565b6020808252603890820152600080516020614ac1833981519152604082015277554e49564552534954595f4f564552534545525f524f4c4560401b606082015260800190565b60208082526031908201527f556e69766572736974793a2063616c6c6572206973206e6f74206f776e6572206040820152706f66207468697320636c617373726f6f6d60781b606082015260800190565b60208082526023908201527f5472616e7366657248656c7065723a204554485f5452414e534645525f46414960408201526213115160ea1b606082015260800190565b60208082526029908201527f556e69766572736974793a206170706c69636174696f6e206973206e6f7420736040820152681d58d8d95cdcd99d5b60ba1b606082015260800190565b60208082526038908201527f556e69766572736974793a2063616c6c6572206973206e6f74206f776e6572206040820152776f6620746869732073747564656e7420726567697374727960401b606082015260800190565b6020808252603a908201527f556e69766572736974793a20726563656976657220646f65736e27742068617660408201527f6520524547495354455245445f535550504c4945525f524f4c45000000000000606082015260800190565b60208082526035908201527f556e69766572736974793a207468697320756e6976657273697479206973206e6040820152741bdd081bdddb995c881bd9881d1a1a5cc8199d5b99605a1b606082015260800190565b60208082526024908201527f5472616e7366657248656c7065723a205452414e534645525f46524f4d5f46416040820152631253115160e21b606082015260800190565b6020808252602f908201527f416363657373436f6e74726f6c3a2063616e206f6e6c792072656e6f756e636560408201526e103937b632b9903337b91039b2b63360891b606082015260800190565b62ffffff91909116815260200190565b6040518181016001600160401b0381118282101715614a5457600080fd5b604052919050565b60006001600160401b03821115614a71578081fd5b5060209081020190565b60005b83811015614a96578181015183820152602001614a7e565b83811115614aa5576000848401525b50505050565b6001600160a01b038116811461121a57600080fdfe556e69766572736974793a2063616c6c657220646f65736e2774206861766520a264697066735822122014f93bb148752e0328222eb880dcf44da9085b567dca68c983da01c719fdd9eb64736f6c634300060b0033",
  "immutableReferences": {},
  "source": "// SPDX-License-Identifier: GPL-3.0-or-later\r\n\r\npragma solidity ^0.6.11;\r\n\r\npragma experimental ABIEncoderV2;\r\n\r\nimport \"@openzeppelin/contracts/math/SafeMath.sol\";\r\nimport \"@openzeppelin/contracts/access/AccessControl.sol\";\r\nimport \"@openzeppelin/contracts/access/Ownable.sol\";\r\nimport \"@openzeppelin/contracts/token/ERC20/IERC20.sol\";\r\nimport \"./interface/IClassroom.sol\";\r\nimport \"./interface/IStudent.sol\";\r\nimport \"./interface/IStudentApplication.sol\";\r\nimport \"./interface/IClassroomFactory.sol\";\r\nimport \"./interface/IStudentFactory.sol\";\r\nimport \"./interface/IUniversity.sol\";\r\nimport \"./interface/IUniversityFund.sol\";\r\nimport \"./interface/IGrantsManager.sol\";\r\nimport \"./interface/ENSInterfaces.sol\";\r\nimport \"./MyUtils.sol\";\r\n\r\n//TODO: Natspec Document ENVERYTHING\r\n//TODO: Sort function order from all contracts\r\n\r\ncontract University is Ownable, AccessControl, IUniversity {\r\n    using SafeMath for uint256;\r\n\r\n    //CLASSLIST_ADMIN_ROLE can add new manually created classes to the list\r\n    bytes32 public constant CLASSLIST_ADMIN_ROLE = keccak256(\r\n        \"CLASSLIST_ADMIN_ROLE\"\r\n    );\r\n    // FUNDS_MANAGER_ROLE can withdraw funds from the contract\r\n    bytes32 public constant FUNDS_MANAGER_ROLE = keccak256(\r\n        \"FUNDS_MANAGER_ROLE\"\r\n    );\r\n    // GRANTS_MANAGER_ROLE can approve/decline grant claims\r\n    bytes32 public constant GRANTS_MANAGER_ROLE = keccak256(\r\n        \"GRANTS_MANAGER_ROLE\"\r\n    );\r\n    /// STUDENT_IDENTITY_ROLE allow asking for grants and requesting a classroom from a successful application\r\n    bytes32 public constant STUDENT_IDENTITY_ROLE = keccak256(\r\n        \"STUDENT_IDENTITY_ROLE\"\r\n    );\r\n    /// CLASSROOM_PROFESSOR_ROLE can manage itself inside the University and registering student applications\r\n    bytes32 public constant CLASSROOM_PROFESSOR_ROLE = keccak256(\r\n        \"CLASSROOM_PROFESSOR_ROLE\"\r\n    );\r\n    /// UNIVERSITY_OVERSEER_ROLE can inspect Grant Managers and Fund Managers, and present cases for funders to vote upon\r\n    bytes32 public constant UNIVERSITY_OVERSEER_ROLE = keccak256(\r\n        \"UNIVERSITY_OVERSEER_ROLE\"\r\n    );/// REGISTERED_SUPPLIER_ROLE can receive transactions to consume the operational budget\r\n    bytes32 public constant REGISTERED_SUPPLIER_ROLE = keccak256(\r\n        \"REGISTERED_SUPPLIER_ROLE\"\r\n    );\r\n\r\n    // Parameter: Name of this University\r\n    bytes32 public override name;\r\n    // Parameter: University cut from professor (Parts per Million)\r\n    uint24 public override cut;\r\n    // Parameter: GSN funds to give students\r\n    uint256 _studentGSNDeposit;\r\n    // List of every registered classroom\r\n    address[] _classList;\r\n    // Mapping of each student's applications\r\n    mapping(address => address[]) _studentApplicationsMapping;\r\n    // Mapping of each student(owner) to student(smart contract)\r\n    mapping(address => address) _ownerToStudent;\r\n    // Mapping of every donor and donations\r\n    mapping(address => uint256) public donators;\r\n    // Total amount of donations received so far\r\n    uint256 public donationsReceived;\r\n    // Total amount of operational revenue received so far\r\n    uint256 public revenueReceived;\r\n    // Total amount of financial returns received so far\r\n    uint256 public returnsReceived;\r\n    // Total amount of endowment locked in the fund\r\n    uint256 public endowmentLocked;\r\n    // Total amount of funds allowed for expenses\r\n    uint256 public operationalBudget;\r\n    // University Fund\r\n    address public override universityFund;\r\n\r\n    //Tokens\r\n    address public daiToken;\r\n    address public cDAI;\r\n\r\n    //Factory\r\n    address public classroomFactory;\r\n    address public studentFactory;\r\n    address public studentApplicationFactory;\r\n\r\n    //ENS\r\n    address public ensContract;\r\n    address public ensTestRegistrar; //change on prod\r\n    address public ensPublicResolver;\r\n    address public ensReverseRegistrar;\r\n\r\n    /// @notice Constructor setup the basic variables\r\n    /// @dev Not all variables can be defined in this constructor because the limitation of the stack size\r\n    /// @param name_ Given name for the university\r\n    /// @param cut_ Cut from professor payments, in PPM\r\n    /// @param daiAddress Adress of contract in the network\r\n    /// @param classroomFactoryAddress Adress of contract in the network\r\n    /// @param studentFactoryAddress Adress of contract in the network\r\n    /// @param studentApplicationFactoryAddress Adress of contract in the network\r\n    constructor(\r\n        bytes32 name_,\r\n        uint24 cut_,\r\n        address daiAddress,\r\n        address compoundDai,\r\n        address classroomFactoryAddress,\r\n        address studentFactoryAddress,\r\n        address studentApplicationFactoryAddress,\r\n        address ensContractAddress,\r\n        address ensTestRegistrarAddress,\r\n        address ensPublicResolverAddress,\r\n        address ensReverseRegistrarAddress\r\n    ) public {\r\n        name = name_;\r\n        cut = cut_;\r\n        _studentGSNDeposit = 1e15;\r\n        _setupRole(DEFAULT_ADMIN_ROLE, _msgSender());\r\n        grantRole(CLASSLIST_ADMIN_ROLE, _msgSender());\r\n        daiToken = daiAddress;\r\n        cDAI = compoundDai;\r\n        classroomFactory = classroomFactoryAddress;\r\n        studentFactory = studentFactoryAddress;\r\n        studentApplicationFactory = studentApplicationFactoryAddress;\r\n        ensContract = ensContractAddress;\r\n        ensTestRegistrar = ensTestRegistrarAddress;\r\n        ensPublicResolver = ensPublicResolverAddress;\r\n        ensReverseRegistrar = ensReverseRegistrarAddress;\r\n    }\r\n\r\n    /// @notice Allow receiving ETH\r\n    receive() external payable {\r\n        emit LogReceived(msg.sender, msg.value);\r\n    }\r\n\r\n    /// @notice Withdraw ETH from the contract\r\n    function withdraw(uint256 val) public onlyOwner {\r\n        TransferHelper.safeTransferETH(_msgSender(), val);\r\n    }\r\n\r\n    /// @notice Records the name and address of every new classroom created\r\n    event LogNewClassroom(bytes32, address);\r\n    /// @notice Records the name and address of every new student created\r\n    event LogNewStudent(bytes32, address);\r\n    /// @notice Records the name changes of this University\r\n    event LogChangeName(bytes32);\r\n    /// @notice Records the changes in the Cut parameter\r\n    event LogChangeCut(uint24);\r\n    /// @notice Records ETH received\r\n    event LogReceived(address, uint256);\r\n    /// @notice Records donations received and the address of the donor\r\n    event LogDonation(address, uint256);\r\n    /// @notice Records investment returns received and the address of the caller\r\n    event LogReturn(address, uint256);\r\n    /// @notice Records revenues received and the address of the souce\r\n    event LogRevenue(address, uint256);\r\n\r\n    /// @notice Update external contracts addresses\r\n    /// @param daiAddress Address of contract in the network\r\n    /// @param classroomFactoryAddress Address of contract in the network\r\n    /// @param studentFactoryAddress Address of contract in the network\r\n    /// @param studentApplicationFactoryAddress Address of contract in the network\r\n    /// @param ensTestRegistrarAddress Address of contract in the network    \r\n    /// @param ensPublicResolverAddress Address of contract in the network\r\n    /// @param ensReverseRegistrarAddress Address of contract in the network    \r\n    function updateAddresses(\r\n        address daiAddress,\r\n        address compoundDai,\r\n        address classroomFactoryAddress,\r\n        address studentFactoryAddress,\r\n        address studentApplicationFactoryAddress,\r\n        address ensContractAddress,\r\n        address ensTestRegistrarAddress,\r\n        address ensPublicResolverAddress,\r\n        address ensReverseRegistrarAddress) public onlyOwner{\r\n        daiToken = daiAddress == address(0) ? daiToken : daiAddress;\r\n        cDAI = compoundDai == address(0) ? cDAI : compoundDai;\r\n        classroomFactory = classroomFactoryAddress == address(0) ? classroomFactory : classroomFactoryAddress;\r\n        studentFactory = studentFactoryAddress == address(0) ? studentFactory : studentFactoryAddress;\r\n        studentApplicationFactory = studentApplicationFactoryAddress == address(0) ? studentApplicationFactory : studentApplicationFactoryAddress;\r\n        ensContract = ensContractAddress == address(0) ? ensContract : ensContractAddress;\r\n        ensTestRegistrar = ensTestRegistrarAddress == address(0) ? ensTestRegistrar : ensTestRegistrarAddress;\r\n        ensPublicResolver = ensPublicResolverAddress == address(0) ? ensPublicResolver : ensPublicResolverAddress;\r\n        ensReverseRegistrar = ensReverseRegistrarAddress == address(0) ? ensReverseRegistrar : ensReverseRegistrarAddress;\r\n    }\r\n\r\n    // Parameters setup\r\n\r\n    /// @notice Attach the University Fund after creation\r\n    /// @param addr New value\r\n    function attachFund(address addr) public onlyOwner {\r\n        require(\r\n            IUniversityFund(addr).ownerFund() == address(this),\r\n            \"University: this university is not owner of this fund\"\r\n        );\r\n        universityFund = addr;\r\n    }\r\n    \r\n    /// @notice Change the name of the University\r\n    /// @param val New value\r\n    function changeName(bytes32 val) public onlyOwner {\r\n        name = val;\r\n        emit LogChangeName(name);\r\n    }\r\n\r\n    /// @notice Change the cut charged from the professors\r\n    /// @param val New value, in PPM\r\n    function changeCut(uint24 val) public onlyOwner {\r\n        cut = val;\r\n        emit LogChangeCut(cut);\r\n    }\r\n\r\n    /// @notice Change the value of ETH deposited in students relay hub\r\n    /// @param val New value, in WEI\r\n    function changeStudentGSNDeposit(uint256 val) public onlyOwner {\r\n        _studentGSNDeposit = val;\r\n    }\r\n\r\n    // ENS operations\r\n\r\n    function registerInRegistrar(bytes32 label, address _owner) public onlyOwner {\r\n        IRegistrar(ensTestRegistrar).register(label, _owner);\r\n    }\r\n\r\n    function registerInReverseRegistrar(string memory _name) public onlyOwner {\r\n        IReverseRegistrar(ensReverseRegistrar).setName(_name);\r\n    }\r\n\r\n    function setResolver(bytes32 node, address resolver) public onlyOwner {\r\n        IENS(ensContract).setResolver(node, resolver);\r\n    }\r\n\r\n    function setAddressInResolver(bytes32 node, address val) public onlyOwner {\r\n        setAddressInResolver(node, val, ensPublicResolver);\r\n    }\r\n\r\n    function setAddressInResolver(bytes32 node, address val, address resolver) public onlyOwner {\r\n        IResolver(resolver).setAddr(node, val);\r\n    }\r\n\r\n    function setTextInResolver(bytes32 node, string memory key, string memory val) public onlyOwner {\r\n        setTextInResolver(node, key, val, ensPublicResolver);\r\n    }\r\n\r\n    function setTextInResolver(bytes32 node, string memory key, string memory val, address resolver) public onlyOwner {\r\n        IResolver(resolver).setText(node, key, val);\r\n    }\r\n\r\n    function setSubnodeRecord(bytes32 node, bytes32 label, address owner, address resolver, uint64 ttl) public onlyOwner {\r\n        IENS(ensContract).setSubnodeRecord(node, label, owner, resolver, ttl);\r\n    }\r\n\r\n    function claimSubnodeClassroom(bytes32 node, bytes32 label, address owner, address resolver, uint64 ttl, address classroom) public {\r\n        require(\r\n            owner == _msgSender(),\r\n            \"University: delegated claim not allowed\"\r\n        );\r\n        require(\r\n            IClassroom(classroom).ownerClassroom() == _msgSender(),\r\n            \"University: caller is not owner of this classroom\"\r\n        );\r\n        setSubnodeRecord(node, label, owner, resolver, ttl);\r\n    }\r\n\r\n    function claimSubnodeStudent(bytes32 node, bytes32 label, address owner, address resolver, uint64 ttl, address student) public {\r\n        require(\r\n            owner == _msgSender(),\r\n            \"University: delegated claim not allowed\"\r\n        );\r\n        require(\r\n            IStudent(student).ownerStudent() == _msgSender(),\r\n            \"University: caller is not owner of this student registry\"\r\n        );\r\n        setSubnodeRecord(node, label, owner, resolver, ttl);\r\n    }\r\n    \r\n    // Contract Logic\r\n\r\n    // Public view functions \r\n\r\n    /// @return the ammount of DAI able for investing\r\n    /// @dev ETH is not considered as part of investment funds\r\n    function availableFundsForInvestment() public view override returns (uint256) {\r\n        uint256 funds = IERC20(daiToken).balanceOf(address(this));\r\n        if (funds < operationalBudget) return 0;\r\n        return funds.sub(operationalBudget);\r\n    }\r\n\r\n    /// @return the ammount of DAI able for giving grants\r\n    /// @dev ETH is not considered as part of funds\r\n    function availableFunds() public view override returns (uint256) {\r\n        uint256 funds = IERC20(daiToken).balanceOf(address(this));\r\n        if (funds < endowmentLocked.add(operationalBudget)) return 0;\r\n        return funds.sub(endowmentLocked).sub(operationalBudget);\r\n    }\r\n\r\n    /// @return true if the classroom is registered in this University \r\n    function isValidClassroom(address classroom) public view override returns (bool) {\r\n        return hasRole(CLASSROOM_PROFESSOR_ROLE, classroom);\r\n    }\r\n\r\n    /// @return true if the student is registered in this University \r\n    function studentIsRegistered(address student) public view override returns (bool) {\r\n        return hasRole(STUDENT_IDENTITY_ROLE, student);\r\n    }\r\n\r\n    /// @return address of this student\r\n    function myStudentAddress() public view returns (address) {\r\n        require(\r\n            _ownerToStudent[_msgSender()] != address(0),\r\n            \"University: caller doesn't have a student registry\"\r\n        );\r\n        return _ownerToStudent[_msgSender()];\r\n    }\r\n\r\n    /// @return the address of the application of a Student\r\n    function viewMyApplications() public view override returns (address[] memory) {\r\n        return viewStudentApplications(_msgSender());\r\n    }\r\n\r\n    /// @return the address of the application of a Student, called from the owner\r\n    function viewMyStudentApplications(address student) public view returns (address[] memory) {\r\n        require(\r\n            IStudent(student).ownerStudent() == _msgSender(),\r\n            \"University: invalid student address\"\r\n        );\r\n        return _studentApplicationsMapping[student];\r\n    }\r\n\r\n    /// @param addr Address of the student\r\n    /// @return the addresses of the applications of a the supplied address\r\n    function viewStudentApplications(address addr)\r\n        public\r\n        view\r\n        override\r\n        returns (address[] memory)\r\n    {\r\n        require(\r\n            addr == _msgSender() || hasRole(GRANTS_MANAGER_ROLE, _msgSender()),\r\n            \"Classroom: read permission denied\"\r\n        );\r\n        return _studentApplicationsMapping[addr];\r\n    }\r\n\r\n    // Student registry logic\r\n\r\n    /// @notice Self-register function where an address can create an instance of a Student in this University\r\n    /// @param sName Name of the Student\r\n    function studentSelfRegister(bytes32 sName) public {\r\n        _newStudent(sName, _msgSender());\r\n    }\r\n\r\n    function _newStudent(bytes32 sName, address caller)\r\n        internal\r\n        returns (address) {\r\n        require(\r\n            _ownerToStudent[caller] == address(0),\r\n            \"University: student already registered\"\r\n        );\r\n        address student = IStudentFactory(studentFactory).newStudent(sName, address(this));\r\n        _ownerToStudent[caller] = student;\r\n        IStudent(student).transferOwnershipStudent(caller);\r\n        _setupRole(STUDENT_IDENTITY_ROLE, student);\r\n        emit LogNewStudent(name, student);\r\n        return student;\r\n    }\r\n\r\n    // Classroom operation logic\r\n\r\n    /// @notice Register function where an Admin can can create an instance of a Classroom in this University\r\n    /// @param owner Address to own this classroom\r\n    /// @param cName Name this classroom\r\n    /// @param cCut Cut of the principal amount deposited that is charged from students, in PPM\r\n    /// @param cPCut Cut of the pooled returns from successful students, in PPM\r\n    /// @param minScore Minimum score value required from students to be able to apply in this classroom\r\n    /// @param entryPrice Required deposit to be applied as principal an locked for the duration of the course, in decimal units of DAI\r\n    /// @param duration Lock time between course opening and closing, in Timestamp\r\n    /// @param challengeAddress Address to the challenge to be solved in this Classroom's courses\r\n    /// @return the smart contract address for this Classroom instance in this University\r\n    function newClassRoom(\r\n        address owner,\r\n        bytes32 cName,\r\n        uint24 cCut,\r\n        uint24 cPCut,\r\n        int32 minScore,\r\n        uint256 entryPrice,\r\n        uint256 duration,\r\n        address challengeAddress\r\n    ) public returns (address) {\r\n        require(\r\n            hasRole(CLASSLIST_ADMIN_ROLE, _msgSender()),\r\n            \"University: caller doesn't have CLASSLIST_ADMIN_ROLE\"\r\n        );\r\n        return\r\n            _newClassRoom(\r\n                owner,\r\n                cName,\r\n                cCut,\r\n                cPCut,\r\n                minScore,\r\n                entryPrice,\r\n                duration,\r\n                challengeAddress\r\n            );\r\n    }\r\n\r\n    function _newClassRoom(\r\n        address owner,\r\n        bytes32 cName,\r\n        uint24 cCut,\r\n        uint24 cPCut,\r\n        int32 minScore,\r\n        uint256 entryPrice,\r\n        uint256 duration,\r\n        address challengeAddress\r\n    ) internal returns (address) {\r\n        address classroom = IClassroomFactory(classroomFactory).newClassroom(\r\n            cName,\r\n            cCut,\r\n            cPCut,\r\n            minScore,\r\n            entryPrice,\r\n            duration,\r\n            payable (address(this)),\r\n            challengeAddress,\r\n            daiToken,\r\n            cDAI,\r\n            studentApplicationFactory\r\n        );\r\n        IClassroom(classroom).transferOwnershipClassroom(owner);\r\n        address classroomAddr = address(classroom);\r\n        _classList.push(classroomAddr);\r\n        _setupRole(CLASSROOM_PROFESSOR_ROLE, classroomAddr);\r\n        emit LogNewClassroom(cName, classroomAddr);\r\n        return classroomAddr;\r\n    }\r\n\r\n    /// @notice Register function where an Student can can create an instance of a Classroom in this University, upon being successful in any classroom\r\n    /// @param applicationAddr Address of the successful application\r\n    /// @param cName Name this classroom\r\n    /// @param cCut Cut of the principal amount deposited that is charged from students, in PPM\r\n    /// @param cPCut Cut of the pooled returns from successful students, in PPM\r\n    /// @param minScore Minimum score value required from students to be able to apply in this classroom\r\n    /// @param entryPrice Required deposit to be applied as principal an locked for the duration of the course, in decimal units of DAI\r\n    /// @param duration Lock time between course opening and closing, in Timestamp\r\n    /// @param challenge Address to the challenge to be solved in this Classroom's courses\r\n    /// @return the smart contract address for this Classroom instance in this University\r\n    function studentRequestClassroom(\r\n        address applicationAddr,\r\n        bytes32 cName,\r\n        uint24 cCut,\r\n        uint24 cPCut,\r\n        int32 minScore,\r\n        uint256 entryPrice,\r\n        uint256 duration,\r\n        address challenge\r\n    ) public override returns (address) {\r\n        require(\r\n            hasRole(STUDENT_IDENTITY_ROLE, _msgSender()),\r\n            \"University: caller doesn't have STUDENT_IDENTITY_ROLE\"\r\n        );\r\n        require(\r\n            checkForStudentApplication(_msgSender(), applicationAddr),\r\n            \"University: caller is not student of this application\"\r\n        );\r\n        IStudentApplication application = IStudentApplication(applicationAddr);\r\n        require(\r\n            application.applicationState() == 3,\r\n            \"University: application is not successful\"\r\n        );\r\n        return\r\n            _newClassRoom(\r\n                IStudent(_msgSender()).ownerStudent(),\r\n                cName,\r\n                cCut,\r\n                cPCut,\r\n                minScore,\r\n                entryPrice,\r\n                duration,\r\n                challenge\r\n            );\r\n    }\r\n\r\n    /// @notice Register and map a Student's application to this Student\r\n    /// @param student Address of the Student\r\n    /// @param application Address of the application\r\n    function registerStudentApplication(\r\n        address student,\r\n        address application\r\n    ) public override\r\n    {\r\n        require(\r\n            hasRole(CLASSROOM_PROFESSOR_ROLE, _msgSender()),\r\n            \"University: caller doesn't have CLASSROOM_PROFESSOR_ROLE\"\r\n        );\r\n        _studentApplicationsMapping[student].push(application);\r\n    }\r\n\r\n    /// @notice Check if an application belongs to a specific Student\r\n    /// @param studentAddress Address of the Student\r\n    /// @param applicationAddress Address of the application\r\n    /// @return true if the application belongs to the Student\r\n    function checkForStudentApplication(\r\n        address studentAddress,\r\n        address applicationAddress\r\n    ) internal view returns (bool) {\r\n        for (\r\n            uint256 i = 0;\r\n            i < _studentApplicationsMapping[studentAddress].length;\r\n            i++\r\n        ) {\r\n            if (\r\n                _studentApplicationsMapping[studentAddress][i] ==\r\n                applicationAddress\r\n            ) return true;\r\n        }\r\n        return false;\r\n    }\r\n\r\n    // Student score management\r\n\r\n    /// @notice Increase a Student's score upon successful application\r\n    /// @param student Address of the Student\r\n    /// @param val Value to be added\r\n    function addStudentScore(address student, int32 val) public override {\r\n        require(\r\n            hasRole(CLASSROOM_PROFESSOR_ROLE, _msgSender()),\r\n            \"University: caller doesn't have CLASSROOM_PROFESSOR_ROLE\"\r\n        );\r\n        IStudent(student).addScore(val);\r\n    }\r\n\r\n    /// @notice Decrease a Student's score upon failed application\r\n    /// @param student Address of the Student\r\n    /// @param val Value to be subtracted\r\n    function subStudentScore(address student, int32 val) public override {\r\n        require(\r\n            hasRole(CLASSROOM_PROFESSOR_ROLE, _msgSender()),\r\n            \"University: caller doesn't have CLASSROOM_PROFESSOR_ROLE\"\r\n        );\r\n        IStudent(student).subScore(val);\r\n    }\r\n\r\n    // Funds asset value management \r\n\r\n    /// @notice Allow managing the university Funds. Must be called from an appointed Funds Manager\r\n    function applyFunds(uint256 val) public override {\r\n        require(\r\n            hasRole(FUNDS_MANAGER_ROLE, _msgSender()),\r\n            \"University: caller doesn't have FUNDS_MANAGER_ROLE\"\r\n        );\r\n        require(\r\n            availableFundsForInvestment() >= val,\r\n            \"University: not enough funds to invest\"\r\n        );\r\n        require(\r\n            universityFund != address(0),\r\n            \"University: attach fund first\"\r\n        );\r\n        TransferHelper.safeTransfer(address(daiToken), universityFund, val);\r\n    }\r\n\r\n    /// @notice Get the ammount of DAI applied in Fund\r\n    /// @return ammount of DAI applied in Fund\r\n    function appliedFunds() public view returns (uint256) {\r\n        require(\r\n            universityFund != address(0),\r\n            \"University: attach fund first\"\r\n        );\r\n        return IERC20(daiToken).balanceOf(universityFund);\r\n    }\r\n\r\n    /// @notice Allow managing the university Funds. Must be called from an appointed Funds Manager\r\n    function recoverFunds(uint256 val) public override {\r\n        require(\r\n            hasRole(FUNDS_MANAGER_ROLE, _msgSender()),\r\n            \"University: caller doesn't have FUNDS_MANAGER_ROLE\"\r\n        );\r\n        require(\r\n            universityFund != address(0),\r\n            \"University: attach fund first\"\r\n        );\r\n        TransferHelper.safeTransferFrom(address(daiToken), universityFund, address(this), val);\r\n    }\r\n\r\n    /// @notice Allow managing the university Funds. Must be called from an appointed Funds Manager\r\n    function applyFundsETH(uint256 val) public override {\r\n        require(\r\n            hasRole(FUNDS_MANAGER_ROLE, _msgSender()),\r\n            \"University: caller doesn't have FUNDS_MANAGER_ROLE\"\r\n        );\r\n        require(\r\n            universityFund != address(0),\r\n            \"University: attach fund first\"\r\n        );\r\n        TransferHelper.safeTransferETH(universityFund, val);\r\n    }\r\n\r\n    /// @notice Get the ammount of ETH applied in Fund\r\n    /// @return ammount of ETH applied in Fund\r\n    function appliedFundsETH() public view returns (uint256) {\r\n        require(\r\n            universityFund != address(0),\r\n            \"University: attach fund first\"\r\n        );\r\n        return universityFund.balance;\r\n    }\r\n\r\n    /// @notice Allow managing the university Funds. Must be called from an appointed Funds Manager\r\n    function recoverFundsETH(uint256 val) public override {\r\n        require(\r\n            hasRole(FUNDS_MANAGER_ROLE, _msgSender()),\r\n            \"University: caller doesn't have FUNDS_MANAGER_ROLE\"\r\n        );\r\n        require(\r\n            universityFund != address(0),\r\n            \"University: attach fund first\"\r\n        );\r\n        IUniversityFund(universityFund).withdraw(val);\r\n    }\r\n\r\n    //Funds setup\r\n\r\n    /// @notice Grants role to account inside University Fund\r\n    function grantRoleFund(bytes32 role, address account) public {\r\n        require(\r\n            universityFund != address(0),\r\n            \"University: attach fund first\"\r\n        );\r\n        IUniversityFund(universityFund).grantRoleFund(role, account);\r\n    }\r\n\r\n    /// @notice Revoke role from account inside University Fund\r\n    function revokeRoleFund(bytes32 role, address account) public {\r\n        require(\r\n            universityFund != address(0),\r\n            \"University: attach fund first\"\r\n        );\r\n        IUniversityFund(universityFund).revokeRoleFund(role, account);\r\n    }\r\n\r\n    // Funds value quotas management\r\n\r\n    /// @notice Allow managing how much Funds Manager can draw from funds to cover operational expenses. Must be called from the university admin\r\n    /// @param val Value to increase\r\n    function increaseOperationalBudget(uint256 val) public onlyOwner {\r\n        require(\r\n            endowmentLocked >= val,\r\n            \"University: not enough endowment\"\r\n        );\r\n        operationalBudget = operationalBudget.add(val);\r\n        endowmentLocked = endowmentLocked.sub(val);\r\n    }\r\n\r\n    /// @notice Allow managing how much Funds Manager can draw from funds to cover operational expenses. Must be called from the university admin\r\n    /// @param val Value to decrease\r\n    function decreaseOperationalBudget(uint256 val) public onlyOwner {\r\n        require(\r\n            operationalBudget >= val,\r\n            \"University: not enough budget to decrease\"\r\n        );\r\n        operationalBudget = operationalBudget.sub(val);\r\n        endowmentLocked = endowmentLocked.add(val);\r\n    }\r\n\r\n    /// @notice Allow a Funds Manager to send funds to Registered Suppliers, spending the operational budget set by the University owner\r\n    /// @param to Address of the Registered Supplier\r\n    /// @param val Value to be sent, in DAI decimals\r\n    function spendBudget(address to, uint256 val) public override {\r\n        require(\r\n            hasRole(FUNDS_MANAGER_ROLE, _msgSender()),\r\n            \"University: caller doesn't have FUNDS_MANAGER_ROLE\"\r\n        );\r\n        require(\r\n            hasRole(REGISTERED_SUPPLIER_ROLE, to),\r\n            \"University: receiver doesn't have REGISTERED_SUPPLIER_ROLE\"\r\n        );\r\n        require(\r\n            operationalBudget >= val,\r\n            \"University: not enough operational budget\"\r\n        );\r\n        require(\r\n            IERC20(daiToken).balanceOf(address(this)) >= val,\r\n            \"University: recover funds first\"\r\n        );\r\n        TransferHelper.safeTransfer(address(daiToken), to, val);\r\n        operationalBudget = operationalBudget.sub(val);\r\n    }\r\n\r\n    /// @notice Allow a Grants Manager to pay a Student's entry price for an application, if the appointed Grants Manager decide so\r\n    /// @param studentApplication Address of the Student\r\n    /// @param price Value of the application's entry price\r\n    function giveGrant(address studentApplication, uint256 price) public override {\r\n        require(\r\n            hasRole(GRANTS_MANAGER_ROLE, _msgSender()),\r\n            \"University: caller doesn't have GRANTS_MANAGER_ROLE\"\r\n        );\r\n        require(\r\n            availableFunds() >= price,\r\n            \"University: not enough available funds\"\r\n        );\r\n        IStudentApplication(studentApplication).payEntryPrice();\r\n    }\r\n\r\n    /// @notice Allow a Funds Manager to redirect surplus funds from liquidated positions to the endowment locked value. Irreversible\r\n    /// @param val Value to be sent, in DAI decimals\r\n    function reinvestReturns(uint256 val) public override {\r\n        require(\r\n            hasRole(FUNDS_MANAGER_ROLE, _msgSender()),\r\n            \"University: caller doesn't have FUNDS_MANAGER_ROLE\"\r\n        );\r\n        require(\r\n            availableFunds() >= val,\r\n            \"University: not enough available funds\"\r\n        );\r\n        accountReturns(val);\r\n    }\r\n\r\n    // Overseer actions\r\n\r\n    /// @notice Allow an appointed Overseer to inspect all students that received grants by a specific Grants Manager\r\n    /// @param grantsManager Address of the Grants Manager\r\n    /// @return array of Students addresses\r\n    function viewAllStudentsFromGrantManager(\r\n            address grantsManager\r\n        ) public returns (address[] memory) {\r\n        require(\r\n            hasRole(UNIVERSITY_OVERSEER_ROLE, _msgSender()),\r\n            \"University: caller doesn't have UNIVERSITY_OVERSEER_ROLE\"\r\n        );\r\n        return IGrantsManager(grantsManager).viewAllStudents();\r\n    }\r\n\r\n    /// @notice Allow an appointed Overseer to inspect all grants issued by a specific Grants Manager to a specific Student\r\n    /// @param student Address of the Student\r\n    /// @param grantsManager Address of the Grants Manager\r\n    /// @return array of grant values\r\n    function viewAllStudentGrantsFromGrantManager(\r\n            address student, \r\n            address grantsManager\r\n        ) public returns (uint256[] memory) {\r\n        require(\r\n            hasRole(UNIVERSITY_OVERSEER_ROLE, _msgSender()),\r\n            \"University: caller doesn't have UNIVERSITY_OVERSEER_ROLE\"\r\n        );\r\n        return IGrantsManager(grantsManager).viewAllGrantsForStudent(student);\r\n    }\r\n\r\n    // Donations feature\r\n\r\n    /// @notice Allow donating DAI to the University funds. Require allowing the University first\r\n    /// @param donation amount of DAI to donate, in decimals\r\n    function donateDAI(uint256 donation) public override {\r\n        TransferHelper.safeTransferFrom(\r\n            address(daiToken),\r\n            _msgSender(),\r\n            address(this),\r\n            donation\r\n        );\r\n        accountDonation(_msgSender(), donation);\r\n    }\r\n\r\n    function accountDonation(address sender, uint256 donation) internal {\r\n        donationsReceived = donationsReceived.add(donation);\r\n        endowmentLocked = endowmentLocked.add(donation);\r\n        donators[sender] = donators[sender].add(donation);\r\n        LogDonation(_msgSender(), donation);\r\n    }\r\n    \r\n    /// @notice Classroom call to account a revenue received from a completed course\r\n    function accountRevenue(uint256 revenue) public override {\r\n        require(\r\n            hasRole(CLASSROOM_PROFESSOR_ROLE, _msgSender()),\r\n            \"University: caller doesn't have CLASSROOM_PROFESSOR_ROLE\"\r\n        );\r\n        revenueReceived = revenueReceived.add(revenue);\r\n        endowmentLocked = endowmentLocked.add(revenue);\r\n        LogRevenue(_msgSender(), revenue);\r\n    }\r\n\r\n    function accountReturns(uint256 financialReturns) internal {\r\n        returnsReceived = revenueReceived.add(financialReturns);\r\n        endowmentLocked = endowmentLocked.add(financialReturns);\r\n        LogReturn(_msgSender(), financialReturns);\r\n    }\r\n}\r\n",
  "sourcePath": "/mnt/e/Repositories/uproot-trustless-contracts/contracts/University.sol",
  "compiler": {
    "name": "solc",
    "version": "0.6.11+commit.5ef660b1.Emscripten.clang"
  },
  "schemaVersion": "3.1.0",
  "updatedAt": "2020-07-09T20:27:12.325Z",
  "devdoc": {
    "kind": "dev",
    "methods": {
      "addStudentScore(address,int32)": {
        "params": {
          "student": "Address of the Student",
          "val": "Value to be added"
        }
      },
      "appliedFunds()": {
        "returns": {
          "_0": "ammount of DAI applied in Fund"
        }
      },
      "appliedFundsETH()": {
        "returns": {
          "_0": "ammount of ETH applied in Fund"
        }
      },
      "attachFund(address)": {
        "params": {
          "addr": "New value"
        }
      },
      "availableFunds()": {
        "details": "ETH is not considered as part of funds",
        "returns": {
          "_0": "the ammount of DAI able for giving grants"
        }
      },
      "availableFundsForInvestment()": {
        "details": "ETH is not considered as part of investment funds",
        "returns": {
          "_0": "the ammount of DAI able for investing"
        }
      },
      "changeCut(uint24)": {
        "params": {
          "val": "New value, in PPM"
        }
      },
      "changeName(bytes32)": {
        "params": {
          "val": "New value"
        }
      },
      "changeStudentGSNDeposit(uint256)": {
        "params": {
          "val": "New value, in WEI"
        }
      },
      "constructor": {
        "details": "Not all variables can be defined in this constructor because the limitation of the stack size",
        "params": {
          "classroomFactoryAddress": "Adress of contract in the network",
          "cut_": "Cut from professor payments, in PPM",
          "daiAddress": "Adress of contract in the network",
          "name_": "Given name for the university",
          "studentApplicationFactoryAddress": "Adress of contract in the network",
          "studentFactoryAddress": "Adress of contract in the network"
        }
      },
      "decreaseOperationalBudget(uint256)": {
        "params": {
          "val": "Value to decrease"
        }
      },
      "donateDAI(uint256)": {
        "params": {
          "donation": "amount of DAI to donate, in decimals"
        }
      },
      "getRoleAdmin(bytes32)": {
        "details": "Returns the admin role that controls `role`. See {grantRole} and {revokeRole}. To change a role's admin, use {_setRoleAdmin}."
      },
      "getRoleMember(bytes32,uint256)": {
        "details": "Returns one of the accounts that have `role`. `index` must be a value between 0 and {getRoleMemberCount}, non-inclusive. Role bearers are not sorted in any particular way, and their ordering may change at any point. WARNING: When using {getRoleMember} and {getRoleMemberCount}, make sure you perform all queries on the same block. See the following https://forum.openzeppelin.com/t/iterating-over-elements-on-enumerableset-in-openzeppelin-contracts/2296[forum post] for more information."
      },
      "getRoleMemberCount(bytes32)": {
        "details": "Returns the number of accounts that have `role`. Can be used together with {getRoleMember} to enumerate all bearers of a role."
      },
      "giveGrant(address,uint256)": {
        "params": {
          "price": "Value of the application's entry price",
          "studentApplication": "Address of the Student"
        }
      },
      "grantRole(bytes32,address)": {
        "details": "Grants `role` to `account`. If `account` had not been already granted `role`, emits a {RoleGranted} event. Requirements: - the caller must have ``role``'s admin role."
      },
      "hasRole(bytes32,address)": {
        "details": "Returns `true` if `account` has been granted `role`."
      },
      "increaseOperationalBudget(uint256)": {
        "params": {
          "val": "Value to increase"
        }
      },
      "isValidClassroom(address)": {
        "returns": {
          "_0": "true if the classroom is registered in this University "
        }
      },
      "myStudentAddress()": {
        "returns": {
          "_0": "address of this student"
        }
      },
      "newClassRoom(address,bytes32,uint24,uint24,int32,uint256,uint256,address)": {
        "params": {
          "cCut": "Cut of the principal amount deposited that is charged from students, in PPM",
          "cName": "Name this classroom",
          "cPCut": "Cut of the pooled returns from successful students, in PPM",
          "challengeAddress": "Address to the challenge to be solved in this Classroom's courses",
          "duration": "Lock time between course opening and closing, in Timestamp",
          "entryPrice": "Required deposit to be applied as principal an locked for the duration of the course, in decimal units of DAI",
          "minScore": "Minimum score value required from students to be able to apply in this classroom",
          "owner": "Address to own this classroom"
        },
        "returns": {
          "_0": "the smart contract address for this Classroom instance in this University"
        }
      },
      "owner()": {
        "details": "Returns the address of the current owner."
      },
      "registerStudentApplication(address,address)": {
        "params": {
          "application": "Address of the application",
          "student": "Address of the Student"
        }
      },
      "reinvestReturns(uint256)": {
        "params": {
          "val": "Value to be sent, in DAI decimals"
        }
      },
      "renounceOwnership()": {
        "details": "Leaves the contract without owner. It will not be possible to call `onlyOwner` functions anymore. Can only be called by the current owner. NOTE: Renouncing ownership will leave the contract without an owner, thereby removing any functionality that is only available to the owner."
      },
      "renounceRole(bytes32,address)": {
        "details": "Revokes `role` from the calling account. Roles are often managed via {grantRole} and {revokeRole}: this function's purpose is to provide a mechanism for accounts to lose their privileges if they are compromised (such as when a trusted device is misplaced). If the calling account had been granted `role`, emits a {RoleRevoked} event. Requirements: - the caller must be `account`."
      },
      "revokeRole(bytes32,address)": {
        "details": "Revokes `role` from `account`. If `account` had been granted `role`, emits a {RoleRevoked} event. Requirements: - the caller must have ``role``'s admin role."
      },
      "spendBudget(address,uint256)": {
        "params": {
          "to": "Address of the Registered Supplier",
          "val": "Value to be sent, in DAI decimals"
        }
      },
      "studentIsRegistered(address)": {
        "returns": {
          "_0": "true if the student is registered in this University "
        }
      },
      "studentRequestClassroom(address,bytes32,uint24,uint24,int32,uint256,uint256,address)": {
        "params": {
          "applicationAddr": "Address of the successful application",
          "cCut": "Cut of the principal amount deposited that is charged from students, in PPM",
          "cName": "Name this classroom",
          "cPCut": "Cut of the pooled returns from successful students, in PPM",
          "challenge": "Address to the challenge to be solved in this Classroom's courses",
          "duration": "Lock time between course opening and closing, in Timestamp",
          "entryPrice": "Required deposit to be applied as principal an locked for the duration of the course, in decimal units of DAI",
          "minScore": "Minimum score value required from students to be able to apply in this classroom"
        },
        "returns": {
          "_0": "the smart contract address for this Classroom instance in this University"
        }
      },
      "studentSelfRegister(bytes32)": {
        "params": {
          "sName": "Name of the Student"
        }
      },
      "subStudentScore(address,int32)": {
        "params": {
          "student": "Address of the Student",
          "val": "Value to be subtracted"
        }
      },
      "transferOwnership(address)": {
        "details": "Transfers ownership of the contract to a new account (`newOwner`). Can only be called by the current owner."
      },
      "updateAddresses(address,address,address,address,address,address,address,address,address)": {
        "params": {
          "classroomFactoryAddress": "Address of contract in the network",
          "daiAddress": "Address of contract in the network",
          "ensPublicResolverAddress": "Address of contract in the network",
          "ensReverseRegistrarAddress": "Address of contract in the network    ",
          "ensTestRegistrarAddress": "Address of contract in the network    ",
          "studentApplicationFactoryAddress": "Address of contract in the network",
          "studentFactoryAddress": "Address of contract in the network"
        }
      },
      "viewAllStudentGrantsFromGrantManager(address,address)": {
        "params": {
          "grantsManager": "Address of the Grants Manager",
          "student": "Address of the Student"
        },
        "returns": {
          "_0": "array of grant values"
        }
      },
      "viewAllStudentsFromGrantManager(address)": {
        "params": {
          "grantsManager": "Address of the Grants Manager"
        },
        "returns": {
          "_0": "array of Students addresses"
        }
      },
      "viewMyApplications()": {
        "returns": {
          "_0": "the address of the application of a Student"
        }
      },
      "viewMyStudentApplications(address)": {
        "returns": {
          "_0": "the address of the application of a Student, called from the owner"
        }
      },
      "viewStudentApplications(address)": {
        "params": {
          "addr": "Address of the student"
        },
        "returns": {
          "_0": "the addresses of the applications of a the supplied address"
        }
      }
    },
    "version": 1
  },
  "userdoc": {
    "events": {
      "LogChangeCut(uint24)": {
        "notice": "Records the changes in the Cut parameter"
      },
      "LogChangeName(bytes32)": {
        "notice": "Records the name changes of this University"
      },
      "LogDonation(address,uint256)": {
        "notice": "Records donations received and the address of the donor"
      },
      "LogNewClassroom(bytes32,address)": {
        "notice": "Records the name and address of every new classroom created"
      },
      "LogNewStudent(bytes32,address)": {
        "notice": "Records the name and address of every new student created"
      },
      "LogReceived(address,uint256)": {
        "notice": "Records ETH received"
      },
      "LogReturn(address,uint256)": {
        "notice": "Records investment returns received and the address of the caller"
      },
      "LogRevenue(address,uint256)": {
        "notice": "Records revenues received and the address of the souce"
      }
    },
    "kind": "user",
    "methods": {
      "CLASSROOM_PROFESSOR_ROLE()": {
        "notice": "CLASSROOM_PROFESSOR_ROLE can manage itself inside the University and registering student applications"
      },
      "REGISTERED_SUPPLIER_ROLE()": {
        "notice": "REGISTERED_SUPPLIER_ROLE can receive transactions to consume the operational budget"
      },
      "STUDENT_IDENTITY_ROLE()": {
        "notice": "STUDENT_IDENTITY_ROLE allow asking for grants and requesting a classroom from a successful application"
      },
      "UNIVERSITY_OVERSEER_ROLE()": {
        "notice": "UNIVERSITY_OVERSEER_ROLE can inspect Grant Managers and Fund Managers, and present cases for funders to vote upon"
      },
      "accountRevenue(uint256)": {
        "notice": "Classroom call to account a revenue received from a completed course"
      },
      "addStudentScore(address,int32)": {
        "notice": "Increase a Student's score upon successful application"
      },
      "appliedFunds()": {
        "notice": "Get the ammount of DAI applied in Fund"
      },
      "appliedFundsETH()": {
        "notice": "Get the ammount of ETH applied in Fund"
      },
      "applyFunds(uint256)": {
        "notice": "Allow managing the university Funds. Must be called from an appointed Funds Manager"
      },
      "applyFundsETH(uint256)": {
        "notice": "Allow managing the university Funds. Must be called from an appointed Funds Manager"
      },
      "attachFund(address)": {
        "notice": "Attach the University Fund after creation"
      },
      "changeCut(uint24)": {
        "notice": "Change the cut charged from the professors"
      },
      "changeName(bytes32)": {
        "notice": "Change the name of the University"
      },
      "changeStudentGSNDeposit(uint256)": {
        "notice": "Change the value of ETH deposited in students relay hub"
      },
      "constructor": "Constructor setup the basic variables",
      "decreaseOperationalBudget(uint256)": {
        "notice": "Allow managing how much Funds Manager can draw from funds to cover operational expenses. Must be called from the university admin"
      },
      "donateDAI(uint256)": {
        "notice": "Allow donating DAI to the University funds. Require allowing the University first"
      },
      "giveGrant(address,uint256)": {
        "notice": "Allow a Grants Manager to pay a Student's entry price for an application, if the appointed Grants Manager decide so"
      },
      "grantRoleFund(bytes32,address)": {
        "notice": "Grants role to account inside University Fund"
      },
      "increaseOperationalBudget(uint256)": {
        "notice": "Allow managing how much Funds Manager can draw from funds to cover operational expenses. Must be called from the university admin"
      },
      "newClassRoom(address,bytes32,uint24,uint24,int32,uint256,uint256,address)": {
        "notice": "Register function where an Admin can can create an instance of a Classroom in this University"
      },
      "recoverFunds(uint256)": {
        "notice": "Allow managing the university Funds. Must be called from an appointed Funds Manager"
      },
      "recoverFundsETH(uint256)": {
        "notice": "Allow managing the university Funds. Must be called from an appointed Funds Manager"
      },
      "registerStudentApplication(address,address)": {
        "notice": "Register and map a Student's application to this Student"
      },
      "reinvestReturns(uint256)": {
        "notice": "Allow a Funds Manager to redirect surplus funds from liquidated positions to the endowment locked value. Irreversible"
      },
      "revokeRoleFund(bytes32,address)": {
        "notice": "Revoke role from account inside University Fund"
      },
      "spendBudget(address,uint256)": {
        "notice": "Allow a Funds Manager to send funds to Registered Suppliers, spending the operational budget set by the University owner"
      },
      "studentRequestClassroom(address,bytes32,uint24,uint24,int32,uint256,uint256,address)": {
        "notice": "Register function where an Student can can create an instance of a Classroom in this University, upon being successful in any classroom"
      },
      "studentSelfRegister(bytes32)": {
        "notice": "Self-register function where an address can create an instance of a Student in this University"
      },
      "subStudentScore(address,int32)": {
        "notice": "Decrease a Student's score upon failed application"
      },
      "updateAddresses(address,address,address,address,address,address,address,address,address)": {
        "notice": "Update external contracts addresses"
      },
      "viewAllStudentGrantsFromGrantManager(address,address)": {
        "notice": "Allow an appointed Overseer to inspect all grants issued by a specific Grants Manager to a specific Student"
      },
      "viewAllStudentsFromGrantManager(address)": {
        "notice": "Allow an appointed Overseer to inspect all students that received grants by a specific Grants Manager"
      },
      "withdraw(uint256)": {
        "notice": "Withdraw ETH from the contract"
      }
    },
    "version": 1
  }
}