{
  "contractName": "UniversityFund",
  "abi": [
    {
      "inputs": [
        {
          "internalType": "address",
          "name": "university",
          "type": "address"
        },
        {
          "internalType": "address",
          "name": "daiAddress",
          "type": "address"
        },
        {
          "internalType": "address",
          "name": "compoundDAIAddress",
          "type": "address"
        },
        {
          "internalType": "address",
          "name": "comptrollerAddress",
          "type": "address"
        },
        {
          "internalType": "address",
          "name": "priceOracleAddress",
          "type": "address"
        },
        {
          "internalType": "address",
          "name": "lendingPoolAddressesProvider",
          "type": "address"
        }
      ],
      "stateMutability": "nonpayable",
      "type": "constructor"
    },
    {
      "anonymous": false,
      "inputs": [
        {
          "indexed": true,
          "internalType": "address",
          "name": "previousOwner",
          "type": "address"
        },
        {
          "indexed": true,
          "internalType": "address",
          "name": "newOwner",
          "type": "address"
        }
      ],
      "name": "OwnershipTransferred",
      "type": "event"
    },
    {
      "anonymous": false,
      "inputs": [
        {
          "indexed": true,
          "internalType": "bytes32",
          "name": "role",
          "type": "bytes32"
        },
        {
          "indexed": true,
          "internalType": "bytes32",
          "name": "previousAdminRole",
          "type": "bytes32"
        },
        {
          "indexed": true,
          "internalType": "bytes32",
          "name": "newAdminRole",
          "type": "bytes32"
        }
      ],
      "name": "RoleAdminChanged",
      "type": "event"
    },
    {
      "anonymous": false,
      "inputs": [
        {
          "indexed": true,
          "internalType": "bytes32",
          "name": "role",
          "type": "bytes32"
        },
        {
          "indexed": true,
          "internalType": "address",
          "name": "account",
          "type": "address"
        },
        {
          "indexed": true,
          "internalType": "address",
          "name": "sender",
          "type": "address"
        }
      ],
      "name": "RoleGranted",
      "type": "event"
    },
    {
      "anonymous": false,
      "inputs": [
        {
          "indexed": true,
          "internalType": "bytes32",
          "name": "role",
          "type": "bytes32"
        },
        {
          "indexed": true,
          "internalType": "address",
          "name": "account",
          "type": "address"
        },
        {
          "indexed": true,
          "internalType": "address",
          "name": "sender",
          "type": "address"
        }
      ],
      "name": "RoleRevoked",
      "type": "event"
    },
    {
      "inputs": [],
      "name": "DEFAULT_ADMIN_ROLE",
      "outputs": [
        {
          "internalType": "bytes32",
          "name": "",
          "type": "bytes32"
        }
      ],
      "stateMutability": "view",
      "type": "function"
    },
    {
      "inputs": [],
      "name": "FUNDS_MANAGER_ROLE",
      "outputs": [
        {
          "internalType": "bytes32",
          "name": "",
          "type": "bytes32"
        }
      ],
      "stateMutability": "view",
      "type": "function"
    },
    {
      "inputs": [],
      "name": "cDAI",
      "outputs": [
        {
          "internalType": "contract CERC20",
          "name": "",
          "type": "address"
        }
      ],
      "stateMutability": "view",
      "type": "function"
    },
    {
      "inputs": [],
      "name": "comptroller",
      "outputs": [
        {
          "internalType": "contract IComptroller",
          "name": "",
          "type": "address"
        }
      ],
      "stateMutability": "view",
      "type": "function"
    },
    {
      "inputs": [],
      "name": "daiToken",
      "outputs": [
        {
          "internalType": "contract IERC20",
          "name": "",
          "type": "address"
        }
      ],
      "stateMutability": "view",
      "type": "function"
    },
    {
      "inputs": [
        {
          "internalType": "bytes32",
          "name": "role",
          "type": "bytes32"
        }
      ],
      "name": "getRoleAdmin",
      "outputs": [
        {
          "internalType": "bytes32",
          "name": "",
          "type": "bytes32"
        }
      ],
      "stateMutability": "view",
      "type": "function"
    },
    {
      "inputs": [
        {
          "internalType": "bytes32",
          "name": "role",
          "type": "bytes32"
        },
        {
          "internalType": "uint256",
          "name": "index",
          "type": "uint256"
        }
      ],
      "name": "getRoleMember",
      "outputs": [
        {
          "internalType": "address",
          "name": "",
          "type": "address"
        }
      ],
      "stateMutability": "view",
      "type": "function"
    },
    {
      "inputs": [
        {
          "internalType": "bytes32",
          "name": "role",
          "type": "bytes32"
        }
      ],
      "name": "getRoleMemberCount",
      "outputs": [
        {
          "internalType": "uint256",
          "name": "",
          "type": "uint256"
        }
      ],
      "stateMutability": "view",
      "type": "function"
    },
    {
      "inputs": [
        {
          "internalType": "bytes32",
          "name": "role",
          "type": "bytes32"
        },
        {
          "internalType": "address",
          "name": "account",
          "type": "address"
        }
      ],
      "name": "grantRole",
      "outputs": [],
      "stateMutability": "nonpayable",
      "type": "function"
    },
    {
      "inputs": [
        {
          "internalType": "bytes32",
          "name": "role",
          "type": "bytes32"
        },
        {
          "internalType": "address",
          "name": "account",
          "type": "address"
        }
      ],
      "name": "hasRole",
      "outputs": [
        {
          "internalType": "bool",
          "name": "",
          "type": "bool"
        }
      ],
      "stateMutability": "view",
      "type": "function"
    },
    {
      "inputs": [],
      "name": "owner",
      "outputs": [
        {
          "internalType": "address",
          "name": "",
          "type": "address"
        }
      ],
      "stateMutability": "view",
      "type": "function"
    },
    {
      "inputs": [],
      "name": "priceOracle",
      "outputs": [
        {
          "internalType": "contract IPriceOracle",
          "name": "",
          "type": "address"
        }
      ],
      "stateMutability": "view",
      "type": "function"
    },
    {
      "inputs": [],
      "name": "renounceOwnership",
      "outputs": [],
      "stateMutability": "nonpayable",
      "type": "function"
    },
    {
      "inputs": [
        {
          "internalType": "bytes32",
          "name": "role",
          "type": "bytes32"
        },
        {
          "internalType": "address",
          "name": "account",
          "type": "address"
        }
      ],
      "name": "renounceRole",
      "outputs": [],
      "stateMutability": "nonpayable",
      "type": "function"
    },
    {
      "inputs": [
        {
          "internalType": "bytes32",
          "name": "role",
          "type": "bytes32"
        },
        {
          "internalType": "address",
          "name": "account",
          "type": "address"
        }
      ],
      "name": "revokeRole",
      "outputs": [],
      "stateMutability": "nonpayable",
      "type": "function"
    },
    {
      "inputs": [
        {
          "internalType": "address",
          "name": "newOwner",
          "type": "address"
        }
      ],
      "name": "transferOwnership",
      "outputs": [],
      "stateMutability": "nonpayable",
      "type": "function"
    },
    {
      "stateMutability": "payable",
      "type": "receive"
    },
    {
      "inputs": [
        {
          "internalType": "uint256",
          "name": "val",
          "type": "uint256"
        }
      ],
      "name": "withdraw",
      "outputs": [],
      "stateMutability": "nonpayable",
      "type": "function"
    },
    {
      "inputs": [],
      "name": "ownerFund",
      "outputs": [
        {
          "internalType": "address",
          "name": "",
          "type": "address"
        }
      ],
      "stateMutability": "view",
      "type": "function"
    },
    {
      "inputs": [
        {
          "internalType": "bytes32",
          "name": "role",
          "type": "bytes32"
        },
        {
          "internalType": "address",
          "name": "account",
          "type": "address"
        }
      ],
      "name": "grantRoleFund",
      "outputs": [],
      "stateMutability": "nonpayable",
      "type": "function"
    },
    {
      "inputs": [
        {
          "internalType": "bytes32",
          "name": "role",
          "type": "bytes32"
        },
        {
          "internalType": "address",
          "name": "account",
          "type": "address"
        }
      ],
      "name": "revokeRoleFund",
      "outputs": [],
      "stateMutability": "nonpayable",
      "type": "function"
    },
    {
      "inputs": [
        {
          "internalType": "uint256",
          "name": "val",
          "type": "uint256"
        }
      ],
      "name": "applyFundsCompound",
      "outputs": [],
      "stateMutability": "nonpayable",
      "type": "function"
    },
    {
      "inputs": [],
      "name": "appliedDAICompound",
      "outputs": [
        {
          "internalType": "uint256",
          "name": "",
          "type": "uint256"
        }
      ],
      "stateMutability": "view",
      "type": "function"
    },
    {
      "inputs": [
        {
          "internalType": "uint256",
          "name": "val",
          "type": "uint256"
        }
      ],
      "name": "recoverFundsCompound",
      "outputs": [],
      "stateMutability": "nonpayable",
      "type": "function"
    },
    {
      "inputs": [
        {
          "internalType": "uint256",
          "name": "val",
          "type": "uint256"
        }
      ],
      "name": "applyFundsAave",
      "outputs": [],
      "stateMutability": "nonpayable",
      "type": "function"
    },
    {
      "inputs": [],
      "name": "appliedDAIAave",
      "outputs": [
        {
          "internalType": "uint256",
          "name": "",
          "type": "uint256"
        }
      ],
      "stateMutability": "view",
      "type": "function"
    },
    {
      "inputs": [
        {
          "internalType": "uint256",
          "name": "val",
          "type": "uint256"
        }
      ],
      "name": "recoverFundsAave",
      "outputs": [],
      "stateMutability": "nonpayable",
      "type": "function"
    },
    {
      "inputs": [
        {
          "internalType": "bool",
          "name": "state",
          "type": "bool"
        }
      ],
      "name": "setAaveMarketCollateralForDAI",
      "outputs": [],
      "stateMutability": "nonpayable",
      "type": "function"
    },
    {
      "inputs": [
        {
          "internalType": "address",
          "name": "token",
          "type": "address"
        },
        {
          "internalType": "bool",
          "name": "state",
          "type": "bool"
        }
      ],
      "name": "setAaveMarketCollateral",
      "outputs": [],
      "stateMutability": "nonpayable",
      "type": "function"
    },
    {
      "inputs": [],
      "name": "enterCompoundDAIMarket",
      "outputs": [],
      "stateMutability": "nonpayable",
      "type": "function"
    },
    {
      "inputs": [
        {
          "internalType": "address",
          "name": "token",
          "type": "address"
        }
      ],
      "name": "enterCompoundMarket",
      "outputs": [],
      "stateMutability": "nonpayable",
      "type": "function"
    },
    {
      "inputs": [],
      "name": "exitCompoundDAIMarket",
      "outputs": [],
      "stateMutability": "nonpayable",
      "type": "function"
    },
    {
      "inputs": [
        {
          "internalType": "address",
          "name": "token",
          "type": "address"
        }
      ],
      "name": "exitCompoundMarket",
      "outputs": [],
      "stateMutability": "nonpayable",
      "type": "function"
    },
    {
      "inputs": [],
      "name": "getCompoundLiquidityAndShortfall",
      "outputs": [
        {
          "internalType": "uint256",
          "name": "",
          "type": "uint256"
        },
        {
          "internalType": "uint256",
          "name": "",
          "type": "uint256"
        }
      ],
      "stateMutability": "view",
      "type": "function"
    },
    {
      "inputs": [
        {
          "internalType": "address",
          "name": "cToken",
          "type": "address"
        }
      ],
      "name": "getCompoundPriceInWEI",
      "outputs": [
        {
          "internalType": "uint256",
          "name": "",
          "type": "uint256"
        }
      ],
      "stateMutability": "view",
      "type": "function"
    },
    {
      "inputs": [
        {
          "internalType": "address",
          "name": "cToken",
          "type": "address"
        }
      ],
      "name": "getCompoundMaxBorrowInWEI",
      "outputs": [
        {
          "internalType": "uint256",
          "name": "",
          "type": "uint256"
        }
      ],
      "stateMutability": "view",
      "type": "function"
    },
    {
      "inputs": [
        {
          "internalType": "address",
          "name": "cToken",
          "type": "address"
        },
        {
          "internalType": "uint256",
          "name": "val",
          "type": "uint256"
        }
      ],
      "name": "compoundBorrow",
      "outputs": [],
      "stateMutability": "nonpayable",
      "type": "function"
    },
    {
      "inputs": [
        {
          "internalType": "address",
          "name": "cToken",
          "type": "address"
        }
      ],
      "name": "compoundGetBorrow",
      "outputs": [
        {
          "internalType": "uint256",
          "name": "",
          "type": "uint256"
        }
      ],
      "stateMutability": "view",
      "type": "function"
    },
    {
      "inputs": [
        {
          "internalType": "address",
          "name": "token",
          "type": "address"
        },
        {
          "internalType": "address",
          "name": "cToken",
          "type": "address"
        },
        {
          "internalType": "uint256",
          "name": "val",
          "type": "uint256"
        }
      ],
      "name": "compoundRepayBorrow",
      "outputs": [],
      "stateMutability": "nonpayable",
      "type": "function"
    },
    {
      "inputs": [
        {
          "internalType": "address",
          "name": "token",
          "type": "address"
        },
        {
          "internalType": "uint256",
          "name": "val",
          "type": "uint256"
        },
        {
          "internalType": "bool",
          "name": "variableRate",
          "type": "bool"
        }
      ],
      "name": "aaveGetBorrow",
      "outputs": [],
      "stateMutability": "nonpayable",
      "type": "function"
    },
    {
      "inputs": [
        {
          "internalType": "address",
          "name": "token",
          "type": "address"
        },
        {
          "internalType": "uint256",
          "name": "val",
          "type": "uint256"
        }
      ],
      "name": "aaveRepayBorrow",
      "outputs": [],
      "stateMutability": "nonpayable",
      "type": "function"
    },
    {
      "inputs": [
        {
          "internalType": "address",
          "name": "token",
          "type": "address"
        }
      ],
      "name": "aaveSwapBorrowRateMode",
      "outputs": [],
      "stateMutability": "nonpayable",
      "type": "function"
    }
  ],
  "bytecode": "0x60806040523480156200001157600080fd5b5060405162002d7138038062002d71833981810160405260c08110156200003757600080fd5b508051602082015160408301516060840151608085015160a09095015193949293919290916000620000716001600160e01b036200036716565b600080546001600160a01b0319166001600160a01b03831690811782556040519293509160008051602062002d51833981519152908290a350620000be866001600160e01b036200036b16565b600980546001600160a01b0319166001600160a01b0387811691909117918290556040805163095ea7b360e01b81528983166004820152600160ff1b60248201529051929091169163095ea7b3916044808201926020929091908290030181600087803b1580156200012f57600080fd5b505af115801562000144573d6000803e3d6000fd5b505050506040513d60208110156200015b57600080fd5b506200017490506000876001600160e01b036200047216565b600280546001600160a01b03199081166001600160a01b038781169190911790925560038054821686841617905560048054821685841617815560058054909216848416179182905560408051630261bf8b60e01b815290519290931692630261bf8b9281830192602092829003018186803b158015620001f457600080fd5b505afa15801562000209573d6000803e3d6000fd5b505050506040513d60208110156200022057600080fd5b5051600680546001600160a01b0319166001600160a01b039283161790556005546040805163076b7fbb60e51b81529051919092169163ed6ff760916004808301926020929190829003018186803b1580156200027c57600080fd5b505afa15801562000291573d6000803e3d6000fd5b505050506040513d6020811015620002a857600080fd5b5051600780546001600160a01b0319166001600160a01b03928316179081905560095460408051631a59df7760e11b815291841660048301525191909216916334b3beee916024808301926020929190829003018186803b1580156200030d57600080fd5b505afa15801562000322573d6000803e3d6000fd5b505050506040513d60208110156200033957600080fd5b5051600880546001600160a01b0319166001600160a01b0390921691909117905550620005a8945050505050565b3390565b6200037e6001600160e01b036200036716565b6000546001600160a01b03908116911614620003e1576040805162461bcd60e51b815260206004820181905260248201527f4f776e61626c653a2063616c6c6572206973206e6f7420746865206f776e6572604482015290519081900360640190fd5b6001600160a01b038116620004285760405162461bcd60e51b815260040180806020018281038252602681526020018062002d2b6026913960400191505060405180910390fd5b600080546040516001600160a01b038085169392169160008051602062002d5183398151915291a3600080546001600160a01b0319166001600160a01b0392909216919091179055565b6200048782826001600160e01b036200048b16565b5050565b6000828152600160209081526040909120620004b291839062001f1c6200050f821b17901c565b156200048757620004cb6001600160e01b036200036716565b6001600160a01b0316816001600160a01b0316837f2f8788117e7eff1d82e926ec794901d17c78024a50270940304540a733656f0d60405160405180910390a45050565b60006200052f836001600160a01b0384166001600160e01b036200053816565b90505b92915050565b60006200054f83836001600160e01b036200059016565b620005875750815460018181018455600084815260208082209093018490558454848252828601909352604090209190915562000532565b50600062000532565b60009081526001919091016020526040902054151590565b61277380620005b86000396000f3fe60806040526004361061024a5760003560e01c80638038090611610139578063bb9f7b5c116100b6578063d547741f1161007a578063d547741f14610804578063d7f164f71461083d578063db85d2a414610876578063e1ba8597146108b7578063f2fde38b146108ea578063f686484a1461091d57610251565b8063bb9f7b5c14610762578063be22f5461461079b578063c4707a83146107b0578063ca15c873146107c5578063cef600d7146107ef57610251565b80639e1fcfde116100fd5780639e1fcfde14610699578063a217fddf146106ae578063a9edd445146106c3578063adcceca4146106f6578063b7af0d2d1461072957610251565b806380380906146105b35780638da5cb5b146105dd5780639010d07c146105f257806391d14854146106225780639b5dbe781461066f57610251565b806336568abe116101c75780636f6941b91161018b5780636f6941b914610505578063715018a61461051a57806372d6b84b1461052f57806379b4acff1461054457806380359c841461057057610251565b806336568abe14610463578063377ef77f1461049c5780633e1e9ce7146104c65780635caa8e2d146104db5780635fe3b567146104f057610251565b8063248a9ca31161020e578063248a9ca3146103725780632630c12f1461039c5780632e1a7d4d146103cd5780632f2ff15d146103f757806331eeae251461043057610251565b806308186df914610256578063139de7311461028457806314a2a307146102c15780631749201c146102f457806321ae32111461033957610251565b3661025157005b600080fd5b34801561026257600080fd5b5061026b610947565b6040805192835260208301919091528051918290030190f35b34801561029057600080fd5b506102bf600480360360408110156102a757600080fd5b506001600160a01b0381351690602001351515610a24565b005b3480156102cd57600080fd5b506102bf600480360360208110156102e457600080fd5b50356001600160a01b0316610b02565b34801561030057600080fd5b506103276004803603602081101561031757600080fd5b50356001600160a01b0316610bd1565b60408051918252519081900360200190f35b34801561034557600080fd5b506102bf6004803603604081101561035c57600080fd5b506001600160a01b038135169060200135610c8d565b34801561037e57600080fd5b506103276004803603602081101561039557600080fd5b5035610d6a565b3480156103a857600080fd5b506103b1610d7f565b604080516001600160a01b039092168252519081900360200190f35b3480156103d957600080fd5b506102bf600480360360208110156103f057600080fd5b5035610d8e565b34801561040357600080fd5b506102bf6004803603604081101561041a57600080fd5b50803590602001356001600160a01b0316610dfa565b34801561043c57600080fd5b506102bf6004803603602081101561045357600080fd5b50356001600160a01b0316610e61565b34801561046f57600080fd5b506102bf6004803603604081101561048657600080fd5b50803590602001356001600160a01b0316610f85565b3480156104a857600080fd5b506102bf600480360360208110156104bf57600080fd5b5035610fe6565b3480156104d257600080fd5b506103b16110ca565b3480156104e757600080fd5b506102bf6110d9565b3480156104fc57600080fd5b506103b16110f0565b34801561051157600080fd5b506103b16110ff565b34801561052657600080fd5b506102bf61110e565b34801561053b57600080fd5b506103276111b0565b34801561055057600080fd5b506102bf6004803603602081101561056757600080fd5b5035151561122c565b34801561057c57600080fd5b506102bf6004803603606081101561059357600080fd5b506001600160a01b03813581169160208101359091169060400135611242565b3480156105bf57600080fd5b506102bf600480360360208110156105d657600080fd5b50356113d6565b3480156105e957600080fd5b506103b16114a8565b3480156105fe57600080fd5b506103b16004803603604081101561061557600080fd5b50803590602001356114b7565b34801561062e57600080fd5b5061065b6004803603604081101561064557600080fd5b50803590602001356001600160a01b03166114de565b604080519115158252519081900360200190f35b34801561067b57600080fd5b506102bf6004803603602081101561069257600080fd5b50356114fc565b3480156106a557600080fd5b506102bf6115dd565b3480156106ba57600080fd5b506103276115f2565b3480156106cf57600080fd5b506102bf600480360360208110156106e657600080fd5b50356001600160a01b03166115f7565b34801561070257600080fd5b506103276004803603602081101561071957600080fd5b50356001600160a01b0316611846565b34801561073557600080fd5b506102bf6004803603604081101561074c57600080fd5b50803590602001356001600160a01b0316611928565b34801561076e57600080fd5b506102bf6004803603604081101561078557600080fd5b506001600160a01b038135169060200135611932565b3480156107a757600080fd5b506103b1611b2a565b3480156107bc57600080fd5b50610327611b39565b3480156107d157600080fd5b50610327600480360360208110156107e857600080fd5b5035611b5c565b3480156107fb57600080fd5b50610327611b73565b34801561081057600080fd5b506102bf6004803603604081101561082757600080fd5b50803590602001356001600160a01b0316611bbe565b34801561084957600080fd5b506102bf6004803603604081101561086057600080fd5b50803590602001356001600160a01b0316611c17565b34801561088257600080fd5b506102bf6004803603606081101561089957600080fd5b506001600160a01b0381351690602081013590604001351515611c21565b3480156108c357600080fd5b50610327600480360360208110156108da57600080fd5b50356001600160a01b0316611d1d565b3480156108f657600080fd5b506102bf6004803603602081101561090d57600080fd5b50356001600160a01b0316611d70565b34801561092957600080fd5b506102bf6004803603602081101561094057600080fd5b5035611e68565b60035460408051635ec88c7960e01b8152306004820152905160009283928392839283926001600160a01b0390911691635ec88c7991602480820192606092909190829003018186803b15801561099d57600080fd5b505afa1580156109b1573d6000803e3d6000fd5b505050506040513d60608110156109c757600080fd5b508051602082015160409092015190945090925090508215610a1a5760405162461bcd60e51b81526004018080602001828103825260338152602001806125e86033913960400191505060405180910390fd5b9093509150509091565b6040805160008051602061257083398151915281529051908190036012019020610a5590610a50611f31565b6114de565b610a905760405162461bcd60e51b81526004018080602001828103825260328152602001806125b66032913960400191505060405180910390fd5b60065460408051635a3b74b960e01b81526001600160a01b038581166004830152841515602483015291519190921691635a3b74b991604480830192600092919082900301818387803b158015610ae657600080fd5b505af1158015610afa573d6000803e3d6000fd5b505050505050565b6040805160008051602061257083398151915281529051908190036012019020610b2e90610a50611f31565b610b695760405162461bcd60e51b81526004018080602001828103825260328152602001806125b66032913960400191505060405180910390fd5b600654604080516248ca1360e81b81526001600160a01b038481166004830152915191909216916348ca130091602480830192600092919082900301818387803b158015610bb657600080fd5b505af1158015610bca573d6000803e3d6000fd5b5050505050565b600080610bdc610947565b509050610c86600460009054906101000a90046001600160a01b03166001600160a01b031663fc57d4df856040518263ffffffff1660e01b815260040180826001600160a01b03166001600160a01b0316815260200191505060206040518083038186803b158015610c4d57600080fd5b505afa158015610c61573d6000803e3d6000fd5b505050506040513d6020811015610c7757600080fd5b5051829063ffffffff611f3516565b9392505050565b6040805160008051602061257083398151915281529051908190036012019020610cb990610a50611f31565b610cf45760405162461bcd60e51b81526004018080602001828103825260328152602001806125b66032913960400191505060405180910390fd5b816001600160a01b031663c5ebeaec826040518263ffffffff1660e01b815260040180828152602001915050602060405180830381600087803b158015610d3a57600080fd5b505af1158015610d4e573d6000803e3d6000fd5b505050506040513d6020811015610d6457600080fd5b50505050565b60009081526001602052604090206002015490565b6004546001600160a01b031681565b610d96611f31565b6000546001600160a01b03908116911614610de6576040805162461bcd60e51b815260206004820181905260248201526000805160206126a0833981519152604482015290519081900360640190fd5b610df7610df16114a8565b82611f77565b50565b600082815260016020526040902060020154610e1890610a50611f31565b610e535760405162461bcd60e51b815260040180806020018281038252602f815260200180612541602f913960400191505060405180910390fd5b610e5d828261206a565b5050565b6040805160008051602061257083398151915281529051908190036012019020610e8d90610a50611f31565b610ec85760405162461bcd60e51b81526004018080602001828103825260328152602001806125b66032913960400191505060405180910390fd5b60035460408051630ede4edd60e41b81526001600160a01b0384811660048301529151600093929092169163ede4edd09160248082019260209290919082900301818787803b158015610f1a57600080fd5b505af1158015610f2e573d6000803e3d6000fd5b505050506040513d6020811015610f4457600080fd5b505190508015610e5d5760405162461bcd60e51b815260040180806020018281038252602a815260200180612646602a913960400191505060405180910390fd5b610f8d611f31565b6001600160a01b0316816001600160a01b031614610fdc5760405162461bcd60e51b815260040180806020018281038252602f81526020018061270f602f913960400191505060405180910390fd5b610e5d82826120d9565b604080516000805160206125708339815191528152905190819003601201902061101290610a50611f31565b61104d5760405162461bcd60e51b81526004018080602001828103825260328152602001806125b66032913960400191505060405180910390fd5b6002546040805163852a12e360e01b81526004810184905290516001600160a01b039092169163852a12e3916024808201926020929091908290030181600087803b15801561109b57600080fd5b505af11580156110af573d6000803e3d6000fd5b505050506040513d60208110156110c557600080fd5b505050565b60006110d46114a8565b905090565b6002546110ee906001600160a01b03166115f7565b565b6003546001600160a01b031681565b6002546001600160a01b031681565b611116611f31565b6000546001600160a01b03908116911614611166576040805162461bcd60e51b815260206004820181905260248201526000805160206126a0833981519152604482015290519081900360640190fd5b600080546040516001600160a01b03909116907f8be0079c531659141344cd1fd0a4f28419497f9722a3daafe3b4186f6b6457e0908390a3600080546001600160a01b0319169055565b60025460408051633af9e66960e01b815230600482015290516000926001600160a01b031691633af9e669916024808301926020929190829003018186803b1580156111fb57600080fd5b505afa15801561120f573d6000803e3d6000fd5b505050506040513d602081101561122557600080fd5b5051905090565b600954610df7906001600160a01b031682610a24565b604080516000805160206125708339815191528152905190819003601201902061126e90610a50611f31565b6112a95760405162461bcd60e51b81526004018080602001828103825260328152602001806125b66032913960400191505060405180910390fd5b604080516370a0823160e01b8152306004820152905182916001600160a01b038616916370a0823191602480820192602092909190829003018186803b1580156112f257600080fd5b505afa158015611306573d6000803e3d6000fd5b505050506040513d602081101561131c57600080fd5b5051101561135b5760405162461bcd60e51b815260040180806020018281038252602b81526020018061261b602b913960400191505060405180910390fd5b611366838383612148565b816001600160a01b0316630e752702826040518263ffffffff1660e01b815260040180828152602001915050602060405180830381600087803b1580156113ac57600080fd5b505af11580156113c0573d6000803e3d6000fd5b505050506040513d6020811015610bca57600080fd5b604080516000805160206125708339815191528152905190819003601201902061140290610a50611f31565b61143d5760405162461bcd60e51b81526004018080602001828103825260328152602001806125b66032913960400191505060405180910390fd5b60095460025461145a916001600160a01b03908116911683612148565b6002546040805163140e25ad60e31b81526004810184905290516001600160a01b039092169163a0712d68916024808201926020929091908290030181600087803b15801561109b57600080fd5b6000546001600160a01b031690565b60008281526001602052604081206114d5908363ffffffff6122ab16565b90505b92915050565b60008281526001602052604081206114d5908363ffffffff6122b716565b604080516000805160206125708339815191528152905190819003601201902061152890610a50611f31565b6115635760405162461bcd60e51b81526004018080602001828103825260328152602001806125b66032913960400191505060405180910390fd5b600954600754611580916001600160a01b03908116911683612148565b60065460095460408051636968703360e11b81526001600160a01b039283166004820152602481018590526000604482018190529151929093169263d2d0e066926064808301939282900301818387803b158015610bb657600080fd5b6002546110ee906001600160a01b0316610e61565b600081565b604080516000805160206125708339815191528152905190819003601201902061162390610a50611f31565b61165e5760405162461bcd60e51b81526004018080602001828103825260328152602001806125b66032913960400191505060405180910390fd5b60408051600180825281830190925260609160208083019080368337019050509050818160008151811061168e57fe5b6001600160a01b03928316602091820292909201810191909152600354604051631853304760e31b815260048101838152855160248301528551606095939093169363c29982389387938392604490910191858201910280838360005b838110156117035781810151838201526020016116eb565b5050505090500192505050600060405180830381600087803b15801561172857600080fd5b505af115801561173c573d6000803e3d6000fd5b505050506040513d6000823e601f3d908101601f19168201604052602081101561176557600080fd5b810190808051604051939291908464010000000082111561178557600080fd5b90830190602082018581111561179a57600080fd5b82518660208202830111640100000000821117156117b757600080fd5b82525081516020918201928201910280838360005b838110156117e45781810151838201526020016117cc565b5050505090500160405250505090508060008151811061180057fe5b60200260200101516000146110c55760405162461bcd60e51b815260040180806020018281038252602c8152602001806126c0602c913960400191505060405180910390fd5b604080516000805160206125708339815191528152905190819003601201902060009061187590610a50611f31565b6118b05760405162461bcd60e51b81526004018080602001828103825260328152602001806125b66032913960400191505060405180910390fd5b604080516305eff7ef60e21b815230600482015290516001600160a01b038416916317bfdfbc916024808301926020929190829003018186803b1580156118f657600080fd5b505afa15801561190a573d6000803e3d6000fd5b505050506040513d602081101561192057600080fd5b505192915050565b610e5d8282611bbe565b604080516000805160206125708339815191528152905190819003601201902061195e90610a50611f31565b6119995760405162461bcd60e51b81526004018080602001828103825260328152602001806125b66032913960400191505060405180910390fd5b604080516370a0823160e01b8152306004820152905182916001600160a01b038516916370a0823191602480820192602092909190829003018186803b1580156119e257600080fd5b505afa1580156119f6573d6000803e3d6000fd5b505050506040513d6020811015611a0c57600080fd5b50511015611a4b5760405162461bcd60e51b815260040180806020018281038252602b81526020018061261b602b913960400191505060405180910390fd5b611acf82600560009054906101000a90046001600160a01b03166001600160a01b031663ed6ff7606040518163ffffffff1660e01b815260040160206040518083038186803b158015611a9d57600080fd5b505afa158015611ab1573d6000803e3d6000fd5b505050506040513d6020811015611ac757600080fd5b505183612148565b6006546040805163173aba7160e21b81526001600160a01b0385811660048301526024820185905230604483015291519190921691635ceae9c491606480830192600092919082900301818387803b158015610ae657600080fd5b6009546001600160a01b031681565b604080516000805160206125708339815191528152905190819003601201902081565b60008181526001602052604081206114d8906122cc565b600854604080516370a0823160e01b815230600482015290516000926001600160a01b0316916370a08231916024808301926020929190829003018186803b1580156111fb57600080fd5b600082815260016020526040902060020154611bdc90610a50611f31565b610fdc5760405162461bcd60e51b81526004018080602001828103825260308152602001806126706030913960400191505060405180910390fd5b610e5d8282610dfa565b6040805160008051602061257083398151915281529051908190036012019020611c4d90610a50611f31565b611c885760405162461bcd60e51b81526004018080602001828103825260328152602001806125b66032913960400191505060405180910390fd5b600081611c96576001611c99565b60025b6006546040805163c858f5f960e01b81526001600160a01b0388811660048301526024820188905260ff8516604483015260006064830181905292519495509092169263c858f5f992608480820193929182900301818387803b158015611cff57600080fd5b505af1158015611d13573d6000803e3d6000fd5b5050505050505050565b600480546040805163fc57d4df60e01b81526001600160a01b038581169482019490945290516000939092169163fc57d4df91602480820192602092909190829003018186803b1580156118f657600080fd5b611d78611f31565b6000546001600160a01b03908116911614611dc8576040805162461bcd60e51b815260206004820181905260248201526000805160206126a0833981519152604482015290519081900360640190fd5b6001600160a01b038116611e0d5760405162461bcd60e51b81526004018080602001828103825260268152602001806125906026913960400191505060405180910390fd5b600080546040516001600160a01b03808516939216917f8be0079c531659141344cd1fd0a4f28419497f9722a3daafe3b4186f6b6457e091a3600080546001600160a01b0319166001600160a01b0392909216919091179055565b6040805160008051602061257083398151915281529051908190036012019020611e9490610a50611f31565b611ecf5760405162461bcd60e51b81526004018080602001828103825260328152602001806125b66032913960400191505060405180910390fd5b6008546040805163db006a7560e01b81526004810184905290516001600160a01b039092169163db006a759160248082019260009290919082900301818387803b158015610bb657600080fd5b60006114d5836001600160a01b0384166122d7565b3390565b60006114d583836040518060400160405280601a81526020017f536166654d6174683a206469766973696f6e206279207a65726f000000000000815250612321565b604080516000808252602082019092526001600160a01b0384169083906040518082805190602001908083835b60208310611fc35780518252601f199092019160209182019101611fa4565b6001836020036101000a03801982511681845116808217855250505050505090500191505060006040518083038185875af1925050503d8060008114612025576040519150601f19603f3d011682016040523d82523d6000602084013e61202a565b606091505b50509050806110c55760405162461bcd60e51b81526004018080602001828103825260238152602001806126ec6023913960400191505060405180910390fd5b6000828152600160205260409020612088908263ffffffff611f1c16565b15610e5d57612095611f31565b6001600160a01b0316816001600160a01b0316837f2f8788117e7eff1d82e926ec794901d17c78024a50270940304540a733656f0d60405160405180910390a45050565b60008281526001602052604090206120f7908263ffffffff6123c316565b15610e5d57612104611f31565b6001600160a01b0316816001600160a01b0316837ff6391f5c32d9c69d2a47ea670b442974b53935d1edc7fd64eb21e047a839171b60405160405180910390a45050565b604080516001600160a01b038481166024830152604480830185905283518084039091018152606490920183526020820180516001600160e01b031663095ea7b360e01b178152925182516000946060949389169392918291908083835b602083106121c55780518252601f1990920191602091820191016121a6565b6001836020036101000a0380198251168184511680821785525050505050509050019150506000604051808303816000865af19150503d8060008114612227576040519150601f19603f3d011682016040523d82523d6000602084013e61222c565b606091505b509150915081801561225a57508051158061225a575080806020019051602081101561225757600080fd5b50515b610bca576040805162461bcd60e51b815260206004820152601e60248201527f5472616e7366657248656c7065723a20415050524f56455f4641494c45440000604482015290519081900360640190fd5b60006114d583836123d8565b60006114d5836001600160a01b03841661243c565b60006114d882612454565b60006122e3838361243c565b612319575081546001818101845560008481526020808220909301849055845484825282860190935260409020919091556114d8565b5060006114d8565b600081836123ad5760405162461bcd60e51b81526004018080602001828103825283818151815260200191508051906020019080838360005b8381101561237257818101518382015260200161235a565b50505050905090810190601f16801561239f5780820380516001836020036101000a031916815260200191505b509250505060405180910390fd5b5060008385816123b957fe5b0495945050505050565b60006114d5836001600160a01b038416612458565b8154600090821061241a5760405162461bcd60e51b815260040180806020018281038252602281526020018061251f6022913960400191505060405180910390fd5b82600001828154811061242957fe5b9060005260206000200154905092915050565b60009081526001919091016020526040902054151590565b5490565b60008181526001830160205260408120548015612514578354600019808301919081019060009087908390811061248b57fe5b90600052602060002001549050808760000184815481106124a857fe5b6000918252602080832090910192909255828152600189810190925260409020908401905586548790806124d857fe5b600190038181906000526020600020016000905590558660010160008781526020019081526020016000206000905560019450505050506114d8565b60009150506114d856fe456e756d657261626c655365743a20696e646578206f7574206f6620626f756e6473416363657373436f6e74726f6c3a2073656e646572206d75737420626520616e2061646d696e20746f206772616e7446554e44535f4d414e414745525f524f4c4500000000000000000000000000004f776e61626c653a206e6577206f776e657220697320746865207a65726f2061646472657373556e69766572736974793a2063616c6c657220646f65736e277420686176652046554e44535f4d414e414745525f524f4c45556e69766572736974793a20436f6d7074726f6c6c65722e6765744163636f756e744c6971756964697479206661696c65642e556e69766572736974793a206e6f7420656e6f756768206f66207468697320746f6b656e2073746f726564556e69766572736974793a20436f6d7074726f6c6c65722e657869744d61726b6574206661696c65642e416363657373436f6e74726f6c3a2073656e646572206d75737420626520616e2061646d696e20746f207265766f6b654f776e61626c653a2063616c6c6572206973206e6f7420746865206f776e6572556e69766572736974793a20436f6d7074726f6c6c65722e656e7465724d61726b657473206661696c65642e5472616e7366657248656c7065723a204554485f5452414e534645525f4641494c4544416363657373436f6e74726f6c3a2063616e206f6e6c792072656e6f756e636520726f6c657320666f722073656c66a2646970667358221220f7a15aed9180452cfa7ba95303bb7b440ac63fcf343983e04f5be0e3a9daa85964736f6c634300060b00334f776e61626c653a206e6577206f776e657220697320746865207a65726f20616464726573738be0079c531659141344cd1fd0a4f28419497f9722a3daafe3b4186f6b6457e0",
  "immutableReferences": {},
  "source": "\r\n// SPDX-License-Identifier: GPL-3.0-or-later\r\npragma solidity ^0.6.11;\r\n\r\nimport \"@openzeppelin/contracts/math/SafeMath.sol\";\r\nimport \"@openzeppelin/contracts/access/AccessControl.sol\";\r\nimport \"@openzeppelin/contracts/access/Ownable.sol\";\r\nimport \"@openzeppelin/contracts/token/ERC20/IERC20.sol\";\r\nimport \"./interface/Aave/aToken.sol\";\r\nimport \"./interface/Aave/ILendingPool.sol\";\r\nimport \"./interface/Aave/ILendingPoolAddressesProvider.sol\";\r\nimport \"./interface/IUniversityFund.sol\";\r\nimport \"./interface/ICompound.sol\";\r\nimport \"./MyUtils.sol\";\r\n\r\ncontract UniversityFund is Ownable, AccessControl, IUniversityFund {\r\n    using SafeMath for uint256;\r\n\r\n    // FUNDS_MANAGER_ROLE can withdraw funds from the contract\r\n    bytes32 public constant FUNDS_MANAGER_ROLE = keccak256(\r\n        \"FUNDS_MANAGER_ROLE\"\r\n    );\r\n\r\n    //Compound Config\r\n    CERC20 public cDAI;\r\n    IComptroller public comptroller;\r\n    IPriceOracle public priceOracle;\r\n\r\n    //Aave Config\r\n    ILendingPoolAddressesProvider _aaveProvider;\r\n    ILendingPool _aaveLendingPool;\r\n    address _aaveLendingPoolCore;\r\n    address _aTokenDAI;\r\n\r\n    //Tokens\r\n    IERC20 public daiToken;\r\n\r\n    /// @param daiAddress Adress of contract in the network\r\n    constructor(\r\n        address university,\r\n        address daiAddress,\r\n        address compoundDAIAddress,\r\n        address comptrollerAddress,\r\n        address priceOracleAddress,\r\n        address lendingPoolAddressesProvider\r\n    ) public {\r\n        transferOwnership(university);\r\n        daiToken = IERC20(daiAddress);\r\n        IERC20(daiToken).approve(university, 2 ** 255);\r\n        _setupRole(DEFAULT_ADMIN_ROLE, university);\r\n        cDAI = CERC20(compoundDAIAddress);\r\n        comptroller = IComptroller(comptrollerAddress);\r\n        priceOracle = IPriceOracle(priceOracleAddress);\r\n        _aaveProvider = ILendingPoolAddressesProvider(lendingPoolAddressesProvider);\r\n        _aaveLendingPool = ILendingPool(_aaveProvider.getLendingPool());\r\n        _aaveLendingPoolCore = _aaveProvider.getLendingPoolCore();\r\n        _aTokenDAI = ILendingPoolCore(_aaveLendingPoolCore)\r\n            .getReserveATokenAddress(address(daiToken));\r\n    }\r\n\r\n    /// @notice Allow receiving ETH\r\n    receive() external payable {\r\n\r\n    }\r\n\r\n    /// @notice Allow taking ETH from the contract\r\n    function withdraw(uint256 val) public override onlyOwner {\r\n        TransferHelper.safeTransferETH(owner(), val);\r\n    }\r\n\r\n    /// @notice Allow view Owner\r\n    /// @return address of Owner\r\n    function ownerFund() public view override returns(address) {\r\n        return owner();\r\n    }\r\n\r\n    /// @notice Grants role to account inside University Fund\r\n    function grantRoleFund(bytes32 role, address account) public override {\r\n        grantRole(role, account);\r\n    }\r\n\r\n    /// @notice Revoke role from account inside University Fund\r\n    function revokeRoleFund(bytes32 role, address account) public override {\r\n        revokeRole(role, account);\r\n    }\r\n\r\n    /// @notice Allow managing the university Funds. Must be called from an appointed Funds Manager\r\n    function applyFundsCompound(uint256 val) public override {\r\n        require(\r\n            hasRole(FUNDS_MANAGER_ROLE, _msgSender()),\r\n            \"University: caller doesn't have FUNDS_MANAGER_ROLE\"\r\n        );\r\n        TransferHelper.safeApprove(address(daiToken), address(cDAI), val);\r\n        cDAI.mint(val);\r\n    }\r\n\r\n    /// @notice Get the ammount of DAI applied in Compound\r\n    /// @return ammount of DAI applied in Compound\r\n    function appliedDAICompound() public view override returns (uint256) {\r\n        return cDAI.balanceOfUnderlying(address(this));\r\n    }\r\n\r\n    /// @notice Allow managing the university Funds. Must be called from an appointed Funds Manager\r\n    function recoverFundsCompound(uint256 val) public override {\r\n        require(\r\n            hasRole(FUNDS_MANAGER_ROLE, _msgSender()),\r\n            \"University: caller doesn't have FUNDS_MANAGER_ROLE\"\r\n        );\r\n        cDAI.redeemUnderlying(val);\r\n    }\r\n\r\n    /// @notice Allow managing the university Funds. Must be called from an appointed Funds Manager\r\n    function applyFundsAave(uint256 val) public override {\r\n        require(\r\n            hasRole(FUNDS_MANAGER_ROLE, _msgSender()),\r\n            \"University: caller doesn't have FUNDS_MANAGER_ROLE\"\r\n        );\r\n        TransferHelper.safeApprove(address(daiToken), _aaveLendingPoolCore, val);\r\n        _aaveLendingPool.deposit(address(daiToken), val, 0);\r\n    }\r\n\r\n    /// @notice Get the ammount of DAI applied in Aave\r\n    /// @return ammount of DAI applied in Aave\r\n    function appliedDAIAave() public view override returns (uint256) {\r\n        return aToken(_aTokenDAI).balanceOf(address(this));\r\n    }\r\n\r\n    /// @notice Allow managing the university Funds. Must be called from an appointed Funds Manager\r\n    function recoverFundsAave(uint256 val) public override {\r\n        require(\r\n            hasRole(FUNDS_MANAGER_ROLE, _msgSender()),\r\n            \"University: caller doesn't have FUNDS_MANAGER_ROLE\"\r\n        );\r\n        aToken(_aTokenDAI).redeem(val);\r\n    }\r\n\r\n    /// @notice Allow managing the university Funds. Must be called from an appointed Funds Manager\r\n    function setAaveMarketCollateralForDAI(bool state) public override {\r\n        setAaveMarketCollateral(address(daiToken), state);\r\n    }\r\n\r\n    /// @notice Allow managing the university Funds. Must be called from an appointed Funds Manager\r\n    function setAaveMarketCollateral(address token, bool state) public override {\r\n        require(\r\n            hasRole(FUNDS_MANAGER_ROLE, _msgSender()),\r\n            \"University: caller doesn't have FUNDS_MANAGER_ROLE\"\r\n        );\r\n        _aaveLendingPool.setUserUseReserveAsCollateral(token, state);\r\n    }\r\n\r\n    /// @notice Allow managing the university Funds. Must be called from an appointed Funds Manager\r\n    function enterCompoundDAIMarket() public override {\r\n        enterCompoundMarket(address(cDAI));\r\n    }\r\n\r\n    /// @notice Allow managing the university Funds. Must be called from an appointed Funds Manager\r\n    function enterCompoundMarket(address token) public override {\r\n        require(\r\n            hasRole(FUNDS_MANAGER_ROLE, _msgSender()),\r\n            \"University: caller doesn't have FUNDS_MANAGER_ROLE\"\r\n        );\r\n        address[] memory cTokens = new address[](1);\r\n        cTokens[0] = token;\r\n        uint256[] memory errors = comptroller.enterMarkets(cTokens);\r\n        if (errors[0] != 0) {\r\n            revert(\"University: Comptroller.enterMarkets failed.\");\r\n        }\r\n    }\r\n\r\n    /// @notice Allow managing the university Funds. Must be called from an appointed Funds Manager\r\n    function exitCompoundDAIMarket() public override {\r\n        exitCompoundMarket(address(cDAI));\r\n    }\r\n\r\n    /// @notice Allow managing the university Funds. Must be called from an appointed Funds Manager\r\n    function exitCompoundMarket(address token) public override {\r\n        require(\r\n            hasRole(FUNDS_MANAGER_ROLE, _msgSender()),\r\n            \"University: caller doesn't have FUNDS_MANAGER_ROLE\"\r\n        );\r\n        uint256 error = comptroller.exitMarket(token);\r\n        if (error != 0) {\r\n            revert(\"University: Comptroller.exitMarket failed.\");\r\n        }\r\n    }\r\n\r\n    /// @notice Get the liquidity state in Compound\r\n    /// @return liquidity and/or shortfall in ETH, expressed in WEI\r\n    function getCompoundLiquidityAndShortfall() \r\n        public \r\n        view \r\n        override\r\n        returns (uint256, uint256) {\r\n        (uint256 error, uint256 liquidity, uint256 shortfall) = \r\n            comptroller\r\n            .getAccountLiquidity(address(this));\r\n        if (error != 0) {\r\n            revert(\"University: Comptroller.getAccountLiquidity failed.\");\r\n        }\r\n        return (liquidity, shortfall);\r\n    }\r\n\r\n    /// @notice Get the price from a specific token in Compound\r\n    /// @param cToken Compound token address to query\r\n    /// @return price in ETH, expressed in WEI\r\n    function getCompoundPriceInWEI(address cToken) \r\n        public \r\n        view \r\n        override\r\n        returns (uint256) {\r\n        return priceOracle.getUnderlyingPrice(cToken);\r\n    }\r\n\r\n    /// @notice Get the maximum volume of tokens to borrow in Compound\r\n    /// @param cToken Compound token address to query\r\n    /// @return maximum borrow volume, expressed in WEI\r\n    /// @dev Borrowing the maximum amount may lead to intant liquidation. Always borrow less than the maximum\r\n    function getCompoundMaxBorrowInWEI(address cToken) \r\n        public \r\n        view \r\n        override\r\n        returns (uint256) {\r\n        (uint256 liquidity, ) = getCompoundLiquidityAndShortfall();\r\n        return liquidity.div(priceOracle.getUnderlyingPrice(cToken));\r\n    }\r\n\r\n    /// @notice Allow managing the university Funds. Must be called from an appointed Funds Manager\r\n    function compoundBorrow(address cToken, uint256 val) \r\n        public \r\n        override {\r\n        require(\r\n            hasRole(FUNDS_MANAGER_ROLE, _msgSender()),\r\n            \"University: caller doesn't have FUNDS_MANAGER_ROLE\"\r\n        );\r\n        CERC20(cToken).borrow(val);\r\n    }\r\n\r\n    /// @notice Allow managing the university Funds. Must be called from an appointed Funds Manager\r\n    function compoundGetBorrow(address cToken) \r\n        public \r\n        view \r\n        override\r\n        returns (uint256) {\r\n        require(\r\n            hasRole(FUNDS_MANAGER_ROLE, _msgSender()),\r\n            \"University: caller doesn't have FUNDS_MANAGER_ROLE\"\r\n        );\r\n        return CERC20(cToken).borrowBalanceCurrent(address(this));\r\n    }\r\n\r\n    /// @notice Allow managing the university Funds. Must be called from an appointed Funds Manager\r\n    function compoundRepayBorrow(address token, address cToken, uint256 val)\r\n        public \r\n        override {\r\n        require(\r\n            hasRole(FUNDS_MANAGER_ROLE, _msgSender()),\r\n            \"University: caller doesn't have FUNDS_MANAGER_ROLE\"\r\n        );\r\n        require(\r\n            IERC20(token).balanceOf(address(this)) >= val,\r\n            \"University: not enough of this token stored\"\r\n        );\r\n        TransferHelper.safeApprove(token, cToken, val);\r\n        CERC20(cToken).repayBorrow(val);\r\n    }\r\n\r\n    /// @notice Allow managing the university Funds. Must be called from an appointed Funds Manager\r\n    function aaveGetBorrow(address token, uint256 val, bool variableRate) public override {\r\n        require(\r\n            hasRole(FUNDS_MANAGER_ROLE, _msgSender()),\r\n            \"University: caller doesn't have FUNDS_MANAGER_ROLE\"\r\n        );\r\n        uint8 vRate = variableRate ? 2 : 1;\r\n        _aaveLendingPool.borrow(token, val, vRate, 0);\r\n    }\r\n\r\n    /// @notice Allow managing the university Funds. Must be called from an appointed Funds Manager\r\n    function aaveRepayBorrow(address token, uint256 val)\r\n        public \r\n        override {\r\n        require(\r\n            hasRole(FUNDS_MANAGER_ROLE, _msgSender()),\r\n            \"University: caller doesn't have FUNDS_MANAGER_ROLE\"\r\n        );\r\n        require(\r\n            IERC20(token).balanceOf(address(this)) >= val,\r\n            \"University: not enough of this token stored\"\r\n        );\r\n        TransferHelper.safeApprove(token, _aaveProvider.getLendingPoolCore(), val);\r\n        _aaveLendingPool.repay(token, val, address(this));\r\n    }\r\n\r\n    /// @notice Allow managing the university Funds. Must be called from an appointed Funds Manager\r\n    function aaveSwapBorrowRateMode(address token) public override {\r\n        require(\r\n            hasRole(FUNDS_MANAGER_ROLE, _msgSender()),\r\n            \"University: caller doesn't have FUNDS_MANAGER_ROLE\"\r\n        );\r\n        _aaveLendingPool.swapBorrowRateMode(token);\r\n    }\r\n}\r\n",
  "sourcePath": "/mnt/e/Repositories/uproot-trustless-contracts/contracts/UniversityFund.sol",
  "compiler": {
    "name": "solc",
    "version": "0.6.11+commit.5ef660b1.Emscripten.clang"
  },
  "schemaVersion": "3.1.0",
  "updatedAt": "2020-07-09T20:27:12.344Z",
  "devdoc": {
    "kind": "dev",
    "methods": {
      "appliedDAIAave()": {
        "returns": {
          "_0": "ammount of DAI applied in Aave"
        }
      },
      "appliedDAICompound()": {
        "returns": {
          "_0": "ammount of DAI applied in Compound"
        }
      },
      "constructor": {
        "params": {
          "daiAddress": "Adress of contract in the network"
        }
      },
      "getCompoundLiquidityAndShortfall()": {
        "returns": {
          "_0": "liquidity and/or shortfall in ETH, expressed in WEI"
        }
      },
      "getCompoundMaxBorrowInWEI(address)": {
        "details": "Borrowing the maximum amount may lead to intant liquidation. Always borrow less than the maximum",
        "params": {
          "cToken": "Compound token address to query"
        },
        "returns": {
          "_0": "maximum borrow volume, expressed in WEI"
        }
      },
      "getCompoundPriceInWEI(address)": {
        "params": {
          "cToken": "Compound token address to query"
        },
        "returns": {
          "_0": "price in ETH, expressed in WEI"
        }
      },
      "getRoleAdmin(bytes32)": {
        "details": "Returns the admin role that controls `role`. See {grantRole} and {revokeRole}. To change a role's admin, use {_setRoleAdmin}."
      },
      "getRoleMember(bytes32,uint256)": {
        "details": "Returns one of the accounts that have `role`. `index` must be a value between 0 and {getRoleMemberCount}, non-inclusive. Role bearers are not sorted in any particular way, and their ordering may change at any point. WARNING: When using {getRoleMember} and {getRoleMemberCount}, make sure you perform all queries on the same block. See the following https://forum.openzeppelin.com/t/iterating-over-elements-on-enumerableset-in-openzeppelin-contracts/2296[forum post] for more information."
      },
      "getRoleMemberCount(bytes32)": {
        "details": "Returns the number of accounts that have `role`. Can be used together with {getRoleMember} to enumerate all bearers of a role."
      },
      "grantRole(bytes32,address)": {
        "details": "Grants `role` to `account`. If `account` had not been already granted `role`, emits a {RoleGranted} event. Requirements: - the caller must have ``role``'s admin role."
      },
      "hasRole(bytes32,address)": {
        "details": "Returns `true` if `account` has been granted `role`."
      },
      "owner()": {
        "details": "Returns the address of the current owner."
      },
      "ownerFund()": {
        "returns": {
          "_0": "address of Owner"
        }
      },
      "renounceOwnership()": {
        "details": "Leaves the contract without owner. It will not be possible to call `onlyOwner` functions anymore. Can only be called by the current owner. NOTE: Renouncing ownership will leave the contract without an owner, thereby removing any functionality that is only available to the owner."
      },
      "renounceRole(bytes32,address)": {
        "details": "Revokes `role` from the calling account. Roles are often managed via {grantRole} and {revokeRole}: this function's purpose is to provide a mechanism for accounts to lose their privileges if they are compromised (such as when a trusted device is misplaced). If the calling account had been granted `role`, emits a {RoleRevoked} event. Requirements: - the caller must be `account`."
      },
      "revokeRole(bytes32,address)": {
        "details": "Revokes `role` from `account`. If `account` had been granted `role`, emits a {RoleRevoked} event. Requirements: - the caller must have ``role``'s admin role."
      },
      "transferOwnership(address)": {
        "details": "Transfers ownership of the contract to a new account (`newOwner`). Can only be called by the current owner."
      }
    },
    "version": 1
  },
  "userdoc": {
    "kind": "user",
    "methods": {
      "aaveGetBorrow(address,uint256,bool)": {
        "notice": "Allow managing the university Funds. Must be called from an appointed Funds Manager"
      },
      "aaveRepayBorrow(address,uint256)": {
        "notice": "Allow managing the university Funds. Must be called from an appointed Funds Manager"
      },
      "aaveSwapBorrowRateMode(address)": {
        "notice": "Allow managing the university Funds. Must be called from an appointed Funds Manager"
      },
      "appliedDAIAave()": {
        "notice": "Get the ammount of DAI applied in Aave"
      },
      "appliedDAICompound()": {
        "notice": "Get the ammount of DAI applied in Compound"
      },
      "applyFundsAave(uint256)": {
        "notice": "Allow managing the university Funds. Must be called from an appointed Funds Manager"
      },
      "applyFundsCompound(uint256)": {
        "notice": "Allow managing the university Funds. Must be called from an appointed Funds Manager"
      },
      "compoundBorrow(address,uint256)": {
        "notice": "Allow managing the university Funds. Must be called from an appointed Funds Manager"
      },
      "compoundGetBorrow(address)": {
        "notice": "Allow managing the university Funds. Must be called from an appointed Funds Manager"
      },
      "compoundRepayBorrow(address,address,uint256)": {
        "notice": "Allow managing the university Funds. Must be called from an appointed Funds Manager"
      },
      "enterCompoundDAIMarket()": {
        "notice": "Allow managing the university Funds. Must be called from an appointed Funds Manager"
      },
      "enterCompoundMarket(address)": {
        "notice": "Allow managing the university Funds. Must be called from an appointed Funds Manager"
      },
      "exitCompoundDAIMarket()": {
        "notice": "Allow managing the university Funds. Must be called from an appointed Funds Manager"
      },
      "exitCompoundMarket(address)": {
        "notice": "Allow managing the university Funds. Must be called from an appointed Funds Manager"
      },
      "getCompoundLiquidityAndShortfall()": {
        "notice": "Get the liquidity state in Compound"
      },
      "getCompoundMaxBorrowInWEI(address)": {
        "notice": "Get the maximum volume of tokens to borrow in Compound"
      },
      "getCompoundPriceInWEI(address)": {
        "notice": "Get the price from a specific token in Compound"
      },
      "grantRoleFund(bytes32,address)": {
        "notice": "Grants role to account inside University Fund"
      },
      "ownerFund()": {
        "notice": "Allow view Owner"
      },
      "recoverFundsAave(uint256)": {
        "notice": "Allow managing the university Funds. Must be called from an appointed Funds Manager"
      },
      "recoverFundsCompound(uint256)": {
        "notice": "Allow managing the university Funds. Must be called from an appointed Funds Manager"
      },
      "revokeRoleFund(bytes32,address)": {
        "notice": "Revoke role from account inside University Fund"
      },
      "setAaveMarketCollateral(address,bool)": {
        "notice": "Allow managing the university Funds. Must be called from an appointed Funds Manager"
      },
      "setAaveMarketCollateralForDAI(bool)": {
        "notice": "Allow managing the university Funds. Must be called from an appointed Funds Manager"
      },
      "withdraw(uint256)": {
        "notice": "Allow taking ETH from the contract"
      }
    },
    "version": 1
  }
}