{
  "contractName": "University",
  "abi": [
    {
      "inputs": [
        {
          "internalType": "bytes32",
          "name": "name_",
          "type": "bytes32"
        },
        {
          "internalType": "uint24",
          "name": "cut_",
          "type": "uint24"
        },
        {
          "internalType": "address",
          "name": "daiAddress",
          "type": "address"
        },
        {
          "internalType": "address",
          "name": "compoundDai",
          "type": "address"
        },
        {
          "internalType": "address",
          "name": "classroomFactoryAddress",
          "type": "address"
        },
        {
          "internalType": "address",
          "name": "studentFactoryAddress",
          "type": "address"
        },
        {
          "internalType": "address",
          "name": "studentApplicationFactoryAddress",
          "type": "address"
        },
        {
          "internalType": "address",
          "name": "ensContractAddress",
          "type": "address"
        },
        {
          "internalType": "address",
          "name": "ensRegistrarAddress",
          "type": "address"
        },
        {
          "internalType": "address",
          "name": "ensPublicResolverAddress",
          "type": "address"
        },
        {
          "internalType": "address",
          "name": "ensReverseRegistrarAddress",
          "type": "address"
        }
      ],
      "stateMutability": "nonpayable",
      "type": "constructor"
    },
    {
      "anonymous": false,
      "inputs": [
        {
          "indexed": false,
          "internalType": "uint24",
          "name": "",
          "type": "uint24"
        }
      ],
      "name": "LogChangeCut",
      "type": "event"
    },
    {
      "anonymous": false,
      "inputs": [
        {
          "indexed": false,
          "internalType": "bytes32",
          "name": "",
          "type": "bytes32"
        }
      ],
      "name": "LogChangeName",
      "type": "event"
    },
    {
      "anonymous": false,
      "inputs": [
        {
          "indexed": false,
          "internalType": "address",
          "name": "",
          "type": "address"
        },
        {
          "indexed": false,
          "internalType": "uint256",
          "name": "",
          "type": "uint256"
        }
      ],
      "name": "LogDonation",
      "type": "event"
    },
    {
      "anonymous": false,
      "inputs": [
        {
          "indexed": false,
          "internalType": "bytes32",
          "name": "",
          "type": "bytes32"
        },
        {
          "indexed": false,
          "internalType": "address",
          "name": "",
          "type": "address"
        }
      ],
      "name": "LogNewClassroom",
      "type": "event"
    },
    {
      "anonymous": false,
      "inputs": [
        {
          "indexed": false,
          "internalType": "bytes32",
          "name": "",
          "type": "bytes32"
        },
        {
          "indexed": false,
          "internalType": "address",
          "name": "",
          "type": "address"
        }
      ],
      "name": "LogNewStudent",
      "type": "event"
    },
    {
      "anonymous": false,
      "inputs": [
        {
          "indexed": false,
          "internalType": "address",
          "name": "",
          "type": "address"
        },
        {
          "indexed": false,
          "internalType": "uint256",
          "name": "",
          "type": "uint256"
        }
      ],
      "name": "LogReceived",
      "type": "event"
    },
    {
      "anonymous": false,
      "inputs": [
        {
          "indexed": false,
          "internalType": "address",
          "name": "",
          "type": "address"
        },
        {
          "indexed": false,
          "internalType": "uint256",
          "name": "",
          "type": "uint256"
        }
      ],
      "name": "LogReturn",
      "type": "event"
    },
    {
      "anonymous": false,
      "inputs": [
        {
          "indexed": false,
          "internalType": "address",
          "name": "",
          "type": "address"
        },
        {
          "indexed": false,
          "internalType": "uint256",
          "name": "",
          "type": "uint256"
        }
      ],
      "name": "LogRevenue",
      "type": "event"
    },
    {
      "anonymous": false,
      "inputs": [
        {
          "indexed": true,
          "internalType": "address",
          "name": "previousOwner",
          "type": "address"
        },
        {
          "indexed": true,
          "internalType": "address",
          "name": "newOwner",
          "type": "address"
        }
      ],
      "name": "OwnershipTransferred",
      "type": "event"
    },
    {
      "anonymous": false,
      "inputs": [
        {
          "indexed": true,
          "internalType": "bytes32",
          "name": "role",
          "type": "bytes32"
        },
        {
          "indexed": true,
          "internalType": "bytes32",
          "name": "previousAdminRole",
          "type": "bytes32"
        },
        {
          "indexed": true,
          "internalType": "bytes32",
          "name": "newAdminRole",
          "type": "bytes32"
        }
      ],
      "name": "RoleAdminChanged",
      "type": "event"
    },
    {
      "anonymous": false,
      "inputs": [
        {
          "indexed": true,
          "internalType": "bytes32",
          "name": "role",
          "type": "bytes32"
        },
        {
          "indexed": true,
          "internalType": "address",
          "name": "account",
          "type": "address"
        },
        {
          "indexed": true,
          "internalType": "address",
          "name": "sender",
          "type": "address"
        }
      ],
      "name": "RoleGranted",
      "type": "event"
    },
    {
      "anonymous": false,
      "inputs": [
        {
          "indexed": true,
          "internalType": "bytes32",
          "name": "role",
          "type": "bytes32"
        },
        {
          "indexed": true,
          "internalType": "address",
          "name": "account",
          "type": "address"
        },
        {
          "indexed": true,
          "internalType": "address",
          "name": "sender",
          "type": "address"
        }
      ],
      "name": "RoleRevoked",
      "type": "event"
    },
    {
      "inputs": [],
      "name": "CLASSLIST_ADMIN_ROLE",
      "outputs": [
        {
          "internalType": "bytes32",
          "name": "",
          "type": "bytes32"
        }
      ],
      "stateMutability": "view",
      "type": "function",
      "constant": true
    },
    {
      "inputs": [],
      "name": "CLASSROOM_PROFESSOR_ROLE",
      "outputs": [
        {
          "internalType": "bytes32",
          "name": "",
          "type": "bytes32"
        }
      ],
      "stateMutability": "view",
      "type": "function",
      "constant": true
    },
    {
      "inputs": [],
      "name": "DEFAULT_ADMIN_ROLE",
      "outputs": [
        {
          "internalType": "bytes32",
          "name": "",
          "type": "bytes32"
        }
      ],
      "stateMutability": "view",
      "type": "function",
      "constant": true
    },
    {
      "inputs": [],
      "name": "FUNDS_MANAGER_ROLE",
      "outputs": [
        {
          "internalType": "bytes32",
          "name": "",
          "type": "bytes32"
        }
      ],
      "stateMutability": "view",
      "type": "function",
      "constant": true
    },
    {
      "inputs": [],
      "name": "GRANTS_MANAGER_ROLE",
      "outputs": [
        {
          "internalType": "bytes32",
          "name": "",
          "type": "bytes32"
        }
      ],
      "stateMutability": "view",
      "type": "function",
      "constant": true
    },
    {
      "inputs": [],
      "name": "REGISTERED_SUPPLIER_ROLE",
      "outputs": [
        {
          "internalType": "bytes32",
          "name": "",
          "type": "bytes32"
        }
      ],
      "stateMutability": "view",
      "type": "function",
      "constant": true
    },
    {
      "inputs": [],
      "name": "STUDENT_IDENTITY_ROLE",
      "outputs": [
        {
          "internalType": "bytes32",
          "name": "",
          "type": "bytes32"
        }
      ],
      "stateMutability": "view",
      "type": "function",
      "constant": true
    },
    {
      "inputs": [],
      "name": "UNIVERSITY_OVERSEER_ROLE",
      "outputs": [
        {
          "internalType": "bytes32",
          "name": "",
          "type": "bytes32"
        }
      ],
      "stateMutability": "view",
      "type": "function",
      "constant": true
    },
    {
      "inputs": [],
      "name": "cDAI",
      "outputs": [
        {
          "internalType": "address",
          "name": "",
          "type": "address"
        }
      ],
      "stateMutability": "view",
      "type": "function",
      "constant": true
    },
    {
      "inputs": [
        {
          "internalType": "uint256",
          "name": "",
          "type": "uint256"
        }
      ],
      "name": "classList",
      "outputs": [
        {
          "internalType": "address",
          "name": "",
          "type": "address"
        }
      ],
      "stateMutability": "view",
      "type": "function",
      "constant": true
    },
    {
      "inputs": [],
      "name": "classroomFactory",
      "outputs": [
        {
          "internalType": "address",
          "name": "",
          "type": "address"
        }
      ],
      "stateMutability": "view",
      "type": "function",
      "constant": true
    },
    {
      "inputs": [],
      "name": "cut",
      "outputs": [
        {
          "internalType": "uint24",
          "name": "",
          "type": "uint24"
        }
      ],
      "stateMutability": "view",
      "type": "function",
      "constant": true
    },
    {
      "inputs": [],
      "name": "daiToken",
      "outputs": [
        {
          "internalType": "address",
          "name": "",
          "type": "address"
        }
      ],
      "stateMutability": "view",
      "type": "function",
      "constant": true
    },
    {
      "inputs": [],
      "name": "donationsReceived",
      "outputs": [
        {
          "internalType": "uint256",
          "name": "",
          "type": "uint256"
        }
      ],
      "stateMutability": "view",
      "type": "function",
      "constant": true
    },
    {
      "inputs": [
        {
          "internalType": "address",
          "name": "",
          "type": "address"
        }
      ],
      "name": "donators",
      "outputs": [
        {
          "internalType": "uint256",
          "name": "",
          "type": "uint256"
        }
      ],
      "stateMutability": "view",
      "type": "function",
      "constant": true
    },
    {
      "inputs": [],
      "name": "endowmentLocked",
      "outputs": [
        {
          "internalType": "uint256",
          "name": "",
          "type": "uint256"
        }
      ],
      "stateMutability": "view",
      "type": "function",
      "constant": true
    },
    {
      "inputs": [],
      "name": "ensContract",
      "outputs": [
        {
          "internalType": "address",
          "name": "",
          "type": "address"
        }
      ],
      "stateMutability": "view",
      "type": "function",
      "constant": true
    },
    {
      "inputs": [],
      "name": "ensPublicResolver",
      "outputs": [
        {
          "internalType": "address",
          "name": "",
          "type": "address"
        }
      ],
      "stateMutability": "view",
      "type": "function",
      "constant": true
    },
    {
      "inputs": [],
      "name": "ensRegistrar",
      "outputs": [
        {
          "internalType": "address",
          "name": "",
          "type": "address"
        }
      ],
      "stateMutability": "view",
      "type": "function",
      "constant": true
    },
    {
      "inputs": [],
      "name": "ensReverseRegistrar",
      "outputs": [
        {
          "internalType": "address",
          "name": "",
          "type": "address"
        }
      ],
      "stateMutability": "view",
      "type": "function",
      "constant": true
    },
    {
      "inputs": [
        {
          "internalType": "bytes32",
          "name": "role",
          "type": "bytes32"
        }
      ],
      "name": "getRoleAdmin",
      "outputs": [
        {
          "internalType": "bytes32",
          "name": "",
          "type": "bytes32"
        }
      ],
      "stateMutability": "view",
      "type": "function",
      "constant": true
    },
    {
      "inputs": [
        {
          "internalType": "bytes32",
          "name": "role",
          "type": "bytes32"
        },
        {
          "internalType": "uint256",
          "name": "index",
          "type": "uint256"
        }
      ],
      "name": "getRoleMember",
      "outputs": [
        {
          "internalType": "address",
          "name": "",
          "type": "address"
        }
      ],
      "stateMutability": "view",
      "type": "function",
      "constant": true
    },
    {
      "inputs": [
        {
          "internalType": "bytes32",
          "name": "role",
          "type": "bytes32"
        }
      ],
      "name": "getRoleMemberCount",
      "outputs": [
        {
          "internalType": "uint256",
          "name": "",
          "type": "uint256"
        }
      ],
      "stateMutability": "view",
      "type": "function",
      "constant": true
    },
    {
      "inputs": [
        {
          "internalType": "bytes32",
          "name": "role",
          "type": "bytes32"
        },
        {
          "internalType": "address",
          "name": "account",
          "type": "address"
        }
      ],
      "name": "grantRole",
      "outputs": [],
      "stateMutability": "nonpayable",
      "type": "function"
    },
    {
      "inputs": [
        {
          "internalType": "bytes32",
          "name": "role",
          "type": "bytes32"
        },
        {
          "internalType": "address",
          "name": "account",
          "type": "address"
        }
      ],
      "name": "hasRole",
      "outputs": [
        {
          "internalType": "bool",
          "name": "",
          "type": "bool"
        }
      ],
      "stateMutability": "view",
      "type": "function",
      "constant": true
    },
    {
      "inputs": [],
      "name": "name",
      "outputs": [
        {
          "internalType": "bytes32",
          "name": "",
          "type": "bytes32"
        }
      ],
      "stateMutability": "view",
      "type": "function",
      "constant": true
    },
    {
      "inputs": [],
      "name": "operationalBudget",
      "outputs": [
        {
          "internalType": "uint256",
          "name": "",
          "type": "uint256"
        }
      ],
      "stateMutability": "view",
      "type": "function",
      "constant": true
    },
    {
      "inputs": [],
      "name": "owner",
      "outputs": [
        {
          "internalType": "address",
          "name": "",
          "type": "address"
        }
      ],
      "stateMutability": "view",
      "type": "function",
      "constant": true
    },
    {
      "inputs": [
        {
          "internalType": "address",
          "name": "",
          "type": "address"
        }
      ],
      "name": "ownerToStudent",
      "outputs": [
        {
          "internalType": "address",
          "name": "",
          "type": "address"
        }
      ],
      "stateMutability": "view",
      "type": "function",
      "constant": true
    },
    {
      "inputs": [],
      "name": "renounceOwnership",
      "outputs": [],
      "stateMutability": "nonpayable",
      "type": "function"
    },
    {
      "inputs": [
        {
          "internalType": "bytes32",
          "name": "role",
          "type": "bytes32"
        },
        {
          "internalType": "address",
          "name": "account",
          "type": "address"
        }
      ],
      "name": "renounceRole",
      "outputs": [],
      "stateMutability": "nonpayable",
      "type": "function"
    },
    {
      "inputs": [],
      "name": "returnsReceived",
      "outputs": [
        {
          "internalType": "uint256",
          "name": "",
          "type": "uint256"
        }
      ],
      "stateMutability": "view",
      "type": "function",
      "constant": true
    },
    {
      "inputs": [],
      "name": "revenueReceived",
      "outputs": [
        {
          "internalType": "uint256",
          "name": "",
          "type": "uint256"
        }
      ],
      "stateMutability": "view",
      "type": "function",
      "constant": true
    },
    {
      "inputs": [
        {
          "internalType": "bytes32",
          "name": "role",
          "type": "bytes32"
        },
        {
          "internalType": "address",
          "name": "account",
          "type": "address"
        }
      ],
      "name": "revokeRole",
      "outputs": [],
      "stateMutability": "nonpayable",
      "type": "function"
    },
    {
      "inputs": [],
      "name": "studentApplicationFactory",
      "outputs": [
        {
          "internalType": "address",
          "name": "",
          "type": "address"
        }
      ],
      "stateMutability": "view",
      "type": "function",
      "constant": true
    },
    {
      "inputs": [],
      "name": "studentFactory",
      "outputs": [
        {
          "internalType": "address",
          "name": "",
          "type": "address"
        }
      ],
      "stateMutability": "view",
      "type": "function",
      "constant": true
    },
    {
      "inputs": [
        {
          "internalType": "address",
          "name": "newOwner",
          "type": "address"
        }
      ],
      "name": "transferOwnership",
      "outputs": [],
      "stateMutability": "nonpayable",
      "type": "function"
    },
    {
      "inputs": [],
      "name": "universityFund",
      "outputs": [
        {
          "internalType": "address",
          "name": "",
          "type": "address"
        }
      ],
      "stateMutability": "view",
      "type": "function",
      "constant": true
    },
    {
      "stateMutability": "payable",
      "type": "receive",
      "payable": true
    },
    {
      "inputs": [
        {
          "internalType": "uint256",
          "name": "val",
          "type": "uint256"
        }
      ],
      "name": "withdraw",
      "outputs": [],
      "stateMutability": "nonpayable",
      "type": "function"
    },
    {
      "inputs": [
        {
          "internalType": "address",
          "name": "daiAddress",
          "type": "address"
        },
        {
          "internalType": "address",
          "name": "compoundDai",
          "type": "address"
        },
        {
          "internalType": "address",
          "name": "classroomFactoryAddress",
          "type": "address"
        },
        {
          "internalType": "address",
          "name": "studentFactoryAddress",
          "type": "address"
        },
        {
          "internalType": "address",
          "name": "studentApplicationFactoryAddress",
          "type": "address"
        },
        {
          "internalType": "address",
          "name": "ensContractAddress",
          "type": "address"
        },
        {
          "internalType": "address",
          "name": "ensRegistrarAddress",
          "type": "address"
        },
        {
          "internalType": "address",
          "name": "ensPublicResolverAddress",
          "type": "address"
        },
        {
          "internalType": "address",
          "name": "ensReverseRegistrarAddress",
          "type": "address"
        }
      ],
      "name": "updateAddresses",
      "outputs": [],
      "stateMutability": "nonpayable",
      "type": "function"
    },
    {
      "inputs": [
        {
          "internalType": "address",
          "name": "addr",
          "type": "address"
        }
      ],
      "name": "attachFund",
      "outputs": [],
      "stateMutability": "nonpayable",
      "type": "function"
    },
    {
      "inputs": [
        {
          "internalType": "bytes32",
          "name": "val",
          "type": "bytes32"
        }
      ],
      "name": "changeName",
      "outputs": [],
      "stateMutability": "nonpayable",
      "type": "function"
    },
    {
      "inputs": [
        {
          "internalType": "uint24",
          "name": "val",
          "type": "uint24"
        }
      ],
      "name": "changeCut",
      "outputs": [],
      "stateMutability": "nonpayable",
      "type": "function"
    },
    {
      "inputs": [
        {
          "internalType": "bytes32",
          "name": "label",
          "type": "bytes32"
        },
        {
          "internalType": "address",
          "name": "_owner",
          "type": "address"
        }
      ],
      "name": "registerInRegistrar",
      "outputs": [],
      "stateMutability": "nonpayable",
      "type": "function"
    },
    {
      "inputs": [
        {
          "internalType": "string",
          "name": "_name",
          "type": "string"
        }
      ],
      "name": "registerInReverseRegistrar",
      "outputs": [],
      "stateMutability": "nonpayable",
      "type": "function"
    },
    {
      "inputs": [
        {
          "internalType": "bytes32",
          "name": "node",
          "type": "bytes32"
        },
        {
          "internalType": "address",
          "name": "resolver",
          "type": "address"
        }
      ],
      "name": "setResolver",
      "outputs": [],
      "stateMutability": "nonpayable",
      "type": "function"
    },
    {
      "inputs": [
        {
          "internalType": "bytes32",
          "name": "node",
          "type": "bytes32"
        },
        {
          "internalType": "address",
          "name": "val",
          "type": "address"
        }
      ],
      "name": "setAddressInResolver",
      "outputs": [],
      "stateMutability": "nonpayable",
      "type": "function"
    },
    {
      "inputs": [
        {
          "internalType": "bytes32",
          "name": "node",
          "type": "bytes32"
        },
        {
          "internalType": "string",
          "name": "key",
          "type": "string"
        },
        {
          "internalType": "string",
          "name": "val",
          "type": "string"
        },
        {
          "internalType": "address",
          "name": "resolver",
          "type": "address"
        }
      ],
      "name": "setTextInResolver",
      "outputs": [],
      "stateMutability": "nonpayable",
      "type": "function"
    },
    {
      "inputs": [
        {
          "internalType": "bytes32",
          "name": "node",
          "type": "bytes32"
        },
        {
          "internalType": "bytes32",
          "name": "label",
          "type": "bytes32"
        },
        {
          "internalType": "address",
          "name": "owner",
          "type": "address"
        },
        {
          "internalType": "address",
          "name": "resolver",
          "type": "address"
        },
        {
          "internalType": "uint64",
          "name": "ttl",
          "type": "uint64"
        }
      ],
      "name": "setSubnodeRecord",
      "outputs": [],
      "stateMutability": "nonpayable",
      "type": "function"
    },
    {
      "inputs": [
        {
          "internalType": "bytes32",
          "name": "node",
          "type": "bytes32"
        },
        {
          "internalType": "bytes32",
          "name": "label",
          "type": "bytes32"
        },
        {
          "internalType": "address",
          "name": "resolver",
          "type": "address"
        },
        {
          "internalType": "uint64",
          "name": "ttl",
          "type": "uint64"
        },
        {
          "internalType": "address",
          "name": "classroom",
          "type": "address"
        }
      ],
      "name": "claimSubnodeClassroom",
      "outputs": [],
      "stateMutability": "nonpayable",
      "type": "function"
    },
    {
      "inputs": [
        {
          "internalType": "bytes32",
          "name": "node",
          "type": "bytes32"
        },
        {
          "internalType": "bytes32",
          "name": "label",
          "type": "bytes32"
        },
        {
          "internalType": "address",
          "name": "resolver",
          "type": "address"
        },
        {
          "internalType": "uint64",
          "name": "ttl",
          "type": "uint64"
        },
        {
          "internalType": "address",
          "name": "student",
          "type": "address"
        }
      ],
      "name": "claimSubnodeStudent",
      "outputs": [],
      "stateMutability": "nonpayable",
      "type": "function"
    },
    {
      "inputs": [],
      "name": "availableFundsForInvestment",
      "outputs": [
        {
          "internalType": "uint256",
          "name": "",
          "type": "uint256"
        }
      ],
      "stateMutability": "view",
      "type": "function",
      "constant": true
    },
    {
      "inputs": [],
      "name": "availableFunds",
      "outputs": [
        {
          "internalType": "uint256",
          "name": "",
          "type": "uint256"
        }
      ],
      "stateMutability": "view",
      "type": "function",
      "constant": true
    },
    {
      "inputs": [
        {
          "internalType": "address",
          "name": "classroom",
          "type": "address"
        }
      ],
      "name": "isValidClassroom",
      "outputs": [
        {
          "internalType": "bool",
          "name": "",
          "type": "bool"
        }
      ],
      "stateMutability": "view",
      "type": "function",
      "constant": true
    },
    {
      "inputs": [
        {
          "internalType": "address",
          "name": "student",
          "type": "address"
        }
      ],
      "name": "studentIsRegistered",
      "outputs": [
        {
          "internalType": "bool",
          "name": "",
          "type": "bool"
        }
      ],
      "stateMutability": "view",
      "type": "function",
      "constant": true
    },
    {
      "inputs": [],
      "name": "myStudentAddress",
      "outputs": [
        {
          "internalType": "address",
          "name": "",
          "type": "address"
        }
      ],
      "stateMutability": "view",
      "type": "function",
      "constant": true
    },
    {
      "inputs": [],
      "name": "viewMyApplications",
      "outputs": [
        {
          "internalType": "address[]",
          "name": "",
          "type": "address[]"
        }
      ],
      "stateMutability": "view",
      "type": "function",
      "constant": true
    },
    {
      "inputs": [
        {
          "internalType": "address",
          "name": "student",
          "type": "address"
        }
      ],
      "name": "viewMyStudentApplications",
      "outputs": [
        {
          "internalType": "address[]",
          "name": "",
          "type": "address[]"
        }
      ],
      "stateMutability": "view",
      "type": "function",
      "constant": true
    },
    {
      "inputs": [
        {
          "internalType": "address",
          "name": "addr",
          "type": "address"
        }
      ],
      "name": "viewStudentApplications",
      "outputs": [
        {
          "internalType": "address[]",
          "name": "",
          "type": "address[]"
        }
      ],
      "stateMutability": "view",
      "type": "function",
      "constant": true
    },
    {
      "inputs": [
        {
          "internalType": "bytes32",
          "name": "sName",
          "type": "bytes32"
        }
      ],
      "name": "studentSelfRegister",
      "outputs": [],
      "stateMutability": "nonpayable",
      "type": "function"
    },
    {
      "inputs": [
        {
          "internalType": "address",
          "name": "owner",
          "type": "address"
        },
        {
          "internalType": "bytes32",
          "name": "cName",
          "type": "bytes32"
        },
        {
          "internalType": "uint24",
          "name": "cCut",
          "type": "uint24"
        },
        {
          "internalType": "uint24",
          "name": "cPCut",
          "type": "uint24"
        },
        {
          "internalType": "int32",
          "name": "minScore",
          "type": "int32"
        },
        {
          "internalType": "uint256",
          "name": "entryPrice",
          "type": "uint256"
        },
        {
          "internalType": "uint256",
          "name": "duration",
          "type": "uint256"
        },
        {
          "internalType": "address",
          "name": "challengeAddress",
          "type": "address"
        }
      ],
      "name": "newClassRoom",
      "outputs": [
        {
          "internalType": "address",
          "name": "",
          "type": "address"
        }
      ],
      "stateMutability": "nonpayable",
      "type": "function"
    },
    {
      "inputs": [
        {
          "internalType": "address",
          "name": "student",
          "type": "address"
        },
        {
          "internalType": "address",
          "name": "application",
          "type": "address"
        }
      ],
      "name": "registerStudentApplication",
      "outputs": [],
      "stateMutability": "nonpayable",
      "type": "function"
    },
    {
      "inputs": [
        {
          "internalType": "address",
          "name": "student",
          "type": "address"
        },
        {
          "internalType": "int32",
          "name": "val",
          "type": "int32"
        }
      ],
      "name": "addStudentScore",
      "outputs": [],
      "stateMutability": "nonpayable",
      "type": "function"
    },
    {
      "inputs": [
        {
          "internalType": "address",
          "name": "student",
          "type": "address"
        },
        {
          "internalType": "int32",
          "name": "val",
          "type": "int32"
        }
      ],
      "name": "subStudentScore",
      "outputs": [],
      "stateMutability": "nonpayable",
      "type": "function"
    },
    {
      "inputs": [
        {
          "internalType": "uint256",
          "name": "val",
          "type": "uint256"
        }
      ],
      "name": "applyFunds",
      "outputs": [],
      "stateMutability": "nonpayable",
      "type": "function"
    },
    {
      "inputs": [],
      "name": "appliedFunds",
      "outputs": [
        {
          "internalType": "uint256",
          "name": "",
          "type": "uint256"
        }
      ],
      "stateMutability": "view",
      "type": "function",
      "constant": true
    },
    {
      "inputs": [
        {
          "internalType": "uint256",
          "name": "val",
          "type": "uint256"
        }
      ],
      "name": "recoverFunds",
      "outputs": [],
      "stateMutability": "nonpayable",
      "type": "function"
    },
    {
      "inputs": [
        {
          "internalType": "uint256",
          "name": "val",
          "type": "uint256"
        }
      ],
      "name": "applyFundsETH",
      "outputs": [],
      "stateMutability": "nonpayable",
      "type": "function"
    },
    {
      "inputs": [],
      "name": "appliedFundsETH",
      "outputs": [
        {
          "internalType": "uint256",
          "name": "",
          "type": "uint256"
        }
      ],
      "stateMutability": "view",
      "type": "function",
      "constant": true
    },
    {
      "inputs": [
        {
          "internalType": "uint256",
          "name": "val",
          "type": "uint256"
        }
      ],
      "name": "recoverFundsETH",
      "outputs": [],
      "stateMutability": "nonpayable",
      "type": "function"
    },
    {
      "inputs": [
        {
          "internalType": "bytes32",
          "name": "role",
          "type": "bytes32"
        },
        {
          "internalType": "address",
          "name": "account",
          "type": "address"
        }
      ],
      "name": "grantRoleFund",
      "outputs": [],
      "stateMutability": "nonpayable",
      "type": "function"
    },
    {
      "inputs": [
        {
          "internalType": "bytes32",
          "name": "role",
          "type": "bytes32"
        },
        {
          "internalType": "address",
          "name": "account",
          "type": "address"
        }
      ],
      "name": "revokeRoleFund",
      "outputs": [],
      "stateMutability": "nonpayable",
      "type": "function"
    },
    {
      "inputs": [
        {
          "internalType": "uint256",
          "name": "val",
          "type": "uint256"
        }
      ],
      "name": "increaseOperationalBudget",
      "outputs": [],
      "stateMutability": "nonpayable",
      "type": "function"
    },
    {
      "inputs": [
        {
          "internalType": "uint256",
          "name": "val",
          "type": "uint256"
        }
      ],
      "name": "decreaseOperationalBudget",
      "outputs": [],
      "stateMutability": "nonpayable",
      "type": "function"
    },
    {
      "inputs": [
        {
          "internalType": "address",
          "name": "to",
          "type": "address"
        },
        {
          "internalType": "uint256",
          "name": "val",
          "type": "uint256"
        }
      ],
      "name": "spendBudget",
      "outputs": [],
      "stateMutability": "nonpayable",
      "type": "function"
    },
    {
      "inputs": [
        {
          "internalType": "address",
          "name": "studentApplication",
          "type": "address"
        },
        {
          "internalType": "uint256",
          "name": "price",
          "type": "uint256"
        }
      ],
      "name": "giveGrant",
      "outputs": [],
      "stateMutability": "nonpayable",
      "type": "function"
    },
    {
      "inputs": [
        {
          "internalType": "uint256",
          "name": "val",
          "type": "uint256"
        }
      ],
      "name": "reinvestReturns",
      "outputs": [],
      "stateMutability": "nonpayable",
      "type": "function"
    },
    {
      "inputs": [
        {
          "internalType": "address",
          "name": "grantsManager",
          "type": "address"
        }
      ],
      "name": "viewAllStudentsFromGrantManager",
      "outputs": [
        {
          "internalType": "address[]",
          "name": "",
          "type": "address[]"
        }
      ],
      "stateMutability": "nonpayable",
      "type": "function"
    },
    {
      "inputs": [
        {
          "internalType": "address",
          "name": "student",
          "type": "address"
        },
        {
          "internalType": "address",
          "name": "grantsManager",
          "type": "address"
        }
      ],
      "name": "viewAllStudentGrantsFromGrantManager",
      "outputs": [
        {
          "internalType": "uint256[]",
          "name": "",
          "type": "uint256[]"
        }
      ],
      "stateMutability": "nonpayable",
      "type": "function"
    },
    {
      "inputs": [
        {
          "internalType": "uint256",
          "name": "donation",
          "type": "uint256"
        }
      ],
      "name": "donateDAI",
      "outputs": [],
      "stateMutability": "nonpayable",
      "type": "function"
    },
    {
      "inputs": [
        {
          "internalType": "uint256",
          "name": "revenue",
          "type": "uint256"
        }
      ],
      "name": "accountRevenue",
      "outputs": [],
      "stateMutability": "nonpayable",
      "type": "function"
    }
  ],
  "bytecode": "0x60806040523480156200001157600080fd5b5060405162004c7638038062004c768339810160408190526200003491620003a4565b6000620000496001600160e01b03620001ab16565b600080546001600160a01b0319166001600160a01b0383169081178255604051929350917f8be0079c531659141344cd1fd0a4f28419497f9722a3daafe3b4186f6b6457e0908290a35060028b90556003805462ffffff191662ffffff8c16179055620000ca6000620000bb620001ab565b6001600160e01b03620001af16565b62000107604051620000dc906200048e565b604051908190039020620000f86001600160e01b03620001ab16565b6001600160e01b03620001c816565b600e80546001600160a01b03199081166001600160a01b039b8c1617909155600f80548216998b1699909917909855601080548916978a1697909717909655601180548816958916959095179094556012805487169388169390931790925560138054861691871691909117905560148054851691861691909117905560158054841691851691909117905560168054909216921691909117905550620005069050565b3390565b620001c482826001600160e01b036200022916565b5050565b6000828152600160205260409020600201546200020190620001f26001600160e01b03620001ab16565b6001600160e01b03620002ad16565b620001af5760405162461bcd60e51b81526004016200022090620004b7565b60405180910390fd5b60008281526001602090815260409091206200025091839062002a6c620002dc821b17901c565b15620001c457620002696001600160e01b03620001ab16565b6001600160a01b0316816001600160a01b0316837f2f8788117e7eff1d82e926ec794901d17c78024a50270940304540a733656f0d60405160405180910390a45050565b60008281526001602090815260408220620002d391849062002a81620002fc821b17901c565b90505b92915050565b6000620002d3836001600160a01b0384166001600160e01b036200031c16565b6000620002d3836001600160a01b0384166001600160e01b036200037416565b60006200033383836001600160e01b036200037416565b6200036b57508154600181810184556000848152602080822090930184905584548482528286019093526040902091909155620002d6565b506000620002d6565b60009081526001919091016020526040902054151590565b80516001600160a01b0381168114620002d657600080fd5b60008060008060008060008060008060006101608c8e031215620003c6578687fd5b8b519a5060208c015162ffffff81168114620003e0578788fd5b9950620003f18d60408e016200038c565b9850620004028d60608e016200038c565b9750620004138d60808e016200038c565b9650620004248d60a08e016200038c565b9550620004358d60c08e016200038c565b9450620004468d60e08e016200038c565b9350620004588d6101008e016200038c565b92506200046a8d6101208e016200038c565b91506200047c8d6101408e016200038c565b90509295989b509295989b9093969950565b7f434c4153534c4953545f41444d494e5f524f4c45000000000000000000000000815260140190565b6020808252602f908201527f416363657373436f6e74726f6c3a2073656e646572206d75737420626520616e60408201526e0818591b5a5b881d1bc819dc985b9d608a1b606082015260800190565b61476080620005166000396000f3fe6080604052600436106104985760003560e01c80638dd602b511610260578063c2c589f011610144578063d4297781116100c1578063ea3c0fc411610085578063ea3c0fc414610d81578063f0c47ecc14610d96578063f2fde38b14610db6578063f676f43d14610dd6578063fa8e506014610deb578063ff5d8f6314610e0b576104d8565b8063d429778114610cdf578063d547741f14610cff578063d7f164f714610d1f578063e6fd604c14610d3f578063e770d7d414610d61576104d8565b8063cb93262511610108578063cb93262514610c4a578063d19050ee14610c6a578063d24f8cdd14610c7f578063d260306714610c9f578063d3c5704e14610cbf576104d8565b8063c2c589f014610bc0578063c4707a8314610bd5578063c844dbce14610bea578063ca15c87314610c0a578063cb4e560114610c2a576104d8565b8063a217fddf116101dd578063baf41f77116101a1578063baf41f7714610b21578063bcd1192214610b41578063be22f54614610b56578063be61437914610b6b578063c204a0e014610b80578063c2b94cd814610ba0576104d8565b8063a217fddf14610a97578063a544594e14610aac578063aaaed76f14610acc578063b7af0d2d14610ae1578063b9b863c414610b01576104d8565b80639a15c014116102245780639a15c01414610a0d5780639b0969ab14610a225780639e93d0e414610a42578063a026dcc214610a62578063a053286b14610a77576104d8565b80638dd602b51461096d5780639010d07c1461098d5780639065946b146109ad57806391d14854146109cd5780639a057285146109ed576104d8565b80634ab358c7116103875780636881e7631161030457806385dade61116102c857806385dade61146108ce57806387bfe188146108ee578063898855ed1461090e5780638a9f5b7f1461092e5780638b78c290146109435780638da5cb5b14610958576104d8565b80636881e763146108655780636beb0c031461087a5780636f6941b91461088f578063715018a6146108a4578063820cd75c146108b9576104d8565b80635ef2c7f01161034b5780635ef2c7f0146107e6578063629bca67146108065780636408a3861461081b57806364d477311461083057806365a4550314610845576104d8565b80634ab358c71461075c5780634c6794071461077c5780634ea962c11461079157806351275dba146107b15780635a7dd150146107c6576104d8565b8063248a9ca3116104155780633593aad6116103d95780633593aad6146106b857806336568abe146106d8578063458955b8146106f857806346fcff4c1461071a5780634884da051461072f576104d8565b8063248a9ca31461062e5780632e1a7d4d1461064e5780632f2ff15d1461066e57806332636ac91461068e57806333c7bf1b146106a3576104d8565b8063183b26001161045c578063183b26001461058c5780631896f70a146105ac5780631d5b7bc3146105cc5780631ec1f9f3146105ec578063238aaf2f14610601576104d8565b806306fdde03146104dd5780630d039c031461050857806316ded1ce1461052a57806317b1a4cf1461055757806317ca41f61461056c576104d8565b366104d8577f60e4c1ac84c9e2c4c0aa82b86b3b1ddf0b1b73fbbeb74c8bc8f8f06041ccfdf633346040516104ce929190613c78565b60405180910390a1005b600080fd5b3480156104e957600080fd5b506104f2610e2b565b6040516104ff9190613d45565b60405180910390f35b34801561051457600080fd5b506105286105233660046138a6565b610e31565b005b34801561053657600080fd5b5061054a610545366004613517565b610e8c565b6040516104ff9190613d3a565b34801561056357600080fd5b506104f2610eb1565b34801561057857600080fd5b506105286105873660046138ca565b610eb7565b34801561059857600080fd5b506105286105a736600461354f565b610f50565b3480156105b857600080fd5b506105286105c73660046138a6565b610fc9565b3480156105d857600080fd5b506105286105e7366004613a38565b611066565b3480156105f857600080fd5b506104f2611103565b34801561060d57600080fd5b5061062161061c36600461354f565b611109565b6040516104ff9190613d02565b34801561063a57600080fd5b506104f2610649366004613876565b6111bf565b34801561065a57600080fd5b50610528610669366004613876565b6111d4565b34801561067a57600080fd5b506105286106893660046138a6565b61121d565b34801561069a57600080fd5b506104f2611261565b3480156106af57600080fd5b506104f2611278565b3480156106c457600080fd5b506105286106d3366004613876565b6112b5565b3480156106e457600080fd5b506105286106f33660046138a6565b61133b565b34801561070457600080fd5b5061070d61137d565b6040516104ff9190613c64565b34801561072657600080fd5b506104f261138c565b34801561073b57600080fd5b5061074f61074a366004613517565b611468565b6040516104ff9190613cb5565b34801561076857600080fd5b50610528610777366004613876565b61150c565b34801561078857600080fd5b506104f261157d565b34801561079d57600080fd5b5061070d6107ac366004613642565b611631565b3480156107bd57600080fd5b506104f261167b565b3480156107d257600080fd5b506105286107e1366004613876565b611681565b3480156107f257600080fd5b5061052861080136600461390b565b611692565b34801561081257600080fd5b506104f2611738565b34801561082757600080fd5b5061074f611744565b34801561083c57600080fd5b506104f2611751565b34801561085157600080fd5b50610528610860366004613876565b61175d565b34801561087157600080fd5b5061070d611815565b34801561088657600080fd5b506104f2611824565b34801561089b57600080fd5b5061070d61182a565b3480156108b057600080fd5b50610528611839565b3480156108c557600080fd5b506104f26118b8565b3480156108da57600080fd5b5061054a6108e9366004613517565b6118c4565b3480156108fa57600080fd5b506105286109093660046136d2565b6118d5565b34801561091a57600080fd5b50610528610929366004613876565b61192c565b34801561093a57600080fd5b506104f26119a1565b34801561094f57600080fd5b5061070d6119ad565b34801561096457600080fd5b5061070d611a24565b34801561097957600080fd5b5061070d610988366004613517565b611a33565b34801561099957600080fd5b5061070d6109a8366004613ab4565b611a4e565b3480156109b957600080fd5b506105286109c83660046139cf565b611a6c565b3480156109d957600080fd5b5061054a6109e83660046138a6565b611ac1565b3480156109f957600080fd5b50610528610a08366004613587565b611adf565b348015610a1957600080fd5b5061070d611d11565b348015610a2e57600080fd5b50610528610a3d366004613876565b611d20565b348015610a4e57600080fd5b50610528610a5d366004613876565b611da0565b348015610a6e57600080fd5b506104f2611dfb565b348015610a8357600080fd5b50610528610a92366004613ad5565b611eaa565b348015610aa357600080fd5b506104f2611f61565b348015610ab857600080fd5b50610528610ac7366004613876565b611f66565b348015610ad857600080fd5b5061070d611f96565b348015610aed57600080fd5b50610528610afc3660046138a6565b611fa5565b348015610b0d57600080fd5b5061070d610b1c366004613876565b611fff565b348015610b2d57600080fd5b50610528610b3c3660046138a6565b612026565b348015610b4d57600080fd5b5061070d61208d565b348015610b6257600080fd5b5061070d61209c565b348015610b7757600080fd5b506104f26120ab565b348015610b8c57600080fd5b50610528610b9b366004613876565b6120b7565b348015610bac57600080fd5b50610528610bbb366004613705565b61214e565b348015610bcc57600080fd5b5061070d6121cd565b348015610be157600080fd5b506104f26121dc565b348015610bf657600080fd5b50610528610c05366004613876565b6121e8565b348015610c1657600080fd5b506104f2610c25366004613876565b612251565b348015610c3657600080fd5b50610528610c45366004613705565b612268565b348015610c5657600080fd5b50610528610c65366004613974565b6123af565b348015610c7657600080fd5b5061070d612470565b348015610c8b57600080fd5b506104f2610c9a366004613517565b61247f565b348015610cab57600080fd5b5061074f610cba366004613517565b612491565b348015610ccb57600080fd5b5061074f610cda366004613517565b6125af565b348015610ceb57600080fd5b50610528610cfa366004613517565b6125fe565b348015610d0b57600080fd5b50610528610d1a3660046138a6565b6126f6565b348015610d2b57600080fd5b50610528610d3a3660046138a6565b612730565b348015610d4b57600080fd5b50610d5461278a565b6040516104ff9190614670565b348015610d6d57600080fd5b50610528610d7c366004613b0f565b612795565b348015610d8d57600080fd5b5061070d612813565b348015610da257600080fd5b50610528610db1366004613974565b612822565b348015610dc257600080fd5b50610528610dd1366004613517565b6128ca565b348015610de257600080fd5b506104f2612980565b348015610df757600080fd5b50610528610e06366004613876565b612986565b348015610e1757600080fd5b50610528610e263660046136d2565b612a15565b60025481565b610e39612a96565b6000546001600160a01b03908116911614610e6f5760405162461bcd60e51b8152600401610e6690614303565b60405180910390fd5b601554610e8890839083906001600160a01b0316610eb7565b5050565b6000610eab604051610e9d90613b7a565b604051809103902083611ac1565b92915050565b600c5481565b610ebf612a96565b6000546001600160a01b03908116911614610eec5760405162461bcd60e51b8152600401610e6690614303565b60405162d5fa2b60e81b81526001600160a01b0382169063d5fa2b0090610f199086908690600401613d4e565b600060405180830381600087803b158015610f3357600080fd5b505af1158015610f47573d6000803e3d6000fd5b50505050505050565b610f6f604051610f5f90613b9b565b60405180910390206109e8612a96565b610f8b5760405162461bcd60e51b8152600401610e66906141e4565b6001600160a01b0391821660009081526005602090815260408220805460018101825590835291200180546001600160a01b03191691909216179055565b610fd1612a96565b6000546001600160a01b03908116911614610ffe5760405162461bcd60e51b8152600401610e6690614303565b601354604051630c4b7b8560e11b81526001600160a01b0390911690631896f70a906110309085908590600401613d4e565b600060405180830381600087803b15801561104a57600080fd5b505af115801561105e573d6000803e3d6000fd5b505050505050565b61106e612a96565b6000546001600160a01b0390811691161461109b5760405162461bcd60e51b8152600401610e6690614303565b60405163043c4ea360e21b81526001600160a01b038216906310f13a8c906110cb90879087908790600401613d9a565b600060405180830381600087803b1580156110e557600080fd5b505af11580156110f9573d6000803e3d6000fd5b5050505050505050565b600b5481565b606061111a604051610f5f90613c40565b6111365760405162461bcd60e51b8152600401610e66906143f9565b60405163730687a560e11b81526001600160a01b0383169063e60d0f4a90611162908690600401613c64565b600060405180830381600087803b15801561117c57600080fd5b505af1158015611190573d6000803e3d6000fd5b505050506040513d6000823e601f3d908101601f191682016040526111b891908101906137d0565b9392505050565b60009081526001602052604090206002015490565b6111dc612a96565b6000546001600160a01b039081169116146112095760405162461bcd60e51b8152600401610e6690614303565b61121a611214612a96565b82612a9a565b50565b60008281526001602052604090206002015461123b906109e8612a96565b6112575760405162461bcd60e51b8152600401610e6690613ed4565b610e888282612b27565b60405161126d90613b7a565b604051809103902081565b600d546000906001600160a01b03166112a35760405162461bcd60e51b8152600401610e6690613f6c565b50600d546001600160a01b0316315b90565b6112bd612a96565b6000546001600160a01b039081169116146112ea5760405162461bcd60e51b8152600401610e6690614303565b80600b54101561130c5760405162461bcd60e51b8152600401610e6690614069565b600c5461131f908263ffffffff612b9616565b600c55600b54611335908263ffffffff612bbb16565b600b5550565b611343612a96565b6001600160a01b0316816001600160a01b0316146113735760405162461bcd60e51b8152600401610e6690614621565b610e888282612bfd565b6015546001600160a01b031681565b600e546040516370a0823160e01b815260009182916001600160a01b03909116906370a08231906113c1903090600401613c64565b60206040518083038186803b1580156113d957600080fd5b505afa1580156113ed573d6000803e3d6000fd5b505050506040513d601f19601f82011682018060405250810190611411919061388e565b905061142a600c54600b54612b9690919063ffffffff16565b81101561143b5760009150506112b2565b611462600c54611456600b5484612bbb90919063ffffffff16565b9063ffffffff612bbb16565b91505090565b6060611479604051610f5f90613c40565b6114955760405162461bcd60e51b8152600401610e66906143f9565b816001600160a01b03166369e7af436040518163ffffffff1660e01b8152600401600060405180830381600087803b1580156114d057600080fd5b505af11580156114e4573d6000803e3d6000fd5b505050506040513d6000823e601f3d908101601f19168201604052610eab9190810190613730565b61151b604051610f5f90613bdf565b6115375760405162461bcd60e51b8152600401610e6690613fe9565b600d546001600160a01b031661155f5760405162461bcd60e51b8152600401610e6690613f6c565b600e54600d5461121a916001600160a01b0390811691163084612c6c565b600d546000906001600160a01b03166115a85760405162461bcd60e51b8152600401610e6690613f6c565b600e54600d546040516370a0823160e01b81526001600160a01b03928316926370a08231926115dc92911690600401613c64565b60206040518083038186803b1580156115f457600080fd5b505afa158015611608573d6000803e3d6000fd5b505050506040513d601f19601f8201168201806040525081019061162c919061388e565b905090565b6000611642604051610f5f90613bbf565b61165e5760405162461bcd60e51b8152600401610e6690614161565b61166e8989898989898989612d55565b9998505050505050505050565b600a5481565b610e888161168d612a96565b612f51565b61169a612a96565b6000546001600160a01b039081169116146116c75760405162461bcd60e51b8152600401610e6690614303565b6013546040516305ef2c7f60e41b81526001600160a01b0390911690635ef2c7f0906116ff9088908890889088908890600401613d65565b600060405180830381600087803b15801561171957600080fd5b505af115801561172d573d6000803e3d6000fd5b505050505050505050565b60405161126d90613bfd565b606061162c610cda612a96565b60405161126d90613c21565b61176c604051610f5f90613bdf565b6117885760405162461bcd60e51b8152600401610e6690613fe9565b600d546001600160a01b03166117b05760405162461bcd60e51b8152600401610e6690613f6c565b600d54604051632e1a7d4d60e01b81526001600160a01b0390911690632e1a7d4d906117e0908490600401613d45565b600060405180830381600087803b1580156117fa57600080fd5b505af115801561180e573d6000803e3d6000fd5b5050505050565b6013546001600160a01b031681565b60095481565b600f546001600160a01b031681565b611841612a96565b6000546001600160a01b0390811691161461186e5760405162461bcd60e51b8152600401610e6690614303565b600080546040516001600160a01b03909116907f8be0079c531659141344cd1fd0a4f28419497f9722a3daafe3b4186f6b6457e0908390a3600080546001600160a01b0319169055565b60405161126d90613bbf565b6000610eab604051610e9d90613b9b565b6118e4604051610f5f90613b9b565b6119005760405162461bcd60e51b8152600401610e66906141e4565b60405163aa4f38c760e01b81526001600160a01b0383169063aa4f38c790611030908490600401613e3a565b611934612a96565b6000546001600160a01b039081169116146119615760405162461bcd60e51b8152600401610e6690614303565b60028190556040517f9f8929be552430dd6434c446d106c34954b2040ca8c4dbf42a39323dd6cda3ca90611996908390613d45565b60405180910390a150565b60405161126d90613b9b565b6000806006816119bb612a96565b6001600160a01b0390811682526020820192909252604001600020541614156119f65760405162461bcd60e51b8152600401610e6690614029565b60066000611a02612a96565b6001600160a01b03908116825260208201929092526040016000205416905090565b6000546001600160a01b031690565b6006602052600090815260409020546001600160a01b031681565b60008281526001602052604081206111b8908363ffffffff6130e516565b611a74612a96565b6000546001600160a01b03908116911614611aa15760405162461bcd60e51b8152600401610e6690614303565b601554611abc908490849084906001600160a01b0316611066565b505050565b60008281526001602052604081206111b8908363ffffffff612a8116565b611ae7612a96565b6000546001600160a01b03908116911614611b145760405162461bcd60e51b8152600401610e6690614303565b6001600160a01b03891615611b295788611b36565b600e546001600160a01b03165b600e80546001600160a01b0319166001600160a01b03928316179055881615611b5f5787611b6c565b600f546001600160a01b03165b600f80546001600160a01b0319166001600160a01b03928316179055871615611b955786611ba2565b6010546001600160a01b03165b601080546001600160a01b0319166001600160a01b03928316179055861615611bcb5785611bd8565b6011546001600160a01b03165b601180546001600160a01b0319166001600160a01b03928316179055851615611c015784611c0e565b6012546001600160a01b03165b601280546001600160a01b0319166001600160a01b03928316179055841615611c375783611c44565b6013546001600160a01b03165b601380546001600160a01b0319166001600160a01b03928316179055831615611c6d5782611c7a565b6014546001600160a01b03165b601480546001600160a01b0319166001600160a01b03928316179055821615611ca35781611cb0565b6015546001600160a01b03165b601580546001600160a01b0319166001600160a01b03928316179055811615611cd95780611ce6565b6016546001600160a01b03165b601680546001600160a01b0319166001600160a01b0392909216919091179055505050505050505050565b6010546001600160a01b031681565b611d28612a96565b6000546001600160a01b03908116911614611d555760405162461bcd60e51b8152600401610e6690614303565b80600c541015611d775760405162461bcd60e51b8152600401610e6690613f23565b600c54611d8a908263ffffffff612bbb16565b600c55600b54611335908263ffffffff612b9616565b611daf604051610f5f90613bdf565b611dcb5760405162461bcd60e51b8152600401610e6690613fe9565b80611dd461138c565b1015611df25760405162461bcd60e51b8152600401610e66906140e4565b61121a816130f1565b600e546040516370a0823160e01b815260009182916001600160a01b03909116906370a0823190611e30903090600401613c64565b60206040518083038186803b158015611e4857600080fd5b505afa158015611e5c573d6000803e3d6000fd5b505050506040513d601f19601f82011682018060405250810190611e80919061388e565b9050600c54811015611e965760009150506112b2565b600c5461146290829063ffffffff612bbb16565b611eb2612a96565b6000546001600160a01b03908116911614611edf5760405162461bcd60e51b8152600401610e6690614303565b60165460405163c47f002760e01b81526001600160a01b039091169063c47f002790611f0f908490600401613e48565b602060405180830381600087803b158015611f2957600080fd5b505af1158015611f3d573d6000803e3d6000fd5b505050506040513d601f19601f82011682018060405250810190610e88919061388e565b600081565b600e54611f85906001600160a01b0316611f7e612a96565b3084612c6c565b61121a611f90612a96565b82613146565b6012546001600160a01b031681565b600d546001600160a01b0316611fcd5760405162461bcd60e51b8152600401610e6690613f6c565b600d5460405163b7af0d2d60e01b81526001600160a01b039091169063b7af0d2d906110309085908590600401613d4e565b6004818154811061200c57fe5b6000918252602090912001546001600160a01b0316905081565b61202e612a96565b6000546001600160a01b0390811691161461205b5760405162461bcd60e51b8152600401610e6690614303565b60145460405163d22057a960e01b81526001600160a01b039091169063d22057a9906110309085908590600401613d4e565b6011546001600160a01b031681565b600e546001600160a01b031681565b60405161126d90613c40565b6120c6604051610f5f90613bdf565b6120e25760405162461bcd60e51b8152600401610e6690613fe9565b806120eb611dfb565b10156121095760405162461bcd60e51b8152600401610e66906142bd565b600d546001600160a01b03166121315760405162461bcd60e51b8152600401610e6690613f6c565b600e54600d5461121a916001600160a01b039081169116836131f8565b61215d604051610f5f90613c21565b6121795760405162461bcd60e51b8152600401610e66906143b8565b8061218261138c565b10156121a05760405162461bcd60e51b8152600401610e66906140e4565b6040516331cdcc4f60e01b81526001600160a01b038316906331cdcc4f9061103090600190600401613d3a565b6014546001600160a01b031681565b60405161126d90613bdf565b6121f7604051610f5f90613bdf565b6122135760405162461bcd60e51b8152600401610e6690613fe9565b600d546001600160a01b031661223b5760405162461bcd60e51b8152600401610e6690613f6c565b600d5461121a906001600160a01b031682612a9a565b6000818152600160205260408120610eab906132df565b612277604051610f5f90613bdf565b6122935760405162461bcd60e51b8152600401610e6690613fe9565b6122a2604051610e9d90613bfd565b6122be5760405162461bcd60e51b8152600401610e669061452b565b80600c5410156122e05760405162461bcd60e51b8152600401610e669061436f565b600e546040516370a0823160e01b815282916001600160a01b0316906370a0823190612310903090600401613c64565b60206040518083038186803b15801561232857600080fd5b505afa15801561233c573d6000803e3d6000fd5b505050506040513d601f19601f82011682018060405250810190612360919061388e565b101561237e5760405162461bcd60e51b8152600401610e6690614338565b600e54612395906001600160a01b031683836131f8565b600c546123a8908263ffffffff612bbb16565b600c555050565b6123b7612a96565b6001600160a01b0316816001600160a01b0316638b45fb676040518163ffffffff1660e01b815260040160206040518083038186803b1580156123f957600080fd5b505afa15801561240d573d6000803e3d6000fd5b505050506040513d601f19601f820116820180604052508101906124319190613533565b6001600160a01b0316146124575760405162461bcd60e51b8152600401610e669061443f565b6000612461612a96565b905061105e8686838787611692565b6016546001600160a01b031681565b60076020526000908152604090205481565b606061249b612a96565b6001600160a01b0316826001600160a01b0316637a6c8b536040518163ffffffff1660e01b815260040160206040518083038186803b1580156124dd57600080fd5b505afa1580156124f1573d6000803e3d6000fd5b505050506040513d601f19601f820116820180604052508101906125159190613533565b6001600160a01b03161461253b5760405162461bcd60e51b8152600401610e669061422a565b6001600160a01b038216600090815260056020908152604091829020805483518184028101840190945280845290918301828280156125a357602002820191906000526020600020905b81546001600160a01b03168152600190910190602001808311612585575b50505050509050919050565b60606125b9612a96565b6001600160a01b0316826001600160a01b031614806125e257506125e2604051610f5f90613c21565b61253b5760405162461bcd60e51b8152600401610e66906141a3565b612606612a96565b6000546001600160a01b039081169116146126335760405162461bcd60e51b8152600401610e6690614303565b306001600160a01b0316816001600160a01b0316633e1e9ce76040518163ffffffff1660e01b815260040160206040518083038186803b15801561267657600080fd5b505afa15801561268a573d6000803e3d6000fd5b505050506040513d601f19601f820116820180604052508101906126ae9190613533565b6001600160a01b0316146126d45760405162461bcd60e51b8152600401610e6690614588565b600d80546001600160a01b0319166001600160a01b0392909216919091179055565b600082815260016020526040902060020154612714906109e8612a96565b6113735760405162461bcd60e51b8152600401610e669061426d565b600d546001600160a01b03166127585760405162461bcd60e51b8152600401610e6690613f6c565b600d5460405163d7f164f760e01b81526001600160a01b039091169063d7f164f7906110309085908590600401613d4e565b60035462ffffff1681565b61279d612a96565b6000546001600160a01b039081169116146127ca5760405162461bcd60e51b8152600401610e6690614303565b6003805462ffffff191662ffffff83811691909117918290556040517f1add5f7de244142e10bca375bb84823e3c24ddac2c2ec678f35c007d8f02084d92611996921690614670565b600d546001600160a01b031681565b61282a612a96565b6001600160a01b0316816001600160a01b0316637a6c8b536040518163ffffffff1660e01b815260040160206040518083038186803b15801561286c57600080fd5b505afa158015612880573d6000803e3d6000fd5b505050506040513d601f19601f820116820180604052508101906128a49190613533565b6001600160a01b0316146124575760405162461bcd60e51b8152600401610e66906144d3565b6128d2612a96565b6000546001600160a01b039081169116146128ff5760405162461bcd60e51b8152600401610e6690614303565b6001600160a01b0381166129255760405162461bcd60e51b8152600401610e6690613fa3565b600080546040516001600160a01b03808516939216917f8be0079c531659141344cd1fd0a4f28419497f9722a3daafe3b4186f6b6457e091a3600080546001600160a01b0319166001600160a01b0392909216919091179055565b60085481565b612995604051610f5f90613b9b565b6129b15760405162461bcd60e51b8152600401610e66906141e4565b6009546129c4908263ffffffff612b9616565b600955600b546129da908263ffffffff612b9616565b600b557f37823eae3803e6c1d99512d7c85c87edf37856ffce3f33a2b623ef3197fe6ffc612a06612a96565b82604051611996929190613c78565b612a24604051610f5f90613b9b565b612a405760405162461bcd60e51b8152600401610e66906141e4565b604051630686513560e41b81526001600160a01b03831690636865135090611030908490600401613e3a565b60006111b8836001600160a01b0384166132ea565b60006111b8836001600160a01b038416613334565b3390565b604080516000808252602082019092526001600160a01b038416908390604051612ac49190613b5e565b60006040518083038185875af1925050503d8060008114612b01576040519150601f19603f3d011682016040523d82523d6000602084013e612b06565b606091505b5050905080611abc5760405162461bcd60e51b8152600401610e6690614490565b6000828152600160205260409020612b45908263ffffffff612a6c16565b15610e8857612b52612a96565b6001600160a01b0316816001600160a01b0316837f2f8788117e7eff1d82e926ec794901d17c78024a50270940304540a733656f0d60405160405180910390a45050565b6000828201838110156111b85760405162461bcd60e51b8152600401610e669061412a565b60006111b883836040518060400160405280601e81526020017f536166654d6174683a207375627472616374696f6e206f766572666c6f77000081525061334c565b6000828152600160205260409020612c1b908263ffffffff61337816565b15610e8857612c28612a96565b6001600160a01b0316816001600160a01b0316837ff6391f5c32d9c69d2a47ea670b442974b53935d1edc7fd64eb21e047a839171b60405160405180910390a45050565b60006060856001600160a01b03166323b872dd868686604051602401612c9493929190613c91565b6040516020818303038152906040529060e01b6020820180516001600160e01b038381831617835250505050604051612ccd9190613b5e565b6000604051808303816000865af19150503d8060008114612d0a576040519150601f19603f3d011682016040523d82523d6000602084013e612d0f565b606091505b5091509150818015612d39575080511580612d39575080806020019051810190612d399190613856565b61105e5760405162461bcd60e51b8152600401610e66906145dd565b600080601060009054906101000a90046001600160a01b03166001600160a01b031663f9a84f968a8a8a8a8a8a308b600e60009054906101000a90046001600160a01b0316600f60009054906101000a90046001600160a01b0316601260009054906101000a90046001600160a01b03166040518c63ffffffff1660e01b8152600401612dec9b9a99989796959493929190613dcf565b602060405180830381600087803b158015612e0657600080fd5b505af1158015612e1a573d6000803e3d6000fd5b505050506040513d601f19601f82011682018060405250810190612e3e9190613533565b6040516318b9533b60e01b81529091506001600160a01b038216906318b9533b90612e6d908d90600401613c64565b600060405180830381600087803b158015612e8757600080fd5b505af1158015612e9b573d6000803e3d6000fd5b5050600480546001810182556000919091527f8a35acfbc15ff81a39ae7d344fd709f28e8600b4aa8c65c6b64bfe7fe36bd19b0180546001600160a01b0319166001600160a01b03851617905550506040518190612f0a90612efc90613b9b565b604051809103902082611257565b7f0e2441b756c0237af490768eeb52214bde66464d79756f8ac3c03b10c9528b3c8a82604051612f3b929190613d4e565b60405180910390a19a9950505050505050505050565b6001600160a01b0381811660009081526006602052604081205490911615612f8b5760405162461bcd60e51b8152600401610e669061409e565b601154604051638ebf1d2760e01b81526000916001600160a01b031690638ebf1d2790612fbe9087903090600401613d4e565b602060405180830381600087803b158015612fd857600080fd5b505af1158015612fec573d6000803e3d6000fd5b505050506040513d601f19601f820116820180604052508101906130109190613533565b6001600160a01b038481166000908152600660205260409081902080546001600160a01b0319169284169283179055516303153d2960e31b8152919250906318a9e94890613062908690600401613c64565b600060405180830381600087803b15801561307c57600080fd5b505af1158015613090573d6000803e3d6000fd5b505050506130a3604051612efc90613b7a565b7ff7525326b19723c396bf0879df18a2606e6a5273cade76ca5da5977655616389600254826040516130d6929190613d4e565b60405180910390a19392505050565b60006111b8838361338d565b600954613104908263ffffffff612b9616565b600a55600b5461311a908263ffffffff612b9616565b600b557f13c785d9e4857cfe1f6f81ef8d5119717f6e1b7e2c090e57ab7386cd44f2d79f612a06612a96565b600854613159908263ffffffff612b9616565b600855600b5461316f908263ffffffff612b9616565b600b556001600160a01b03821660009081526007602052604090205461319b908263ffffffff612b9616565b6001600160a01b0383166000908152600760205260409020557f615b82d09530cb171fb9954512b751ee6d5197d08431b056ca6e8c3d8aca68116131dd612a96565b826040516131ec929190613c78565b60405180910390a15050565b60006060846001600160a01b031663a9059cbb858560405160240161321e929190613c78565b6040516020818303038152906040529060e01b6020820180516001600160e01b0383818316178352505050506040516132579190613b5e565b6000604051808303816000865af19150503d8060008114613294576040519150601f19603f3d011682016040523d82523d6000602084013e613299565b606091505b50915091508180156132c35750805115806132c35750808060200190518101906132c39190613856565b61180e5760405162461bcd60e51b8152600401610e6690613e9d565b6000610eab826133d2565b60006132f68383613334565b61332c57508154600181810184556000848152602080822090930184905584548482528286019093526040902091909155610eab565b506000610eab565b60009081526001919091016020526040902054151590565b600081848411156133705760405162461bcd60e51b8152600401610e669190613e48565b505050900390565b60006111b8836001600160a01b0384166133d6565b815460009082106133b05760405162461bcd60e51b8152600401610e6690613e5b565b8260000182815481106133bf57fe5b9060005260206000200154905092915050565b5490565b60008181526001830160205260408120548015613492578354600019808301919081019060009087908390811061340957fe5b906000526020600020015490508087600001848154811061342657fe5b60009182526020808320909101929092558281526001898101909252604090209084019055865487908061345657fe5b60019003818190600052602060002001600090559055866001016000878152602001908152602001600020600090556001945050505050610eab565b6000915050610eab565b600082601f8301126134ac578081fd5b81356001600160401b038111156134c1578182fd5b6134d4601f8201601f1916602001614680565b91508082528360208285010111156134eb57600080fd5b8060208401602084013760009082016020015292915050565b803562ffffff81168114610eab57600080fd5b600060208284031215613528578081fd5b81356111b8816146f5565b600060208284031215613544578081fd5b81516111b8816146f5565b60008060408385031215613561578081fd5b823561356c816146f5565b9150602083013561357c816146f5565b809150509250929050565b60008060008060008060008060006101208a8c0312156135a5578485fd5b89356135b0816146f5565b985060208a01356135c0816146f5565b975060408a01356135d0816146f5565b965060608a01356135e0816146f5565b955060808a01356135f0816146f5565b945060a08a0135613600816146f5565b935060c08a0135613610816146f5565b925060e08a0135613620816146f5565b91506101008a0135613631816146f5565b809150509295985092959850929598565b600080600080600080600080610100898b03121561365e578384fd5b8835613669816146f5565b97506020890135965061367f8a60408b01613504565b955061368e8a60608b01613504565b945060808901358060030b81146136a3578485fd5b935060a0890135925060c0890135915060e08901356136c1816146f5565b809150509295985092959890939650565b600080604083850312156136e4578182fd5b82356136ef816146f5565b91506020830135600381900b811461357c578182fd5b60008060408385031215613717578182fd5b8235613722816146f5565b946020939093013593505050565b60006020808385031215613742578182fd5b82516001600160401b03811115613757578283fd5b80840185601f820112613768578384fd5b8051915061377d613778836146a6565b614680565b8281528381019082850185850284018601891015613799578687fd5b8693505b848410156137c45780516137b0816146f5565b83526001939093019291850191850161379d565b50979650505050505050565b600060208083850312156137e2578182fd5b82516001600160401b038111156137f7578283fd5b80840185601f820112613808578384fd5b80519150613818613778836146a6565b8281528381019082850185850284018601891015613834578687fd5b8693505b848410156137c4578051835260019390930192918501918501613838565b600060208284031215613867578081fd5b815180151581146111b8578182fd5b600060208284031215613887578081fd5b5035919050565b60006020828403121561389f578081fd5b5051919050565b600080604083850312156138b8578182fd5b82359150602083013561357c816146f5565b6000806000606084860312156138de578081fd5b8335925060208401356138f0816146f5565b91506040840135613900816146f5565b809150509250925092565b600080600080600060a08688031215613922578283fd5b8535945060208601359350604086013561393b816146f5565b9250606086013561394b816146f5565b915060808601356001600160401b0381168114613966578182fd5b809150509295509295909350565b600080600080600060a0868803121561398b578283fd5b853594506020860135935060408601356139a4816146f5565b925060608601356001600160401b03811681146139bf578182fd5b91506080860135613966816146f5565b6000806000606084860312156139e3578081fd5b8335925060208401356001600160401b0380821115613a00578283fd5b613a0c8783880161349c565b93506040860135915080821115613a21578283fd5b50613a2e8682870161349c565b9150509250925092565b60008060008060808587031215613a4d578182fd5b8435935060208501356001600160401b0380821115613a6a578384fd5b613a768883890161349c565b94506040870135915080821115613a8b578384fd5b50613a988782880161349c565b9250506060850135613aa9816146f5565b939692955090935050565b60008060408385031215613ac6578182fd5b50508035926020909101359150565b600060208284031215613ae6578081fd5b81356001600160401b03811115613afb578182fd5b613b078482850161349c565b949350505050565b600060208284031215613b20578081fd5b813562ffffff811681146111b8578182fd5b60008151808452613b4a8160208601602086016146c5565b601f01601f19169290920160200192915050565b60008251613b708184602087016146c5565b9190910192915050565b7453545544454e545f4944454e544954595f524f4c4560581b815260150190565b77434c415353524f4f4d5f50524f464553534f525f524f4c4560401b815260180190565b73434c4153534c4953545f41444d494e5f524f4c4560601b815260140190565b7146554e44535f4d414e414745525f524f4c4560701b815260120190565b77524547495354455245445f535550504c4945525f524f4c4560401b815260180190565b724752414e54535f4d414e414745525f524f4c4560681b815260130190565b77554e49564552534954595f4f564552534545525f524f4c4560401b815260180190565b6001600160a01b0391909116815260200190565b6001600160a01b03929092168252602082015260400190565b6001600160a01b039384168152919092166020820152604081019190915260600190565b6020808252825182820181905260009190848201906040850190845b81811015613cf65783516001600160a01b031683529284019291840191600101613cd1565b50909695505050505050565b6020808252825182820181905260009190848201906040850190845b81811015613cf657835183529284019291840191600101613d1e565b901515815260200190565b90815260200190565b9182526001600160a01b0316602082015260400190565b94855260208501939093526001600160a01b0391821660408501521660608301526001600160401b0316608082015260a00190565b600084825260606020830152613db36060830185613b32565b8281036040840152613dc58185613b32565b9695505050505050565b9a8b5262ffffff998a1660208c01529790981660408a015260039590950b6060890152608088019390935260a08701919091526001600160a01b0390811660c087015290811660e0860152908116610100850152918216610120840152166101408201526101600190565b60039190910b815260200190565b6000602082526111b86020830184613b32565b60208082526022908201527f456e756d657261626c655365743a20696e646578206f7574206f6620626f756e604082015261647360f01b606082015260800190565b6020808252601f908201527f5472616e7366657248656c7065723a205452414e534645525f4641494c454400604082015260600190565b6020808252602f908201527f416363657373436f6e74726f6c3a2073656e646572206d75737420626520616e60408201526e0818591b5a5b881d1bc819dc985b9d608a1b606082015260800190565b60208082526029908201527f556e69766572736974793a206e6f7420656e6f7567682062756467657420746f60408201526820646563726561736560b81b606082015260800190565b6020808252601d908201527f556e69766572736974793a206174746163682066756e64206669727374000000604082015260600190565b60208082526026908201527f4f776e61626c653a206e6577206f776e657220697320746865207a65726f206160408201526564647265737360d01b606082015260800190565b602080825260329082015260008051602061470b83398151915260408201527146554e44535f4d414e414745525f524f4c4560701b606082015260800190565b602080825260329082015260008051602061470b833981519152604082015271612073747564656e7420726567697374727960701b606082015260800190565b6020808252818101527f556e69766572736974793a206e6f7420656e6f75676820656e646f776d656e74604082015260600190565b60208082526026908201527f556e69766572736974793a2073747564656e7420616c726561647920726567696040820152651cdd195c995960d21b606082015260800190565b60208082526026908201527f556e69766572736974793a206e6f7420656e6f75676820617661696c61626c656040820152652066756e647360d01b606082015260800190565b6020808252601b908201527f536166654d6174683a206164646974696f6e206f766572666c6f770000000000604082015260600190565b602080825260349082015260008051602061470b833981519152604082015273434c4153534c4953545f41444d494e5f524f4c4560601b606082015260800190565b60208082526021908201527f436c617373726f6f6d3a2072656164207065726d697373696f6e2064656e69656040820152601960fa1b606082015260800190565b602080825260389082015260008051602061470b833981519152604082015277434c415353524f4f4d5f50524f464553534f525f524f4c4560401b606082015260800190565b60208082526023908201527f556e69766572736974793a20696e76616c69642073747564656e74206164647260408201526265737360e81b606082015260800190565b60208082526030908201527f416363657373436f6e74726f6c3a2073656e646572206d75737420626520616e60408201526f2061646d696e20746f207265766f6b6560801b606082015260800190565b60208082526026908201527f556e69766572736974793a206e6f7420656e6f7567682066756e647320746f206040820152651a5b9d995cdd60d21b606082015260800190565b6020808252818101527f4f776e61626c653a2063616c6c6572206973206e6f7420746865206f776e6572604082015260600190565b6020808252601f908201527f556e69766572736974793a207265636f7665722066756e647320666972737400604082015260600190565b60208082526029908201527f556e69766572736974793a206e6f7420656e6f756768206f7065726174696f6e604082015268185b08189d5919d95d60ba1b606082015260800190565b602080825260339082015260008051602061470b8339815191526040820152724752414e54535f4d414e414745525f524f4c4560681b606082015260800190565b602080825260389082015260008051602061470b833981519152604082015277554e49564552534954595f4f564552534545525f524f4c4560401b606082015260800190565b60208082526031908201527f556e69766572736974793a2063616c6c6572206973206e6f74206f776e6572206040820152706f66207468697320636c617373726f6f6d60781b606082015260800190565b60208082526023908201527f5472616e7366657248656c7065723a204554485f5452414e534645525f46414960408201526213115160ea1b606082015260800190565b60208082526038908201527f556e69766572736974793a2063616c6c6572206973206e6f74206f776e6572206040820152776f6620746869732073747564656e7420726567697374727960401b606082015260800190565b6020808252603a908201527f556e69766572736974793a20726563656976657220646f65736e27742068617660408201527f6520524547495354455245445f535550504c4945525f524f4c45000000000000606082015260800190565b60208082526035908201527f556e69766572736974793a207468697320756e6976657273697479206973206e6040820152741bdd081bdddb995c881bd9881d1a1a5cc8199d5b99605a1b606082015260800190565b60208082526024908201527f5472616e7366657248656c7065723a205452414e534645525f46524f4d5f46416040820152631253115160e21b606082015260800190565b6020808252602f908201527f416363657373436f6e74726f6c3a2063616e206f6e6c792072656e6f756e636560408201526e103937b632b9903337b91039b2b63360891b606082015260800190565b62ffffff91909116815260200190565b6040518181016001600160401b038111828210171561469e57600080fd5b604052919050565b60006001600160401b038211156146bb578081fd5b5060209081020190565b60005b838110156146e05781810151838201526020016146c8565b838111156146ef576000848401525b50505050565b6001600160a01b038116811461121a57600080fdfe556e69766572736974793a2063616c6c657220646f65736e2774206861766520a2646970667358221220dcfa6931e27fb11d13c0de03d1167ac41a248acfc3fac890ffe165cda95a7baf64736f6c634300060b0033",
  "immutableReferences": {},
  "source": "// SPDX-License-Identifier: GPL-3.0-or-later\r\n\r\npragma solidity ^0.6.11;\r\n\r\npragma experimental ABIEncoderV2;\r\n\r\nimport \"@openzeppelin/contracts/math/SafeMath.sol\";\r\nimport \"@openzeppelin/contracts/access/AccessControl.sol\";\r\nimport \"@openzeppelin/contracts/access/Ownable.sol\";\r\nimport \"@openzeppelin/contracts/token/ERC20/IERC20.sol\";\r\nimport \"./interface/IClassroom.sol\";\r\nimport \"./interface/IStudent.sol\";\r\nimport \"./interface/IStudentApplication.sol\";\r\nimport \"./interface/IClassroomFactory.sol\";\r\nimport \"./interface/IStudentFactory.sol\";\r\nimport \"./interface/IUniversity.sol\";\r\nimport \"./interface/IUniversityFund.sol\";\r\nimport \"./interface/IGrantsManager.sol\";\r\nimport \"./interface/ENSInterfaces.sol\";\r\nimport \"./MyUtils.sol\";\r\n\r\n//TODO: Natspec Document ENVERYTHING\r\n//TODO: Sort function order from all contracts\r\n\r\ncontract University is Ownable, AccessControl, IUniversity {\r\n    using SafeMath for uint256;\r\n\r\n    //CLASSLIST_ADMIN_ROLE can add new manually created classes to the list\r\n    bytes32 public constant CLASSLIST_ADMIN_ROLE = keccak256(\r\n        \"CLASSLIST_ADMIN_ROLE\"\r\n    );\r\n    // FUNDS_MANAGER_ROLE can withdraw funds from the contract\r\n    bytes32 public constant FUNDS_MANAGER_ROLE = keccak256(\r\n        \"FUNDS_MANAGER_ROLE\"\r\n    );\r\n    // GRANTS_MANAGER_ROLE can approve/decline grant claims\r\n    bytes32 public constant GRANTS_MANAGER_ROLE = keccak256(\r\n        \"GRANTS_MANAGER_ROLE\"\r\n    );\r\n    /// STUDENT_IDENTITY_ROLE allow asking for grants and requesting a classroom from a successful application\r\n    bytes32 public constant STUDENT_IDENTITY_ROLE = keccak256(\r\n        \"STUDENT_IDENTITY_ROLE\"\r\n    );\r\n    /// CLASSROOM_PROFESSOR_ROLE can manage itself inside the University and registering student applications\r\n    bytes32 public constant CLASSROOM_PROFESSOR_ROLE = keccak256(\r\n        \"CLASSROOM_PROFESSOR_ROLE\"\r\n    );\r\n    /// UNIVERSITY_OVERSEER_ROLE can inspect Grant Managers and Fund Managers, and present cases for funders to vote upon\r\n    bytes32 public constant UNIVERSITY_OVERSEER_ROLE = keccak256(\r\n        \"UNIVERSITY_OVERSEER_ROLE\"\r\n    );\r\n    /// REGISTERED_SUPPLIER_ROLE can receive transactions to consume the operational budget\r\n    bytes32 public constant REGISTERED_SUPPLIER_ROLE = keccak256(\r\n        \"REGISTERED_SUPPLIER_ROLE\"\r\n    );\r\n\r\n    // Parameter: Name of this University\r\n    bytes32 public override name;\r\n    // Parameter: University cut from professor (Parts per Million)\r\n    uint24 public override cut;\r\n    // List of every registered classroom\r\n    address[] public classList;\r\n    // Mapping of each student's applications\r\n    mapping(address => address[]) _studentApplicationsMapping;\r\n    // Mapping of each student(owner) to student(smart contract)\r\n    mapping(address => address) public ownerToStudent;\r\n    // Mapping of every donor and donations\r\n    mapping(address => uint256) public donators;\r\n    // Total amount of donations received so far\r\n    uint256 public donationsReceived;\r\n    // Total amount of operational revenue received so far\r\n    uint256 public revenueReceived;\r\n    // Total amount of financial returns received so far\r\n    uint256 public returnsReceived;\r\n    // Total amount of endowment locked in the fund\r\n    uint256 public endowmentLocked;\r\n    // Total amount of funds allowed for expenses\r\n    uint256 public operationalBudget;\r\n    // University Fund\r\n    address public override universityFund;\r\n\r\n    //Tokens\r\n    address public daiToken;\r\n    address public cDAI;\r\n\r\n    //Factory\r\n    address public classroomFactory;\r\n    address public studentFactory;\r\n    address public studentApplicationFactory;\r\n\r\n    //ENS\r\n    address public ensContract;\r\n    address public ensRegistrar;\r\n    address public ensPublicResolver;\r\n    address public ensReverseRegistrar;\r\n\r\n    /// @notice Constructor setup the basic variables\r\n    /// @dev Not all variables can be defined in this constructor because the limitation of the stack size\r\n    /// @param name_ Given name for the university\r\n    /// @param cut_ Cut from professor payments, in PPM\r\n    /// @param daiAddress Adress of contract in the network\r\n    /// @param classroomFactoryAddress Adress of contract in the network\r\n    /// @param studentFactoryAddress Adress of contract in the network\r\n    /// @param studentApplicationFactoryAddress Adress of contract in the network\r\n    constructor(\r\n        bytes32 name_,\r\n        uint24 cut_,\r\n        address daiAddress,\r\n        address compoundDai,\r\n        address classroomFactoryAddress,\r\n        address studentFactoryAddress,\r\n        address studentApplicationFactoryAddress,\r\n        address ensContractAddress,\r\n        address ensRegistrarAddress,\r\n        address ensPublicResolverAddress,\r\n        address ensReverseRegistrarAddress\r\n    ) public {\r\n        name = name_;\r\n        cut = cut_;\r\n        _setupRole(DEFAULT_ADMIN_ROLE, _msgSender());\r\n        grantRole(CLASSLIST_ADMIN_ROLE, _msgSender());\r\n        daiToken = daiAddress;\r\n        cDAI = compoundDai;\r\n        classroomFactory = classroomFactoryAddress;\r\n        studentFactory = studentFactoryAddress;\r\n        studentApplicationFactory = studentApplicationFactoryAddress;\r\n        ensContract = ensContractAddress;\r\n        ensRegistrar = ensRegistrarAddress;\r\n        ensPublicResolver = ensPublicResolverAddress;\r\n        ensReverseRegistrar = ensReverseRegistrarAddress;\r\n    }\r\n\r\n    /// @notice Allow receiving ETH\r\n    receive() external payable {\r\n        emit LogReceived(msg.sender, msg.value);\r\n    }\r\n\r\n    /// @notice Withdraw ETH from the contract\r\n    function withdraw(uint256 val) public onlyOwner {\r\n        TransferHelper.safeTransferETH(_msgSender(), val);\r\n    }\r\n\r\n    /// @notice Records the name and address of every new classroom created\r\n    event LogNewClassroom(bytes32, address);\r\n    /// @notice Records the name and address of every new student created\r\n    event LogNewStudent(bytes32, address);\r\n    /// @notice Records the name changes of this University\r\n    event LogChangeName(bytes32);\r\n    /// @notice Records the changes in the Cut parameter\r\n    event LogChangeCut(uint24);\r\n    /// @notice Records ETH received\r\n    event LogReceived(address, uint256);\r\n    /// @notice Records donations received and the address of the donor\r\n    event LogDonation(address, uint256);\r\n    /// @notice Records investment returns received and the address of the caller\r\n    event LogReturn(address, uint256);\r\n    /// @notice Records revenues received and the address of the souce\r\n    event LogRevenue(address, uint256);\r\n\r\n    /// @notice Update external contracts addresses\r\n    /// @param daiAddress Address of contract in the network\r\n    /// @param classroomFactoryAddress Address of contract in the network\r\n    /// @param studentFactoryAddress Address of contract in the network\r\n    /// @param studentApplicationFactoryAddress Address of contract in the network\r\n    /// @param ensRegistrarAddress Address of contract in the network\r\n    /// @param ensPublicResolverAddress Address of contract in the network\r\n    /// @param ensReverseRegistrarAddress Address of contract in the network\r\n    function updateAddresses(\r\n        address daiAddress,\r\n        address compoundDai,\r\n        address classroomFactoryAddress,\r\n        address studentFactoryAddress,\r\n        address studentApplicationFactoryAddress,\r\n        address ensContractAddress,\r\n        address ensRegistrarAddress,\r\n        address ensPublicResolverAddress,\r\n        address ensReverseRegistrarAddress\r\n    ) public onlyOwner {\r\n        daiToken = daiAddress == address(0) ? daiToken : daiAddress;\r\n        cDAI = compoundDai == address(0) ? cDAI : compoundDai;\r\n        classroomFactory = classroomFactoryAddress == address(0)\r\n            ? classroomFactory\r\n            : classroomFactoryAddress;\r\n        studentFactory = studentFactoryAddress == address(0)\r\n            ? studentFactory\r\n            : studentFactoryAddress;\r\n        studentApplicationFactory = studentApplicationFactoryAddress ==\r\n            address(0)\r\n            ? studentApplicationFactory\r\n            : studentApplicationFactoryAddress;\r\n        ensContract = ensContractAddress == address(0)\r\n            ? ensContract\r\n            : ensContractAddress;\r\n        ensRegistrar = ensRegistrarAddress == address(0)\r\n            ? ensRegistrar\r\n            : ensRegistrarAddress;\r\n        ensPublicResolver = ensPublicResolverAddress == address(0)\r\n            ? ensPublicResolver\r\n            : ensPublicResolverAddress;\r\n        ensReverseRegistrar = ensReverseRegistrarAddress == address(0)\r\n            ? ensReverseRegistrar\r\n            : ensReverseRegistrarAddress;\r\n    }\r\n\r\n    // Parameters setup\r\n\r\n    /// @notice Attach the University Fund after creation\r\n    /// @param addr New value\r\n    function attachFund(address addr) public onlyOwner {\r\n        require(\r\n            IUniversityFund(addr).ownerFund() == address(this),\r\n            \"University: this university is not owner of this fund\"\r\n        );\r\n        universityFund = addr;\r\n    }\r\n\r\n    /// @notice Change the name of the University\r\n    /// @param val New value\r\n    function changeName(bytes32 val) public onlyOwner {\r\n        name = val;\r\n        emit LogChangeName(name);\r\n    }\r\n\r\n    /// @notice Change the cut charged from the professors\r\n    /// @param val New value, in PPM\r\n    function changeCut(uint24 val) public onlyOwner {\r\n        cut = val;\r\n        emit LogChangeCut(cut);\r\n    }\r\n\r\n    // ENS operations\r\n\r\n    function registerInRegistrar(bytes32 label, address _owner)\r\n        public\r\n        onlyOwner\r\n    {\r\n        IRegistrar(ensRegistrar).register(label, _owner);\r\n    }\r\n\r\n    function registerInReverseRegistrar(string memory _name) public onlyOwner {\r\n        IReverseRegistrar(ensReverseRegistrar).setName(_name);\r\n    }\r\n\r\n    function setResolver(bytes32 node, address resolver) public onlyOwner {\r\n        IENS(ensContract).setResolver(node, resolver);\r\n    }\r\n\r\n    function setAddressInResolver(bytes32 node, address val) public onlyOwner {\r\n        setAddressInResolver(node, val, ensPublicResolver);\r\n    }\r\n\r\n    function setAddressInResolver(\r\n        bytes32 node,\r\n        address val,\r\n        address resolver\r\n    ) public onlyOwner {\r\n        IResolver(resolver).setAddr(node, val);\r\n    }\r\n\r\n    function setTextInResolver(\r\n        bytes32 node,\r\n        string memory key,\r\n        string memory val\r\n    ) public onlyOwner {\r\n        setTextInResolver(node, key, val, ensPublicResolver);\r\n    }\r\n\r\n    function setTextInResolver(\r\n        bytes32 node,\r\n        string memory key,\r\n        string memory val,\r\n        address resolver\r\n    ) public onlyOwner {\r\n        IResolver(resolver).setText(node, key, val);\r\n    }\r\n\r\n    function setSubnodeRecord(\r\n        bytes32 node,\r\n        bytes32 label,\r\n        address owner,\r\n        address resolver,\r\n        uint64 ttl\r\n    ) public onlyOwner {\r\n        IENS(ensContract).setSubnodeRecord(node, label, owner, resolver, ttl);\r\n    }\r\n\r\n    function claimSubnodeClassroom(\r\n        bytes32 node,\r\n        bytes32 label,\r\n        address resolver,\r\n        uint64 ttl,\r\n        address classroom\r\n    ) public {\r\n        require(\r\n            IClassroom(classroom).ownerClassroom() == _msgSender(),\r\n            \"University: caller is not owner of this classroom\"\r\n        );\r\n        address owner = _msgSender();\r\n        setSubnodeRecord(node, label, owner, resolver, ttl);\r\n    }\r\n\r\n    function claimSubnodeStudent(\r\n        bytes32 node,\r\n        bytes32 label,\r\n        address resolver,\r\n        uint64 ttl,\r\n        address student\r\n    ) public {\r\n        require(\r\n            IStudent(student).ownerStudent() == _msgSender(),\r\n            \"University: caller is not owner of this student registry\"\r\n        );\r\n        address owner = _msgSender();\r\n        setSubnodeRecord(node, label, owner, resolver, ttl);\r\n    }\r\n\r\n    // Contract Logic\r\n\r\n    // Public view functions\r\n\r\n    /// @return the ammount of DAI able for investing\r\n    /// @dev ETH is not considered as part of investment funds\r\n    function availableFundsForInvestment()\r\n        public\r\n        override\r\n        view\r\n        returns (uint256)\r\n    {\r\n        uint256 funds = IERC20(daiToken).balanceOf(address(this));\r\n        if (funds < operationalBudget) return 0;\r\n        return funds.sub(operationalBudget);\r\n    }\r\n\r\n    /// @return the ammount of DAI able for giving grants\r\n    /// @dev ETH is not considered as part of funds\r\n    function availableFunds() public override view returns (uint256) {\r\n        uint256 funds = IERC20(daiToken).balanceOf(address(this));\r\n        if (funds < endowmentLocked.add(operationalBudget)) return 0;\r\n        return funds.sub(endowmentLocked).sub(operationalBudget);\r\n    }\r\n\r\n    /// @return true if the classroom is registered in this University\r\n    function isValidClassroom(address classroom)\r\n        public\r\n        override\r\n        view\r\n        returns (bool)\r\n    {\r\n        return hasRole(CLASSROOM_PROFESSOR_ROLE, classroom);\r\n    }\r\n\r\n    /// @return true if the student is registered in this University\r\n    function studentIsRegistered(address student)\r\n        public\r\n        override\r\n        view\r\n        returns (bool)\r\n    {\r\n        return hasRole(STUDENT_IDENTITY_ROLE, student);\r\n    }\r\n\r\n    /// @return address of this student\r\n    function myStudentAddress() public view returns (address) {\r\n        require(\r\n            ownerToStudent[_msgSender()] != address(0),\r\n            \"University: caller doesn't have a student registry\"\r\n        );\r\n        return ownerToStudent[_msgSender()];\r\n    }\r\n\r\n    /// @return the address of the application of a Student\r\n    function viewMyApplications()\r\n        public\r\n        override\r\n        view\r\n        returns (address[] memory)\r\n    {\r\n        return viewStudentApplications(_msgSender());\r\n    }\r\n\r\n    /// @return the address of the application of a Student, called from the owner\r\n    function viewMyStudentApplications(address student)\r\n        public\r\n        view\r\n        returns (address[] memory)\r\n    {\r\n        require(\r\n            IStudent(student).ownerStudent() == _msgSender(),\r\n            \"University: invalid student address\"\r\n        );\r\n        return _studentApplicationsMapping[student];\r\n    }\r\n\r\n    /// @param addr Address of the student\r\n    /// @return the addresses of the applications of a the supplied address\r\n    function viewStudentApplications(address addr)\r\n        public\r\n        override\r\n        view\r\n        returns (address[] memory)\r\n    {\r\n        require(\r\n            addr == _msgSender() || hasRole(GRANTS_MANAGER_ROLE, _msgSender()),\r\n            \"Classroom: read permission denied\"\r\n        );\r\n        return _studentApplicationsMapping[addr];\r\n    }\r\n\r\n    // Student registry logic\r\n\r\n    /// @notice Self-register function where an address can create an instance of a Student in this University\r\n    /// @param sName Name of the Student\r\n    function studentSelfRegister(bytes32 sName) public {\r\n        _newStudent(sName, _msgSender());\r\n    }\r\n\r\n    function _newStudent(bytes32 sName, address caller)\r\n        internal\r\n        returns (address)\r\n    {\r\n        require(\r\n            ownerToStudent[caller] == address(0),\r\n            \"University: student already registered\"\r\n        );\r\n        address student = IStudentFactory(studentFactory).newStudent(\r\n            sName,\r\n            address(this)\r\n        );\r\n        ownerToStudent[caller] = student;\r\n        IStudent(student).transferOwnershipStudent(caller);\r\n        _setupRole(STUDENT_IDENTITY_ROLE, student);\r\n        emit LogNewStudent(name, student);\r\n        return student;\r\n    }\r\n\r\n    // Classroom operation logic\r\n\r\n    /// @notice Register function where an Admin can can create an instance of a Classroom in this University\r\n    /// @param owner Address to own this classroom\r\n    /// @param cName Name this classroom\r\n    /// @param cCut Cut of the principal amount deposited that is charged from students, in PPM\r\n    /// @param cPCut Cut of the pooled returns from successful students, in PPM\r\n    /// @param minScore Minimum score value required from students to be able to apply in this classroom\r\n    /// @param entryPrice Required deposit to be applied as principal an locked for the duration of the course, in decimal units of DAI\r\n    /// @param duration Lock time between course opening and closing, in Timestamp\r\n    /// @param challengeAddress Address to the challenge to be solved in this Classroom's courses\r\n    /// @return the smart contract address for this Classroom instance in this University\r\n    function newClassRoom(\r\n        address owner,\r\n        bytes32 cName,\r\n        uint24 cCut,\r\n        uint24 cPCut,\r\n        int32 minScore,\r\n        uint256 entryPrice,\r\n        uint256 duration,\r\n        address challengeAddress\r\n    ) public returns (address) {\r\n        require(\r\n            hasRole(CLASSLIST_ADMIN_ROLE, _msgSender()),\r\n            \"University: caller doesn't have CLASSLIST_ADMIN_ROLE\"\r\n        );\r\n        return\r\n            _newClassRoom(\r\n                owner,\r\n                cName,\r\n                cCut,\r\n                cPCut,\r\n                minScore,\r\n                entryPrice,\r\n                duration,\r\n                challengeAddress\r\n            );\r\n    }\r\n\r\n    function _newClassRoom(\r\n        address owner,\r\n        bytes32 cName,\r\n        uint24 cCut,\r\n        uint24 cPCut,\r\n        int32 minScore,\r\n        uint256 entryPrice,\r\n        uint256 duration,\r\n        address challengeAddress\r\n    ) internal returns (address) {\r\n        address classroom = IClassroomFactory(classroomFactory).newClassroom(\r\n            cName,\r\n            cCut,\r\n            cPCut,\r\n            minScore,\r\n            entryPrice,\r\n            duration,\r\n            payable(address(this)),\r\n            challengeAddress,\r\n            daiToken,\r\n            cDAI,\r\n            studentApplicationFactory\r\n        );\r\n        IClassroom(classroom).transferOwnershipClassroom(owner);\r\n        address classroomAddr = address(classroom);\r\n        classList.push(classroomAddr);\r\n        _setupRole(CLASSROOM_PROFESSOR_ROLE, classroomAddr);\r\n        emit LogNewClassroom(cName, classroomAddr);\r\n        return classroomAddr;\r\n    }\r\n\r\n    /// @notice Register and map a Student's application to this Student\r\n    /// @param student Address of the Student\r\n    /// @param application Address of the application\r\n    function registerStudentApplication(address student, address application)\r\n        public\r\n        override\r\n    {\r\n        require(\r\n            hasRole(CLASSROOM_PROFESSOR_ROLE, _msgSender()),\r\n            \"University: caller doesn't have CLASSROOM_PROFESSOR_ROLE\"\r\n        );\r\n        _studentApplicationsMapping[student].push(application);\r\n    }\r\n\r\n    /// @notice Check if an application belongs to a specific Student\r\n    /// @param studentAddress Address of the Student\r\n    /// @param applicationAddress Address of the application\r\n    /// @return true if the application belongs to the Student\r\n    function checkForStudentApplication(\r\n        address studentAddress,\r\n        address applicationAddress\r\n    ) internal view returns (bool) {\r\n        for (\r\n            uint256 i = 0;\r\n            i < _studentApplicationsMapping[studentAddress].length;\r\n            i++\r\n        ) {\r\n            if (\r\n                _studentApplicationsMapping[studentAddress][i] ==\r\n                applicationAddress\r\n            ) return true;\r\n        }\r\n        return false;\r\n    }\r\n\r\n    // Student score management\r\n\r\n    /// @notice Increase a Student's score upon successful application\r\n    /// @param student Address of the Student\r\n    /// @param val Value to be added\r\n    function addStudentScore(address student, int32 val) public override {\r\n        require(\r\n            hasRole(CLASSROOM_PROFESSOR_ROLE, _msgSender()),\r\n            \"University: caller doesn't have CLASSROOM_PROFESSOR_ROLE\"\r\n        );\r\n        IStudent(student).addScore(val);\r\n    }\r\n\r\n    /// @notice Decrease a Student's score upon failed application\r\n    /// @param student Address of the Student\r\n    /// @param val Value to be subtracted\r\n    function subStudentScore(address student, int32 val) public override {\r\n        require(\r\n            hasRole(CLASSROOM_PROFESSOR_ROLE, _msgSender()),\r\n            \"University: caller doesn't have CLASSROOM_PROFESSOR_ROLE\"\r\n        );\r\n        IStudent(student).subScore(val);\r\n    }\r\n\r\n    // Funds asset value management\r\n\r\n    /// @notice Allow managing the university Funds. Must be called from an appointed Funds Manager\r\n    function applyFunds(uint256 val) public override {\r\n        require(\r\n            hasRole(FUNDS_MANAGER_ROLE, _msgSender()),\r\n            \"University: caller doesn't have FUNDS_MANAGER_ROLE\"\r\n        );\r\n        require(\r\n            availableFundsForInvestment() >= val,\r\n            \"University: not enough funds to invest\"\r\n        );\r\n        require(universityFund != address(0), \"University: attach fund first\");\r\n        TransferHelper.safeTransfer(address(daiToken), universityFund, val);\r\n    }\r\n\r\n    /// @notice Get the ammount of DAI applied in Fund\r\n    /// @return ammount of DAI applied in Fund\r\n    function appliedFunds() public view returns (uint256) {\r\n        require(universityFund != address(0), \"University: attach fund first\");\r\n        return IERC20(daiToken).balanceOf(universityFund);\r\n    }\r\n\r\n    /// @notice Allow managing the university Funds. Must be called from an appointed Funds Manager\r\n    function recoverFunds(uint256 val) public override {\r\n        require(\r\n            hasRole(FUNDS_MANAGER_ROLE, _msgSender()),\r\n            \"University: caller doesn't have FUNDS_MANAGER_ROLE\"\r\n        );\r\n        require(universityFund != address(0), \"University: attach fund first\");\r\n        TransferHelper.safeTransferFrom(\r\n            address(daiToken),\r\n            universityFund,\r\n            address(this),\r\n            val\r\n        );\r\n    }\r\n\r\n    /// @notice Allow managing the university Funds. Must be called from an appointed Funds Manager\r\n    function applyFundsETH(uint256 val) public override {\r\n        require(\r\n            hasRole(FUNDS_MANAGER_ROLE, _msgSender()),\r\n            \"University: caller doesn't have FUNDS_MANAGER_ROLE\"\r\n        );\r\n        require(universityFund != address(0), \"University: attach fund first\");\r\n        TransferHelper.safeTransferETH(universityFund, val);\r\n    }\r\n\r\n    /// @notice Get the ammount of ETH applied in Fund\r\n    /// @return ammount of ETH applied in Fund\r\n    function appliedFundsETH() public view returns (uint256) {\r\n        require(universityFund != address(0), \"University: attach fund first\");\r\n        return universityFund.balance;\r\n    }\r\n\r\n    /// @notice Allow managing the university Funds. Must be called from an appointed Funds Manager\r\n    function recoverFundsETH(uint256 val) public override {\r\n        require(\r\n            hasRole(FUNDS_MANAGER_ROLE, _msgSender()),\r\n            \"University: caller doesn't have FUNDS_MANAGER_ROLE\"\r\n        );\r\n        require(universityFund != address(0), \"University: attach fund first\");\r\n        IUniversityFund(universityFund).withdraw(val);\r\n    }\r\n\r\n    //Funds setup\r\n\r\n    /// @notice Grants role to account inside University Fund\r\n    function grantRoleFund(bytes32 role, address account) public {\r\n        require(universityFund != address(0), \"University: attach fund first\");\r\n        IUniversityFund(universityFund).grantRoleFund(role, account);\r\n    }\r\n\r\n    /// @notice Revoke role from account inside University Fund\r\n    function revokeRoleFund(bytes32 role, address account) public {\r\n        require(universityFund != address(0), \"University: attach fund first\");\r\n        IUniversityFund(universityFund).revokeRoleFund(role, account);\r\n    }\r\n\r\n    // Funds value quotas management\r\n\r\n    /// @notice Allow managing how much Funds Manager can draw from funds to cover operational expenses. Must be called from the university admin\r\n    /// @param val Value to increase\r\n    function increaseOperationalBudget(uint256 val) public onlyOwner {\r\n        require(endowmentLocked >= val, \"University: not enough endowment\");\r\n        operationalBudget = operationalBudget.add(val);\r\n        endowmentLocked = endowmentLocked.sub(val);\r\n    }\r\n\r\n    /// @notice Allow managing how much Funds Manager can draw from funds to cover operational expenses. Must be called from the university admin\r\n    /// @param val Value to decrease\r\n    function decreaseOperationalBudget(uint256 val) public onlyOwner {\r\n        require(\r\n            operationalBudget >= val,\r\n            \"University: not enough budget to decrease\"\r\n        );\r\n        operationalBudget = operationalBudget.sub(val);\r\n        endowmentLocked = endowmentLocked.add(val);\r\n    }\r\n\r\n    /// @notice Allow a Funds Manager to send funds to Registered Suppliers, spending the operational budget set by the University owner\r\n    /// @param to Address of the Registered Supplier\r\n    /// @param val Value to be sent, in DAI decimals\r\n    function spendBudget(address to, uint256 val) public override {\r\n        require(\r\n            hasRole(FUNDS_MANAGER_ROLE, _msgSender()),\r\n            \"University: caller doesn't have FUNDS_MANAGER_ROLE\"\r\n        );\r\n        require(\r\n            hasRole(REGISTERED_SUPPLIER_ROLE, to),\r\n            \"University: receiver doesn't have REGISTERED_SUPPLIER_ROLE\"\r\n        );\r\n        require(\r\n            operationalBudget >= val,\r\n            \"University: not enough operational budget\"\r\n        );\r\n        require(\r\n            IERC20(daiToken).balanceOf(address(this)) >= val,\r\n            \"University: recover funds first\"\r\n        );\r\n        TransferHelper.safeTransfer(address(daiToken), to, val);\r\n        operationalBudget = operationalBudget.sub(val);\r\n    }\r\n\r\n    /// @notice Allow a Grants Manager to pay a Student's entry price for an application, if the appointed Grants Manager decide so\r\n    /// @param studentApplication Address of the Student\r\n    /// @param price Value of the application's entry price\r\n    function giveGrant(address studentApplication, uint256 price)\r\n        public\r\n        override\r\n    {\r\n        require(\r\n            hasRole(GRANTS_MANAGER_ROLE, _msgSender()),\r\n            \"University: caller doesn't have GRANTS_MANAGER_ROLE\"\r\n        );\r\n        require(\r\n            availableFunds() >= price,\r\n            \"University: not enough available funds\"\r\n        );\r\n        IStudentApplication(studentApplication).payEntryPrice(true);\r\n    }\r\n\r\n    /// @notice Allow a Funds Manager to redirect surplus funds from liquidated positions to the endowment locked value. Irreversible\r\n    /// @param val Value to be sent, in DAI decimals\r\n    function reinvestReturns(uint256 val) public override {\r\n        require(\r\n            hasRole(FUNDS_MANAGER_ROLE, _msgSender()),\r\n            \"University: caller doesn't have FUNDS_MANAGER_ROLE\"\r\n        );\r\n        require(\r\n            availableFunds() >= val,\r\n            \"University: not enough available funds\"\r\n        );\r\n        accountReturns(val);\r\n    }\r\n\r\n    // Overseer actions\r\n\r\n    /// @notice Allow an appointed Overseer to inspect all students that received grants by a specific Grants Manager\r\n    /// @param grantsManager Address of the Grants Manager\r\n    /// @return array of Students addresses\r\n    function viewAllStudentsFromGrantManager(address grantsManager)\r\n        public\r\n        returns (address[] memory)\r\n    {\r\n        require(\r\n            hasRole(UNIVERSITY_OVERSEER_ROLE, _msgSender()),\r\n            \"University: caller doesn't have UNIVERSITY_OVERSEER_ROLE\"\r\n        );\r\n        return IGrantsManager(grantsManager).viewAllStudents();\r\n    }\r\n\r\n    /// @notice Allow an appointed Overseer to inspect all grants issued by a specific Grants Manager to a specific Student\r\n    /// @param student Address of the Student\r\n    /// @param grantsManager Address of the Grants Manager\r\n    /// @return array of grant values\r\n    function viewAllStudentGrantsFromGrantManager(\r\n        address student,\r\n        address grantsManager\r\n    ) public returns (uint256[] memory) {\r\n        require(\r\n            hasRole(UNIVERSITY_OVERSEER_ROLE, _msgSender()),\r\n            \"University: caller doesn't have UNIVERSITY_OVERSEER_ROLE\"\r\n        );\r\n        return IGrantsManager(grantsManager).viewAllGrantsForStudent(student);\r\n    }\r\n\r\n    // Donations feature\r\n\r\n    /// @notice Allow donating DAI to the University funds. Require allowing the University first\r\n    /// @param donation amount of DAI to donate, in decimals\r\n    function donateDAI(uint256 donation) public override {\r\n        TransferHelper.safeTransferFrom(\r\n            address(daiToken),\r\n            _msgSender(),\r\n            address(this),\r\n            donation\r\n        );\r\n        accountDonation(_msgSender(), donation);\r\n    }\r\n\r\n    function accountDonation(address sender, uint256 donation) internal {\r\n        donationsReceived = donationsReceived.add(donation);\r\n        endowmentLocked = endowmentLocked.add(donation);\r\n        donators[sender] = donators[sender].add(donation);\r\n        LogDonation(_msgSender(), donation);\r\n    }\r\n\r\n    /// @notice Classroom call to account a revenue received from a completed course\r\n    function accountRevenue(uint256 revenue) public override {\r\n        require(\r\n            hasRole(CLASSROOM_PROFESSOR_ROLE, _msgSender()),\r\n            \"University: caller doesn't have CLASSROOM_PROFESSOR_ROLE\"\r\n        );\r\n        revenueReceived = revenueReceived.add(revenue);\r\n        endowmentLocked = endowmentLocked.add(revenue);\r\n        LogRevenue(_msgSender(), revenue);\r\n    }\r\n\r\n    function accountReturns(uint256 financialReturns) internal {\r\n        returnsReceived = revenueReceived.add(financialReturns);\r\n        endowmentLocked = endowmentLocked.add(financialReturns);\r\n        LogReturn(_msgSender(), financialReturns);\r\n    }\r\n}\r\n",
  "sourcePath": "/mnt/e/Repositories/uproot-trustless-contracts/contracts/University.sol",
  "compiler": {
    "name": "solc",
    "version": "0.6.11+commit.5ef660b1.Emscripten.clang"
  },
  "schemaVersion": "3.1.0",
  "updatedAt": "2020-07-18T18:16:50.628Z",
  "networkType": "ethereum",
  "devdoc": {
    "kind": "dev",
    "methods": {
      "addStudentScore(address,int32)": {
        "params": {
          "student": "Address of the Student",
          "val": "Value to be added"
        }
      },
      "appliedFunds()": {
        "returns": {
          "_0": "ammount of DAI applied in Fund"
        }
      },
      "appliedFundsETH()": {
        "returns": {
          "_0": "ammount of ETH applied in Fund"
        }
      },
      "attachFund(address)": {
        "params": {
          "addr": "New value"
        }
      },
      "availableFunds()": {
        "details": "ETH is not considered as part of funds",
        "returns": {
          "_0": "the ammount of DAI able for giving grants"
        }
      },
      "availableFundsForInvestment()": {
        "details": "ETH is not considered as part of investment funds",
        "returns": {
          "_0": "the ammount of DAI able for investing"
        }
      },
      "changeCut(uint24)": {
        "params": {
          "val": "New value, in PPM"
        }
      },
      "changeName(bytes32)": {
        "params": {
          "val": "New value"
        }
      },
      "constructor": {
        "details": "Not all variables can be defined in this constructor because the limitation of the stack size",
        "params": {
          "classroomFactoryAddress": "Adress of contract in the network",
          "cut_": "Cut from professor payments, in PPM",
          "daiAddress": "Adress of contract in the network",
          "name_": "Given name for the university",
          "studentApplicationFactoryAddress": "Adress of contract in the network",
          "studentFactoryAddress": "Adress of contract in the network"
        }
      },
      "decreaseOperationalBudget(uint256)": {
        "params": {
          "val": "Value to decrease"
        }
      },
      "donateDAI(uint256)": {
        "params": {
          "donation": "amount of DAI to donate, in decimals"
        }
      },
      "getRoleAdmin(bytes32)": {
        "details": "Returns the admin role that controls `role`. See {grantRole} and {revokeRole}. To change a role's admin, use {_setRoleAdmin}."
      },
      "getRoleMember(bytes32,uint256)": {
        "details": "Returns one of the accounts that have `role`. `index` must be a value between 0 and {getRoleMemberCount}, non-inclusive. Role bearers are not sorted in any particular way, and their ordering may change at any point. WARNING: When using {getRoleMember} and {getRoleMemberCount}, make sure you perform all queries on the same block. See the following https://forum.openzeppelin.com/t/iterating-over-elements-on-enumerableset-in-openzeppelin-contracts/2296[forum post] for more information."
      },
      "getRoleMemberCount(bytes32)": {
        "details": "Returns the number of accounts that have `role`. Can be used together with {getRoleMember} to enumerate all bearers of a role."
      },
      "giveGrant(address,uint256)": {
        "params": {
          "price": "Value of the application's entry price",
          "studentApplication": "Address of the Student"
        }
      },
      "grantRole(bytes32,address)": {
        "details": "Grants `role` to `account`. If `account` had not been already granted `role`, emits a {RoleGranted} event. Requirements: - the caller must have ``role``'s admin role."
      },
      "hasRole(bytes32,address)": {
        "details": "Returns `true` if `account` has been granted `role`."
      },
      "increaseOperationalBudget(uint256)": {
        "params": {
          "val": "Value to increase"
        }
      },
      "isValidClassroom(address)": {
        "returns": {
          "_0": "true if the classroom is registered in this University"
        }
      },
      "myStudentAddress()": {
        "returns": {
          "_0": "address of this student"
        }
      },
      "newClassRoom(address,bytes32,uint24,uint24,int32,uint256,uint256,address)": {
        "params": {
          "cCut": "Cut of the principal amount deposited that is charged from students, in PPM",
          "cName": "Name this classroom",
          "cPCut": "Cut of the pooled returns from successful students, in PPM",
          "challengeAddress": "Address to the challenge to be solved in this Classroom's courses",
          "duration": "Lock time between course opening and closing, in Timestamp",
          "entryPrice": "Required deposit to be applied as principal an locked for the duration of the course, in decimal units of DAI",
          "minScore": "Minimum score value required from students to be able to apply in this classroom",
          "owner": "Address to own this classroom"
        },
        "returns": {
          "_0": "the smart contract address for this Classroom instance in this University"
        }
      },
      "owner()": {
        "details": "Returns the address of the current owner."
      },
      "registerStudentApplication(address,address)": {
        "params": {
          "application": "Address of the application",
          "student": "Address of the Student"
        }
      },
      "reinvestReturns(uint256)": {
        "params": {
          "val": "Value to be sent, in DAI decimals"
        }
      },
      "renounceOwnership()": {
        "details": "Leaves the contract without owner. It will not be possible to call `onlyOwner` functions anymore. Can only be called by the current owner. NOTE: Renouncing ownership will leave the contract without an owner, thereby removing any functionality that is only available to the owner."
      },
      "renounceRole(bytes32,address)": {
        "details": "Revokes `role` from the calling account. Roles are often managed via {grantRole} and {revokeRole}: this function's purpose is to provide a mechanism for accounts to lose their privileges if they are compromised (such as when a trusted device is misplaced). If the calling account had been granted `role`, emits a {RoleRevoked} event. Requirements: - the caller must be `account`."
      },
      "revokeRole(bytes32,address)": {
        "details": "Revokes `role` from `account`. If `account` had been granted `role`, emits a {RoleRevoked} event. Requirements: - the caller must have ``role``'s admin role."
      },
      "spendBudget(address,uint256)": {
        "params": {
          "to": "Address of the Registered Supplier",
          "val": "Value to be sent, in DAI decimals"
        }
      },
      "studentIsRegistered(address)": {
        "returns": {
          "_0": "true if the student is registered in this University"
        }
      },
      "studentSelfRegister(bytes32)": {
        "params": {
          "sName": "Name of the Student"
        }
      },
      "subStudentScore(address,int32)": {
        "params": {
          "student": "Address of the Student",
          "val": "Value to be subtracted"
        }
      },
      "transferOwnership(address)": {
        "details": "Transfers ownership of the contract to a new account (`newOwner`). Can only be called by the current owner."
      },
      "updateAddresses(address,address,address,address,address,address,address,address,address)": {
        "params": {
          "classroomFactoryAddress": "Address of contract in the network",
          "daiAddress": "Address of contract in the network",
          "ensPublicResolverAddress": "Address of contract in the network",
          "ensRegistrarAddress": "Address of contract in the network",
          "ensReverseRegistrarAddress": "Address of contract in the network",
          "studentApplicationFactoryAddress": "Address of contract in the network",
          "studentFactoryAddress": "Address of contract in the network"
        }
      },
      "viewAllStudentGrantsFromGrantManager(address,address)": {
        "params": {
          "grantsManager": "Address of the Grants Manager",
          "student": "Address of the Student"
        },
        "returns": {
          "_0": "array of grant values"
        }
      },
      "viewAllStudentsFromGrantManager(address)": {
        "params": {
          "grantsManager": "Address of the Grants Manager"
        },
        "returns": {
          "_0": "array of Students addresses"
        }
      },
      "viewMyApplications()": {
        "returns": {
          "_0": "the address of the application of a Student"
        }
      },
      "viewMyStudentApplications(address)": {
        "returns": {
          "_0": "the address of the application of a Student, called from the owner"
        }
      },
      "viewStudentApplications(address)": {
        "params": {
          "addr": "Address of the student"
        },
        "returns": {
          "_0": "the addresses of the applications of a the supplied address"
        }
      }
    },
    "version": 1
  },
  "userdoc": {
    "events": {
      "LogChangeCut(uint24)": {
        "notice": "Records the changes in the Cut parameter"
      },
      "LogChangeName(bytes32)": {
        "notice": "Records the name changes of this University"
      },
      "LogDonation(address,uint256)": {
        "notice": "Records donations received and the address of the donor"
      },
      "LogNewClassroom(bytes32,address)": {
        "notice": "Records the name and address of every new classroom created"
      },
      "LogNewStudent(bytes32,address)": {
        "notice": "Records the name and address of every new student created"
      },
      "LogReceived(address,uint256)": {
        "notice": "Records ETH received"
      },
      "LogReturn(address,uint256)": {
        "notice": "Records investment returns received and the address of the caller"
      },
      "LogRevenue(address,uint256)": {
        "notice": "Records revenues received and the address of the souce"
      }
    },
    "kind": "user",
    "methods": {
      "CLASSROOM_PROFESSOR_ROLE()": {
        "notice": "CLASSROOM_PROFESSOR_ROLE can manage itself inside the University and registering student applications"
      },
      "REGISTERED_SUPPLIER_ROLE()": {
        "notice": "REGISTERED_SUPPLIER_ROLE can receive transactions to consume the operational budget"
      },
      "STUDENT_IDENTITY_ROLE()": {
        "notice": "STUDENT_IDENTITY_ROLE allow asking for grants and requesting a classroom from a successful application"
      },
      "UNIVERSITY_OVERSEER_ROLE()": {
        "notice": "UNIVERSITY_OVERSEER_ROLE can inspect Grant Managers and Fund Managers, and present cases for funders to vote upon"
      },
      "accountRevenue(uint256)": {
        "notice": "Classroom call to account a revenue received from a completed course"
      },
      "addStudentScore(address,int32)": {
        "notice": "Increase a Student's score upon successful application"
      },
      "appliedFunds()": {
        "notice": "Get the ammount of DAI applied in Fund"
      },
      "appliedFundsETH()": {
        "notice": "Get the ammount of ETH applied in Fund"
      },
      "applyFunds(uint256)": {
        "notice": "Allow managing the university Funds. Must be called from an appointed Funds Manager"
      },
      "applyFundsETH(uint256)": {
        "notice": "Allow managing the university Funds. Must be called from an appointed Funds Manager"
      },
      "attachFund(address)": {
        "notice": "Attach the University Fund after creation"
      },
      "changeCut(uint24)": {
        "notice": "Change the cut charged from the professors"
      },
      "changeName(bytes32)": {
        "notice": "Change the name of the University"
      },
      "constructor": "Constructor setup the basic variables",
      "decreaseOperationalBudget(uint256)": {
        "notice": "Allow managing how much Funds Manager can draw from funds to cover operational expenses. Must be called from the university admin"
      },
      "donateDAI(uint256)": {
        "notice": "Allow donating DAI to the University funds. Require allowing the University first"
      },
      "giveGrant(address,uint256)": {
        "notice": "Allow a Grants Manager to pay a Student's entry price for an application, if the appointed Grants Manager decide so"
      },
      "grantRoleFund(bytes32,address)": {
        "notice": "Grants role to account inside University Fund"
      },
      "increaseOperationalBudget(uint256)": {
        "notice": "Allow managing how much Funds Manager can draw from funds to cover operational expenses. Must be called from the university admin"
      },
      "newClassRoom(address,bytes32,uint24,uint24,int32,uint256,uint256,address)": {
        "notice": "Register function where an Admin can can create an instance of a Classroom in this University"
      },
      "recoverFunds(uint256)": {
        "notice": "Allow managing the university Funds. Must be called from an appointed Funds Manager"
      },
      "recoverFundsETH(uint256)": {
        "notice": "Allow managing the university Funds. Must be called from an appointed Funds Manager"
      },
      "registerStudentApplication(address,address)": {
        "notice": "Register and map a Student's application to this Student"
      },
      "reinvestReturns(uint256)": {
        "notice": "Allow a Funds Manager to redirect surplus funds from liquidated positions to the endowment locked value. Irreversible"
      },
      "revokeRoleFund(bytes32,address)": {
        "notice": "Revoke role from account inside University Fund"
      },
      "spendBudget(address,uint256)": {
        "notice": "Allow a Funds Manager to send funds to Registered Suppliers, spending the operational budget set by the University owner"
      },
      "studentSelfRegister(bytes32)": {
        "notice": "Self-register function where an address can create an instance of a Student in this University"
      },
      "subStudentScore(address,int32)": {
        "notice": "Decrease a Student's score upon failed application"
      },
      "updateAddresses(address,address,address,address,address,address,address,address,address)": {
        "notice": "Update external contracts addresses"
      },
      "viewAllStudentGrantsFromGrantManager(address,address)": {
        "notice": "Allow an appointed Overseer to inspect all grants issued by a specific Grants Manager to a specific Student"
      },
      "viewAllStudentsFromGrantManager(address)": {
        "notice": "Allow an appointed Overseer to inspect all students that received grants by a specific Grants Manager"
      },
      "withdraw(uint256)": {
        "notice": "Withdraw ETH from the contract"
      }
    },
    "version": 1
  }
}